:020000040800F2
:1000000000500020B15E0008DD5D0008DF5D0008E3
:1000100000000000000000000000000000000000E0
:10002000000000000000000000000000E15D00088A
:100030000000000000000000E35D0008E55D00082E
:10004000015F0008015F0008015F0008015F000810
:10005000015F0008015F0008015F0008015F000800
:10006000015F0008ED5D0008015F0008015F000806
:10007000FD5D0008015F00080D5E0008015F0008DB
:10008000015F0008015F0008015F00080000000038
:10009000015F0008015F0008015F0008015F0008C0
:1000A000015F0008015F0008015F0008255E00088D
:1000B000355E0008455E000800000000015F000892
:1000C00010B5064C2378002B07D1054B002B02D02E
:1000D000044800E000BF0123237010BD6C00002025
:1000E0000000000014660008044B10B5002B03D07C
:1000F0000349044800E000BF10BDC04600000000F6
:1001000070000020146600080023C25C0133002A3E
:10011000FBD1581E7047000002B4714649084900DF
:10012000095C49008E4402BC7047C04603B4714666
:10013000490840004900095E49008E4403BC7047ED
:10014000002243088B4274D303098B425FD3030A16
:100150008B4244D3030B8B4228D3030C8B420DD329
:10016000FF22090212BA030C8B4202D312120902B7
:1001700065D0030B8B4219D300E0090AC30B8B42F5
:1001800001D3CB03C01A5241830B8B4201D38B03A3
:10019000C01A5241430B8B4201D34B03C01A524148
:1001A000030B8B4201D30B03C01A5241C30A8B428B
:1001B00001D3CB02C01A5241830A8B4201D38B0276
:1001C000C01A5241430A8B4201D34B02C01A52411A
:1001D000030A8B4201D30B02C01A5241CDD2C3098C
:1001E0008B4201D3CB01C01A524183098B4201D308
:1001F0008B01C01A524143098B4201D34B01C01AF3
:10020000524103098B4201D30B01C01A5241C3086A
:100210008B4201D3CB00C01A524183088B4201D3D9
:100220008B00C01A524143088B4201D34B00C01AC5
:100230005241411A00D20146524110467047FFE731
:1002400001B5002000F006F802BDC0460029F7D035
:1002500076E770477047C0468446101C62468C465D
:10026000191C634600E0C0461FB501F085F900285F
:1002700001D40021C8421FBD10B501F0DFF8404293
:10028000013010BD10B501F077F9002801DB002026
:1002900010BD012010BDC04610B501F06DF9002859
:1002A00001DD002010BD012010BDC04610B501F0D9
:1002B000FFF8002801DC002010BD012010BDC04661
:1002C00010B501F0F5F8002801DA002010BD01207A
:1002D00010BDC046002B11D1002A0FD1002900D13A
:1002E000002802D00021C943081C07B4024802A11B
:1002F0004018029003BDC0465DFFFFFF03B468468F
:1003000001B5029800F006F8019B9E4602B00CBCB5
:100310007047C046F0B557464E464546DE46E0B506
:10032000040083B00D00924699468B422FD82CD002
:100330004946504601F0CCFF29000600200001F09C
:10034000C7FF331A9846203B9B4600D574E05346BE
:100350005A4693401F005346424693401E00AF4208
:1003600029D826D05B46A41BBD41002B00DA79E0DA
:10037000002200230092019301235A4693400193E7
:10038000012342469340009319E08242D0D90022D3
:100390000023009201930C9B002B01D01C605D6038
:1003A0000098019903B03CBC90469946A246AB46E2
:1003B000F0BDA342D6D90022002300920193434608
:1003C000002BE8D0FB0772081A4346467B080EE074
:1003D000AB4201D1A2420CD8A41A9D41012024199C
:1003E0006D410021013E24184D41002E06D0AB4244
:1003F000EED9013E24196D41002EF8D15B460098DC
:10040000019900196941002B22DB2B005A46D34089
:100410002A004446E2401C005B461500002B2CDB02
:1004200026009E40330026004746BE403200801A18
:10043000994100900191AEE7424620239B1A524613
:10044000DA40414613004A468A4017001F4382E7BC
:10045000424620239B1A2A0046469A402300F34036
:100460001343D5E74246202300219B1A0022009126
:1004700001920122DA40019282E7424620232600BF
:100480009B1ADE402F00B446974066463B0033433C
:10049000C9E7C046F8B557464E464546DE46E0B584
:1004A0004702460088467F0A360EC40F002E47D00A
:1004B000FF2E24D0FB008027FF041F430023994612
:1004C0009A467F3E43465D025800DB0F6D0A000EE0
:1004D000984643D0FF283BD0EB0080250022ED0456
:1004E0001D437F383618731C41469B464B4661407E
:1004F00013430F2B64D875489B00C3589F46002FA9
:1005000042D108239946063BFF269A46DAE7414640
:10051000022A28D0032A00D1CEE0012A00D0ACE084
:10052000114000200022CCB24002D205400AE4076C
:10053000104320433CBC90469946A246AB46F8BDCA
:10054000002F15D104239946033B00269A46B9E7AC
:10055000FF200222002DC5D00322C3E7002D19D1B0
:1005600000200122BEE70124FF220C400020DBE72F
:10057000380001F08FFE7626431F9F40002376420D
:10058000361A99469A469DE70C239946093BFF2661
:100590009A4697E7280001F07DFE431F9D40762391
:1005A0005B42181A00229DE780200024C003FF222E
:1005B000BAE73D005246ABE73D0021005246A7E7AF
:1005C0003B0C9C462A04120C2B0C1400604665461A
:1005D0003F043F0C7C4342435D437B43270C9B1805
:1005E000FF18BA4203D980235B029C466544240469
:1005F0003A04240C121993015C1EA3413F0C920E85
:100600007D191A43AD0115432B0104D501235E4624
:100610006A081D40154332007F32002A25DD6B0732
:1006200004D00F232B40042B00D004352B0103D51D
:100630003200274B80321D40FE2A94DC0124A801A1
:10064000400AD2B20C406FE78020C003074207D0B7
:10065000054205D128434002400A4446FF2263E791
:1006600038434002400AFF225EE70124A31A1B2BF5
:1006700005DD0C400022002056E75E46CBE72A004D
:100680002020DA40C31A9D402B005D1EAB4113436E
:100690005A0704D00F221A40042A00D004335A010A
:1006A00004D5012401220C4000203DE701249B01D8
:1006B000580A0C40002237E780200124C003284359
:1006C0004002400A0C40FF222EE7C0463066000878
:1006D000FFFFFFF741024300C20F490A1B0E002033
:1006E0007E2B0DDD9D2B0CDC802000040143952B1F
:1006F0000ADC9620C31AD9404842002A00D10800DB
:100700007047034BD018FBE7963B9940F4E7C0468F
:10071000FFFFFF7F70B5002830D0C317C4185C40BE
:10072000C50F200001F0B6FD9E231B1A962B0DDC91
:100730009622D21A94402A006402640ADBB2640250
:10074000DB05600AD2071843104370BD992B19DCF2
:100750009922D21A002A29DD94402200144C144018
:10076000510704D00F210A40042A00D0043462014A
:1007700013D4A401640ADBB22A00E0E700220023BC
:100780000024DCE705222100121AD140B922D21A36
:100790009440621E94410C43DAE7054B2A001C404A
:1007A0009F23A4011B1A640ADBB2C8E72200D5E725
:1007B000FFFFFFFBF8B54546DE4657464E460C03A5
:1007C000E0B54E00C90F88460D00610A440F0C4386
:1007D000C70019035800DB0F9B464B0A510F0B4310
:1007E000760D400D1900D200D84500D1AEE0351A83
:1007F000002D00DCF6E000280FD1134300D1DBE030
:100800006B1E002B00D037E1BA1A9742BF41641A21
:100810007F42E41B0126170024E0C64B9E424DD0C8
:1008200080231B041943382D00DD07E11F2D00DD57
:1008300038E12020431B9A460B00504683409946DE
:1008400013004846EB401843030050468240501EB8
:100850008241E9401A43BA1A611A9742A44117002B
:1008600064420C1B230262D56402650A002D00D18C
:10087000DFE0280001F00EFD0300083B1F2B00DD28
:10088000D2E020223C00D21A9D40D4409F40254314
:100890009E4200DDC4E09E1B731C1F2B00DDF1E0B7
:1008A000202238002900D21AD840914097402C00CD
:1008B0000143781E8741DC4000260F437B0709D0A7
:1008C0000F233B40042B05D03B1DBB42BF417F4261
:1008D000E4191F0023022CD5964B01369E4200D10D
:1008E0009AE04546944BFF081C4060077605640279
:1008F0000743240B760D00212403230B0C0D8F4A94
:1009000024051C431440330523435B00ED075B08BB
:100910002B43380019003CBC90469946A246AB4692
:10092000F8BD6446044300D111E2040067467B072A
:10093000C6D145466007FF080743E4087D4B9E4249
:1009400030D024037605240B760DD4E7331A9A466B
:10095000002B78DD002831D076488642AED080204A
:10096000000401435346382B00DCE9E00A43511EE2
:100970008A410021D219BA42BF4109197C421700AD
:100980000C192302D3D56B4B01369E4200D13AE1BC
:100990000120694B1C407B0807401F43E0070743C9
:1009A00064088BE723003B4300D1CBE18022120394
:1009B00014432403240B9EE72E007FE70800104316
:1009C00000D1B4E0581E002800D0DEE0BA18BA42C8
:1009D0009B4164185B42E418170001262302A6D548
:1009E0000226D5E7002D6ED1701C4005400D012870
:1009F00000DCF9E0B81A844687428041E51A40429B
:100A00002D1A280200D489E0D71BBA4292411C1B40
:100A10005242A51AD84629E74546002400276AE72E
:100A2000454CF61A2C4049E73D0028388540002700
:100A30002EE7380001F02EFC20301DE70A43511E3E
:100A40008A41002107E7002B00D0F3E0701C43052A
:100A50005B0D012B00DCADE0364B984200D1D1E0BC
:100A6000BA18BA42BF4164187F42E419E707520836
:100A700017436408060021E72E48854200D193E021
:100A80001D00D0E629001F3EF140202B00D18DE053
:100A90004022D31A9D402F437D1EAF4100240F43B7
:100AA000002644E72B000800203BD8400300202DFF
:100AB00000D17DE04020451BA9400A43511E8A41D8
:100AC00000211A43C7E6002E50D01A4EB04257D02C
:100AD00080266B429946360434434B46382B00DD62
:100AE000D6E01F2B00DD35E12026F51A2600AE40AA
:100AF000B2463E00DE40AC46350056462E436546C3
:100B0000AF407D1EAF41DC403743D71BBA42924114
:100B10000C1B5242A41A0600D846A3E66446674658
:100B20002C4300D0A2E600250026002706E71E0081
:100B3000C4E6C046FF070000FFFF7FFFFFFF0F80F6
:100B40001F2B63DC2020C31A080098409C46834674
:100B500053461000D84003005846184363469A4055
:100B6000531E9A4153460243D94003E726003E43B1
:100B700006D0EB439946002BC7D0944EB042ACD17F
:100B80000C0017000600D84698E6904B9A450BD00B
:100B90008246E7E6002800D09EE01800104300D10E
:100BA000E9E01C001700D846884E87E6002572E76A
:100BB000002182E723003B43002E00D0ABE0002B56
:100BC00000D1E7E00B00134300D177E6BA18BA4230
:100BD000BF4164187F42E419230200D4F2E07C4B49
:100BE00017001C40060069E620003843002ED1D1D2
:100BF00000285BD11C00144300D1A8E01C001700A2
:100C0000D8465BE606000024002797E650460B0016
:100C10002038C34099465346202B00D195E040230D
:100C200050461B1A99400A43511E8A414B460021E7
:100C30001A439FE6002E30D126003E4367D0DB43A7
:100C40009A46002B1CD0614EB04260D05346382BE0
:100C500000DD96E01F2B00DD9FE02026F31A260022
:100C60009E409C46B34653463E00DE4033005E46FF
:100C70001E4363469F407B1E9F415346DC403743E3
:100C8000BF189742924164185242A418060078E6B1
:100C900027437C1EA741002437E74C4EB04236D094
:100CA00080265B4236049A463443CFE7180010434F
:100CB00000D103E6B81A84466745AD41E01A6D429B
:100CC000401B050200D42CE6D71BBA4292411C1BE4
:100CD0005242A41AD846F1E51800104300D163E748
:100CE000F808670707438020E4080003044208D09F
:100CF000DD08054205D1D208590711430F002C0029
:100D0000D8467B0FE4001C43FF00304ED6E50C00B4
:100D100017000600D2E5002B38D00B00134300D19A
:100D200042E7F808670707438020E408000304420D
:100D3000E7D0CB080342E4D1D208490711430F00A2
:100D40001C00DEE700270024D5E500216BE7002525
:100D50000027F3E54E462500203EF5404B462E0089
:100D6000202B2DD04025ED1AAC4027437C1EA741F7
:100D700000243743C9E6802400252403134E0027AE
:100D8000DCE527437C1EA741002479E70C0017000F
:100D90000E4E93E50C00170090E556462300203ECA
:100DA000F34099465346202B0ED0402356469B1BBA
:100DB0009C4027437C1EA7414B4600241F435FE70E
:100DC0000024D2E71700B2E50024F2E7FF07000095
:100DD000FFFF7FFFF0B557464546DE464E46E0B57D
:100DE0004C000E0387B0834692461D008046360BAA
:100DF000640DCF0F002C4FD06F4B9C4235D0802319
:100E0000420F1B04F600134333439946C300984630
:100E10006A4B00269C460023644403932B031B0B60
:100E20009B466B00ED0F50465B0D01955ED0624A0C
:100E3000934253D05A46D1008022400F12040243FD
:100E40000A4393465246D1005C4A944600226344CA
:100E50003800684084460290E41A16430F2E00D9E9
:100E6000B4E0574BB6009B599F4603003343994665
:100E70006CD100239846023308260393CEE7CB4675
:100E80004146039A0197022A65D1019B4A4C9C4630
:100E90000023002298466BE00300334399464ED06E
:100EA000002E00D1BCE1300001F0F4F903000B3B4F
:100EB0001C2B00DDACE11D22D31A5A460100DA409A
:100EC00008398E401300334399465B468B40984661
:100ED00000233C4C0026241A03939FE751465A46B0
:100EE000114329D1002293460232B1E7594601430A
:100EF0001ED05B46002B00D19EE1584601F0CAF996
:100F000003000B3B1C2B00DD8FE102005946083A21
:100F100091408B461D21CB1A5146D9400B005946B2
:100F20000B4351469B469140264B00221B1A8FE7EC
:100F3000002301229B468BE75146032288E70023CA
:100F40009846013304260024039367E70323B14640
:100F500003930C2662E7032A00D15CE2019B012A7D
:100F600000D0E4E113409C46002300240022984670
:100F700000211203130B0A0D12051A432305124C0C
:100F800040462240134362465B00D2075B0813438E
:100F9000190007B03CBC90469946A246AB46F0BD4E
:100FA000002380229C4612039846034CE0E700236E
:100FB000014C00229846DBE7FF07000001FCFFFF21
:100FC000706600080DFCFFFFFFFF0F80D94500D9B8
:100FD00039E100D134E1002346464D469A46013CB2
:100FE0005B460A0E1B021A430B02170C03931304F1
:100FF0001B0C3900280090460193FFF7A1F802006E
:10100000019B83465A43280039009146FFF71EF999
:10101000350C09040D43A9450DD95B464544013BF8
:10102000A84500D93AE1A94500D837E102235B423F
:101030009C464544E3444B46EB1A390018000493A0
:10104000FFF77EF8019B0500434339000498994659
:10105000FFF7FCF8330409041B0C0B43994509D92D
:1010600043446A1E984500D91AE1994500D817E112
:10107000023D43444A469B1A5A4612042A430399A6
:101080009346100C0A0C914609045A46090C4E4628
:101090000D001204120C45430591514372437043F5
:1010A00052190E0CB218954203D980256D02AC4638
:1010B0006044150C09041204090C281852188342C4
:1010C00000D2CEE000D1C8E01D1A53469E1AB245A8
:1010D00092415242AB1A9A46984500D117E1390025
:1010E0001800FFF72DF8019B0500434339005046D7
:1010F0000493FFF7ABF804980B04310C19438842B2
:1011000009D941446B1E884500D907E1884200D8BF
:1011100004E1023D4144049BCB1A180039000493BA
:10112000FFF70EF8019B8246434339000498019370
:10113000FFF78CF801980B043104090C194388421D
:101140000DD953464144013B884500D9E8E0884227
:1011500000D8E5E002235B429C464144E244019B07
:101160002D04CE1A51462943059D4F462A000B04F3
:10117000080C1B0C5A4345437B4378435B19170CFF
:10118000FB189D4203D980256D02AC4660441D0CBE
:1011900012041B04120C28189B18864200D293E0FC
:1011A00000D18EE001231943A04BE318002B00DC93
:1011B00099E04A0700D09EE05A46D20106D55A4629
:1011C0009B4B1A4080239346DB00E318994A9342D5
:1011D00068DD0123029A984C1A40002394469846F1
:1011E0000022C5E680224B46120313420AD05B461A
:1011F000134206D11A431203120BAC4688468E4C9A
:10120000B6E64B461A431203120BBC468A4CAFE6B5
:1012100003005A46283B9A4000239146984657E6D9
:10122000584601F037F8203040E603005246283B8C
:101230009A400021934677E601F02CF820305FE6D3
:10124000884500D2C7E64B46DE075D0843465B088B
:101250001E434346DB079A46C2E60025924500D36B
:1012600033E7039E5946B446E244B245AD416D4270
:101270004544EB180139984507D2984200D97FE0E0
:1012800000D1BCE01D1A8B461FE79845FAD1039D9B
:101290005545F2D943468B461D1A16E79B46CAE6CA
:1012A0001500E7E65A46C90852070A435B0590460F
:1012B0005C0D5A460123029952021940120B8C46CA
:1012C00056E6002B00D16FE746444A1EB04529D9A7
:1012D0001100864200D065E7039A934200D061E78F
:1012E00062E7012149420120C21A382A21DD029B0E
:1012F00003409C4638E60F220A40042A00D15BE7EF
:101300000A00111D914292415242934454E7474BC7
:10131000E318002BE5DD01225242F2E71D00FAE658
:101320009A461CE7B04239D86ED011003AE70293D2
:101330003AE71F2A3CDC20239B1A0C0058469940B0
:1013400098404B1E99415B46D440D340204308430C
:101350001A00430709D00F230340042B05D00100D6
:10136000081D88429B415B42D21813023AD50123E3
:10137000029A01241A400023944698460022F7E579
:10138000022149428C46039DE344AC46E244AA450F
:10139000AD416D424544ED182D1A96E68A1E03991B
:1013A0004D008D42894149424144761803958FE7AB
:1013B0001F204042C31A5846D8400300202A28D094
:1013C00040205D46821A954029434A1E91411943A7
:1013D000072300220B4009D00F2300220B400800F6
:1013E000042BBDD1010053075202120BC908194347
:1013F000012388460299002419408C46B8E55245DD
:10140000BED88B46002560E6039D9D42C6D31100E1
:1014100062E70025D8E780225B4612031A43019B4E
:101420001203120B9C468846034CA1E5FF03000003
:10143000FFFFFFFEFE070000FF070000F0B54F466C
:101440004646D6465C00C0B51F03DB0F9A46174BD5
:101450000E034D0084468046360B6D0DC90F914634
:101460003F0B640D01209D4208D09C4201D0A54253
:101470000BD01CBC90469946A246F0BD6346334350
:10148000F7D1AC42F5D13A43F3D10120BE42F0D1BD
:10149000C845EED1514507D0002DEAD163461E4321
:1014A0003000461EB041E4E70020E2E7FF070000FD
:1014B000F0B54546DE4657464E46E0B51F033D0BA8
:1014C0002C4F0E034C00AB465D008446360B640D7A
:1014D000C90F90466D0DDB0FBC422AD0254FBD428F
:1014E0002DD0002C0FD1304307008146784278413F
:1014F000C0B2002D17D15F463A4314D14B460020AD
:10150000002B0AD006E0002D02D15846024301D03C
:10151000994218D04842012108433CBC9046994664
:10152000A246AB46F0BD0028F2D00120013B184393
:10153000F3E737000743D1D002204042EDE75F4692
:101540001743CED0F8E7AC42E4DC03DA481E0121B1
:101550000843E2E75E45DDD806D000205E45DCD2D8
:101560000123481E1843D8E7C445D3D80020C445FA
:10157000F6D3D2E7FF070000F0B54E464546DE46FB
:1015800057465C00E0B51F03DB0F99462A4B0E035C
:101590004D00C90F8446360B6D0D8B4690463F0BB0
:1015A000640D9D4220D0244B9C4222D0002D12D1AC
:1015B000304343424341DBB2002C1FD0002B0CD000
:1015C0004B460120013B034318003CBC9046994622
:1015D000A246AB46F0BD002C16D0CB4517D05B46DB
:1015E000594201230B43EFE7310002230143EBD1C2
:1015F000D9E7390002231143E6D1D7E73A43DDD1D9
:1016000000230028E0D0EAE73A43E6D1E7E7A54225
:10161000E5DC05DBBE42E2D807D00023BE42D3D2D0
:101620005946012301390B43CEE7C445D7D80023DF
:10163000C445F5D3C8E7C046FF070000F0B55746DC
:101640004546DE464E46E0B50C0398464E00230B59
:1016500087B0070092469B46760DCD0F002E6BD0CB
:101660006D4B9E4235D080245B46420F2404DB0044
:1016700014431C43C3009946684BA3469C46002371
:1016800000276644029343461C035A00DB0F504672
:10169000240B520D984600D176E05F4B9A426DD0F4
:1016A0008023410F1B040B435C49E4008C461C4320
:1016B000C300002062444146B6186940721C019183
:1016C000944607430F2F00D9B0E0554ABF00D259C6
:1016D00097465B460343994600D087E000239B462C
:1016E000023308270293CEE742460192022867D0D0
:1016F000032800D10EE2012800D062E1002300247B
:101700000022994601990140CDB2002112030B0D30
:10171000120B1B051343434A240513401C4364006A
:10172000ED0764082C434846210007B03CBC9046B6
:101730009946A246AB46F0BD034399464FD05B465F
:10174000002B00D189E1584600F0A4FD03000B3BBB
:101750001C2B00DD7AE11D22D31A3A0001005C4601
:10176000DA4008398C4013008F4023439B46B9462A
:1017700000232D4E0027361A029384E75346234355
:101780002AD10024022096E75346234320D0002C80
:1017900000D157E1200000F07DFD03000B3B1C2B26
:1017A00000DD49E11D21CB1A51460200D9405346C4
:1017B000083A944093400C431B4A121A00207AE7DF
:1017C0000125019B144C1D400023002299469CE7F3
:1017D0000024002201206EE7534603206BE700231C
:1017E0009B4601330427002602934CE703238146DE
:1017F0000C27029347E78022002300251203994615
:10180000054C82E75C464B4602986FE75C464B46C8
:10181000019502986AE7C046FF07000001FCFFFF40
:10182000B0660008FFFF0F800DFCFFFF4A464946E7
:10183000170C1A0C1B041B0C08041900000C414364
:101840001500884619007D43794303958946290090
:10185000150045434D44029545462D0CAA46029D70
:101860005544A94506D98A46802149028946CA4479
:1018700051460391290C0491414609042D04090C99
:1018800088462900250C24044144240C059121009C
:1018900041438846210079438A4668434146504483
:1018A0008146080C48446F43824503D98021490290
:1018B00089464F44010C894639004944029141460A
:1018C0000F0404993F0C88460004C0198044414627
:1018D000049159460F0C0904090C884659438A465D
:1018E00039005143894641464A435146090C8B46CB
:1018F0007B43D2185A44934203D980235B029B4610
:10190000D94451460904090C8A46414661437C4347
:10191000130C12044B445244A1468A463C004146F3
:101920006C434D4351464D440F0C7D19A94503D9D5
:101930008021490288464444049F0399B8464144A3
:101940008B468345804141428846514608042F0416
:10195000000C3F185846029910188946904292414F
:101960004F44BA46524299469346C244D144CB446E
:101970008F42BF41C245894199459B419345924160
:101980007F4249422D0C52420F435B4213437F1961
:10199000FF185B463C19DB0D059A64021C434302A9
:1019A00013435D1EAB415A46C00D0343520213431D
:1019B000E20156D501205A0803401343E2071343BE
:1019C00064085A48604400284DDD5A0709D00F22A8
:1019D0001A40042A05D01A1D9A429B415B42E41822
:1019E0001300E20104D58020514AC0001440604435
:1019F000504A904200DDE3E60125DB0862071A4306
:101A00006402019B9146220B4405640D1D407CE657
:101A1000802259461203114208D0144206D12243B3
:101A20001203120B45469946434C6EE65B461A4339
:101A30001203120B404C68E603005446283B9C40BE
:101A40000023B9E600F026FC2030A6E60300283B80
:101A50009F400023BB4699468AE600F01BFC2030DD
:101A600074E6B446ADE701252A1A382A06DD019B43
:101A700000241D4000230022994646E61F2A21DC4F
:101A800020252000AD1A1E00AB40A840D6405D1EA8
:101A9000AB4130431843D440430709D00F230340E0
:101AA000042B05D00300181D98429B415B42E418AB
:101AB000230221D50125019B01241D400023002282
:101AC000994622E61F2521006D42281AC1400800D0
:101AD000202A1DD05F35AA1A944023435C1EA341DF
:101AE000072503431D400022002D09D00F220024AA
:101AF0001A401800042AD6D1030065076402220B9D
:101B0000DB082B4301259946019B00241D40FCE581
:101B10000024E2E7802201251203224301991203E7
:101B2000120B0D409946044CEFE5C046FF03000040
:101B3000FFFFFFFEFE070000FF070000F0B546466E
:101B4000D6464F460C03C0B5CD0F4E00610A440F78
:101B50000C43C1005800400D84468A460F0019030B
:101B6000500F490A0143C648760DA846DB0FD20044
:101B7000844500D1D8E001204340AB4200D1A6E02B
:101B80006046351A002D00DC05E1002810D10B005D
:101B9000134300D1D7E06B1E002B00D04BE153461E
:101BA0009F1ABA458041641A4042241A01261EE059
:101BB000B34B9E4248D080231B041943382D00DDCF
:101BC00019E11F2D00DD4CE120230F005B1B1000ED
:101BD0009A409F40E840531E9A41E940074317430B
:101BE0005346DF1B611ABA45A44164420C1B230211
:101BF00000D4C5E06402650A002D00D1F6E028009B
:101C000000F048FB0300083B1F2B00DDE9E0202229
:101C10003C00D21A9D40D4409F4025439E4200DDA7
:101C2000DBE09E1B731C1F2B00DD0AE12022380025
:101C3000D21A290097402C009140D8407A1E974133
:101C4000DC40002601430F437B0709D00F233B40B4
:101C5000042B05D03B1DBB42BF417F42E4191F004E
:101C6000230225D5864B01369E4200D1AFE0854B3D
:101C700001251C4043466207FF08640276051743AE
:101C8000240B760D1D4000212403230B0C0D7E4AEE
:101C900024051C431440330523435B00ED075B0818
:101CA0002B43380019001CBC90469946A246F0BD53
:101CB000012543466207FF081743E4081D40704BA7
:101CC0009E4236D024037605240B760DDBE763466F
:101CD000F31A002B00DC94E06046002835D06848F9
:101CE0008642B1D080273F043943382B00DCFDE029
:101CF0000A43170000217A1E9741574457458041F7
:101D0000091944420C1923023AD55D4B01369E4213
:101D100000D14BE101225B4B1C407B0817401F4365
:101D2000E207174364088FE70800104300D024E758
:101D300021E723003B4300D1B9E180221203144381
:101D40002403240B9FE72E007EE70800104300D1F8
:101D5000CAE0581E8446002800D0E7E052445245AD
:101D6000804164184042241817000126230207D539
:101D70000226CFE764462C4300D1B3E12C0067462E
:101D80007B0700D062E76307FF081F430125434636
:101D9000E4081D4093E7002D78D1751C6D056D0D8D
:101DA000012D00DCF2E05046801A8245BF41651AE1
:101DB0007F42ED1B8446280200D48CE05046171A5F
:101DC000BA4292410C1B5542651B984614E7012507
:101DD000434600241D40002755E72A4CF61A2C40A4
:101DE00032E73D0028388540002717E7380000F02B
:101DF00051FA203006E70A43170000217A1E974166
:101E0000EEE6002B00D0E5E0731C9C465B055B0D05
:101E1000012B00DC9FE01A4B9C4500D1C5E05244E9
:101E200052458041641840422418E707520817437E
:101E30006408664608E71248854200D185E01D0027
:101E4000BCE629001F3EF140202B00D17FE040225C
:101E5000D31A9D402F437D1EAF4100240F4300261F
:101E60008EE72B000F00203BDF40202D71D0402358
:101E70005D1BA9400A43511E8A4100211743AFE66A
:101E8000FF070000FFFF7FFFFFFF0F80002E3ED007
:101E9000B34EB44545D0802636046D423443382DC8
:101EA00000DDA8E01F2D00DD1FE1202627005046A1
:101EB000761BB740E84007435046B040461EB0414D
:101EC000EC403843171ABA4292410C1B5242A41AF2
:101ED000664698468BE6644667462C4300D08BE600
:101EE000002500260027EAE61E00ADE61F2B60DC79
:101EF0002027F81A0F00844687401000D840074377
:101F000060468240501E8241D9401743F5E62600C4
:101F10005046064305D0ED43002DD3D0904EB44536
:101F2000BDD10C001700664698468DE68C4883426A
:101F30000BD06346D9E6002D00D096E00800104390
:101F400000D1E2E00C0017009846854E7CE60025A3
:101F500080E700218EE7230050460343002E00D087
:101F6000A8E0002B00D1DEE00B00134300D16BE6AC
:101F700052445245804164184042241817002302FD
:101F800000D4FDE6774B66461C405DE625005046D2
:101F90000543002ECFD1002D4FD10C00144300D1AA
:101FA000A0E00C00170098464EE666460024002785
:101FB00085E61F000800203FF8400700202B00D1D5
:101FC0008EE04020C31A99400A43511E8A410021E5
:101FD000174392E6002E14D126005046064362D0E5
:101FE000DB43002B5CD18718974292416418524220
:101FF000A418664687E650462043441EA0410024AC
:1020000060E7574EB4454ED0802636045B423443D9
:10201000382B00DD7FE01F2B00DD8BE02026270022
:102020005046F61AB740D84007435046B040461EC7
:10203000B0410743DC40BF18D6E70D00154300D17F
:1020400002E65046801A8245BF41651A7F42ED1B69
:102050008446280200D48DE65046171ABA429241AF
:102060000C1B5242A41A9846EEE50D00154300D110
:102070006BE750466707C00807438020E408000369
:10208000044207D0CD08054204D12C009846D70859
:1020900049070F437B0FE4001C43FF00304ED3E59C
:1020A0002F4EB445B4D10C0017006646CCE500278E
:1020B0000024E8E5002B39D00B00134300D144E79E
:1020C000C008670707438020E40800030442E1D00A
:1020D000CB080342DED1D70849070F431C00D9E7DC
:1020E000002171E700250027E9E52E002700203EAA
:1020F000F740202D2FD04026751BAC405046204382
:10210000441EA04100243843DCE68024002524033B
:10211000134E0027D3E5504620430700781E874121
:102120000024BF1860E70C0017008DE50C001700B5
:102130000B4E89E51E002700203EF740202B0CD0D7
:102140004026F31A9C4050462043441EA0410743BA
:102150000024BF1848E70024D0E70024F3E7C04676
:10216000FF070000FFFF7FFF70B50E4E0D031C033D
:1021700049005B002D0B490D240B5B0DB14204D0CF
:10218000084900208B4208D070BD05430120002D76
:10219000FAD1044900208B42F6D114432000441E9A
:1021A000A041F1E7FF07000030B5134D0A034B00D3
:1021B000120B5B0DC90F0024AB4210DD0F4CA34284
:1021C0000FDC80240E4D64032243ED1A1F2D0BDD1E
:1021D0000C48C31ADA405442002900D114002000F0
:1021E00030BD094BCC18FAE7084CE840A4466344DC
:1021F0009A400243EFE7C046FE0300001D040000C2
:102200003304000013040000FFFFFF7FEDFBFFFF1E
:1022100070B5002830D0C317C4185C40C50F20002B
:1022200000F038F8174B184A1B1AD21A1F2A18DD6B
:10223000164AD21A9440002224035B05240B5B0D3E
:102240000021100024030A0D240B12052243104C18
:102250001B05224013435B00ED075B082B4319006D
:1022600070BD210091400A000B21081AC4405B0593
:102270002403240B5B0DE3E7002500230024002248
:10228000DEE7C0461E040000330400001304000013
:10229000FFFF0F801C2101231B04984201D3000C77
:1022A00010391B0A984201D3000A08391B099842C9
:1022B00001D30009043902A2105C40187047C046DF
:1022C00004030202010101010000000000000000FF
:1022D00010B5002903D1FFF7DDFF203002E0081C14
:1022E000FFF7D8FF10BDC046FA210A4B70B5890030
:1022F00005001868FDF724FF00F0B4FC040001207D
:10230000002C05D102382200290000F05FFC2000DB
:1023100070BDC046000000200223084A10B51168B5
:1023200000200B431360FFF7DFFF041E03D103F00F
:1023300001FC200010BD0124FBE7C0460020024044
:10234000024A1368013313607047C046B000002092
:10235000014B18687047C046B000002070B50400FB
:10236000FFF7F6FF631C5A1E93410500E418FFF7C0
:10237000EFFF401B8442FAD870BD0000084B13B534
:10238000040008491868FDF7DBFE44430194019BF3
:10239000002B00D113BD019B013B0193F7E7C04621
:1023A0000000002040420F000321036870B59A68C6
:1023B00004000A40012A0DD1196811420AD00020F8
:1023C00070BD10230120626D13436365A36D034349
:1023D000A365F5E799680F4A1142F2D101259A6881
:1023E00028002A439A60FFF7C9FFFFF7B1FF0600F4
:1023F00023681B682B42E2D1FFF7AAFF801B0A2843
:10240000F6D91023626D012013436365A36D1D434C
:10241000A565D5E717000080F7B504000120002C62
:1024200000D1D1E0694B22689A4204D0CE2168489D
:10243000490003F07EFB6268664B134016D0802093
:1024400051004908C005814210D0802109068A4206
:102450000CD080225203934208D0802292039342F0
:1024600004D09E215A48FF3103F063FB1823A26871
:102470009A4304D0CF215648490003F05AFB202349
:10248000E2689A4304D0A0215148FF3103F051FB88
:102490002369013B012B04D9D0214D48490003F0A9
:1024A00048FB661CF37F012B04D9A2214848FF3169
:1024B00003F03FFBA31C0193DB7F012B04D9D12147
:1024C0004348490003F035FB434BA26A1A4204D04B
:1024D000A4213F48FF3103F02CFB636A402219001E
:1024E00018009143803290430FD0802252009142D5
:1024F0000BD08032934208D0C13BFF3B012B04D963
:10250000D2213348490003F014FB23002C331B78FD
:10251000012B04D9A6212E48FF3103F00AFB042227
:102520006369043B934304D0D3212948490003F055
:1025300000FB2A4B226B1A4204D0A8212448FF3109
:1025400003F0F7FAA369012B04D9D42120484900EC
:1025500003F0EFFA636B012B04D9AA211C48FF3169
:1025600003F0E7FAE369012B04D9D52118484900A3
:1025700003F0DFFAA36B072B04D9AC211448FF3119
:1025800003F0D7FAE36B012B04D9D6211048490098
:1025900003F0CFFA636D002B06D122005032A36501
:1025A0002000137003F0D4FA636DDB0604D4042317
:1025B00022689168194013D01023626D01201343E3
:1025C0006365002350342370FEBDC04600240140E3
:1025D000F0660008FFFFF3FFFFF3FFFFFFEFFFFFD1
:1025E000636D6A48184002230343636503239068C0
:1025F0001840674B012802D1176807421AD180257D
:102600006768ED0578004008A84204D080200006E5
:10261000874200D09EE01069800080081061106938
:10262000074317611827D068A568B843D060D06801
:102630002843D0601A68574802401A60626B1868D5
:10264000520602431A60802322685B059068184294
:1026500002D1906803439360D3684F4803402069D8
:10266000D360D768E368022800D10421256BF07F8E
:102670002B43A5693B43AE03E5693343EE03334384
:102680004603334326002C363678760033430B431B
:10269000C221D360636AFF318B4204D0A56AD1683E
:1026A0002B430B43D360A31CDB7F012B06D10028F7
:1026B0005CD18023D1685B020B43D360E36B012BB9
:1026C0005CD1216C1C2905D8344ACA409343DBB243
:1026D000002B04D093213248890003F02AFA636C5E
:1026E00060221900914309D0802907D0802252002E
:1026F000934203D02B492A4803F01BFA2A4BA26CC1
:102700001A4203D02949264803F013FA22682849BF
:102710001369606C0B401361236C11690343A06C57
:1027200003430B431361012311690B431361072119
:10273000236800205A698A435A615A69A16B0A4387
:102740005A610322A065636D93431A00012313436A
:10275000636539E71069174D8000800810611868BB
:1027600028401860186807431F605BE72021606DF0
:1027700001436165A16D0B43A3659FE701211369C7
:102780000B42D4D013698B43D0E7C046FDFEFFFF58
:1027900008270140FFFFFFFD1902FEFF1111111173
:1027A000F06600084D020000FFFDFFFF4E02000032
:1027B00003FCFFFFFFFFC3FFF7B5244B0192026844
:1027C00004000F009A4203D02149224803F0B1F9D6
:1027D000236802209B685B0730D42600503633788C
:1027E000012B2BD001233370E369012B27D1636DBB
:1027F000194A00251A4080235B0013436365E06C8F
:10280000164BA5653570C362154B21680363154BE4
:1028100043631C230B604A680C3B13434B6001234A
:10282000CA681343CB603A004031019B00F0F8FACC
:1028300004232800226891680B439360FEBD2000AA
:10284000FFF7B2FD0028F9D1D1E7C04600240140CE
:10285000D9050000F0660008FEF0FFFF6D280008B3
:10286000DF280008ED280008704700005022836A26
:1028700010B5596D11422BD1596DB132FF320A4357
:10288000C0215A651A680901D068084213D1591C41
:10289000C97F00290FD1116809070CD59168490734
:1028A0000DD40C205168814351605A6D0A49114082
:1028B00001220A435A651800FFF7D6FF10BD2022F7
:1028C000596D0A435A650122996D0A439A65F2E7E8
:1028D000DB6C5B6B9847F1E7FEFEFFFF704710B5BE
:1028E000806AFFF7FBFF10BD704770474023806A86
:1028F00010B5426D134343650423826D1343836512
:10290000FFF7F3FF10BD0000444B026870B50400F0
:102910009A4203D04249434803F00BF9651CEB7F10
:10292000012B03D940493F4803F003F904226369AE
:10293000043B934303D03D493A4803F0FAF804229C
:1029400023681968114202D05968114206D1082241
:10295000196811422BD05968114228D0626DD206F5
:1029600004D48022616D92000A436265C022D96856
:102970001201114212D1EA7F002A0FD11A68120700
:102980000CD59A6852073FD40C215A688A435A6082
:10299000636D274A1A400123134363652000FFF744
:1029A00063FFA369012B02D00C2223681A608025E3
:1029B00023681A682A420CD05B682B4209D0802316
:1029C000626D5B02134363652000FFF78DFF236890
:1029D0001D60102223681968114214D059681142F1
:1029E00011D0226B002A02D0DA68D20708D5022261
:1029F000A16D20000A43A26510221A60FFF775FF3F
:102A0000102223681A6070BD2023626D1343636532
:102A10000123A26D1343A365C0E7C0460024014013
:102A200094060000F0660008950600009606000077
:102A3000FEFEFFFF4B4B026870B505000C009A428A
:102A400003D04949494803F074F82368012B36D074
:102A5000474A934233D0474A934230D0464A934242
:102A60002DD0464A93422AD0454A934227D0454A20
:102A7000934224D0444A934221D0444A93421ED0E8
:102A8000434A93421BD0434A934218D0424A93424E
:102A900015D0424A934212D0414A93420FD0414A44
:102AA00093420CD0404A934209D0404A934206D008
:102AB0003F4A934203D03F492C4803F03AF86368F9
:102AC0003D4A9B18012B04D9F0212848C90003F086
:102AD00030F82E00503633780220012B0BD02A68B4
:102AE0000138936830705B0706D520236A6D134365
:102AF0006B650023337070BD8020304965682368A2
:102B0000C0028D421BD0956A5903490B294391623B
:102B1000034208D080232A4A1B0411680A200B4371
:102B20001360FFF72BFC23689B0305D58023244A01
:102B3000DB0311680B43136000203070DBE7916A00
:102B40005C03640BA1439162034204D01C491D48FD
:102B50000A6802400A609B03EED5194A1A491368B5
:102B60000B40E8E7002401407E070000F066000803
:102B700002000004040000080800000C100000100F
:102B800020000014400000188000001C00010020FC
:102B900000020024000400280008002C001000306F
:102BA00000200034004000380080003C0000044851
:102BB000000002447F07000000F0FFFF011000004A
:102BC00008270140FFFF7FFFFFFFBFFF70B5040034
:102BD0000D00032903D98721164802F0AAFFA90195
:102BE000002C14DA0F23E4B22340083B124A9B085E
:102BF0009B009B18032214409440FC3215000A40AD
:102C0000A540A240D869A8430243DA6170BD0325FC
:102C1000A3082C40AC40FC352E00084A9B009B18B2
:102C2000C022A6402940A14092009858B0430143D9
:102C30009950EBE72867000800ED00E000E100E0B4
:102C400010B5041E03DA9721044802F072FF1F2317
:102C50001C401E3BA340024A136010BD28670008B9
:102C600000E100E0094A431E012093420DD8C02133
:102C7000074A08485360036A09061B021B0A0B43F4
:102C8000036200200723906013607047FFFFFF007E
:102C900010E000E000ED00E0F8B504000120002C99
:102CA00000D19EE023684F4A934215D04E4A93428A
:102CB00012D04E4A93420FD04D4A93420CD04D4A07
:102CC000934209D04C4A934206D04C4A934203D0D7
:102CD00096214B4802F02DFF63680A2B06D90C3B66
:102CE000032B03D99721464802F023FFA368102243
:102CF0001900914307D08022D201934203D098213A
:102D00003F4802F016FF4023E2689A4303D099211E
:102D10003B4802F00EFF802322699A4303D09A2198
:102D2000374802F006FF6369364A134207D0802213
:102D30009200934203D09B21314802F0FAFEA3692E
:102D4000314A134207D080221201934203D09C21C2
:102D50002B4802F0EEFE2023E2699A4303D09D2126
:102D6000274802F0E6FE294B226A1A4203D09E2130
:102D7000234802F0DEFE2568254B1421E818FDF7F4
:102D8000DFF9244B800023640223A21D6064D37703
:102D90002E68214BA1681E40E36827690B433B4323
:102DA00067693B43A7693B43E7693B43276A3B436A
:102DB00033432B608023DB0199420CD01C25284033
:102DC0000D3D854015490B68AB430B6063680D688A
:102DD00083402B430B6000200123E0630534D3774D
:102DE000E077F8BD080002401C00024030000240BD
:102DF00044000240580002406C0002408000024043
:102E000063670008FFFEFFFFFFFBFFFFFFCFFFFF31
:102E1000F8FFFDBF000002400F80FFFFA800024046
:102E2000F7B515001F005A1E234B04000E009A42EE
:102E300004D9AB212148490002F07BFE631DDA7FF3
:102E40000220012A2AD00122DA77A21D9446D27FDD
:102E50000021D2B2012A2CD16346D8772368E163DE
:102E600019681A3091431960216C0191616C084016
:102E7000824001994A60A2685F602168102A0ED1E1
:102E80009D60DE60226B002A0CD00E22186802437F
:102E90001A60012300200A6813430B60FEBD9E6088
:102EA000DD60EFE704201A6882431A6018680A227E
:102EB000EDE7D977F2E7C046FEFF00006367000840
:102EC00070B5841DE37F022B04D00423C363033B4E
:102ED000180070BD0E210368456C1A688A431A6099
:102EE00001221968914319601C232B4015009D4055
:102EF000016C431D4D60E2770024826BDC77130088
:102F0000A242E5D090472300E2E7F8B51C2204274F
:102F1000466C016C32403E0096400D6803681C68A8
:102F20002E420DD03C420BD01A68920602D41A6889
:102F3000BA431A60036B4E60002B19D0984717E014
:102F400002273E0096402E4213D03C4211D01A6810
:102F5000920606D40A241A68A2431A600122831D2D
:102F6000DA770022431D4E60DA77C36A9342E5D1D7
:102F7000F8BD0826370097403D42F9D03442F7D0DB
:102F80000E251C68AC431C6001231C009440821D6C
:102F90004C60C363D3770022431DDA77436BE5E7C8
:102FA0004B68F7B504000D00032B12D91A00113A33
:102FB000012A0ED9854A86491A40521885490A4283
:102FC00007D0854A9B180B4203D0AE21834802F0FC
:102FD000B0FDAB68022B03D9AF21804802F0A9FDF8
:102FE000A023DB059C420BD07D4B9C4208D07D4B3F
:102FF0009C4205D07C4B9C4202D07C4B9C4207D12A
:103000002B689AB2002A03D0794A134393420DD019
:10301000784B9C4206D12B68774A134202D0134367
:10302000934203D0B0216D4802F083FD00272B6846
:103030001A00FA4000D1F7BD0122BA4001921A40AD
:10304000009200D1C0E010226B689343022B2CD178
:10305000A023DB059C4212D0614B9C420FD0614BF8
:103060009C420CD0604B9C4209D0604B9C4206D0E5
:10307000604B9C4203D0BF21584802F05AFD2B6997
:10308000072B03D9C021554802F053FD07220F201A
:103090003A4092009040FB089B00E318196A814374
:1030A0002869904002000A431A6210226B687E0071
:1030B0009343013B012B19D8EB68032B03D9CE2195
:1030C000464802F036FD0322B240A3680121934333
:1030D0001A00EB68B3401343A3606268019B9A43F4
:1030E0006B681B090B40BB401343636003239C4682
:1030F000B34061466A68DB431140B1402068184024
:1031000001432160E1681940AB68B3400B43E360C1
:10311000D30059D5012039490F264B6B0343604634
:103120003840800086404B63354BB9088900C91888
:103130008B68B343A0260193F6050023B44214D054
:10314000274E0133B44210D0264E0133B4420CD086
:10315000254E6346B44208D0244E0133B44204D015
:10316000284BE3185E1EB3410533834001980343A7
:103170008B602549009B0E68D84333439C46D3039C
:1031800002D4330003409C4663460B604E68009BAC
:1031900033439C46930302D4330003409C4663466A
:1031A0004B608E68009B33439C46D30202D43300AD
:1031B00003409C4663468B60CE68009B334392027B
:1031C00001D433000340CB60013730E7FFFFDFFF5E
:1031D0000000EFEFFFFFFEFF0000DFEF9B6700083E
:1031E0000004005000080050000C00500010005077
:1031F000FFFF0000001C005003060000001002400A
:103200000000014000E4FFAF00040140A02370B5BE
:10321000DB0504000D00160098420BD0154B9842B8
:1032200008D0154B984205D0144B984202D0144B4D
:1032300098420AD1002D12D0012E16D99E21114894
:10324000FF3102F076FCA56170BD0F4B984206D1AC
:103250000E4B194203D01A000A439A42ECD0CE21F9
:103260000848490002F065FCE6E7002EEBD1A562B4
:10327000EAE7C0460004005000080050000C00506F
:10328000001000509B670008001C0050030600005F
:10329000A02370B5DB0504000D0098420BD0114B44
:1032A000984208D0104B984205D0104B984202D05B
:1032B0000F4B984205D1002D0DD063695D406561CB
:1032C00070BD0C4B984206D10B4B194203D01A002B
:1032D0000A439A42F1D0DA210848490002F029FC59
:1032E000EBE7C0460004005000080050000C0050FE
:1032F00000100050001C0050030600009B670008EF
:1033000003689A69920701D500229A62012299699D
:10331000114202D199690A439A617047F7B51E00BC
:10332000019203681D4A07000C00089D934209D0D2
:103330001B4A934206D01B4A934203D01A491B48AA
:1033400002F0F7FB80239B049E4206D0184B1E42DE
:1033500003D01849154802F0ECFB174B9D420AD0E8
:10336000164B174A2B40934205D0002D03D0154928
:103370000E4802F0DEFB0199A405A40D26430C04BF
:1033800080213A682E43C9006D0D0D400E495368E7
:103390000D43AB4326431E435660F7BD0054004027
:1033A0000058004000780040AC180000D4670008C6
:1033B000FFFFFFFEAD18000000400080FFFBFFFF95
:1033C00000200080AE180000FF63FF03F8B5040082
:1033D0000E0017001D002268936933409B1B594261
:1033E0004B41BB4201D0002017E06B1CF4D0FEF72C
:1033F000AFFF069BC01A854201D3002DEBD12022DE
:10340000636C012013436364230041331A7022006C
:1034100000234232403413702370F8BDF8B50368BE
:103420000400986910230E0017001840202500287A
:1034300018D1F8BD721C16D0FEF78AFFC01B864259
:1034400001D3002E0ED12022636C1343636423004A
:1034500041331A702200002342324034137001209D
:103460002370E6E723689A692A42E3D010222000FD
:10347000DA61DD61FFF744FF2268064953680B40BB
:1034800053600423626C13436364230041331D7053
:10349000E0E7C04600E800FEF8B504000D001600A5
:1034A000022723689B693B4201D00020F8BD32000F
:1034B00029002000FFF7B2FF002815D16B1CF0D0C7
:1034C000FEF746FF801B854201D3002DE9D1202263
:1034D000636C13436364230041331A70220000239A
:1034E00042324034137023700120DFE773B51400BB
:1034F0001E00DAB2154B0500009380235B04FFF732
:103500000DFF079A06992800FFF7C6FF002801D093
:10351000012076BD2B68012E0DD1E4B29C62079B81
:10352000002200938021069B2800FFF74FFF431ED7
:103530009841C0B2EDE7220A9A620699079A2800DC
:10354000FFF7AAFF0028E3D12B68E6E70020008000
:1035500073B5050014001E00DAB2154B009300236A
:10356000FFF7DCFE079A06992800FFF795FF002871
:1035700001D0012076BD2B68012E0DD1E4B29C62F2
:10358000079B002200934021069B2800FFF71EFFA7
:10359000431E9841C0B2EDE7220A9A620699079A43
:1035A0002800FFF779FF0028E3D12B68E6E7C04643
:1035B00000200080F8B504000D00160020272368C5
:1035C0009B693B4201D00020F8BD32002900200059
:1035D000FFF724FF002813D1FEF7BAFE801B8542B7
:1035E00001D3002DEBD12022636C134363642300CD
:1035F00041331A702200002342324034137023708A
:103600000120E1E770B504000120002C00D18AE020
:1036100023684A4A93420AD0494A934207D0494A0A
:10362000934204D0EF214848490002F082FA474B08
:10363000A2689A4204D9E0214348FF3102F079FAA6
:10364000E368013B012B04D9F0213F48490002F017
:1036500070FA3F4E2369334204D0E2213A48FF31E9
:1036600002F067FA6369FF2B04D9F121364849005B
:1036700002F05FFAA369072B04D9E4213248FF3135
:1036800002F057FA334BE2691A4204D0F2212E4875
:10369000490002F04EFA304B226A1A4204D0E62169
:1036A0002948FF3102F045FA250041352B78DBB27D
:1036B000002B05D1220040321370200002F098FA4E
:1036C000242301212B702368A0681A688A431A609A
:1036D0006168224A0A401A619A68E16832409A6039
:1036E000012921D18022120202439A6059681C4AA2
:1036F00000200A435A60DA68616916402269DE6078
:103700000A43A16909020A43DA60216AE2690A43AD
:103710001A60012219680A431A60202360642B7022
:1037200020634234207070BD8422120202439A60EA
:103730000229DBD1802212015A60D7E700540040F1
:103740000058004000780040D4670008FF030000E4
:10375000FF7FFFFFFFFFF7FFFFFFFDFFFFFFFFF012
:1037600000800002F0B589B003930EAB079204CB42
:1037700004001B880D000593039B0492013B012B61
:1037800003D95949594802F0D4F92300413306932B
:103790001B780220202B09D1049B002B02D0059B13
:1037A000002B05D180239B006364012009B0F0BD8C
:1037B0002300403302931B78012BF7D00122029B98
:1037C0001A70FEF7C5FD8021009007001923012221
:1037D00009022000FFF7FAFD061EE6D12123069A12
:1037E000290013702300423306934023069A137076
:1037F000049B606463626B469B8A60636385109B75
:1038000001970093079A039B2000FFF76FFE0028A3
:1038100002D0029B1E70C8E7638DFF2B54D9FF2294
:10382000802322855B040090290020008026FFF77A
:1038300075FDB6043A0010992000FFF72DFE002810
:10384000B3D1636A22681978013391626362638D30
:10385000228D013B9BB26385013A638D92B2228532
:10386000002B17D0002A15D10097109B8021200033
:10387000FFF7ACFD002800D097E7638DFF2B2BD915
:10388000FF2323858023FF2200905B042900200072
:10389000FFF744FD638D002BCCD13A001099200036
:1038A000FFF788FE002800D07FE720212368104D15
:1038B000D9615A682A405A60230041331970069B27
:1038C00040341870207071E78023628D9B0492B29F
:1038D0002285D2B20090A7E7628D330092B2228592
:1038E000D2B20090D2E7C046ED080000D4670008CD
:1038F00000E800FEF0B589B003930EAB079204CB4D
:1039000004001B880D000593039B0492013B012BCF
:1039100003D95B495B4802F00CF92300413306935D
:103920001B780220202B09D1049B002B02D0059B81
:10393000002B05D180239B006364012009B0F0BDFA
:103940002300403302931B78012BF7D00122029B06
:103950001A70FEF7FDFC8021009007001923012258
:1039600009022000FFF732FD061EE6D12223069A47
:10397000290013702300423306934023069A1370E4
:10398000049B606463626B469B8A60636385109BE3
:1039900001970093079A039B2000FFF7D9FD0028A9
:1039A00002D0029B1E70C8E7628D374BFF2A57D9A1
:1039B000FF222285009380235B04290020008026BB
:1039C000FFF7ACFCB6040097109B002204212000F6
:1039D000FFF7FCFC0028B0D12368626A5B6A1370B1
:1039E000636A228D01336362638D013A013B9BB2AE
:1039F0006385638D92B22285002B17D0002A15D1E2
:103A00000097109B80212000FFF7E0FC002800D0E9
:103A100093E7638DFF2B2BD9FF2323858023FF2280
:103A200000905B0429002000FFF778FC638D002BD9
:103A3000C9D13A0010992000FFF7BCFD002800D042
:103A40007BE720212368114DD9615A682A405A60CA
:103A5000230041331970069B4034187020706DE7C5
:103A6000628D92B2228500938023D2B29B04A4E798
:103A7000628D330092B22285D2B20090D2E7C04666
:103A800074090000D46700080024008000E800FEEC
:103A9000F8B51D4A036806000C00934209D01B4A82
:103AA000934206D01A4A934203D06421194802F087
:103AB00040F8194D2C4203D06521164802F039F820
:103AC00041239C46B44463461A780220D2B2202A8D
:103AD00019D1370040373B78012B14D0242361469D
:103AE0000B70012133681868884318601868054016
:103AF0001D60186804431C601868014319600020A9
:103B000063461A703870F8BD0054004000580040F9
:103B1000007800400C680008FFEFFFFFF8B51B4A73
:103B2000036805000C00934209D0194A934206D05D
:103B3000184A934203D09221174801F0FAFF0F2C44
:103B400003D99321144801F0F4FF2E004136327856
:103B50000220D2B2202A17D1290040310B78012B44
:103B600012D0242333702B6801381D680B4F854316
:103B70001D601D6824023D402C431C601C682043CE
:103B80001860002032700870F8BDC0460054004034
:103B900000580040007800400C680008FFF0FFFF6C
:103BA0000C22184B10B5D9680A40082A26D00C2AD6
:103BB00006D0042A1AD11B68DB0621D4124810BD96
:103BC0008A021248120F825C0902D868890F0131FB
:103BD000C00304D50E485043FCF7B2FAEFE71B6868
:103BE000DB0601D50B48F6E70748F4E780205B6861
:103BF00000021B045B0F01339840E0E70448DEE756
:103C00000448DCE7001002400024F4002C6900089E
:103C100000127A0000093D00F0B5050087B00028C9
:103C200002D1012007B0F0BD0368002B06D09B062F
:103C300004D1B021C748490001F07BFF0C23802745
:103C4000C54C7F02E2681A40E36801921F402B686E
:103C5000DB0764D42B689B0700D5C0E02B68DB062C
:103C600043D5019B002B00D02DE123689B0502D595
:103C7000EB69002BD5D02B6AFF2B04D98021B548E6
:103C8000890001F056FF6B6AB44AB5491A400B42ED
:103C90000BD0802109028A4207D0C022120293422F
:103CA00003D0B049AB4801F044FF6268AE496B6A8B
:103CB0000A401A43626061682A6A0902090A120608
:103CC0000A43626080225B0B013312029A401300A8
:103CD000E16800200A06A549120F8A5CD340A44A75
:103CE0001360FEF701FB00289CD12B681B0700D551
:103CF0005BE12B685B0700D584E12B689B0600D550
:103D0000FDE1AB6A022B04D9BA219248890001F087
:103D100010FFAB6A002B00D02BE2002082E76B681B
:103D2000944E334208D0A022D202934204D06A219A
:103D30008848FF3101F0FDFE019B082B03D00C2BBE
:103D400008D1002F06D023689B0383D56B68002B16
:103D500080D166E780216B6849028B4214D12268CA
:103D600013432360FEF7F4FA0600802223689202D0
:103D7000134200D06EE7FEF7EBFAFA23801B9B009C
:103D80009842F2D903204DE7A022D202934208D1F3
:103D900080232268DB021343236022680A432260E7
:103DA000E0E722681640266022680A400592059ADC
:103DB000714922680A402260002BD3D1FEF7C8FA6D
:103DC0000600802223689202134200D142E7FEF7E8
:103DD000BFFAFA23801B9B009842F2D9D2E7202336
:103DE000EA689A43012A06D9092A04D0CE21594803
:103DF000490001F09EFE2B691F2B04D99E215548D6
:103E0000FF3101F096FE2022EB68134203D02168B7
:103E1000934311432160019A042A03D00C2A24D130
:103E2000002F22D12268520702D5002B00D1F8E6DC
:103E300061682A695148120201400A4309216260FF
:103E400022688A4313432360FFF7AAFEE368474AC8
:103E50001B061B0FD35CD840454B18600020FEF7B3
:103E600043FA002800D1F9E6DCE6002B19D009213D
:103E7000226804278A4313432360FEF769FA060089
:103E800023683B4207D062682B693C491B020A4009
:103E900013436360E2E6FEF75BFA801B0228EFD96A
:103EA00070E701222368042793432360FEF750FA4A
:103EB000060023683B4200D1D0E6FEF749FA801B9A
:103EC0000228F6D95EE7EB69012B04D98621214847
:103ED000890001F02EFEEB69002B53D0802322686D
:103EE0005B0013432360FEF733FA80270600BF0010
:103EF00023683B4227D02B6AFF2B04D98B2115481E
:103F0000890001F016FE6B6A144A15491A400B42EB
:103F10000BD0802109028A4207D0C02212029342AC
:103F200003D017490B4801F004FE63680E4A1340A2
:103F30006A6A1343636062682B6A12021B06120AE4
:103F400013436360D1E6FEF703FA801B0228CFD942
:103F500018E7C0464768000800100240FFDFFFFF77
:103F6000FF9FFFFF01020000FF1FFFFF1469000811
:103F700000000020FFFFFEFFFFFFFBFFFFE0FFFF51
:103F80002D0200002368C04A802713402360FEF7FB
:103F9000DFF90600BF0023683B4200D1A5E6FEF72B
:103FA000D7F9801B0228F6D9ECE66B69012B03D9FF
:103FB000B649B74801F0BDFD6A690123002A10D057
:103FC000226D022713432365FEF7C2F90600236D15
:103FD0003B4200D08DE6FEF7BBF9801B0228F6D9E4
:103FE000D0E6226D02279A432265FEF7B1F906005A
:103FF000236D3B4200D17CE6FEF7AAF9801B022824
:10400000F6D9BFE6AB68A04A134207D0A022D2007F
:10401000934203D09F499E4801F08BFD80230021ED
:10402000A26B5B0502911A4204D1A26B1343A363F6
:10403000012302938027984E7F0033683B4208D0CB
:104040008022AB685200934213D1226D1343236543
:1040500034E033683B433360FEF77AF9039033680A
:104060003B42EDD1FEF774F9039BC01A6428F6D9E0
:1040700088E6002B16D1236D834A802713402365E1
:10408000236D864ABF0013402365FEF761F90600E1
:10409000236D3B422AD0FEF75BF9814B801B98428F
:1040A000F6D96FE6A021C9008B420DD18023216D86
:1040B000DB000B432365236D1A432265FEF748F9A5
:1040C00080270600BF000EE0236D6F4A1340236572
:1040D000236D724A1340BAE7FEF73AF9704B801B22
:1040E000984200D94EE6236D3B42F5D0029B012B4E
:1040F00000D002E6A36B6B4A1340A363FDE5AB69F6
:10410000012B03D96849624801F013FDA969012315
:10411000664A002918D0A16802271943A160616B83
:104120000B4363638023116A9B010B431362FEF709
:104130000FF90600A3683B4200D0E2E5FEF708F95C
:10414000801B0228F6D91DE6A16802279943A160C9
:10415000136A57490B401362FEF7FAF80600A3688A
:104160003B4200D1CDE5FEF7F3F8801B0228F6D9DB
:1041700008E6019A0C2A6AD04E4E022B55D14E4BBE
:10418000EA6A1A4203D04D49414801F0D2FC2A6B39
:104190004B4B13400BD0802149038B4207D0802327
:1041A0009B039A4203D04749394801F0C2FC802161
:1041B0006A6B454BC90313408B4207D080231B0415
:1041C0009A4203D04149324801F0B3FC23681E40B3
:1041D0002660FEF7BDF880260700B6042368334248
:1041E0001DD1296BEB6AE2680B4339490A4013433E
:1041F0006A6B80251343E360802322685B041343CA
:104200002360FEF7A5F80600AD0423682B4200D01A
:1042100083E5FEF79DF8801B0228F6D9B2E5FEF78C
:1042200097F8C01B0228D9D9ACE5236880251E4029
:104230002660FEF78DF80600AD0423682B4200D1FE
:104240006BE5FEF785F8801B0228F6D99AE5180081
:10425000012B00D1E6E48022E368E96A52021A40A9
:1042600001208A4200D0DDE4F022296B92031A403B
:104270008A4200D0D6E4C02000040340686B181ABC
:10428000431E9841C0B2CDE4FFFEFFFF4B02000089
:10429000476800087702000000700040FFFBFFFF46
:1042A00088130000FFFFFFEFBE0200000000014086
:1042B000FFDFFFFFFFFFFFFEFFFFFEFFF102000039
:1042C000FFFFF3FFF2020000FFFF7FFFF302000099
:1042D000FFFF02FFF7B504000F00002801D1012005
:1042E000FEBD03681B0703D17C497D4801F021FC1A
:1042F000012F03D97B497A4801F01BFC01227A4D3A
:104300002B6813409F423AD823689B0740D4236808
:10431000DB075FD401232A681A40974200D2BBE032
:104320002368724D5B0700D5BEE023681B0718D5D4
:1043300023696F4A13420DD0A0216E4AC9001A406A
:104340008A4207D0C022D200934203D06A4964480F
:1043500001F0EFFBEA6823696849DB000A40134378
:10436000EB60FFF71DFCEB68654A1B061B0FD35C77
:10437000D840644B18600020FDF7B6FFB0E72B680B
:1043800093433B432B602B6813409F42A7D1BBE76D
:10439000A36880221900914314D020221900914370
:1043A00090290FD0402219009143A0290AD0102251
:1043B00019009143C02905D0F02B03D05249484839
:1043C00001F0B7FBF021494AD3688B43A1680B4346
:1043D000D3609CE76368032B03D94C49404801F044
:1043E000A8FB424E62683368022A1CD19B0300D4AA
:1043F00075E70321F3688B431343F360FDF7A8FFD0
:1044000063680190022B1BD10C22F3681340082B28
:1044100000D17FE7FDF79CFF019BC01A3C4B9842FF
:10442000F2D903205CE7032A02D19B01E1D456E7CD
:10443000012A02D15B07DCD451E79B05D9D44EE7B2
:10444000032B0DD10C22F3681340934200D161E796
:10445000FDF77EFF019BC01A2D4B9842F2D9E0E791
:10446000012B13D00C22F368134200D152E7FDF761
:104470006FFF019BC01A264B9842F3D9D1E7FDF795
:1044800067FF019BC01A224B9842CAD80C22F368DE
:104490001340042BF3D13DE72A689A432A602A6827
:1044A0001A4200D01BE73BE7E368114A13420DD0E4
:1044B000A021104AC9001A408A4207D0C022D20067
:1044C000934203D01349064801F033FBEB68124ACC
:1044D0001340E2681343EB6027E7C0466603000021
:1044E00047680008670300000020024000100240F7
:1044F000FFFBFFFFFFFDFFFFF1030000FFC7FFFF12
:1045000014690008000000207E03000085030000FD
:1045100088130000EA030000FFF8FFFF044B054A80
:10452000DB685B055B0FD35C034A1068D8407047BB
:10453000001002402469000800000020044B054AD6
:10454000DB689B045B0FD35C034A1068D84070475C
:10455000001002402469000800000020F7B5934BCA
:10456000026804009A4203D96721914801F0E1FAF8
:1045700023689B064DD563688E4A13420DD098215F
:104580008D4A49031A408A4207D08C2292039342F3
:1045900003D07321864801F0CCFA80230021874D97
:1045A0005B05AA6B00911A4204D1AA6B1343AB635B
:1045B000012300938027824E7F0033683B4200D165
:1045C000AFE0C022C02128686368920310408902CE
:1045D0001A40904200D0B6E02A6D0A4000D0BDE0FB
:1045E0006168C0230A009B021A409A4207D12B68D7
:1045F00074480340C020800301400B432B602B6DA7
:104600001A43009B2A65012B03D1AB6B6E4A134002
:10461000AB632368DB070DD5A368032B03D9DE2129
:10462000634801F086FA0321644AD36C8B43A16886
:104630000B43D36423689B070ED50C23E2689A438F
:1046400003D0E9215A4801F074FA0C215B4AD36C7B
:104650008B43E1680B43D36423685B070DD55B4D47
:1046600023692B4203D0F321514801F062FA534AE7
:104670002169D36C2B400B43D36423681B0712D5ED
:104680006369534A134207D080229201934203D0B8
:10469000FD21474801F04DFA484A4E49D36C0B4082
:1046A00061690B43D3642368DB0513D5A3694A4AC8
:1046B000134208D080229202934204D084213C48C5
:1046C000490001F036FA3D4A3A49D36C0B40A169E2
:1046D0000B43D36423685B060ED5404D236A2B42FF
:1046E00004D014213248FF3101F023FA334A216A01
:1046F000D36C2B400B43D364236800201B0621D5C9
:10470000374DE3692B4204D01C212948FF3101F0C9
:1047100010FA2A4AE169D36C00202B400B43D36482
:1047200010E033683B433360FDF712FE01903368BD
:104730003B4200D045E7FDF70BFE019BC01A642801
:10474000F5D90320FEBD1A000A408A4200D043E793
:104750002A680120920300D43EE7F3E70B409A4217
:1047600000D13DE723689B0600D439E780232A6DFA
:10477000286D1B0303432B652B6D0E49194811400F
:1047800003402B652965D30500D429E7FDF7E0FD3B
:1047900080270600BF002B6D3B4200D020E7FDF7CD
:1047A000D7FD114B801B9842F5D9CAE7FF010000E5
:1047B0007F680008FFFFFCFFFFFFDFFF00100240E3
:1047C00000700040FFFFCFFFFFFFFFEFFFF3FFFF91
:1047D000FFEFFFFFFFCFFFFFFFFFFEFFFFFFFFFB2E
:1047E000FFFFF3FFFFFFF7FF88130000036807498F
:1047F0001A680A401A609A682331FF318A439A6026
:1048000020238367002303667047C046DFFEFFFF57
:1048100070470000F8B503680400DA6918689E68FC
:1048200011070AD120210A4200D16AE0084268D06B
:10483000236E2000002B5AD15AE0012135000D4093
:1048400003D190277F0038425BD00A4205D0C605CD
:1048500003D51962E66F3143E16702210A4206D0AF
:10486000002D04D01962E66F49183143E167042135
:104870000A4206D0002D04D01962E66F0239314396
:10488000E167110708D5810601D4002D04D0082165
:104890001962E36F1943E167E36F002B28D02023EF
:1048A0001A4206D0184204D0236E002B01D02000FB
:1048B00098472368E56F9B6820005B0602D40823B5
:1048C0001D401AD0FFF792FF402123689A680A42E0
:1048D0000FD09A68E06E8A439A60002809D01A4B7C
:1048E0008363FEF7EDFA002802D0E06E836B9847F1
:1048F000F8BD2000FFF78CFFFAE7FFF789FFE567B7
:10490000F6E7802149030A4206D0750204D51962F0
:10491000200000F0D9FBEBE780210A4203D00842D7
:1049200001D0636E85E740210A42E1D00842DFD022
:104930001A6820008A431A60202363670023636695
:1049400001F0F0F8D4E7C0464D490008806A002322
:10495000020010B55A321380083A1380FFF758FF4F
:1049600010BD0000F8B54268AF4B04009A4203D96D
:10497000AE49AF4801F0DDF88022A36852059342AA
:1049800006D0AC4A134203D0AB49A94801F0D1F894
:10499000AA4D2268E368AA4EAA4260D1A94A1342EE
:1049A00003D0A949A24801F0C4F82369A74A1342D9
:1049B00007D0C022D200934203D0A5499C4801F001
:1049C000B8F863690C221900914301D1002B03D17F
:1049D000A049974801F0ADF89F4BA2691A4203D055
:1049E0009E49934801F0A5F89D4BE2691A4203D015
:1049F0009C498F4801F09DF82769A26823683A43D3
:104A000067691868E1693A43974F0A43384002439F
:104A10001A605A68A0691640E26816435E60AB42AD
:104A200001D0226A10439A68904E324002439A6045
:104A30008F4A934220D103228E4BDB6C13408E4A67
:104A4000D05C80231B02994200D1DEE0082833D8D5
:104A5000FBF762FB9BA2A532C0323232C300334265
:104A600004D0AD217248090101F063F8834B226A3A
:104A70001A429AD0824995E7824A934205D10C2284
:104A80007C4BDB6C1340804ADAE7804A934200D1CA
:104A9000AFE07F4A934200D1ABE0AB4200D0A1E04F
:104AA000C0218020734A0901D36CC0000B408342AF
:104AB00038D003D8002B0AD001250DE0802000015A
:104AC00083420ED08B42F7D1802000020DE0FFF729
:104AD00025FD0025A84208D100232800236663662F
:104AE000F8BD1368DB0620D54F48032263685A439C
:104AF0008242E1D81A038242DED30027020E01026D
:104B00005E0889197A41080011001A003B00FBF782
:104B1000E1FB604BC218604B9A42CDD823683D0040
:104B2000D860D9E7FFF73CF8D3E75C48DDE7FFF74B
:104B300005FD64E010254F4B61681A684808154070
:104B400006D0574BC018FBF7FBFA002583B204E0F0
:104B5000544BC018FBF7F4FA83B2190052481039CD
:104B60008142A9D80F2118001B0788435B0F2168D9
:104B70000343CB60B0E7FFF713F840E063685808E1
:104B800080235B023EE00023E7E7FFF7C7FC636892
:104B90005B08C01861680BE0FFF7D0FCF7E7102551
:104BA000344B61681A684808154006D01E4BC0187F
:104BB000FBF7C6FA002583B204E0384BC018FBF7B8
:104BC000BFFA83B2190038481039814200D973E71F
:104BD0002168CEE7FEF7E4FFD9E763685808802331
:104BE0001B02D6E7802301251B029942CBD000236C
:104BF000E8E780231B029942C7D1FFF78FFC636867
:104C000040005B08C01861689DE7082800D953E799
:104C1000FBF78CFAF3FF8DFF90FF52FFB1FF52FFBD
:104C200052FF52FFB4FFC04600093D00C80A000011
:104C3000CB680008FFEFFFFFC90A000000480040F2
:104C4000FFCFFFFFFFDFFFFFCC0A0000FFFBFFFFEE
:104C5000D40A0000D50A0000FFFCFFFFD60A0000BE
:104C6000FF7FFFFFD70A0000F369FFEFFFF4FFFFAC
:104C70000038014000100240BA680008FFF7FFFF4B
:104C8000D10A000000440040BE680008004C00400B
:104C90000050004000FDFFFFFFFC0F000024F40067
:104CA00000127A000048E801EFFF0000436A70B587
:104CB0000400FF2B03D95549554800F03AFF636AB9
:104CC000DB070DD5534DA36A2B4203D05249504800
:104CD00000F02FFF2268A16A53682B400B435360FA
:104CE000636A9B070DD54D4DE36A2B4203D04C49B7
:104CF000474800F01EFF2268E16A53682B400B43CF
:104D00005360636A5B070DD5464D236B2B4203D07E
:104D100045493F4800F00DFF2268216B53682B4046
:104D20000B435360636A1B070DD5404D636B2B42E9
:104D300003D03F49364800F0FCFE2268616B53689F
:104D40002B400B435360636ADB060DD5394DA36BD3
:104D50002B4203D038492E4800F0EBFE2268A16BAD
:104D600093682B400B439360636A9B060DD5334DCC
:104D7000E36B2B4203D03249254800F0DAFE22686B
:104D8000E16B93682B400B439360636A5B062AD503
:104D900023682C4A934206D02B4A934203D02B49D6
:104DA0001B4800F0C6FE2A4D236C2B4203D0294934
:104DB000174800F0BEFE2168226C4B682B4013435D
:104DC0004B6080235B039A420DD1234D636C2B42D1
:104DD00003D022490E4800F0ACFE2268616C536893
:104DE0002B400B435360636A1B060DD51C4DA36C0F
:104DF0002B4203D01B49064800F09BFE2268A16CA1
:104E000053682B400B43536070BDC0469A0B0000A3
:104E1000CB680008FFFFFDFF9F0B0000FFFFFEFFB8
:104E2000A60B0000FFFFFBFFAD0B0000FF7FFFFFA5
:104E3000B40B0000FFEFFFFFBB0B0000FFDFFFFF25
:104E4000C20B00000038014000440040C90B0000C4
:104E5000FFFFEFFFCA0B0000FFFF9FFFCF0B00001B
:104E6000FFFFF7FFD70B0000F8B504000E00150098
:104E70001F002268D36933409B1B59424B41AB4210
:104E800001D000201BE0069B0133F3D0FDF760FA50
:104E9000069BC01B834201D3002BEAD1236808493B
:104EA0001A6803200A401A609A68A331FF318A43C6
:104EB0009A6020236367A367002370342370F8BDD2
:104EC0005FFEFFFFF0B587B00593436F04000D0050
:104ED00017000220202B49D10138002946D0002A92
:104EE00044D08023A2685B019A4204D12369002B3D
:104EF00001D101423AD1230070331A780220012AED
:104F000034D0012200261A702123E6676367FDF77B
:104F10001FFA230050331F80023303931F80802326
:104F2000A26804905B019A4204D12369B34201D183
:104F30002E001D00230052331A88059B92B2009365
:104F4000049B002A0AD140212000FFF78DFF002892
:104F50000BD1202370346360207007E00022802191
:104F60002000FFF781FF002802D0032007B0F0BD2A
:104F70002268002D0BD133880236DB05DB0D9362EE
:104F8000039B039A1B88013B9BB21380D2E72B78CB
:104F900001359362F4E7000073B500260400C6678C
:104FA000FDF7D6F9236805001B681B0715D4236895
:104FB0001B685B070AD580210E4B00220093C903B2
:104FC0002B002000FFF750FF002811D120230020E4
:104FD0006367A367703420700BE08021054B3200BB
:104FE0000093890303002000FFF73EFF0028DED076
:104FF000032076BDFFFFFF0110B5041E01D1012083
:1050000010BD81690368294A00293ED0934210D01F
:10501000274A93420DD0274A93420AD0264A934208
:1050200007D0264A934204D03021FF31244800F0B3
:1050300080FD636F002B05D12200703213702000B9
:1050400000F008FE24230121226863671368200012
:105050008B431360FFF786FC0128D0D0636A002BD6
:1050600002D02000FFF722FE236816495A6820006C
:105070000A402A215A609A688A439A600122196874
:105080000A431A60FFF788FFBAE79342D1D0084A73
:105090009342CED0074A9342CBD0074A9342C8D01E
:1050A000064A9342C5D09A214900BFE70038014023
:1050B00000440040004C00400050004000480040C8
:1050C000CB680008FFB7FFFF704700001FB5140052
:1050D0008AB281B2FA2080000290019300940123E9
:1050E0000248FEF73FFB002004B010BDA8060020D8
:1050F0001FB514008AB2C1B2FA2080000290019359
:10510000009401230248FEF7F5FB002004B010BD17
:10511000A806002010B544688068A04710BD10B5EF
:1051200004688068A04710BD73B501AC0E00012370
:10513000220020210500FFF7EDFF00280AD10123FE
:1051400021781E40994331432170220020212800FC
:10515000FFF7E5FF76BD73B501AC0E000123220019
:1051600062210500FFF7D6FF00280CD10123102291
:1051700021781E4091433601314321702200622183
:105180002800FFF7CCFF76BD73B501AC0E000123FC
:10519000220020210500FFF7BDFF00280DD10321CB
:1051A0000C230E402178B6009943314321700B3B0C
:1051B000220020212800FFF7B2FF76BD73B501ACB5
:1051C0000E000123220020210500FFF7A3FF002885
:1051D00011D10F22217833011140194301233609DF
:1051E0001E409E40EE3211403143217022002021AA
:1051F0002800FFF794FF76BD10B50A000123272190
:10520000FFF788FF10BD10B50A0001236721FFF7E3
:1052100081FF10BD73B501AC0E0001232200602197
:105220000500FFF777FF00280BD1032321781E40EC
:10523000994331432170023B220060212800FFF78F
:105240006EFF76BD73B501AC0E0001232200602114
:105250000500FFF75FFF00280DD103210C230E404E
:105260002178B6009943314321700B3B2200602125
:105270002800FFF754FF76BD73B501AC0E00012383
:10528000220060210500FFF745FF00280BD17F2396
:105290002178F6011940314321707E3B22006021C4
:1052A0002800FFF73CFF76BD73B501AC0E0001236B
:1052B000220061210500FFF72DFF00280DD10321F9
:1052C00006230E4021787600994331432170053B37
:1052D000220061212800FFF722FF76BD10B50A00E9
:1052E00006232821FFF716FF10BD10B50A0006237C
:1052F0006821FFF70FFF10BDF0B59A4B8BB03B2133
:10530000059308933D23984A03AD069104A829000C
:10531000099304920792FFF76FFF2B78934FDB07F7
:1053200021D5934C06220021200000F015FE21001B
:1053300004A8FFF7D3FF0023E05EFBF7EBF98D49EC
:10534000FBF7A8F838600223E05EFBF7E3F9894930
:10535000FBF7A0F878600423E05EFBF7DBF98549F2
:10536000FBF798F8B860290007A8FFF74CFF2B78E7
:10537000814D1B0724D5814C06220021200000F01E
:10538000EBFD210007A8FFF7B0FF0023E05EFBF76D
:10539000C1F9FF218905FBF77DF828600223E05E53
:1053A000FBF7B8F9FF218905FBF774F8686004235F
:1053B000E05EFBF7AFF9FF218905FBF76BF8A8600A
:1053C0003868FBF787F96E4C06B226807868FBF7E1
:1053D00081F903B200936B461B88B8686380FBF7C2
:1053E00079F900B2A080764340433018FCF710FFF3
:1053F00000F0C6FD06000F000098FCF709FF320020
:105400003B0000F0B9FD00225E4BFCF717F95E4A45
:105410005E4BFBF7DFFCFCF7C7FEE0800023E05E9D
:10542000FCF7F6FE06000223E05E0422A35E404382
:105430005B43C0180F00FCF7EBFE00F0A1FD02007B
:105440000B003000390000F097FD00224D4BFCF7B7
:10545000F5F84E4B4C4AFBF7BDFCFCF7A5FE20814E
:105460000423E05EFCF7D4FE06000F000223E05E9A
:10547000FCF7CEFE32003B0000F07EFD0022414BE7
:10548000FCF7DCF8414B404AFBF7A4FCFCF78CFE30
:1054900060810423E05EFCF7BBFE06000F000023E2
:1054A000E05EFCF7B5FE32003B0000F065FD002237
:1054B000344BFCF7C3F8344A344BFBF78BFCFCF756
:1054C00073FE0423E65EA0810023E05E33004043C8
:1054D0007343C018FCF79CFE00F052FD0090019150
:1054E0003000FCF795FE009A019B00F045FD00227C
:1054F000244BFCF7A3F8244A244BFBF76BFCFCF786
:1055000053FE0423E65EE0810023E05E3300404367
:105510007343C018FCF77CFE00F032FD009001914F
:105520003000FCF775FE009A019B00F025FD00227B
:10553000144BFCF783F8144A144BFBF74BFCFCF7B5
:1055400033FE20822868FBF7C5F8114C208068687C
:10555000FBF7C0F86080A868FBF7BCF8A0800BB030
:10556000F0BDC046F1500008CD5000088800002072
:105570009400002023DB793DA00000209A00002049
:10558000F000002000806640182D4454FB210940A3
:105590008C01002010B50A0001230F21FFF7BAFD8E
:1055A00010BD10B50A0001234F21FFF7B3FD10BD58
:1055B00073B501AC0E000123220021210500FFF785
:1055C000A9FD00280CD10123402221781E409143DF
:1055D000B60131432170220021212800FFF79FFDF1
:1055E00076BD37B50C0001AD2A0001232121FFF75C
:1055F00091FD2B785B06DB0F23703EBD73B501ACCC
:105600000E000123220060210500FFF783FD002822
:105610000CD10123202221781E4091437601314391
:105620002170220060212800FFF779FD76BD37B593
:105630000C0001AD2A0001236021FFF76BFD2B78E0
:105640009B06DB0F23703EBD30B52C4B87B03B2152
:105650000193049300253D23294C2A4A0291684670
:1056600021000593009203922570FFF793FF2378A2
:10567000432B00D0FEE7210003A82570FFF791FF20
:105680002378402B00D0FEE701216846FFF790FF0A
:105690001D4D68462900FFF7A4FF2B78002BF7D19A
:1056A000012103A8FFF7AAFF290003A8FFF7BFFF06
:1056B0002C78002CF8D101216846FFF735FD012137
:1056C00003A8FFF748FD21006846FFF75DFD0121B3
:1056D00003A8FFF7E9FD012103A8FFF7CDFD0C2189
:1056E0006846FFF76BFD210003A8FFF7ABFD210023
:1056F00003A8FFF78FFD07B030BDC046F15000088A
:10570000AD000020CD500008AC00002030B59DB0A9
:10571000382200210EA800F01FFC14220021684648
:1057200000F01AFC2422002105A800F015FC144901
:10573000144A0B6800241A4080231B0113430B609A
:1057400010230E930F3B1593A0230F251B020EA8C9
:10575000179316941894FEF75FFA21006846009597
:105760000194029403940494FEF7B4FD05A80595F2
:105770000794089409940A94FEF7F0FE1DB030BD1A
:1057800000700040FFE7FFFFF8B58025A026070066
:1057900000246D00F605BC4200DBF8BD00222900A4
:1057A0003000FDF733FD1920FCF7D8FD0122290058
:1057B0003000FDF72BFD1920FCF7D0FD0134EAE79E
:1057C000F7B500AF0500FAF79FFC6A46C31DDB087A
:1057D000DB00D31A9D4629000400684600F0C4FB94
:1057E0006E466D46AB1B9C4201DCBD46F7BD2B7877
:1057F00001223B71391D0A230248FFF763FB013583
:10580000F0E7C046BC010020F0B58BB0FCF784FD8A
:10581000FFF77CFF1422002105A800F09DFB042265
:105820008021A44D0126EB6AA3481343EB62EB6A87
:10583000002413400193019BEA6A03270A43EA62AA
:105840000222EB6A0B400293029BEB6A9B493343B3
:10585000EB62EB6A33400393039BEB6A1343EB6207
:10586000EB6A134004933200049BFDF7CFFC9F21A9
:10587000A02000220902C005FDF7C8FC002220215B
:105880008D48FDF7C3FC802305A99B018C48059337
:1058900006940794FDF784FBC02305A91B028848E2
:1058A000059307940697FDF77BFB05A985480794A8
:1058B00005970697FDF774FBA020C02305A9C00536
:1058C000059306940794FDF76BFB7F4B05A90593A1
:1058D0007E4B794806930794FDF762FB042305A9E4
:1058E000059375480D33069307960894FDF758FB0A
:1058F000774B05A970480593069607940894FDF721
:105900004FFB8023A0205B00059305A9FE3BC0054B
:10591000069607930893FDF743FB9E23A0201B02E6
:1059200005A9C0050593069607940894FDF738FB72
:105930002B6B220033432B632B6B210033400093EE
:105940000920009BFDF742F90920FDF779F90822AB
:10595000210005A800F000FB5E4D5F4B28002B6086
:10596000C0231B066B60AB19DC77AB1CDC77C22352
:10597000FF336B622B002C331C700423EC63AC6090
:10598000AC632E61EC60AC626B612C63AC616C63E8
:10599000EC61FCF741FD514B05A9059380232800DC
:1059A0005B010693FDF746F84D4B05A928000593CA
:1059B000FDF740F84B4B05A928000593FDF73AF891
:1059C0003A0049492800FCF7F7FE484D484B2800AB
:1059D0002B60E123DB006B60AC60EE602C616C61DE
:1059E000AC61EC612C629626FDF70CFE21002800CC
:1059F000FEF74EF828000C252100FEF78FF83D48F1
:105A00003D4BB60103608460C4600461846104623C
:105A1000446246604561FFF7EFFA3848384B8460CE
:105A20000360C46004618461C461046244624660CE
:105A30004561FFF7E1FA3348334B84600360C4608B
:105A400004618461C4610462446246604561FFF799
:105A5000D3FA2E482E4B84600360C46004618461D5
:105A6000C4610462446246604561FFF7C5FA294893
:105A7000294B84600360C46004618461C461046272
:105A8000446246604561FFF7B7FA0520FFF77CFEE8
:105A90002248FFF795FEFFF7D7FD0134FF34FFF7EB
:105AA0002BFCA0202100C005FDF7F2FB1C48FCF7F1
:105AB00055FCF4E7001002400004005004C0000050
:105AC00000080050001C00500330000000001110BE
:105AD00020C000003C0800200024014010000010FD
