:020000040800F2
:1000000000500020BD330008E9320008EB32000840
:1000100000000000000000000000000000000000E0
:10002000000000000000000000000000ED320008A9
:100030000000000000000000EF320008F13200086C
:100040000D3400080D3400080D3400080D3400088C
:100050000D3400080D3400080D3400080D3400087C
:100060000D340008F93200080D3400080D34000882
:10007000093300080D340008193300080D34000856
:100080000D3400080D3400080D3400080000000095
:100090000D3400080D3400080D3400080D3400083C
:1000A0000D3400080D3400080D3400083133000809
:1000B0004133000851330008000000000D340008EF
:1000C00010B5064C2378002B07D1054B002B02D02E
:1000D000044800E000BF0123237010BD040000208D
:1000E0000000000078340008044B10B5002B03D04A
:1000F0000349044800E000BF10BDC04600000000F6
:1001000008000020783400080023C25C0133002A74
:10011000FBD1581E7047000002B4714649084900DF
:10012000095C49008E4402BC7047C04603B4714666
:10013000490840004900095E49008E4403BC7047ED
:10014000002243088B4274D303098B425FD3030A16
:100150008B4244D3030B8B4228D3030C8B420DD329
:10016000FF22090212BA030C8B4202D312120902B7
:1001700065D0030B8B4219D300E0090AC30B8B42F5
:1001800001D3CB03C01A5241830B8B4201D38B03A3
:10019000C01A5241430B8B4201D34B03C01A524148
:1001A000030B8B4201D30B03C01A5241C30A8B428B
:1001B00001D3CB02C01A5241830A8B4201D38B0276
:1001C000C01A5241430A8B4201D34B02C01A52411A
:1001D000030A8B4201D30B02C01A5241CDD2C3098C
:1001E0008B4201D3CB01C01A524183098B4201D308
:1001F0008B01C01A524143098B4201D34B01C01AF3
:10020000524103098B4201D30B01C01A5241C3086A
:100210008B4201D3CB00C01A524183088B4201D3D9
:100220008B00C01A524143088B4201D34B00C01AC5
:100230005241411A00D20146524110467047FFE731
:1002400001B5002000F006F802BDC0460029F7D035
:1002500076E770477047C046002B11D1002A0FD1B6
:10026000002900D1002802D00021C943081C07B48E
:10027000024802A14018029003BDC046D9FFFFFF0B
:1002800003B4684601B5029800F006F8019B9E464B
:1002900002B00CBC7047C046F0B557464E464546C6
:1002A000DE46E0B5040083B00D00924699468B42CD
:1002B0002FD82CD04946504600F0CCF82900060033
:1002C000200000F0C7F8331A9846203B9B4600D523
:1002D00074E053465A4693401F00534642469340AB
:1002E0001E00AF4229D826D05B46A41BBD41002B7F
:1002F00000DA79E0002200230092019301235A469C
:1003000093400193012342469340009319E08242B7
:10031000D0D900220023009201930C9B002B01D026
:100320001C605D600098019903B03CBC9046994602
:10033000A246AB46F0BDA342D6D9002200230092CC
:1003400001934346002BE8D0FB0772081A43464648
:100350007B080EE0AB4201D1A2420CD8A41A9D4109
:10036000012024196D410021013E24184D41002E29
:1003700006D0AB42EED9013E24196D41002EF8D1D2
:100380005B460098019900196941002B22DB2B0084
:100390005A46D3402A004446E2401C005B46150002
:1003A000002B2CDB26009E40330026004746BE4033
:1003B0003200801A994100900191AEE74246202315
:1003C0009B1A5246DA40414613004A468A401700BB
:1003D0001F4382E7424620239B1A2A0046469A4042
:1003E0002300F3401343D5E74246202300219B1A04
:1003F0000022009101920122DA40019282E74246F6
:10040000202326009B1ADE402F00B4469740664604
:100410003B003343C9E7C0461C2101231B0498421B
:1004200001D3000C10391B0A984201D3000A083985
:100430001B09984201D30009043902A2105C40183C
:100440007047C046040302020101010100000000E0
:100450000000000010B5002903D1FFF7DDFF2030B8
:1004600002E0081CFFF7D8FF10BDC046FA210A4B76
:1004700070B5890005001868FFF762FE00F0B4FC53
:1004800004000120002C05D102382200290000F0D0
:100490005FFC200070BDC046000000200223084A17
:1004A00010B5116800200B431360FFF7DFFF041E37
:1004B00003D102F0C5FD200010BD0124FBE7C046BA
:1004C00000200240024A1368013313607047C0469F
:1004D00020000020014B18687047C0462000002013
:1004E00070B50400FFF7F6FF631C5A1E9341050028
:1004F000E418FFF7EFFF401B8442FAD870BD0000FC
:10050000084B13B5040008491868FFF719FE444367
:100510000194019B002B00D113BD019B013B019372
:10052000F7E7C0460000002040420F0003210368A7
:1005300070B59A6804000A40012A0DD11968114269
:100540000AD0002070BD10230120626D1343636543
:10055000A36D0343A365F5E799680F4A1142F2D1F1
:1005600001259A6828002A439A60FFF7C9FFFFF720
:10057000B1FF060023681B682B42E2D1FFF7AAFFF8
:10058000801B0A28F6D91023626D0120134363658E
:10059000A36D1D43A565D5E717000080F7B50400DE
:1005A0000120002C00D1D1E0694B22689A4204D08E
:1005B000CE216848490002F042FD6268664B134054
:1005C00016D0802051004908C005814210D08021FA
:1005D00009068A420CD080225203934208D080221E
:1005E0009203934204D09E215A48FF3102F027FD26
:1005F0001823A2689A4304D0CF215648490002F03C
:100600001EFD2023E2689A4304D0A0215148FF3107
:1006100002F015FD2369013B012B04D9D0214D487F
:10062000490002F00CFD661CF37F012B04D9A221C6
:100630004848FF3102F003FDA31C0193DB7F012B2F
:1006400004D9D1214348490002F0F9FC434BA26A86
:100650001A4204D0A4213F48FF3102F0F0FC636A43
:100660004022190018009143803290430FD080221D
:10067000520091420BD08032934208D0C13BFF3BE5
:10068000012B04D9D2213348490002F0D8FC2300C1
:100690002C331B78012B04D9A6212E48FF3102F000
:1006A000CEFC04226369043B934304D0D321294840
:1006B000490002F0C4FC2A4B226B1A4204D0A82144
:1006C0002448FF3102F0BBFCA369012B04D9D421DB
:1006D0002048490002F0B3FC636B012B04D9AA2126
:1006E0001C48FF3102F0ABFCE369012B04D9D52192
:1006F0001848490002F0A3FCA36B072B04D9AC21D6
:100700001448FF3102F09BFCE36B012B04D9D62186
:100710001048490002F093FC636D002B06D12200C3
:100720005032A3652000137002F098FC636DDB0665
:1007300004D4042322689168194013D01023626DF9
:10074000012013436365002350342370FEBDC0466F
:100750000024014090340008FFFFF3FFFFF3FFFF88
:10076000FFEFFFFF636D6A48184002230343636590
:10077000032390681840674B012802D1176807428D
:100780001AD180256768ED0578004008A84204D09A
:1007900080200006874200D09EE01069800080081B
:1007A00010611069074317611827D068A568B8431E
:1007B000D060D0682843D0601A68574802401A6059
:1007C000626B1868520602431A60802322685B0538
:1007D0009068184202D1906803439360D3684F48F1
:1007E00003402069D360D768E368022800D1042160
:1007F000256BF07F2B43A5693B43AE03E56933438B
:10080000EE0333434603334326002C363678760016
:1008100033430B43C221D360636AFF318B4204D060
:10082000A56AD1682B430B43D360A31CDB7F012B4C
:1008300006D100285CD18023D1685B020B43D360D2
:10084000E36B012B5CD1216C1C2905D8344ACA40CA
:100850009343DBB2002B04D093213248890002F08D
:10086000EEFB636C60221900914309D0802907D008
:1008700080225200934203D02B492A4802F0DFFB2A
:100880002A4BA26C1A4203D02949264802F0D7FB12
:10089000226828491369606C0B401361236C11694D
:1008A0000343A06C03430B431361012311690B4302
:1008B00013610721236800205A698A435A615A69E3
:1008C000A16B0A435A610322A065636D93431A002A
:1008D00001231343636539E71069174D80008008D1
:1008E0001061186828401860186807431F605BE7AC
:1008F0002021606D01436165A16D0B43A3659FE7F6
:10090000012113690B42D4D013698B43D0E7C04651
:10091000FDFEFFFF08270140FFFFFFFD1902FEFF5C
:1009200011111111903400084D020000FFFDFFFF6E
:100930004E02000003FCFFFFFFFFC3FFF7B5244B8F
:100940000192026804000F009A4203D02149224814
:1009500002F075FB236802209B685B0730D42600F9
:1009600050363378012B2BD001233370E369012BF0
:1009700027D1636D194A00251A4080235B00134379
:100980006365E06C164BA5653570C362154B216835
:100990000363154B43631C230B604A680C3B1343F2
:1009A0004B600123CA681343CB603A004031019B7E
:1009B00000F0F8FA04232800226891680B43936042
:1009C000FEBD2000FFF7B2FD0028F9D1D1E7C046F7
:1009D00000240140D905000090340008FEF0FFFF1C
:1009E000F1090008630A0008710A00087047000056
:1009F0005022836A10B5596D11422BD1596DB13215
:100A0000FF320A43C0215A651A680901D0680842BA
:100A100013D1591CC97F00290FD1116809070CD5C2
:100A2000916849070DD40C205168814351605A6D7B
:100A30000A49114001220A435A651800FFF7D6FF00
:100A400010BD2022596D0A435A650122996D0A434F
:100A50009A65F2E7DB6C5B6B9847F1E7FEFEFFFF00
:100A6000704710B5806AFFF7FBFF10BD70477047F5
:100A70004023806A10B5426D134343650423826DA1
:100A800013438365FFF7F3FF10BD0000444B02687A
:100A900070B504009A4203D04249434802F0CFFAAD
:100AA000651CEB7F012B03D940493F4802F0C7FA90
:100AB00004226369043B934303D03D493A4802F062
:100AC000BEFA042223681968114202D05968114203
:100AD00006D10822196811422BD05968114228D03A
:100AE000626DD20604D48022616D92000A43626571
:100AF000C022D9681201114212D1EA7F002A0FD117
:100B00001A6812070CD59A6852073FD40C215A680C
:100B10008A435A60636D274A1A4001231343636571
:100B20002000FFF763FFA369012B02D00C2223688A
:100B30001A60802523681A682A420CD05B682B4211
:100B400009D08023626D5B02134363652000FFF7C9
:100B50008DFF23681D60102223681968114214D08C
:100B60005968114211D0226B002A02D0DA68D207EC
:100B700008D50222A16D20000A43A26510221A6046
:100B8000FFF775FF102223681A6070BD2023626D85
:100B9000134363650123A26D1343A365C0E7C046F9
:100BA00000240140940600009034000895060000DF
:100BB00096060000FEFEFFFF4B4B026870B5050075
:100BC0000C009A4203D04949494802F038FA236898
:100BD000012B36D0474A934233D0474A934230D014
:100BE000464A93422DD0464A93422AD0454A9342E0
:100BF00027D0454A934224D0444A934221D0444AC4
:100C000093421ED0434A93421BD0434A934218D08A
:100C1000424A934215D0424A934212D0414A9342EB
:100C20000FD0414A93420CD0404A934209D0404AE7
:100C3000934206D03F4A934203D03F492C4802F0EA
:100C4000FEF963683D4A9B18012B04D9F02128481E
:100C5000C90002F0F4F92E00503633780220012B3F
:100C60000BD02A680138936830705B0706D52023C3
:100C70006A6D13436B650023337070BD802030496B
:100C800065682368C0028D421BD0956A5903490BE1
:100C900029439162034208D080232A4A1B04116829
:100CA0000A200B431360FFF72BFC23689B0305D539
:100CB0008023244ADB0311680B431360002030704B
:100CC000DBE7916A5C03640BA1439162034204D0A9
:100CD0001C491D480A6802400A609B03EED5194A68
:100CE0001A4913680B40E8E7002401407E07000022
:100CF0009034000802000004040000080800000C02
:100D00001000001020000014400000188000001C9B
:100D10000001002000020024000400280008002C2C
:100D20000010003000200034004000380080003CFB
:100D300000000448000002447F07000000F0FFFFAD
:100D40000110000008270140FFFF7FFFFFFFBFFFEA
:100D500070B504000D00032903D98721164802F05D
:100D60006EF9A901002C14DA0F23E4B22340083BEA
:100D7000124A9B089B009B18032214409440FC32AB
:100D800015000A40A540A240D869A8430243DA6191
:100D900070BD0325A3082C40AC40FC352E00084A4A
:100DA0009B009B18C022A6402940A1409200985861
:100DB000B04301439950EBE7C834000800ED00E070
:100DC00000E100E010B5041E03DA9721044802F0A8
:100DD00036F91F231C401E3BA340024A136010BD7E
:100DE000C834000800E100E0094A431E0120934294
:100DF0000DD8C021074A08485360036A09061B0240
:100E00001B0A0B43036200200723906013607047A6
:100E1000FFFFFF0010E000E000ED00E0F8B5040087
:100E20000120002C00D19EE023684F4A934215D048
:100E30004E4A934212D04E4A93420FD04D4A9342AB
:100E40000CD04D4A934209D04C4A934206D04C4AAA
:100E5000934203D096214B4802F0F1F863680A2BC5
:100E600006D90C3B032B03D99721464802F0E7F83B
:100E7000A36810221900914307D08022D201934227
:100E800003D098213F4802F0DAF84023E2689A4301
:100E900003D099213B4802F0D2F8802322699A437B
:100EA00003D09A21374802F0CAF86369364A1342E0
:100EB00007D080229200934203D09B21314802F058
:100EC000BEF8A369314A134207D08022120193422F
:100ED00003D09C212B4802F0B2F82023E2699A4308
:100EE00003D09D21274802F0AAF8294B226A1A4212
:100EF00003D09E21234802F0A2F82568254B142137
:100F0000E818FFF71DF9244B800023640223A21D7B
:100F10006064D3772E68214BA1681E40E36827697F
:100F20000B433B4367693B43A7693B43E7693B434B
:100F3000276A3B4333432B608023DB0199420CD06B
:100F40001C2528400D3D854015490B68AB430B60BF
:100F500063680D6883402B430B6000200123E0632E
:100F60000534D377E077F8BD080002401C0002404A
:100F70003000024044000240580002406C00024031
:100F80008000024003350008FFFEFFFFFFFBFFFF6C
:100F9000FFCFFFFFF8FFFDBF000002400F80FFFF03
:100FA000A8000240F7B515001F005A1E234B04008D
:100FB0000E009A4204D9AB212148490002F03FF8C3
:100FC000631DDA7F0220012A2AD00122DA77A21DCE
:100FD0009446D27F0021D2B2012A2CD16346D87721
:100FE0002368E16319681A3091431960216C0191FB
:100FF000616C0840824001994A60A2685F60216884
:10100000102A0ED19D60DE60226B002A0CD00E22C9
:10101000186802431A60012300200A6813430B601A
:10102000FEBD9E60DD60EFE704201A6882431A600F
:1010300018680A22EDE7D977F2E7C046FEFF000004
:101040000335000870B5841DE37F022B04D0042310
:10105000C363033B180070BD0E210368456C1A681A
:101060008A431A6001221968914319601C232B409E
:1010700015009D40016C431D4D60E2770024826B9A
:10108000DC771300A242E5D090472300E2E7F8B5F1
:101090001C220427466C016C32403E0096400D68CD
:1010A00003681C682E420DD03C420BD01A68920691
:1010B00002D41A68BA431A60036B4E60002B19D031
:1010C000984717E002273E0096402E4213D03C423C
:1010D00011D01A68920606D40A241A68A2431A602C
:1010E0000122831DDA770022431D4E60DA77C36A3E
:1010F0009342E5D1F8BD0826370097403D42F9D02C
:101100003442F7D00E251C68AC431C6001231C0040
:101110009440821D4C60C363D3770022431DDA776D
:10112000436BE5E74B68F7B504000D00032B12D9BC
:101130001A00113A012A0ED9854A86491A405218D6
:1011400085490A4207D0854A9B180B4203D0AE213D
:10115000834801F074FFAB68022B03D9AF218048AC
:1011600001F06DFFA023DB059C420BD07D4B9C4220
:1011700008D07D4B9C4205D07C4B9C4202D07C4BDE
:101180009C4207D12B689AB2002A03D0794A1343B4
:1011900093420DD0784B9C4206D12B68774A13427C
:1011A00002D01343934203D0B0216D4801F047FFB2
:1011B00000272B681A00FA4000D1F7BD0122BA407F
:1011C00001921A40009200D1C0E010226B68934354
:1011D000022B2CD1A023DB059C4212D0614B9C42F8
:1011E0000FD0614B9C420CD0604B9C4209D0604BAD
:1011F0009C4206D0604B9C4203D0BF21584801F06E
:101200001EFF2B69072B03D9C021554801F017FF9A
:1012100007220F203A4092009040FB089B00E31801
:10122000196A81432869904002000A431A62102219
:101230006B687E009343013B012B19D8EB68032BAD
:1012400003D9CE21464801F0FAFE0322B240A3683A
:10125000012193431A00EB68B3401343A360626813
:10126000019B9A436B681B090B40BB4013436360AF
:1012700003239C46B34061466A68DB431140B1409A
:101280002068184001432160E1681940AB68B34011
:101290000B43E360D30059D5012039490F264B6B2E
:1012A000034360463840800086404B63354BB908A5
:1012B0008900C9188B68B343A0260193F605002363
:1012C000B44214D0274E0133B44210D0264E01331D
:1012D000B4420CD0254E6346B44208D0244E0133AC
:1012E000B44204D0284BE3185E1EB341053383405B
:1012F000019803438B602549009B0E68D843334314
:101300009C46D30302D4330003409C4663460B60E3
:101310004E68009B33439C46930302D43300034042
:101320009C4663464B608E68009B33439C46D302C9
:1013300002D4330003409C4663468B60CE68009B1A
:101340003343920201D433000340CB60013730E7CE
:10135000FFFFDFFF0000EFEFFFFFFEFF0000DFEF0A
:101360003B3500080004005000080050000C0050FD
:1013700000100050FFFF0000001C0050030600009A
:10138000001002400000014000E4FFAF00040140F3
:10139000A02370B5DB0504000D00160098420BD0A9
:1013A000154B984208D0154B984205D0144B9842E3
:1013B00002D0144B98420AD1002D12D0012E16D91A
:1013C0009E211148FF3101F03AFEA56170BD0F4B1F
:1013D000984206D10E4B194203D01A000A439A4292
:1013E000ECD0CE210848490001F029FEE6E7002EA6
:1013F000EBD1A562EAE7C0460004005000080050A7
:10140000000C0050001000503B350008001C00503C
:1014100003060000A02370B5DB0504000D00984210
:101420000BD0114B984208D0104B984205D0104B6E
:10143000984202D00F4B984205D1002D0DD0636920
:101440005D40656170BD0C4B984206D10B4B194253
:1014500003D01A000A439A42F1D0DA210848490021
:1014600001F0EDFDEBE7C04600040050000800501D
:10147000000C005000100050001C0050030600003B
:101480003B35000870B504000120002C00D18AE033
:1014900023684A4A93420AD0494A934207D0494AAC
:1014A000934204D0EF214848490001F0C8FD474B62
:1014B000A2689A4204D9E0214348FF3101F0BFFD00
:1014C000E368013B012B04D9F0213F48490001F0BA
:1014D000B6FD3F4E2369334204D0E2213A48FF3142
:1014E00001F0ADFD6369FF2B04D9F12136484900B5
:1014F00001F0A5FDA369072B04D9E4213248FF318F
:1015000001F09DFD334BE2691A4204D0F2212E48CE
:10151000490001F094FD304B226A1A4204D0E621C2
:101520002948FF3101F08BFD250041352B78DBB2D6
:10153000002B05D1220040321370200001F0DEFDA7
:10154000242301212B702368A0681A688A431A603B
:101550006168224A0A401A619A68E16832409A60DA
:10156000012921D18022120202439A6059681C4A43
:1015700000200A435A60DA68616916402269DE6019
:101580000A43A16909020A43DA60216AE2690A434F
:101590001A60012219680A431A60202360642B70C4
:1015A00020634234207070BD8422120202439A608C
:1015B0000229DBD1802212015A60D7E70054004093
:1015C000005800400078004074350008FF03000018
:1015D000FF7FFFFFFFFFF7FFFFFFFDFFFFFFFFF0B4
:1015E00000800002F8B51D4A036806000C00934213
:1015F00009D01B4A934206D01A4A934203D0642171
:10160000194801F01CFD194D2C4203D065211648E4
:1016100001F015FD41239C46B44463461A7802202C
:10162000D2B2202A19D1370040373B78012B14D091
:10163000242361460B7001213368186888431860C1
:10164000186805401D60186804431C601868014351
:101650001960002063461A703870F8BD00540040CD
:101660000058004000780040AC350008FFEFFFFF55
:10167000F8B51B4A036805000C00934209D0194ACB
:10168000934206D0184A934203D09221174801F0A2
:10169000D6FC0F2C03D99321144801F0D0FC2E0066
:1016A000413632780220D2B2202A17D129004031A7
:1016B0000B78012B12D0242333702B6801381D685E
:1016C0000B4F85431D601D6824023D402C431C6068
:1016D0001C6820431860002032700870F8BDC046B6
:1016E000005400400058004000780040AC3500082D
:1016F000FFF0FFFF0C22184B10B5D9680A40082AEA
:1017000026D00C2A06D0042A1AD11B68DB0621D465
:10171000124810BD8A021248120F825C0902D86872
:10172000890F0131C00304D50E485043FEF708FD70
:10173000EFE71B68DB0601D50B48F6E70748F4E73F
:1017400080205B6800021B045B0F01339840E0E7D8
:101750000448DEE70448DCE7001002400024F400FF
:10176000CC36000800127A0000093D00F0B50500F3
:1017700087B0002802D1012007B0F0BD0368002B1C
:1017800006D09B0604D1B021C748490001F057FCA0
:101790000C238027C54C7F02E2681A40E36801925F
:1017A0001F402B68DB0764D42B689B0700D5C0E083
:1017B0002B68DB0643D5019B002B00D02DE123686D
:1017C0009B0502D5EB69002BD5D02B6AFF2B04D9E2
:1017D0008021B548890001F032FC6B6AB44AB549F2
:1017E0001A400B420BD0802109028A4207D0C02246
:1017F0001202934203D0B049AB4801F020FC62686A
:10180000AE496B6A0A401A43626061682A6A09023B
:10181000090A12060A43626080225B0B013312023E
:101820009A401300E16800200A06A549120F8A5C5D
:10183000D340A44A1360FEF719FE00289CD12B6800
:101840001B0700D55BE12B685B0700D584E12B68A3
:101850009B0600D5FDE1AB6A022B04D9BA21924860
:10186000890001F0ECFBAB6A002B00D02BE20020DA
:1018700082E76B68944E334208D0A022D202934292
:1018800004D06A218848FF3101F0D9FB019B082B65
:1018900003D00C2B08D1002F06D023689B0383D5DF
:1018A0006B68002B80D166E780216B6849028B4210
:1018B00014D1226813432360FEF70CFE0600802239
:1018C00023689202134200D06EE7FEF703FEFA236C
:1018D000801B9B009842F2D903204DE7A022D20240
:1018E000934208D180232268DB02134323602268DD
:1018F0000A432260E0E722681640266022680A4018
:101900000592059A714922680A402260002BD3D1C2
:10191000FEF7E0FD0600802223689202134200D108
:1019200042E7FEF7D7FDFA23801B9B009842F2D9CD
:10193000D2E72023EA689A43012A06D9092A04D06B
:10194000CE215948490001F07AFB2B691F2B04D99D
:101950009E215548FF3101F072FB2022EB681342B3
:1019600003D02168934311432160019A042A03D0D4
:101970000C2A24D1002F22D12268520702D5002B35
:1019800000D1F8E661682A695148120201400A4311
:101990000921626022688A4313432360FFF7AAFE8D
:1019A000E368474A1B061B0FD35CD840454B1860C1
:1019B0000020FEF75BFD002800D1F9E6DCE6002BF5
:1019C00019D00921226804278A4313432360FEF7B4
:1019D00081FD060023683B4207D062682B693C49C1
:1019E0001B020A4013436360E2E6FEF773FD801BAF
:1019F0000228EFD970E7012223680427934323606C
:101A0000FEF768FD060023683B4200D1D0E6FEF7F2
:101A100061FD801B0228F6D95EE7EB69012B04D932
:101A200086212148890001F00AFBEB69002B53D085
:101A3000802322685B0013432360FEF74BFD802761
:101A40000600BF0023683B4227D02B6AFF2B04D936
:101A50008B211548890001F0F2FA6B6A144A154986
:101A60001A400B420BD0802109028A4207D0C022C3
:101A70001202934203D017490B4801F0E0FA636861
:101A80000E4A13406A6A1343636062682B6A12024B
:101A90001B06120A13436360D1E6FEF71BFD801B91
:101AA0000228CFD918E7C046E735000800100240E9
:101AB000FFDFFFFFFF9FFFFF01020000FF1FFFFF8F
:101AC000B436000800000020FFFFFEFFFFFFFBFF11
:101AD000FFE0FFFF2D0200002368C04A802713406B
:101AE0002360FEF7F7FC0600BF0023683B4200D1ED
:101AF000A5E6FEF7EFFC801B0228F6D9ECE66B6941
:101B0000012B03D9B649B74801F099FA6A69012354
:101B1000002A10D0226D022713432365FEF7DAFC5A
:101B20000600236D3B4200D08DE6FEF7D3FC801B00
:101B30000228F6D9D0E6226D02279A432265FEF7E5
:101B4000C9FC0600236D3B4200D17CE6FEF7C2FCD7
:101B5000801B0228F6D9BFE6AB68A04A134207D023
:101B6000A022D200934203D09F499E4801F067FA19
:101B700080230021A26B5B0502911A4204D1A26B63
:101B80001343A363012302938027984E7F00336899
:101B90003B4208D08022AB685200934213D1226DA1
:101BA0001343236534E033683B433360FEF792FC14
:101BB000039033683B42EDD1FEF78CFC039BC01AC7
:101BC0006428F6D988E6002B16D1236D834A802736
:101BD00013402365236D864ABF0013402365FEF73B
:101BE00079FC0600236D3B422AD0FEF773FC814B43
:101BF000801B9842F6D96FE6A021C9008B420DD117
:101C00008023216DDB000B432365236D1A4322657E
:101C1000FEF760FC80270600BF000EE0236D6F4AD0
:101C200013402365236D724A1340BAE7FEF752FC56
:101C3000704B801B984200D94EE6236D3B42F5D095
:101C4000029B012B00D002E6A36B6B4A1340A363F7
:101C5000FDE5AB69012B03D96849624801F0EFF952
:101C6000A9690123664A002918D0A16802271943EF
:101C7000A160616B0B4363638023116A9B010B437B
:101C80001362FEF727FC0600A3683B4200D0E2E5A2
:101C9000FEF720FC801B0228F6D91DE6A16802276A
:101CA0009943A160136A57490B401362FEF712FC77
:101CB0000600A3683B4200D1CDE5FEF70BFC801B7C
:101CC0000228F6D908E6019A0C2A6AD04E4E022B59
:101CD00055D14E4BEA6A1A4203D04D49414801F0B2
:101CE000AEF92A6B4B4B13400BD0802149038B423A
:101CF00007D080239B039A4203D04749394801F01B
:101D00009EF980216A6B454BC90313408B4207D073
:101D100080231B049A4203D04149324801F08FF9D5
:101D200023681E402660FEF7D5FB80260700B60418
:101D3000236833421DD1296BEB6AE2680B433949B2
:101D40000A4013436A6B80251343E36080232268B3
:101D50005B0413432360FEF7BDFB0600AD0423685C
:101D60002B4200D083E5FEF7B5FB801B0228F6D995
:101D7000B2E5FEF7AFFBC01B0228D9D9ACE523685A
:101D800080251E402660FEF7A5FB0600AD042368F3
:101D90002B4200D16BE5FEF79DFB801B0228F6D994
:101DA0009AE51800012B00D1E6E48022E368E96A95
:101DB00052021A4001208A4200D0DDE4F022296B51
:101DC00092031A408A4200D0D6E4C02000040340A7
:101DD000686B181A431E9841C0B2CDE4FFFEFFFFA6
:101DE0004B020000E7350008770200000070004059
:101DF000FFFBFFFF88130000FFFFFFEFBE020000A4
:101E000000000140FFDFFFFFFFFFFFFEFFFFFEFFBF
:101E1000F1020000FFFFF3FFF2020000FFFF7FFF6F
:101E2000F3020000FFFF02FFF7B504000F000028D7
:101E300001D10120FEBD03681B0703D17C497D4809
:101E400001F0FDF8012F03D97B497A4801F0F7F83A
:101E500001227A4D2B6813409F423AD823689B0792
:101E600040D42368DB075FD401232A681A409742D5
:101E700000D2BBE02368724D5B0700D5BEE023684B
:101E80001B0718D523696F4A13420DD0A0216E4A53
:101E9000C9001A408A4207D0C022D200934203D020
:101EA0006A49644801F0CBF8EA6823696849DB00B5
:101EB0000A401343EB60FFF71DFCEB68654A1B0605
:101EC0001B0FD35CD840644B18600020FEF7CEFA9D
:101ED000B0E72B6893433B432B602B6813409F4232
:101EE000A7D1BBE7A36880221900914314D0202218
:101EF0001900914390290FD0402219009143A02945
:101F00000AD0102219009143C02905D0F02B03D02C
:101F10005249484801F093F8F021494AD3688B436D
:101F2000A1680B43D3609CE76368032B03D94C493A
:101F3000404801F084F8424E62683368022A1CD19E
:101F40009B0300D475E70321F3688B431343F360CD
:101F5000FEF7C0FA63680190022B1BD10C22F368D4
:101F60001340082B00D17FE7FEF7B4FA019BC01A9B
:101F70003C4B9842F2D903205CE7032A02D19B0133
:101F8000E1D456E7012A02D15B07DCD451E79B0577
:101F9000D9D44EE7032B0DD10C22F36813409342A2
:101FA00000D161E7FEF796FA019BC01A2D4B9842CB
:101FB000F2D9E0E7012B13D00C22F368134200D1D1
:101FC00052E7FEF787FA019BC01A264B9842F3D9D5
:101FD000D1E7FEF77FFA019BC01A224B9842CAD87C
:101FE0000C22F3681340042BF3D13DE72A689A438F
:101FF0002A602A681A4200D01BE73BE7E368114ACF
:1020000013420DD0A021104AC9001A408A4207D0BD
:10201000C022D200934203D01349064801F00FF8C2
:10202000EB68124A1340E2681343EB6027E7C046AF
:1020300066030000E7350008670300000020024047
:1020400000100240FFFBFFFFFFFDFFFFF103000058
:10205000FFC7FFFFB4360008000000207E03000029
:102060008503000088130000EA030000FFF8FFFF6B
:10207000044B054ADB685B055B0FD35C034A1068C1
:10208000D840704700100240C4360008000000200D
:10209000044B054ADB689B045B0FD35C034A106862
:1020A000D840704700100240C436000800000020ED
:1020B000F7B5934B026804009A4203D9672191480F
:1020C00000F0BDFF23689B064DD563688E4A13421E
:1020D0000DD098218D4A49031A408A4207D08C229C
:1020E0009203934203D07321864800F0A8FF802317
:1020F0000021874D5B05AA6B00911A4204D1AA6B9F
:102100001343AB63012300938027824E7F00336823
:102110003B4200D1AFE0C022C0212868636892032F
:10212000104089021A40904200D0B6E02A6D0A4061
:1021300000D0BDE06168C0230A009B021A409A42A9
:1021400007D12B6874480340C020800301400B4333
:102150002B602B6D1A43009B2A65012B03D1AB6BBF
:102160006E4A1340AB632368DB070DD5A368032BCE
:1021700003D9DE21634800F062FF0321644AD36C77
:102180008B43A1680B43D36423689B070ED50C23B4
:10219000E2689A4303D0E9215A4800F050FF0C212D
:1021A0005B4AD36C8B43E1680B43D36423685B07C2
:1021B0000DD55B4D23692B4203D0F321514800F02C
:1021C0003EFF534A2169D36C2B400B43D3642368F1
:1021D0001B0712D56369534A134207D0802292012C
:1021E000934203D0FD21474800F029FF484A4E4959
:1021F000D36C0B4061690B43D3642368DB0513D5B3
:10220000A3694A4A134208D080229202934204D022
:1022100084213C48490000F012FF3D4A3A49D36C02
:102220000B40A1690B43D36423685B060ED5404D78
:10223000236A2B4204D014213248FF3100F0FFFE04
:10224000334A216AD36C2B400B43D36423680020AC
:102250001B0621D5374DE3692B4204D01C212948A8
:10226000FF3100F0ECFE2A4AE169D36C00202B40DC
:102270000B43D36410E033683B433360FEF72AF925
:10228000019033683B4200D045E7FEF723F9019BFC
:10229000C01A6428F5D90320FEBD1A000A408A42FC
:1022A00000D043E72A680120920300D43EE7F3E719
:1022B0000B409A4200D13DE723689B0600D439E7E2
:1022C00080232A6D286D1B0303432B652B6D0E495C
:1022D0001948114003402B652965D30500D429E72F
:1022E000FEF7F8F880270600BF002B6D3B4200D0B8
:1022F00020E7FEF7EFF8114B801B9842F5D9CAE7AB
:10230000FF0100001F360008FFFFFCFFFFFFDFFF9B
:102310000010024000700040FFFFCFFFFFFFFFEF03
:10232000FFF3FFFFFFEFFFFFFFCFFFFFFFFFFEFF0A
:10233000FFFFFFFBFFFFF3FFFFFFF7FF8813000026
:10234000036807491A680A401A609A682331FF3106
:102350008A439A6020238367002303667047C04640
:10236000DFFEFFFF70470000F8B503680400DA697C
:1023700018689E6811070AD120210A4200D16AE03C
:10238000084268D0236E2000002B5AD15AE0012168
:1023900035000D4003D190277F0038425BD00A42C0
:1023A00005D0C60503D51962E66F3143E167022106
:1023B0000A4206D0002D04D01962E66F4918314355
:1023C000E16704210A4206D0002D04D01962E66FAD
:1023D00002393143E167110708D5810601D4002D88
:1023E00004D008211962E36F1943E167E36F002B02
:1023F00028D020231A4206D0184204D0236E002B86
:1024000001D0200098472368E56F9B6820005B0699
:1024100002D408231D401AD0FFF792FF4021236801
:102420009A680A420FD09A68E06E8A439A60002840
:1024300009D01A4B8363FEF705FE002802D0E06E38
:10244000836B9847F8BD2000FFF78CFFFAE7FFF792
:1024500089FFE567F6E7802149030A4206D0750245
:1024600004D51962200000F0D9FBEBE780210A4275
:1024700003D0084201D0636E85E740210A42E1D0D3
:102480000842DFD01A6820008A431A60202363675D
:102490000023636600F0CCFDD4E7C046A124000809
:1024A000806A0023020010B55A321380083A138064
:1024B000FFF758FF10BD0000F8B54268AF4B0400AD
:1024C0009A4203D9AE49AF4800F0B9FD8022A36813
:1024D0005205934206D0AC4A134203D0AB49A948F7
:1024E00000F0ADFDAA4D2268E368AA4EAA4260D171
:1024F000A94A134203D0A949A24800F0A0FD2369CC
:10250000A74A134207D0C022D200934203D0A54964
:102510009C4800F094FD63690C221900914301D19D
:10252000002B03D1A049974800F089FD9F4BA26979
:102530001A4203D09E49934800F081FD9D4BE26909
:102540001A4203D09C498F4800F079FD2769A268A0
:1025500023683A4367691868E1693A43974F0A4329
:10256000384002431A605A68A0691640E268164370
:102570005E60AB4201D0226A10439A68904E3240AE
:1025800002439A608F4A934220D103228E4BDB6C28
:1025900013408E4AD05C80231B02994200D1DEE0BA
:1025A000082833D8FDF7B8FD9BA2A532C0323232DD
:1025B000C300334204D0AD217248090100F03FFD51
:1025C000834B226A1A429AD0824995E7824A934203
:1025D00005D10C227C4BDB6C1340804ADAE7804A41
:1025E000934200D1AFE07F4A934200D1ABE0AB42CF
:1025F00000D0A1E0C0218020734A0901D36CC00043
:102600000B40834238D003D8002B0AD001250DE0BF
:102610008020000183420ED08B42F7D1802000023F
:102620000DE0FFF725FD0025A84208D10023280072
:1026300023666366F8BD1368DB0620D54F48032286
:1026400063685A438242E1D81A038242DED30027EC
:10265000020E01025E0889197A41080011001A0071
:102660003B00FDF7F9FD604BC218604B9A42CDD894
:1026700023683D00D860D9E7FFF73CF8D3E75C4812
:10268000DDE7FFF705FD64E010254F4B61681A6830
:102690004808154006D0574BC018FDF751FD0025DE
:1026A00083B204E0544BC018FDF74AFD83B2190011
:1026B000524810398142A9D80F2118001B078843BE
:1026C0005B0F21680343CB60B0E7FFF713F840E0EE
:1026D0006368580880235B023EE00023E7E7FFF7CA
:1026E000C7FC63685B08C01861680BE0FFF7D0FCAB
:1026F000F7E71025344B61681A684808154006D082
:102700001E4BC018FDF71CFD002583B204E0384BBA
:10271000C018FDF715FD83B2190038481039814201
:1027200000D973E72168CEE7FEF7E4FFD9E76368D5
:10273000580880231B02D6E7802301251B029942FB
:10274000CBD00023E8E780231B029942C7D1FFF7D3
:102750008FFC636840005B08C01861689DE708282B
:1027600000D953E7FDF7E2FCF3FF8DFF90FF52FF26
:10277000B1FF52FF52FF52FFB4FFC04600093D00B7
:10278000C80A00006B360008FFEFFFFFC90A00000F
:1027900000480040FFCFFFFFFFDFFFFFCC0A000033
:1027A000FFFBFFFFD40A0000D50A0000FFFCFFFF7B
:1027B000D60A0000FF7FFFFFD70A0000F369FFEF92
:1027C000FFF4FFFF00380140001002405A360008B5
:1027D000FFF7FFFFD10A0000004400405E3600080A
:1027E000004C00400050004000FDFFFFFFFC0F00C8
:1027F0000024F40000127A000048E801EFFF000016
:10280000436A70B50400FF2B03D95549554800F0C1
:1028100016FC636ADB070DD5534DA36A2B4203D028
:102820005249504800F00BFC2268A16A53682B40C3
:102830000B435360636A9B070DD54D4DE36A2B42F2
:1028400003D04C49474800F0FAFB2268E16A53681C
:102850002B400B435360636A5B070DD5464D236BDA
:102860002B4203D045493F4800F0E9FB2268216B29
:1028700053682B400B435360636A1B070DD5404DD3
:10288000636B2B4203D03F49364800F0D8FB2268E7
:10289000616B53682B400B435360636ADB060DD5B5
:1028A000394DA36B2B4203D038492E4800F0C7FBAB
:1028B0002268A16B93682B400B439360636A9B066D
:1028C0000DD5334DE36B2B4203D03249254800F040
:1028D000B6FB2268E16B93682B400B439360636AFD
:1028E0005B062AD523682C4A934206D02B4A934292
:1028F00003D02B491B4800F0A2FB2A4D236C2B422E
:1029000003D02949174800F09AFB2168226C4B68D4
:102910002B4013434B6080235B039A420DD1234D20
:10292000636C2B4203D022490E4800F088FB2268DA
:10293000616C53682B400B435360636A1B060DD5D3
:102940001C4DA36C2B4203D01B49064800F077FBBB
:102950002268A16C53682B400B43536070BDC04686
:102960009A0B00006B360008FFFFFDFF9F0B000075
:10297000FFFFFEFFA60B0000FFFFFBFFAD0B0000FB
:10298000FF7FFFFFB40B0000FFEFFFFFBB0B00005A
:10299000FFDFFFFFC20B0000003801400044004091
:1029A000C90B0000FFFFEFFFCA0B0000FFFF9FFFF6
:1029B000CF0B0000FFFFF7FFD70B0000F8B50400B6
:1029C0000E0015001F002268D36933409B1B59423B
:1029D0004B41AB4201D000201BE0069B0133F3D0FA
:1029E000FDF778FD069BC01B834201D3002BEAD183
:1029F000236808491A6803200A401A609A68A331BC
:102A0000FF318A439A6020236367A36700237034F1
:102A10002370F8BD5FFEFFFFF0B587B00593436FED
:102A200004000D0017000220202B49D10138002995
:102A300046D0002A44D08023A2685B019A4204D188
:102A40002369002B01D101423AD1230070331A7857
:102A50000220012A34D0012200261A702123E667C1
:102A60006367FDF737FD230050331F800233039364
:102A70001F808023A26804905B019A4204D12369DD
:102A8000B34201D12E001D00230052331A88059B4A
:102A900092B20093049B002A0AD140212000FFF744
:102AA0008DFF00280BD1202370346360207007E075
:102AB000002280212000FFF781FF002802D00320A0
:102AC00007B0F0BD2268002D0BD133880236DB053C
:102AD000DB0D9362039B039A1B88013B9BB213801F
:102AE000D2E72B7801359362F4E7000073B5002636
:102AF0000400C667FDF7EEFC236805001B681B0792
:102B000015D423681B685B070AD580210E4B002271
:102B10000093C9032B002000FFF750FF002811D1BC
:102B2000202300206367A367703420700BE08021AE
:102B3000054B32000093890303002000FFF73EFF9E
:102B40000028DED0032076BDFFFFFF0110B5041E74
:102B500001D1012010BD81690368294A00293ED0B6
:102B6000934210D0274A93420DD0274A93420AD06D
:102B7000264A934207D0264A934204D03021FF319F
:102B8000244800F05CFA636F002B05D122007032FC
:102B90001370200000F0E4FA242301212268636707
:102BA000136820008B431360FFF786FC0128D0D008
:102BB000636A002B02D02000FFF722FE236816492B
:102BC0005A6820000A402A215A609A688A439A600B
:102BD000012219680A431A60FFF788FFBAE7934297
:102BE000D1D0084A9342CED0074A9342CBD0074A6D
:102BF0009342C8D0064A9342C5D09A214900BFE704
:102C00000038014000440040004C004000500040AB
:102C1000004800406B360008FFB7FFFF7047000018
:102C200030B59DB0382200210EA800F015FC14220A
:102C30000021684600F010FC2422002105A800F0C5
:102C40000BFC1449144A0B6800241A4080231B0112
:102C500013430B6010230E930F3B1593A0230F25F6
:102C60001B020EA8179316941894FEF77FFD2100FF
:102C7000684600950194029403940494FFF7D4F8F5
:102C800005A805950794089409940A94FFF710FA8B
:102C90001DB030BD00700040FFE7FFFFF8B5802594
:102CA000A026070000246D00F605BC4200DBF8BD3D
:102CB000002229003000FEF76BFB1920FDF710FC05
:102CC000012229003000FEF763FB1920FDF708FC04
:102CD0000134EAE7F7B500AF0500FDF715FA6A46DB
:102CE000C31DDB08DB00D31A9D462900040068469B
:102CF00000F0BAFB6E466D46AB1B9C4201DCBD4644
:102D0000F7BD2B7801223B71391D0A230248FFF7DA
:102D100083FE0135F0E7C04678010020F0B58BB0A6
:102D2000FDF7BCFBFFF77CFF1422002105A800F093
:102D300093FB04228021A24D0126EB6AA148134394
:102D4000EB62EB6A002413400193019BEA6A0327BC
:102D50000A43EA620222EB6A0B400293029BEB6A8F
:102D600099493343EB62EB6A33400393039BEB6A6D
:102D70001343EB62EB6A134004933200049BFEF7AB
:102D800007FB9F21A02000220902C005FEF700FBDF
:102D9000002220218B48FEF7FBFA802305A99B0126
:102DA0008A48059306940794FEF7BCF9C02305A949
:102DB0001B028648059307940697FEF7B3F905A909
:102DC0008348079405970697FEF7ACF9A020C02327
:102DD00005A9C005059306940794FEF7A3F97D4B5A
:102DE00005A905937C4B774806930794FEF79AF95B
:102DF000042305A9059373480D3306930796089499
:102E0000FEF790F9754B05A96E4805930696079451
:102E10000894FEF787F98023A0205B00059305A99D
:102E2000FE3BC005069607930893FEF77BF99E23A9
:102E3000A0201B0205A9C0050593069607940894D7
:102E4000FEF770F92B6B220033432B632B6B2100B1
:102E5000334000930920009BFDF77AFF0920FDF71E
:102E6000B1FF0822210005A800F0F6FA5C4D5D4B89
:102E700028002B60C0231B066B60AB19DC77AB1CF2
:102E8000DC77C223FF336B622B002C331C700423CE
:102E9000EC63AC60AC632E61EC60AC626B612C6384
:102EA000AC616C63EC61FDF779FB4F4B05A90593B1
:102EB000802328005B010693FDF77EFE4B4B05A99E
:102EC00028000593FDF778FE494B05A928000593D6
:102ED000FDF772FE3A0047492800FDF72FFD464DE9
:102EE000464B28002B60E123DB006B60AC60EE609A
:102EF0002C616C61AC61EC612C629626FEF7C2FA23
:102F000021002800FEF76EFB28000C252100FEF7AB
:102F1000AFFB3B483B4BB60103608460C460046177
:102F200084610462446246604561FFF70FFE3648E3
:102F3000364B84600360C46004618461C4610462D0
:102F4000446246604561FFF701FE3148314B8460C1
:102F50000360C46004618461C461046244624660C9
:102F60004561FFF7F3FD2C482C4B84600360C4607F
:102F700004618461C4610462446246604561FFF794
:102F8000E5FD2748274B84600360C46004618461C9
:102F9000C4610462446246604561FFF7D7FD0520C5
:102FA000FFF77CFE2048FFF795FE0134FF34A02098
:102FB0002100C005FEF72EFA1C48FDF791FAF6E74E
:102FC000001002400004005004C00000000800503F
:102FD000001C0050033000000000111020C0000051
:102FE000F807002000240140100000102000001409
:102FF00000000448680100206406002000540040DE
:103000007801002000480040B00000200038014056
:103010003007002000440040B0060020004C004073
:10302000EC03002000500040A436000810270000E8
:103030000122014B1A7070476000002070477047F2
:103040000122054B596B0A435A638022996B520542
:103050000A439A637047C0460010024030B505002D
:1030600087B01422002101A800F0F6F91F4B2A684E
:103070009A4238D180221E4B9200596BA0200A43FD
:1030800001215A63DA6AC0050A43DA62DB6A0B403F
:103090000093009B302301A901932D3B0293FEF77F
:1030A00041F88022134C144B2261921862618022F5
:1030B00012012360A2610023202220006360A3602C
:1030C000E360E2612362FDF7A9FE002801D0FFF76B
:1030D000B5FF00220C20EC641100A562FDF738FE5C
:1030E0000C20FDF76FFE07B030BDC0460024014044
:1030F00000100240B00700200800024010B5040094
:1031000086B01422002101A800F0A6F9114B226814
:103110009A421CD10221104C1048E26A0A43E26232
:10312000E36A0B400093009BC0239B000193122392
:103130000293113B03935B18049301A90133059398
:10314000FDF7F0FF8023A26B9B031343A36306B03C
:1031500010BDC04600540040001002400004005062
:1031600010B504008AB01422002105A800F074F9FB
:103170002368564A934223D18022554BD202996B41
:1031800054480A439A630222D96A1143D962DB6A1E
:1031900005A913400093009BC0231B010593032343
:1031A0000893013306920993FDF7BCFF00221D200E
:1031B0001100FDF7CDFD1D20FDF704FE0AB010BD86
:1031C000454A93421DD18022414BD201596B41485F
:1031D0000A435A630222D96A1143D962DB6A05A9FC
:1031E00013400193019BC0230593BD3B06920893B6
:1031F000FDF798FF00221B201100FDF7A9FD1B2001
:10320000DAE7364A934221D18022314B9202996B00
:10321000A0200A4301219A63DA6AC0050A43DA62F0
:10322000DB6A0B400293029B0C2305930A3B069337
:103230005B1808935B1805A90993FDF773FF00223B
:103240001C201100FDF784FD1C20B5E7244A9342A1
:1032500020D180221E4B1203996BA0200A4301212A
:103260009A63DA6AC0050A43DA62DB6A02220B401B
:103270000393039B032305930893DB18069209939A
:1032800005A9FDF74FFF00220E201100FDF760FD9C
:103290000E2091E7134A934200D08FE780220C4B17
:1032A0005203996B0B480A439A630222D96A11436D
:1032B000D962DB6A05A913400493049B1823059384
:1032C000153B0893033306920993DAE70048004060
:1032D000001002400004005000380140004400404B
:1032E000004C0040005000407047FEE770477047B8
:1032F00010B5FDF7E7F810BD10B50248FDF7C7FEA1
:1033000010BDC046B007002010B50248FDF7BEFB57
:1033100010BDC046F807002010B50348FFF724F899
:103320000248FFF721F810BDB0060020EC03002092
:1033300010B50248FFF718F810BDC046B0000020D5
:1033400010B50248FFF710F810BDC0463007002046
:1033500010B50248FFF708F810BDC04678010020FC
:103360008022104B520019680A431A60DA680E492D
:103370000A40DA601A680D490A4001211A609A6809
:103380008A439A601A680A490A401A60DA68094949
:103390000A40DA6000221A618022074B12059A6007
:1033A0007047C046001002400C40FF88F6FFF6FE52
:1033B000FFFFFBFFFFFF02FF00ED00E00D48854629
:1033C000002103E00C4B5B58435004310B480C4B7D
:1033D00042189A42F6D30B4A02E0002313600432EB
:1033E000094B9A42F9D3FFF7BBFF00F011F8FFF742
:1033F00095FCFEE700500020E836000800000020A1
:10340000040000200400002054080020FEE7000013
:1034100070B500260C4D0D4C641BA410A64209D1BA
:10342000002600F029F80A4D0A4C641BA410A6429D
:1034300005D170BDB300EB5898470136EEE7B300F5
:10344000EB5898470136F2E7E0360008E03600080E
:10345000E0360008E436000803008218934200D1E9
:10346000704719700133F9E7031C0A7801311A70AB
:103470000133002AF9D17047F8B5C046F8BC08BC42
:103480009E467047F8B5C046F8BC08BC9E467047DB
:103490002E2E5C447269766572735C53544D3332E0
:1034A0004C3078785F48414C5F4472697665725C55
:1034B0005372635C73746D33326C3078785F68611B
:1034C0006C5F6164632E63002E2E5C4472697665C6
:1034D00072735C53544D33324C3078785F48414CB2
:1034E0005F4472697665725C5372635C73746D33AA
:1034F000326C3078785F68616C5F636F7274657886
:103500002E63002E2E5C447269766572735C535490
:103510004D33324C3078785F48414C5F4472697665
:1035200065725C5372635C73746D33326C3078789F
:103530005F68616C5F646D612E63002E2E5C447267
:1035400069766572735C53544D33324C3078785FD2
:1035500048414C5F4472697665725C5372635C7378
:10356000746D33326C3078785F68616C5F67706956
:103570006F2E63002E2E5C447269766572735C5305
:10358000544D33324C3078785F48414C5F44726917
:103590007665725C5372635C73746D33326C307831
:1035A000785F68616C5F6932632E63002E2E5C4425
:1035B0007269766572735C53544D33324C3078784F
:1035C0005F48414C5F4472697665725C5372635C1C
:1035D00073746D33326C3078785F68616C5F693218
:1035E000635F65782E63002E2E5C44726976657287
:1035F000735C53544D33324C3078785F48414C5FA4
:103600004472697665725C5372635C73746D3332B5
:103610006C3078785F68616C5F7263632E63002E34
:103620002E5C447269766572735C53544D33324C30
:103630003078785F48414C5F4472697665725C53BC
:1036400072635C73746D33326C3078785F68616C70
:103650005F7263635F65782E6300010402080010E7
:1036600010100410101002101010082E2E5C44725E
:1036700069766572735C53544D33324C3078785FA1
:1036800048414C5F4472697665725C5372635C7347
:10369000746D33326C3078785F68616C5F7561721D
:1036A000742E630053544152542050524F4752419C
:1036B0004D0D0A000000000000000000010203049C
:1036C00006070809000000000102030403040608BD
:0836D0000C101820300000006E
:0836D800C0CBFF7F01000000E0
:0436E000E9000008F5
:0436E400C100000819
:0436E80000002000BE
:04000005080033BDFF
:00000001FF
