:020000040800F2
:1000000000500020913D00089D3C00089F3C0008E6
:1000100000000000000000000000000000000000E0
:10002000000000000000000000000000A93C0008E3
:100030000000000000000000AB3C0008AD3C0008E0
:10004000E13D0008E13D0008E13D0008E13D000818
:10005000E13D0008E13D0008E13D0008E13D000808
:10006000E13D0008B53C0008C53C0008E13D000842
:10007000DD3C0008E13D0008ED3C0008E13D0008E2
:10008000E13D0008E13D0008E13D000800000000FE
:10009000E13D0008E13D0008E13D0008E13D0008C8
:1000A000E13D0008E13D0008E13D0008053D000894
:1000B000153D0008253D000800000000E13D000856
:1000C00010B5064C2378002B07D1054B002B02D02E
:1000D000044800E000BF0123237010BD040000208D
:1000E00000000000683E0008044B10B5002B03D050
:1000F0000349044800E000BF10BDC04600000000F6
:1001000008000020683E00080023C25C0133002A7A
:10011000FBD1581E7047000002B4714649084900DF
:10012000095649008E4402BC7047C04602B471466D
:1001300049084900095C49008E4402BC7047C0462A
:1001400003B47146490840004900095E49008E44E5
:1001500003BC7047002243088B4274D303098B42CF
:100160005FD3030A8B4244D3030B8B4228D3030C87
:100170008B420DD3FF22090212BA030C8B4202D329
:100180001212090265D0030B8B4219D300E0090A51
:10019000C30B8B4201D3CB03C01A5241830B8B425A
:1001A00001D38B03C01A5241430B8B4201D34B0343
:1001B000C01A5241030B8B4201D30B03C01A5241A8
:1001C000C30A8B4201D3CB02C01A5241830A8B422D
:1001D00001D38B02C01A5241430A8B4201D34B0216
:1001E000C01A5241030A8B4201D30B02C01A52417A
:1001F000CDD2C3098B4201D3CB01C01A524183092E
:100200008B4201D38B01C01A524143098B4201D367
:100210004B01C01A524103098B4201D30B01C01A92
:100220005241C3088B4201D3CB00C01A524183080C
:100230008B4201D38B00C01A524143088B4201D339
:100240004B00C01A5241411A00D201465241104699
:100250007047FFE701B5002000F006F802BDC04678
:100260000029F7D076E770477047C046002B11D1C0
:10027000002A0FD1002900D1002802D00021C94353
:10028000081C07B4024802A14018029003BDC046F2
:10029000D9FFFFFF03B4684601B5029800F006F8E5
:1002A000019B9E4602B00CBC7047C046F0B5574655
:1002B0004E464546DE46E0B5040083B00D0092464A
:1002C00099468B422FD82CD04946504600F0CCF8A6
:1002D00029000600200000F0C7F8331A9846203B9A
:1002E0009B4600D574E053465A4693401F00534640
:1002F000424693401E00AF4229D826D05B46A41B3D
:10030000BD41002B00DA79E0002200230092019326
:1003100001235A46934001930123424693400093A0
:1003200019E08242D0D900220023009201930C9B55
:10033000002B01D01C605D600098019903B03CBCAB
:1003400090469946A246AB46F0BDA342D6D90022BC
:100350000023009201934346002BE8D0FB0772086C
:100360001A4346467B080EE0AB4201D1A2420CD8AC
:10037000A41A9D41012024196D410021013E241839
:100380004D41002E06D0AB42EED9013E24196D41FD
:10039000002EF8D15B460098019900196941002BA5
:1003A00022DB2B005A46D3402A004446E2401C0080
:1003B0005B461500002B2CDB26009E4033002600F8
:1003C0004746BE403200801A994100900191AEE745
:1003D000424620239B1A5246DA40414613004A46C1
:1003E0008A4017001F4382E7424620239B1A2A00B7
:1003F00046469A402300F3401343D5E74246202364
:1004000000219B1A0022009101920122DA40019200
:1004100082E74246202326009B1ADE402F00B44686
:10042000974066463B003343C9E7C0461C21012381
:100430001B04984201D3000C10391B0A984201D3C7
:10044000000A08391B09984201D30009043902A2A5
:10045000105C40187047C04604030202010101010C
:10046000000000000000000010B5002903D1FFF7D4
:10047000DDFF203002E0081CFFF7D8FF10BDC046AA
:10048000FA210A4B70B5890005001868FFF762FE73
:1004900000F0B4FC04000120002C05D10238220039
:1004A000290000F05FFC200070BDC0460000002065
:1004B0000223084A10B5116800200B431360FFF7B0
:1004C000DFFF041E03D103F057FA200010BD012402
:1004D000FBE7C04600200240024A13680133136064
:1004E0007047C04620000020014B18687047C04686
:1004F0002000002070B50400FFF7F6FF631C5A1EB1
:1005000093410500E418FFF7EFFF401B8442FAD83F
:1005100070BD0000084B13B5040008491868FFF7C8
:1005200019FE44430194019B002B00D113BD019B94
:10053000013B0193F7E7C0460000002040420F0056
:100540000321036870B59A6804000A40012A0DD19E
:10055000196811420AD0002070BD10230120626D7D
:1005600013436365A36D0343A365F5E799680F4AD9
:100570001142F2D101259A6828002A439A60FFF7B8
:10058000C9FFFFF7B1FF060023681B682B42E2D1C9
:10059000FFF7AAFF801B0A28F6D91023626D0120FD
:1005A00013436365A36D1D43A565D5E71700008060
:1005B000F7B504000120002C00D1D1E0694B22687E
:1005C0009A4204D0CE216848490002F068FF626870
:1005D000664B134016D0802051004908C005814267
:1005E00010D0802109068A420CD080225203934207
:1005F00008D080229203934204D09E215A48FF31B2
:1006000002F04DFF1823A2689A4304D0CF21564828
:10061000490002F044FF2023E2689A4304D0A0215D
:100620005148FF3102F03BFF2369013B012B04D904
:10063000D0214D48490002F032FF661CF37F012BA8
:1006400004D9A2214848FF3102F029FFA31C0193DD
:10065000DB7F012B04D9D1214348490002F01FFF61
:10066000434BA26A1A4204D0A4213F48FF3102F052
:1006700016FF636A402219001800914380329043AC
:100680000FD08022520091420BD08032934208D08A
:10069000C13BFF3B012B04D9D2213348490002F072
:1006A000FEFE23002C331B78012B04D9A6212E48F3
:1006B000FF3102F0F4FE04226369043B934304D04B
:1006C000D3212948490002F0EAFE2A4B226B1A4244
:1006D00004D0A8212448FF3102F0E1FEA369012BD8
:1006E00004D9D4212048490002F0D9FE636B012BC4
:1006F00004D9AA211C48FF3102F0D1FEE369012B85
:1007000004D9D5211848490002F0C9FEA36B072B74
:1007100004D9AC211448FF3102F0C1FEE36B012B78
:1007200004D9D6211048490002F0B9FE636D002BB0
:1007300006D122005032A3652000137003F02AF97D
:10074000636DDB0604D4042322689168194013D03A
:100750001023626D0120134363650023503423701E
:10076000FEBDC04600240140843E0008FFFFF3FFA9
:10077000FFF3FFFFFFEFFFFF636D6A48184002239E
:1007800003436365032390681840674B012802D137
:10079000176807421AD180256768ED057800400880
:1007A000A84204D080200006874200D09EE0106955
:1007B0008000800810611069074317611827D0680E
:1007C000A568B843D060D0682843D0601A685748FD
:1007D00002401A60626B1868520602431A60802356
:1007E00022685B059068184202D1906803439360C9
:1007F000D3684F4803402069D360D768E368022874
:1008000000D10421256BF07F2B43A5693B43AE0348
:10081000E5693343EE0333434603334326002C3666
:100820003678760033430B43C221D360636AFF31CD
:100830008B4204D0A56AD1682B430B43D360A31C21
:10084000DB7F012B06D100285CD18023D1685B02BD
:100850000B43D360E36B012B5CD1216C1C2905D8C1
:10086000344ACA409343DBB2002B04D09321324870
:10087000890002F014FE636C60221900914309D0D4
:10088000802907D080225200934203D02B492A4866
:1008900002F005FE2A4BA26C1A4203D029492648D1
:1008A00002F0FDFD226828491369606C0B4013615A
:1008B000236C11690343A06C03430B4313610123B1
:1008C00011690B4313610721236800205A698A4389
:1008D0005A615A69A16B0A435A610322A065636D8C
:1008E00093431A0001231343636539E71069174DD9
:1008F0008000800810611868284018601868074355
:100900001F605BE72021606D01436165A16D0B43B2
:10091000A3659FE7012113690B42D4D013698B4370
:10092000D0E7C046FDFEFFFF08270140FFFFFFFDA7
:100930001902FEFF11111111843E00084D02000042
:10094000FFFDFFFF4E02000003FCFFFFFFFFC3FFA0
:10095000F7B5244B0192026804000F009A4203D0BD
:100960002149224802F09BFD236802209B685B0717
:1009700030D4260050363378012B2BD0012333702E
:10098000E369012B27D1636D194A00251A408023A2
:100990005B0013436365E06C164BA5653570C3625D
:1009A000154B21680363154B43631C230B604A6896
:1009B0000C3B13434B600123CA681343CB603A00DE
:1009C0004031019B00F0F8FA042328002268916866
:1009D0000B439360FEBD2000FFF7B2FD0028F9D164
:1009E000D1E7C04600240140D9050000843E00083C
:1009F000FEF0FFFF050A0008770A0008850A0008D4
:100A0000704700005022836A10B5596D11422BD1F6
:100A1000596DB132FF320A43C0215A651A68090183
:100A2000D068084213D1591CC97F00290FD1116821
:100A300009070CD5916849070DD40C2051688143F2
:100A400051605A6D0A49114001220A435A65180043
:100A5000FFF7D6FF10BD2022596D0A435A650122C7
:100A6000996D0A439A65F2E7DB6C5B6B9847F1E797
:100A7000FEFEFFFF704710B5806AFFF7FBFF10BD59
:100A8000704770474023806A10B5426D1343436539
:100A90000423826D13438365FFF7F3FF10BD00004D
:100AA000444B026870B504009A4203D0424943485F
:100AB00002F0F5FC651CEB7F012B03D940493F4850
:100AC00002F0EDFC04226369043B934303D03D49EB
:100AD0003A4802F0E4FC042223681968114202D06B
:100AE0005968114206D10822196811422BD0596861
:100AF000114228D0626DD20604D48022616D92002A
:100B00000A436265C022D9681201114212D1EA7FFC
:100B1000002A0FD11A6812070CD59A6852073FD4E1
:100B20000C215A688A435A60636D274A1A40012390
:100B3000134363652000FFF763FFA369012B02D015
:100B40000C2223681A60802523681A682A420CD078
:100B50005B682B4209D08023626D5B02134363659F
:100B60002000FFF78DFF23681D601022236819689D
:100B7000114214D05968114211D0226B002A02D0C0
:100B8000DA68D20708D50222A16D20000A43A265C7
:100B900010221A60FFF775FF102223681A6070BDDB
:100BA0002023626D134363650123A26D1343A36584
:100BB000C0E7C0460024014094060000843E0008BF
:100BC0009506000096060000FEFEFFFF4B4B0268F4
:100BD00070B505000C009A4203D04949494802F01B
:100BE0005EFC2368012B36D0474A934233D0474AF4
:100BF000934230D0464A93422DD0464A93422AD05F
:100C0000454A934227D0454A934224D0444A9342CE
:100C100021D0444A93421ED0434A93421BD0434AB8
:100C2000934218D0424A934215D0424A934212D07E
:100C3000414A93420FD0414A93420CD0404A9342DA
:100C400009D0404A934206D03F4A934203D03F49DD
:100C50002C4802F024FC63683D4A9B18012B04D900
:100C6000F0212848C90002F01AFC2E0050363378D3
:100C70000220012B0BD02A680138936830705B0783
:100C800006D520236A6D13436B650023337070BD56
:100C90008020304965682368C0028D421BD0956A68
:100CA0005903490B29439162034208D080232A4A01
:100CB0001B0411680A200B431360FFF72BFC236809
:100CC0009B0305D58023244ADB0311680B43136083
:100CD00000203070DBE7916A5C03640BA1439162F2
:100CE000034204D01C491D480A6802400A609B0365
:100CF000EED5194A1A4913680B40E8E70024014071
:100D00007E070000843E0008020000040400000882
:100D10000800000C10000010200000144000001813
:100D20008000001C000100200002002400040028B4
:100D30000008002C00100030002000340040003873
:100D40000080003C00000448000002447F070000CF
:100D500000F0FFFF0110000008270140FFFF7FFFA8
:100D6000FFFFBFFF70B504000D00032903D98721E1
:100D7000164802F094FBA901002C14DA0F23E4B208
:100D80002340083B124A9B089B009B1803221440F7
:100D90009440FC3215000A40A540A240D869A843FF
:100DA0000243DA6170BD0325A3082C40AC40FC353A
:100DB0002E00084A9B009B18C022A6402940A14053
:100DC00092009858B04301439950EBE7BC3E0008AD
:100DD00000ED00E000E100E010B5041E03DA972109
:100DE000044802F05CFB1F231C401E3BA340024A48
:100DF000136010BDBC3E000800E100E0094A431E3C
:100E0000012093420DD8C021074A08485360036A65
:100E100009061B021B0A0B43036200200723906094
:100E200013607047FFFFFF0010E000E000ED00E0FE
:100E3000F8B504000120002C00D19EE023684F4A41
:100E4000934215D04E4A934212D04E4A93420FD04D
:100E50004D4A93420CD04D4A934209D04C4A93429A
:100E600006D04C4A934203D096214B4802F017FB20
:100E700063680A2B06D90C3B032B03D997214648FC
:100E800002F00DFBA36810221900914307D08022C5
:100E9000D201934203D098213F4802F000FB402347
:100EA000E2689A4303D099213B4802F0F8FA802384
:100EB00022699A4303D09A21374802F0F0FA636915
:100EC000364A134207D080229200934203D09B21DE
:100ED000314802F0E4FAA369314A134207D0802274
:100EE0001201934203D09C212B4802F0D8FA202310
:100EF000E2699A4303D09D21274802F0D0FA294B9A
:100F0000226A1A4203D09E21234802F0C8FA2568BB
:100F1000254B1421E818FFF71DF9244B80002364AA
:100F20000223A21D6064D3772E68214BA1681E4066
:100F3000E36827690B433B4367693B43A7693B432E
:100F4000E7693B43276A3B4333432B608023DB0144
:100F500099420CD01C2528400D3D854015490B6851
:100F6000AB430B6063680D6883402B430B6000202C
:100F70000123E0630534D377E077F8BD0800024031
:100F80001C00024030000240440002405800024071
:100F90006C00024080000240F73E0008FFFEFFFFA9
:100FA000FFFBFFFFFFCFFFFFF8FFFDBF0000024088
:100FB0000F80FFFFA8000240F7B515001F005A1E62
:100FC000234B04000E009A4204D9AB21214849006A
:100FD00002F065FA631DDA7F0220012A2AD001227D
:100FE000DA77A21D9446D27F0021D2B2012A2CD1F9
:100FF0006346D8772368E16319681A309143196012
:10100000216C0191616C0840824001994A60A2689C
:101010005F602168102A0ED19D60DE60226B002A7D
:101020000CD00E22186802431A60012300200A68BF
:1010300013430B60FEBD9E60DD60EFE704201A687D
:1010400082431A6018680A22EDE7D977F2E7C046B2
:10105000FEFF0000F73E000870B5841DE37F022B01
:1010600004D00423C363033B180070BD0E21036842
:10107000456C1A688A431A60012219689143196005
:101080001C232B4015009D40016C431D4D60E277F1
:101090000024826BDC771300A242E5D09047230046
:1010A000E2E7F8B51C220427466C016C32403E0092
:1010B00096400D6803681C682E420DD03C420BD050
:1010C0001A68920602D41A68BA431A60036B4E601B
:1010D000002B19D0984717E002273E0096402E4279
:1010E00013D03C4211D01A68920606D40A241A681A
:1010F000A2431A600122831DDA770022431D4E604D
:10110000DA77C36A9342E5D1F8BD082637009740E5
:101110003D42F9D03442F7D00E251C68AC431C6028
:1011200001231C009440821D4C60C363D3770022CE
:10113000431DDA77436BE5E74B68F7B504000D0014
:10114000032B12D91A00113A012A0ED9854A864971
:101150001A40521885490A4207D0854A9B180B420B
:1011600003D0AE21834802F09AF9AB68022B03D971
:10117000AF21804802F093F9A023DB059C420BD0FD
:101180007D4B9C4208D07D4B9C4205D07C4B9C42C1
:1011900002D07C4B9C4207D12B689AB2002A03D024
:1011A000794A134393420DD0784B9C4206D12B6869
:1011B000774A134202D01343934203D0B0216D48C3
:1011C00002F06DF900272B681A00FA4000D1F7BD34
:1011D0000122BA4001921A40009200D1C0E01022D0
:1011E0006B689343022B2CD1A023DB059C4212D0C9
:1011F000614B9C420FD0614B9C420CD0604B9C4297
:1012000009D0604B9C4206D0604B9C4203D0BF216A
:10121000584802F044F92B69072B03D9C0215548DF
:1012200002F03DF907220F203A4092009040FB085F
:101230009B00E318196A81432869904002000A4321
:101240001A6210226B687E009343013B012B19D870
:10125000EB68032B03D9CE21464802F020F9032284
:10126000B240A368012193431A00EB68B3401343D3
:10127000A3606268019B9A436B681B090B40BB40EB
:101280001343636003239C46B34061466A68DB43B3
:101290001140B1402068184001432160E1681940C5
:1012A000AB68B3400B43E360D30059D50120394903
:1012B0000F264B6B034360463840800086404B63EB
:1012C000354BB9088900C9188B68B343A026019330
:1012D000F6050023B44214D0274E0133B44210D097
:1012E000264E0133B4420CD0254E6346B44208D09A
:1012F000244E0133B44204D0284BE3185E1EB341A0
:1013000005338340019803438B602549009B0E6899
:10131000D84333439C46D30302D4330003409C4656
:1013200063460B604E68009B33439C46930302D494
:10133000330003409C4663464B608E68009B3343FA
:101340009C46D30202D4330003409C4663468B6024
:10135000CE68009B3343920201D433000340CB603C
:10136000013730E7FFFFDFFF0000EFEFFFFFFEFF79
:101370000000DFEF2F3F000800040050000800507D
:10138000000C005000100050FFFF0000001C005037
:1013900003060000001002400000014000E4FFAF1F
:1013A00000040140A02370B5DB0504000D00160009
:1013B00098420BD0154B984208D0154B984205D057
:1013C000144B984202D0144B98420AD1002D12D0EF
:1013D000012E16D99E211148FF3102F060F8A56157
:1013E00070BD0F4B984206D10E4B194203D01A0024
:1013F0000A439A42ECD0CE210848490002F04FF847
:10140000E6E7002EEBD1A562EAE7C04600040050F3
:1014100000080050000C0050001000502F3F000842
:10142000001C00500306000070B504000120002CD1
:1014300000D18AE023684A4A93420AD0494A93423B
:1014400007D0494A934204D0EF214848490002F0AE
:1014500026F8474BA2689A4204D9E0214348FF315D
:1014600002F01DF8E368013B012B04D9F0213F484D
:10147000490002F014F83F4E2369334204D0E221C0
:101480003A48FF3102F00BF86369FF2B04D9F121D0
:101490003648490002F003F8A369072B04D9E42178
:1014A0003248FF3101F0FBFF334BE2691A4204D0AE
:1014B000F2212E48490001F0F2FF304B226A1A4215
:1014C00004D0E6212948FF3101F0E9FF250041352C
:1014D0002B78DBB2002B05D12200403213702000A4
:1014E00002F0A8FA242301212B702368A0681A684F
:1014F0008A431A606168224A0A401A619A68E16860
:1015000032409A60012921D18022120202439A605E
:1015100059681C4A00200A435A60DA68616916401B
:101520002269DE600A43A16909020A43DA60216A7E
:10153000E2690A431A60012219680A431A602023EB
:1015400060642B7020634234207070BD84221202CC
:1015500002439A600229DBD1802212015A60D7E748
:10156000005400400058004000780040683F0008E8
:10157000FF030000FF7FFFFFFFFFF7FFFFFFFDFFFF
:10158000FFFFFFF000800002F8B51D4A0368060067
:101590000C00934209D01B4A934206D01A4A934248
:1015A00003D06421194801F07AFF194D2C4203D071
:1015B0006521164801F073FF41239C46B4446346FD
:1015C0001A780220D2B2202A19D1370040373B784E
:1015D000012B14D0242361460B7001213368186855
:1015E00088431860186805401D60186804431C6033
:1015F000186801431960002063461A703870F8BDFE
:10160000005400400058004000780040A03F00080F
:10161000FFEFFFFFF8B51B4A036805000C0093427B
:1016200009D0194A934206D0184A934203D0922116
:10163000174801F034FF0F2C03D99321144801F00F
:101640002EFF2E00413632780220D2B2202A17D146
:10165000290040310B78012B12D0242333702B68E2
:1016600001381D680B4F85431D601D6824023D40F5
:101670002C431C601C6820431860002032700870E6
:10168000F8BDC046005400400058004000780040BB
:10169000A03F0008FFF0FFFF0C22184B10B5D968DF
:1016A0000A40082A26D00C2A06D0042A1AD11B6820
:1016B000DB0621D4124810BD8A021248120F825C48
:1016C0000902D868890F0131C00304D50E48504380
:1016D000FEF740FDEFE71B68DB0601D50B48F6E798
:1016E0000748F4E780205B6800021B045B0F0133AE
:1016F0009840E0E70448DEE70448DCE700100240D9
:101700000024F4005043000800127A0000093D0054
:10171000F0B5050087B0002802D1012007B0F0BD68
:101720000368002B06D09B0604D1B021C7484900AE
:1017300001F0B5FE0C238027C54C7F02E2681A40F9
:10174000E36801921F402B68DB0764D42B689B077A
:1017500000D5C0E02B68DB0643D5019B002B00D0F1
:101760002DE123689B0502D5EB69002BD5D02B6AB0
:10177000FF2B04D98021B548890001F090FE6B6AE7
:10178000B44AB5491A400B420BD0802109028A4263
:1017900007D0C0221202934203D0B049AB4801F0F7
:1017A0007EFE6268AE496B6A0A401A4362606168F5
:1017B0002A6A0902090A12060A43626080225B0B48
:1017C000013312029A401300E16800200A06A5497D
:1017D000120F8A5CD340A44A1360FEF751FE002822
:1017E0009CD12B681B0700D55BE12B685B0700D5FC
:1017F00084E12B689B0600D5FDE1AB6A022B04D97E
:10180000BA219248890001F04AFEAB6A002B00D051
:101810002BE2002082E76B68944E334208D0A0226E
:10182000D202934204D06A218848FF3101F037FE8A
:10183000019B082B03D00C2B08D1002F06D0236866
:101840009B0383D56B68002B80D166E780216B6892
:1018500049028B4214D1226813432360FEF744FEF1
:101860000600802223689202134200D06EE7FEF742
:101870003BFEFA23801B9B009842F2D903204DE7E0
:10188000A022D202934208D180232268DB021343B4
:10189000236022680A432260E0E72268164026603F
:1018A00022680A400592059A714922680A4022601E
:1018B000002BD3D1FEF718FE060080222368920287
:1018C000134200D142E7FEF70FFEFA23801B9B0074
:1018D0009842F2D9D2E72023EA689A43012A06D92E
:1018E000092A04D0CE215948490001F0D8FD2B69BE
:1018F0001F2B04D99E215548FF3101F0D0FD202235
:10190000EB68134203D02168934311432160019A8D
:10191000042A03D00C2A24D1002F22D12268520796
:1019200002D5002B00D1F8E661682A6951481202FD
:1019300001400A430921626022688A4313432360FD
:10194000FFF7AAFEE368474A1B061B0FD35CD8408B
:10195000454B18600020FEF793FD002800D1F9E602
:10196000DCE6002B19D00921226804278A4313439F
:101970002360FEF7B9FD060023683B4207D062688A
:101980002B693C491B020A4013436360E2E6FEF701
:10199000ABFD801B0228EFD970E7012223680427E2
:1019A00093432360FEF7A0FD060023683B4200D16D
:1019B000D0E6FEF799FD801B0228F6D95EE7EB69B9
:1019C000012B04D986212148890001F068FDEB69CB
:1019D000002B53D0802322685B0013432360FEF763
:1019E00083FD80270600BF0023683B4227D02B6A77
:1019F000FF2B04D98B211548890001F050FD6B6A3B
:101A0000144A15491A400B420BD0802109028A4220
:101A100007D0C0221202934203D017490B4801F0AD
:101A20003EFD63680E4A13406A6A1343636062684E
:101A30002B6A12021B06120A13436360D1E6FEF7FB
:101A400053FD801B0228CFD918E7C046DB3F0008B2
:101A500000100240FFDFFFFFFF9FFFFF01020000B9
:101A6000FF1FFFFF3843000800000020FFFFFEFFBC
:101A7000FFFFFBFFFFE0FFFF2D0200002368C04ACD
:101A8000802713402360FEF72FFD0600BF00236868
:101A90003B4200D1A5E6FEF727FD801B0228F6D9C0
:101AA000ECE66B69012B03D9B649B74801F0F7FCA6
:101AB0006A690123002A10D0226D0227134323658F
:101AC000FEF712FD0600236D3B4200D08DE6FEF7C7
:101AD0000BFD801B0228F6D9D0E6226D02279A431F
:101AE0002265FEF701FD0600236D3B4200D17CE636
:101AF000FEF7FAFC801B0228F6D9BFE6AB68A04AC5
:101B0000134207D0A022D200934203D09F499E489F
:101B100001F0C5FC80230021A26B5B0502911A42F3
:101B200004D1A26B1343A363012302938027984E31
:101B30007F0033683B4208D08022AB68520093425A
:101B400013D1226D1343236534E033683B43336084
:101B5000FEF7CAFC039033683B42EDD1FEF7C4FCAC
:101B6000039BC01A6428F6D988E6002B16D1236D92
:101B7000834A802713402365236D864ABF001340A4
:101B80002365FEF7B1FC0600236D3B422AD0FEF729
:101B9000ABFC814B801B9842F6D96FE6A021C900AF
:101BA0008B420DD18023216DDB000B432365236D18
:101BB0001A432265FEF798FC80270600BF000EE05E
:101BC000236D6F4A13402365236D724A1340BAE7B1
:101BD000FEF78AFC704B801B984200D94EE6236DBD
:101BE0003B42F5D0029B012B00D002E6A36B6B4A6F
:101BF0001340A363FDE5AB69012B03D96849624833
:101C000001F04DFCA9690123664A002918D0A1689A
:101C100002271943A160616B0B4363638023116A40
:101C20009B010B431362FEF75FFC0600A3683B4277
:101C300000D0E2E5FEF758FC801B0228F6D91DE62D
:101C4000A16802279943A160136A57490B401362A8
:101C5000FEF74AFC0600A3683B4200D1CDE5FEF743
:101C600043FC801B0228F6D908E6019A0C2A6AD0A8
:101C70004E4E022B55D14E4BEA6A1A4203D04D49C3
:101C8000414801F00CFC2A6B4B4B13400BD08021D8
:101C900049038B4207D080239B039A4203D04749D4
:101CA000394801F0FCFB80216A6B454BC9031340A6
:101CB0008B4207D080231B049A4203D0414932480B
:101CC00001F0EDFB23681E402660FEF70DFC802628
:101CD0000700B604236833421DD1296BEB6AE26822
:101CE0000B4339490A4013436A6B80251343E36071
:101CF000802322685B0413432360FEF7F5FB060094
:101D0000AD0423682B4200D083E5FEF7EDFB801B7A
:101D10000228F6D9B2E5FEF7E7FBC01B0228D9D9A5
:101D2000ACE5236880251E402660FEF7DDFB06003B
:101D3000AD0423682B4200D16BE5FEF7D5FB801B79
:101D40000228F6D99AE51800012B00D1E6E480229A
:101D5000E368E96A52021A4001208A4200D0DDE4B9
:101D6000F022296B92031A408A4200D0D6E4C020A8
:101D700000040340686B181A431E9841C0B2CDE4BA
:101D8000FFFEFFFF4B020000DB3F00087702000070
:101D900000700040FFFBFFFF88130000FFFFFFEF14
:101DA000BE02000000000140FFDFFFFFFFFFFFFE5B
:101DB000FFFFFEFFF1020000FFFFF3FFF202000051
:101DC000FFFF7FFFF3020000FFFF02FFF7B50400F3
:101DD0000F00002801D10120FEBD03681B0703D1BD
:101DE0007C497D4801F05BFB012F03D97B497A4890
:101DF00001F055FB01227A4D2B6813409F423AD8DF
:101E000023689B0740D42368DB075FD401232A683B
:101E10001A40974200D2BBE02368724D5B0700D5A1
:101E2000BEE023681B0718D523696F4A13420DD003
:101E3000A0216E4AC9001A408A4207D0C022D200AF
:101E4000934203D06A49644801F029FBEA68236998
:101E50006849DB000A401343EB60FFF71DFCEB68A9
:101E6000654A1B061B0FD35CD840644B18600020EA
:101E7000FEF706FBB0E72B6893433B432B602B68D0
:101E800013409F42A7D1BBE7A3688022190091436A
:101E900014D020221900914390290FD0402219001C
:101EA0009143A0290AD0102219009143C02905D0DE
:101EB000F02B03D05249484801F0F1FAF021494A89
:101EC000D3688B43A1680B43D3609CE76368032B03
:101ED00003D94C49404801F0E2FA424E6268336847
:101EE000022A1CD19B0300D475E70321F3688B43BE
:101EF0001343F360FEF7F8FA63680190022B1BD1DD
:101F00000C22F3681340082B00D17FE7FEF7ECFAB0
:101F1000019BC01A3C4B9842F2D903205CE7032A8C
:101F200002D19B01E1D456E7012A02D15B07DCD440
:101F300051E79B05D9D44EE7032B0DD10C22F36852
:101F40001340934200D161E7FEF7CEFA019BC01A1D
:101F50002D4B9842F2D9E0E7012B13D00C22F36805
:101F6000134200D152E7FEF7BFFA019BC01A264B7D
:101F70009842F3D9D1E7FEF7B7FA019BC01A224B7A
:101F80009842CAD80C22F3681340042BF3D13DE7E2
:101F90002A689A432A602A681A4200D01BE73BE766
:101FA000E368114A13420DD0A021104AC9001A401B
:101FB0008A4207D0C022D200934203D01349064878
:101FC00001F06DFAEB68124A1340E2681343EB60CC
:101FD00027E7C04666030000DB3F000867030000F8
:101FE0000020024000100240FFFBFFFFFFFDFFFF4B
:101FF000F1030000FFC7FFFF384300080000002086
:102000007E0300008503000088130000EA0300003F
:10201000FFF8FFFF044B054ADB685B055B0FD35CF1
:10202000034A1068D8407047001002404843000837
:1020300000000020044B054ADB689B045B0FD35C67
:10204000034A1068D8407047001002404843000817
:1020500000000020F7B5934B026804009A4203D9B0
:102060006721914801F01BFA23689B064DD56368F0
:102070008E4A13420DD098218D4A49031A408A4254
:1020800007D08C229203934203D07321864801F03B
:1020900006FA80230021874D5B05AA6B00911A4246
:1020A00004D1AA6B1343AB63012300938027824EB4
:1020B0007F0033683B4200D1AFE0C022C0212868D6
:1020C00063689203104089021A40904200D0B6E043
:1020D0002A6D0A4000D0BDE06168C0230A009B025F
:1020E0001A409A4207D12B6874480340C0208003ED
:1020F00001400B432B602B6D1A43009B2A65012B7B
:1021000003D1AB6B6E4A1340AB632368DB070DD57D
:10211000A368032B03D9DE21634801F0C0F9032132
:10212000644AD36C8B43A1680B43D36423689B0739
:102130000ED50C23E2689A4303D0E9215A4801F0F6
:10214000AEF90C215B4AD36C8B43E1680B43D3643B
:1021500023685B070DD55B4D23692B4203D0F32128
:10216000514801F09CF9534A2169D36C2B400B4331
:10217000D36423681B0712D56369534A134207D0FF
:1021800080229201934203D0FD21474801F087F954
:10219000484A4E49D36C0B4061690B43D3642368B2
:1021A000DB0513D5A3694A4A134208D08022920264
:1021B000934204D084213C48490001F070F93D4A23
:1021C0003A49D36C0B40A1690B43D36423685B0687
:1021D0000ED5404D236A2B4204D014213248FF31E2
:1021E00001F05DF9334A216AD36C2B400B43D36471
:1021F000236800201B0621D5374DE3692B4204D00C
:102200001C212948FF3101F04AF92A4AE169D36CBF
:1022100000202B400B43D36410E033683B43336012
:10222000FEF762F9019033683B4200D045E7FEF7C4
:102230005BF9019BC01A6428F5D90320FEBD1A0082
:102240000A408A4200D043E72A680120920300D462
:102250003EE7F3E70B409A4200D13DE723689B0637
:1022600000D439E780232A6D286D1B0303432B65B7
:102270002B6D0E491948114003402B652965D30584
:1022800000D429E7FEF730F980270600BF002B6D48
:102290003B4200D020E7FEF727F9114B801B984204
:1022A000F5D9CAE7FF01000013400008FFFFFCFF5B
:1022B000FFFFDFFF0010024000700040FFFFCFFF74
:1022C000FFFFFFEFFFF3FFFFFFEFFFFFFFCFFFFF7A
:1022D000FFFFFEFFFFFFFFFBFFFFF3FFFFFFF7FF27
:1022E00088130000036807491A680A401A609A6850
:1022F0002331FF318A439A602023836700230366DA
:102300007047C046DFFEFFFFF8B51300426F0400C0
:102310000220202A35D10138002932D0002B30D0BC
:102320008022A5685201954204D12269002A01D178
:10233000014226D12600703632780220012A20D0B0
:1023400022000125503235700027E164138053804C
:102350002122A06EE7676267B84213D00E4A8763F6
:10236000C2620E4A02630E4A426322682832FEF7B6
:1023700023FEB84206D010232800E367DB1837702D
:102380006367F8BD4022002023681A62996892189A
:102390000A4330709A60F4E7552400088724000847
:1023A000DF240008F8B51300826F05000220202A00
:1023B00037D10138002934D0002B32D08022AC68CC
:1023C0005201944204D12A69002A01D1014228D144
:1023D0002E00703632780220012A22D02A000124F1
:1023E000583234700027696513802222E86EEF6747
:1023F000AA67B84216D0144A8763C262134A0263BE
:10240000134A42632A68243294460A006146FEF762
:10241000D3FDB84206D010232000EB67DB183770DD
:102420006B67F8BD802200202B685200196830705D
:102430000A431A60012299680A439A604022996807
:102440000A439A60EDE7C04691240008D3240008AF
:10245000DF2400082021036810B51B68826A0B4046
:102460000CD1110052310B80802113689A688A4385
:102470009A60402219680A431A6010BD100001F0EA
:1024800001F8FAE7704710B5806AFFF7FBFF10BD4F
:102490000368826A20201B6810B5034011D1110027
:1024A0005A310B801368094C1968214019609968EA
:1024B0000334FF34A143996099683F34A143996084
:1024C0009067100000F0E4FF10BDC046FFFEFFFF64
:1024D000704710B5806AFFF7FBFF10BD704710B55D
:1024E000846A2368626FA16F986800060BD5212A61
:1024F00009D122000020523210801A68C030824375
:102500001A60202262679B685B0608D5222906D1E3
:10251000230000225A331A802000FFF7E3FE102325
:10252000E26F20001343E367FFF7D8FF10BD000000
:10253000F8B503680400DA6918689E6811070AD1C3
:1025400020210A4200D16AE0084268D0236E2000B0
:10255000002B5AD15AE0012135000D4003D19027BC
:102560007F0038425BD00A4205D0C60503D5196208
:10257000E66F3143E16702210A4206D0002D04D004
:102580001962E66F49183143E16704210A4206D017
:10259000002D04D01962E66F02393143E16711075B
:1025A00008D5810601D4002D04D008211962E36FFB
:1025B0001943E167E36F002B28D020231A4206D08D
:1025C000184204D0236E002B01D0200098472368C6
:1025D000E56F9B6820005B0602D408231D401AD0DB
:1025E000FFF780FE402123689A680A420FD09A685C
:1025F000E06E8A439A60002809D01A4B8363FEF785
:102600002BFD002802D0E06E836B9847F8BD2000B8
:10261000FFF764FFFAE7FFF761FFE567F6E7802160
:1026200049030A4206D0750204D51962200000F061
:10263000D9FBEBE780210A4203D0084201D0636E48
:1026400085E740210A42E1D00842DFD01A68200025
:102650008A431A60202363670023636600F012FF39
:10266000D4E7C04669260008806A0023020010B53E
:102670005A321380083A1380FFF730FF10BD000074
:10268000F8B54268AF4B04009A4203D9AE49AF484F
:1026900000F005FF8022A3685205934206D0AC4AA1
:1026A000134203D0AB49A94800F0F9FEAA4D2268B5
:1026B000E368AA4EAA4260D1A94A134203D0A949AD
:1026C000A24800F0ECFE2369A74A134207D0C022BB
:1026D000D200934203D0A5499C4800F0E0FE636914
:1026E0000C221900914301D1002B03D1A049974836
:1026F00000F0D5FE9F4BA2691A4203D09E49934831
:1027000000F0CDFE9D4BE2691A4203D09C498F48F0
:1027100000F0C5FE2769A26823683A436769186814
:10272000E1693A43974F0A43384002431A605A68B6
:10273000A0691640E26816435E60AB4201D0226A8F
:1027400010439A68904E324002439A608F4A9342F7
:1027500020D103228E4BDB6C13408E4AD05C802349
:102760001B02994200D1DEE0082833D8FDF7DEFCD9
:102770009BA2A532C0323232C300334204D0AD2115
:102780007248090100F08BFE834B226A1A429AD0EC
:10279000824995E7824A934205D10C227C4BDB6C3F
:1027A0001340804ADAE7804A934200D1AFE07F4A83
:1027B000934200D1ABE0AB4200D0A1E0C021802029
:1027C000734A0901D36CC0000B40834238D003D850
:1027D000002B0AD001250DE08020000183420ED09D
:1027E0008B42F7D1802000020DE0FFF713FC00259B
:1027F000A84208D10023280023666366F8BD136849
:10280000DB0620D54F48032263685A438242E1D851
:102810001A038242DED30027020E01025E088919E4
:102820007A41080011001A003B00FDF71FFD604BC4
:10283000C218604B9A42CDD823683D00D860D9E7D2
:10284000FEF72AFFD3E75C48DDE7FFF7F3FB64E020
:1028500010254F4B61681A684808154006D0574B41
:10286000C018FDF777FC002583B204E0544BC01874
:10287000FDF770FC83B21900524810398142A9D883
:102880000F2118001B0788435B0F21680343CB60AF
:10289000B0E7FEF701FF40E06368580880235B0261
:1028A0003EE00023E7E7FFF7B5FB63685B08C0186D
:1028B00061680BE0FFF7BEFBF7E71025344B61685A
:1028C0001A684808154006D01E4BC018FDF742FC98
:1028D000002583B204E0384BC018FDF73BFC83B2FF
:1028E000190038481039814200D973E72168CEE7D2
:1028F000FEF7D2FED9E76368580880231B02D6E7AB
:10290000802301251B029942CBD00023E8E78023D6
:102910001B029942C7D1FFF77DFB636840005B084B
:10292000C01861689DE7082800D953E7FDF708FC47
:10293000F3FF8DFF90FF52FFB1FF52FF52FF52FF96
:10294000B4FFC04600093D00C80A00005F4000080F
:10295000FFEFFFFFC90A000000480040FFCFFFFF64
:10296000FFDFFFFFCC0A0000FFFBFFFFD40A0000DF
:10297000D50A0000FFFCFFFFD60A0000FF7FFFFF23
:10298000D70A0000F369FFEFFFF4FFFF00380140B2
:10299000001002404E400008FFF7FFFFD10A000080
:1029A0000044004052400008004C004000500040ED
:1029B00000FDFFFFFFFC0F000024F40000127A006E
:1029C0000048E801EFFF0000436A70B50400FF2BE8
:1029D00003D95549554800F062FD636ADB070DD500
:1029E000534DA36A2B4203D05249504800F057FD83
:1029F0002268A16A53682B400B435360636A9B07AC
:102A00000DD54D4DE36A2B4203D04C49474800F0A9
:102A100046FD2268E16A53682B400B435360636AAA
:102A20005B070DD5464D236B2B4203D045493F48EC
:102A300000F035FD2268216B53682B400B43536037
:102A4000636A1B070DD5404D636B2B4203D03F4992
:102A5000364800F024FD2268616B53682B400B431D
:102A60005360636ADB060DD5394DA36B2B4203D04F
:102A700038492E4800F013FD2268A16B93682B4063
:102A80000B439360636A9B060DD5334DE36B2B427A
:102A900003D03249254800F002FD2268E16B9368BB
:102AA0002B400B439360636A5B062AD523682C4A4C
:102AB000934206D02B4A934203D02B491B4800F087
:102AC000EEFC2A4D236C2B4203D02949174800F015
:102AD000E6FC2168226C4B682B4013434B6080233B
:102AE0005B039A420DD1234D636C2B4203D02249E4
:102AF0000E4800F0D4FC2268616C53682B400B43F5
:102B00005360636A1B060DD51C4DA36C2B4203D08A
:102B10001B49064800F0C3FC2268A16C53682B4097
:102B20000B43536070BDC0469A0B00005F40000825
:102B3000FFFFFDFF9F0B0000FFFFFEFFA60B000045
:102B4000FFFFFBFFAD0B0000FF7FFFFFB40B00009A
:102B5000FFEFFFFFBB0B0000FFDFFFFFC20B00001A
:102B60000038014000440040C90B0000FFFFEFFFA8
:102B7000CA0B0000FFFF9FFFCF0B0000FFFFF7FF16
:102B8000D70B0000F8B504000E0015001F002268E6
:102B9000D36933409B1B59424B41AB4201D00020CB
:102BA0001BE0069B0133F3D0FDF79EFC069BC01B88
:102BB000834201D3002BEAD1236808491A68032015
:102BC0000A401A609A68A331FF318A439A60202331
:102BD0006367A367002370342370F8BD5FFEFFFFB7
:102BE000F0B587B00593436F04000D001700022075
:102BF000202B49D10138002946D0002A44D0802317
:102C0000A2685B019A4204D12369002B01D10142E1
:102C10003AD1230070331A780220012A34D00122DD
:102C200000261A702123E6676367FDF75DFC230029
:102C300050331F80023303931F808023A2680490C7
:102C40005B019A4204D12369B34201D12E001D00D9
:102C5000230052331A88059B92B20093049B002AEA
:102C60000AD140212000FFF78DFF00280BD120233F
:102C700070346360207007E0002280212000FFF79D
:102C800081FF002802D0032007B0F0BD2268002D8C
:102C90000BD133880236DB05DB0D9362039B039A6D
:102CA0001B88013B9BB21380D2E72B7801359362DE
:102CB000F4E7000073B500260400C667FDF714FCB6
:102CC000236805001B681B0715D423681B685B0776
:102CD0000AD580210E4B00220093C9032B0020004F
:102CE000FFF750FF002811D1202300206367A3675E
:102CF000703420700BE08021054B32000093890373
:102D000003002000FFF73EFF0028DED0032076BD41
:102D1000FFFFFF0110B5041E01D1012010BD816924
:102D20000368294A00293ED0934210D0274A934293
:102D30000DD0274A93420AD0264A934207D0264A0A
:102D4000934204D03021FF31244800F0A8FB636F88
:102D5000002B05D1220070321370200000F09CFE81
:102D60002423012122686367136820008B431360CA
:102D7000FFF786FC0128D0D0636A002B02D0200028
:102D8000FFF722FE236816495A6820000A402A21CC
:102D90005A609A688A439A60012219680A431A6045
:102DA000FFF788FFBAE79342D1D0084A9342CED0CA
:102DB000074A9342CBD0074A9342C8D0064A93426F
:102DC000C5D09A214900BFE70038014000440040C7
:102DD000004C004000500040004800405F400008A8
:102DE000FFB7FFFF70470000F7B50D000024072272
:102DF00000210600280001F019F80722002168468A
:102E000001F014F8A64207D11B49280001F023F86D
:102E1000013C631C29D1F7BD4622452144270F23DD
:102E200030001840193B9C4684446346052B1AD851
:102E30006046FDF77BF90307090B121541206B462D
:102E4000185505E04220FAE74320F8E76B461F5586
:102E500036090134002EE2D1DAE76B461955F7E75F
:102E60006B461A55F4E73030E9E76B461B5D013CD1
:102E70002B700135CDE7C0463142000837B50C0054
:102E800002280CD1002308000093FDF73DF901282A
:102E900052D0022802D030232370637037BD04283B
:102EA00014D100256B46080000951D71FDF72CF923
:102EB0000138032803D8FDF72FF9343A3FF13023C6
:102EC000257123706370A370E370E7E70628E5D1EE
:102ED00000250322290001A8009500F0A7FF20008B
:102EE000FDF712F9013805282AD8FDF715F9031363
:102EF0001A2025D730236A46137053709370D3700D
:102F000013712100684600F099FF6946200000F027
:102F1000A2FFC3E730236A46137053709370D370D7
:102F2000EFE730236A46137053709370E9E730235C
:102F30006A4613705370E4E730236A461370E0E783
:102F40003023A57123706370A370E37023716371E4
:102F5000A4E700007FB507220400002102A800F0CA
:102F600065FF322301AD2B482B8000F067FA290062
:102F70000220FFF783FF2900200000F05FFF264DAD
:102F800002A96868FFF730FF02A90220FFF776FF69
:102F900002A9200000F052FFE86802A9FFF724FF11
:102FA00002A90220FFF76AFF02A9200000F046FFF5
:102FB000286902A9FFF718FF02A90620FFF75EFFA4
:102FC00002A9200000F03AFF686902A9FFF70CFF90
:102FD00002A90620FFF752FF02A9200000F02EFFF1
:102FE0000E4E2000310000F029FFE86902A9FFF72A
:102FF000FBFE02A9200000F021FF286802A9FFF7CC
:10300000F3FE02A9200000F019FF3100200000F0BB
:1030100015FF7FBD9840000848000020314200089D
:10302000F7B50D000400FDF76FF801902800FDF7DB
:103030006BF800210A00019B994212DA1300AE1AC4
:1030400000E001339F1A0097E75CBC46F75CBC4583
:10305000F7D0009A904202D05A1C0131EBE70120D0
:10306000FEBD0020FCE7000030B59DB038220021F5
:103070000EA800F0DBFE14220021684600F0D6FE08
:103080002422002105A800F0D1FE1449144A0B683F
:1030900000241A4080231B0113430B6010230E935E
:1030A0000F3B1593A0230F251B020EA81793169410
:1030B0001894FEF72DFB21006846009501940294B8
:1030C00003940494FEF782FE05A8059507940894DE
:1030D00009940A94FEF7BEFF1DB030BD0070004099
:1030E000FFE7FFFFF0B58BB0FDF7E2F9FFF7BCFF9C
:1030F0001422002105A800F099FE04228021A64D8B
:103100000126EB6AA5481343EB62EB6A00241340E7
:103110000193019BEA6A03270A43EA620222EB6AEF
:103120000B400293029BEB6A9D493343EB62EB6ACF
:1031300033400393039BEB6A1343EB62EB6A134048
:1031400004933200049BFEF72DF99F21A02000225A
:103150000902C005FEF726F9002220218F48FEF75C
:1031600021F9802305A99B018E48059306940794B5
:10317000FDF7E2FFC02305A91B028A4805930697C5
:103180000794FDF7D9FF05A9874805970697079487
:10319000FDF7D2FFA020C02305A9C0050593069422
:1031A0000794FDF7C9FF814B05A90593804B7B4828
:1031B00006930794FDF7C0FF042305A905937748FC
:1031C0000D33069307960894FDF7B6FF794B05A9D2
:1031D00072480593069607940894FDF7ADFF802387
:1031E000A0205B00059305A9FE3BC005069607934A
:1031F0000893FDF7A1FF9E23A0201B0205A9C0058F
:103200000593069607940894FDF796FF2B6B220012
:1032100033432B632B6B2100334000930920009B29
:10322000FDF7A0FD0920FDF7D7FD220021000A20AF
:10323000FDF798FD0A20FDF7CFFD0822210005A823
:1032400000F0F4FD5C4D5D4B28002B60C0231B0695
:103250006B60AB19DC77AB1CDC77C223FF336B628E
:103260002B002C331C7004232E616B61EC63AC606B
:10327000AC63EC60AC622C63AC616C63EC61FDF739
:1032800097F94F4B05A90593802328005B0106930E
:10329000FDF79CFC4B4B05A928000593FDF796FC18
:1032A000494B05A928000593FDF790FC3A004749D2
:1032B0002800FDF74DFB464D464B28002B60E123CF
:1032C000DB006B60EE60AC602C616C61AC61EC614A
:1032D0002C629626FEF7A8F821002800FEF754F984
:1032E00028000C252100FEF795F93B483B4BB60121
:1032F000036046608460C460046145618461046267
:103300004462FFF707FD3648364B46600360846031
:10331000C460046145618461C46104624462FFF772
:10332000F9FC3148314B466003608460C46004613D
:1033300045618461C46104624462FFF7EBFC2C4880
:103340002C4B84600360E1235B024360C460046132
:1033500045618461C46104624462FFF7DBFC264876
:10336000264B466003608460C460046145618461EB
:10337000C46104624462FFF7CDFC00F091F800F0F4
:1033800011FA00F041F9012000F0B0FA00F0E4F980
:103390001B48FDF7AFF8F0E70010024000040050B2
:1033A00004C0000000080050001C00500330000062
:1033B0000000111020C00000D807002000240140A8
:1033C000100000102000001400000448A805002090
:1033D0003406002000540040B4050020004800409E
:1033E00084040020003801402005002000440040F3
:1033F000C8060020004C0040C401002000500040DE
:1034000060EA0000F8B58025A026070000246D00C2
:10341000F605BC4200DBF8BD002229003000FDF7B4
:10342000C1FF1920FDF766F8012229003000FDF7E1
:10343000B9FF1920FDF75EF80134EAE7F7B500AFF0
:103440000500FCF761FE6A46C31DDB08DB00D31AEA
:103450009D4629000400684600F0FDFC6E466D465E
:10346000AB1B9C4201DCBD46F7BD2B7801223B71B2
:10347000391D0A230248FFF7B3FB0135F0E7C046C8
:10348000B40500200122014B1A707047C1010020D1
:103490000122014B1A707047C1010020704770472C
:1034A00010B51148FFF7CAFF8021A0200122C900F2
:1034B000C005FDF777FFFA200C4C8000FDF71AF8E5
:1034C000012204212000FDF76DFF0948FDF712F8E5
:1034D000012220212000FDF765FF0648FDF70AF8CC
:1034E0000548FFF7ABFF10BDD542000800040050AF
:1034F000B80B000010270000EE420008F3B5FFB043
:1035000000AF06003960FCF7FFFD6B46C51C0A30B2
:10351000C008C0001B1A9D460C23FA22FC1852005A
:103520000021200000F082FCFA22002152003248E3
:1035300000F07CFC3100684600F08DFC2F496846A5
:1035400000F07CFCAAB22E4D69462800FEF7DCFE96
:103550002C4B1E78F2B27A60012AFAD10026F4329E
:10356000FF32210028001E70FEF71CFF8021A020E2
:1035700032004900C005FDF715FF3868FCF7BAFFB7
:103580008021A0207A68C0054900FDF70BFFFA20D2
:10359000320033006C655A352E804000A55601324A
:1035A000E917491BC90F5B188242F7D16A460733F6
:1035B000DB08DB00D31A9D460121002368461A0070
:1035C0001D008C46E15C4EB2002E0ADD0A4E81548D
:1035D000B1545E1EA65D01324F2E02D14B2900D19F
:1035E0006546FA21013349008B42EBD1FFF726FFF4
:1035F0002800BD467FB0F6BD6C020020803E00086A
:10360000C4010020C10100209621F8B549003D48C1
:10361000FFF774FF3C4E3D4C31002000FFF700FDEA
:1036200000281CD096213A484900FFF767FF394926
:103630002000FFF7F5FC002825D137492000FFF7CF
:10364000EFFC002839D0FA210222344BC90034485B
:103650001A70FFF753FFFA213248C9002AE0324FAF
:1036600032493800FFF74AFF042531002000FFF7F8
:10367000D7FC0028D6D1013D002DD3D02C493800ED
:10368000FFF73CFFF1E7FA210122244BC90029484A
:103690001A70FFF733FFFA21274DC9002800FFF702
:1036A0002DFF26492000FFF7BBFC002804D0FA219B
:1036B0002800C900FFF722FFF8BD21492000FFF7CD
:1036C000AFFC00280BD0FA210322144BC9001D487F
:1036D0001A70FFF713FFFA211B48C900EAE71B49DC
:1036E0002000FFF79DFC0028E6D0FA2104220B4BB6
:1036F000C90017481A70FFF701FFFA211548C900E1
:10370000D8E7C046ED410008F74100086C020020F0
:10371000004200080942000842420008440000201C
:1037200046420008534200080E420008204E0000A6
:10373000881300001942000826420008334200089E
:103740006042000866420008734200088042000898
:10375000834200089042000810B50E48FFF76EFE45
:10376000C8210D48FFF7CAFE8021A0200022C90011
:10377000C005FDF717FE6420FCF7BCFE00222021E7
:103780000648FDF70FFE6420FCF7B4FE0448FFF77F
:1037900055FE10BD9D420008B842000800040050CC
:1037A000C342000810B50B2464211148FFF7A6FEA0
:1037B000002802D1013C002C16D164210D48FFF7EE
:1037C0009DFE002804D10C48FFF738FEFFF7C4FF28
:1037D00064210A48FFF792FE002804D10848FFF749
:1037E0002DFEFFF7B9FF10BD6420FCF783FEDBE779
:1037F0000043000806430008094300081F4300086F
:1038000028430008F8B564210D48FFF777FE002330
:10381000012718001A000B4D0B4E30246442A446B9
:10382000E95C8C446446092C04D8B1540F2A06D0B4
:1038300038000132FA21013349008B42EDD1F8BD45
:10384000C74000086C0200208401002070B51F4DA5
:10385000060016220021280000F0E8FA1C4C502235
:103860000021200000F0E2FAFFF7CCFF2800FFF76C
:1038700071FB002E02D0012E15D070BD154920001D
:1038800000F0E9FA1449200000F0D8FA13492000AA
:1038900000F0D4FA2900200000F0D0FA10492000EE
:1038A00000F0CCFAE9E70F49200000F0D4FA0A4909
:1038B000200000F0C3FA0949200000F0BFFA2900F7
:1038C000200000F0BBFA0849E9E7C046AB01002040
:1038D000BC00002074410008840100209A410008C7
:1038E000A1410008B0410008DC41000810B5041EE9
:1038F00002D0012811D010BD64211648FFF7FEFD4B
:10390000962115484900FFF7F9FD2000FFF79EFFBB
:1039100012491348FFF7F2FDEDE7C8211148FFF700
:10392000EDFDFA2110484900FFF7E8FDFA210F48A4
:103930004900FFF7E3FD2000FFF788FF0C49084826
:10394000FFF7DCFD05490B48FFF7D8FDC820FCF761
:10395000D1FDD0E7CF400008DA400008881300000E
:10396000BC00002007410008224100082D4100084A
:10397000102700005A4100080122054B596B0A43E9
:103980005A638022996B52050A439A637047C04676
:103990000010024030B5050087B01422002101A8B4
:1039A00000F044FA1F4B2A689A4238D180221E4BFD
:1039B0009200596BA0200A4301215A63DA6AC005BC
:1039C0000A43DA62DB6A0B400093009B302301A9B3
:1039D00001932D3B0293FDF7AFFB8022134C144B58
:1039E000226192186261802212012360A261002389
:1039F000202220006360A360E360E2612362FDF7A0
:103A000017FA002801D0FFF749FD00220C20EC64D2
:103A10001100A562FDF7A6F90C20FDF7DDF907B04E
:103A200030BDC0460024014000100240480700207D
:103A30000800024010B5040086B01422002101A83D
:103A400000F0F4F9114B22689A421CD10221104C6B
:103A50001048E26A0A43E262E36A0B400093009B6B
:103A6000C0239B00019312230293113B03935B1825
:103A7000049301A901330593FDF75EFB8023A26B3C
:103A80009B031343A36306B010BDC046005400401F
:103A9000001002400004005030B505008BB0142225
:103AA000002105A800F0C2F92B68714A934223D186
:103AB0008022704BD202996B6F480A439A630222AC
:103AC000D96A1143D962DB6A05A913400093009BB0
:103AD000C0231B0105930323089301330692099326
:103AE000FDF72AFB00221D201100FDF73BF91D20E8
:103AF000FDF772F90BB030BD604A93421DD18022B0
:103B00005C4BD201596B5C480A435A630222D96A62
:103B10001143D962DB6A05A913400193019BC023BD
:103B20000593BD3B06920893FDF706FB00221B2080
:103B30001100FDF717F91B20DAE7514A934221D112
:103B400080224C4B9202996BA0200A4301219A6378
:103B5000DA6AC0050A43DA62DB6A0B400293029B11
:103B60000C2305930A3B06935B1808935B1805A981
:103B70000993FDF7E1FA00221C201100FDF7F2F88D
:103B80001C20B5E73F4A934220D18022394B1203D3
:103B9000996BA0200A4301219A63DA6AC0050A439F
:103BA000DA62DB6A02220B400393039B032305A91D
:103BB00005930893DB1806920993FDF7BDFA0022DE
:103BC0000E201100FDF7CEF80E2091E72E4A934209
:103BD00000D08FE78022274B5203996B26480A4377
:103BE0009A630222D96A1143D962DB6A05A913409C
:103BF0000493049B18230593153B08930333069203
:103C00000993FDF799FA214C214B802223600D2363
:103C100063600023A360E3606361A361E361C02389
:103C200020009B0122612362FDF702F9002801D0E8
:103C3000FFF734FC174BEC66A562174C802223601B
:103C40000D2363600333A3600023E3606361A3611A
:103C5000E361C02320009B0122612362FDF7E8F8A5
:103C6000002801D0FFF71AFCAC66A562A7E7C046A2
:103C7000004800400010024000040050003801409D
:103C800000440040004C00400050004080060020EE
:103C90001C0002403000024090070020704710B521
:103CA0000A20FFF7AFFBFBE77047704710B5FCF742
:103CB00013FC10BD10B50248FDF7F3F910BDC04666
:103CC0004807002010B50348FDF7EBF90248FDF75F
:103CD000E8F910BD800600209007002010B50248CA
:103CE000FCF7DEFE10BDC046D807002010B5034823
:103CF000FEF71EFC0248FEF71BFC10BDC8060020A4
:103D0000C401002010B50248FEF712FC10BDC046E9
:103D10008404002010B50248FEF70AFC10BDC0461E
:103D20002005002010B50248FEF702FC10BDC04679
:103D3000B40500208022104B520019680A431A6013
:103D4000DA680E490A40DA601A680D490A40012112
:103D50001A609A688A439A601A680A490A401A6087
:103D6000DA6809490A40DA6000221A618022074BAA
:103D700012059A607047C046001002400C40FF8850
:103D8000F6FFF6FEFFFFFBFFFFFF02FF00ED00E086
:103D90000D488546002103E00C4B5B58435004312D
:103DA0000B480C4B42189A42F6D30B4A02E0002310
:103DB00013600432094B9A42F9D3FFF7BBFF00F0BE
:103DC00011F8FFF78FF9FEE7005000206C43000860
:103DD000000000200400002004000020340800201F
:103DE000FEE7000070B500260C4D0D4C641BA410BE
:103DF000A64209D1002600F037F80A4D0A4C641B90
:103E0000A410A64205D170BDB300EB589847013607
:103E1000EEE7B300EB5898470136F2E76443000839
:103E200064430008644300086843000803008218E4
:103E3000934200D1704719700133F9E7020010B5C1
:103E40001378002B05D1CC5CD4540133002CFAD16B
:103E500010BD0132F4E7031C0A7801311A700133F6
:103E6000002AF9D170470000F8B5C046F8BC08BC7C
:103E70009E467047F8B5C046F8BC08BC9E467047E1
:103E80000D0A00002E2E5C447269766572735C53D5
:103E9000544D33324C3078785F48414C5F447269FE
:103EA0007665725C5372635C73746D33326C307818
:103EB000785F68616C5F6164632E63002E2E5C44E2
:103EC0007269766572735C53544D33324C30787836
:103ED0005F48414C5F4472697665725C5372635C03
:103EE00073746D33326C3078785F68616C5F636FC8
:103EF000727465782E63002E2E5C4472697665724A
:103F0000735C53544D33324C3078785F48414C5F8A
:103F10004472697665725C5372635C73746D33329C
:103F20006C3078785F68616C5F646D612E63002E21
:103F30002E5C447269766572735C53544D33324C17
:103F40003078785F48414C5F4472697665725C53A3
:103F500072635C73746D33326C3078785F68616C57
:103F60005F6770696F2E63002E2E5C447269766500
:103F700072735C53544D33324C3078785F48414C07
:103F80005F4472697665725C5372635C73746D33FF
:103F9000326C3078785F68616C5F6932632E6300E1
:103FA0002E2E5C447269766572735C53544D3332C5
:103FB0004C3078785F48414C5F4472697665725C3A
:103FC0005372635C73746D33326C3078785F686100
:103FD0006C5F6932635F65782E63002E2E5C4472DD
:103FE00069766572735C53544D33324C3078785F28
:103FF00048414C5F4472697665725C5372635C73CE
:10400000746D33326C3078785F68616C5F726363B3
:104010002E63002E2E5C447269766572735C535475
:104020004D33324C3078785F48414C5F447269764A
:1040300065725C5372635C73746D33326C30787884
:104040005F68616C5F7263635F65782E6300010473
:104050000208001010100410101002101010082E8A
:104060002E5C447269766572735C53544D33324CE6
:104070003078785F48414C5F4472697665725C5372
:1040800072635C73746D33326C3078785F68616C26
:104090005F756172742E6300454E434F4445522054
:1040A0005245504F5254204652414D450D0A004151
:1040B000542B43474D490041542B43474D4D00413C
:1040C000542B43474D520041542B4347534E00411C
:1040D000542B55485454503D300041542B554854AE
:1040E00054503D302C312C2277697A65626F782DDF
:1040F0006170692D6465762E6865726F6B7561708D
:10410000702E636F6D220041542B5544454C464937
:104110004C453D22646F776E6C696E6B2E667373CF
:10412000220041542B55485454503D310041542BEA
:1041300055485454503D312C312C2277697A6562B0
:104140006F782D6170692D6465762E6865726F6B6E
:10415000756170702E636F6D220041542B5552446F
:1041600046494C453D22646F776E6C696E6B2E66D6
:104170007373220041542B5548545450433D302C06
:10418000312C222F736967666F782F75706C696E9A
:104190006B3F6465766963653D0026646174613DCB
:1041A00000222C2275706C696E6B2E667373220070
:1041B00041542B5548545450433D312C312C222F1F
:1041C000677072732F62696469723F61636B3D74DB
:1041D000727565266465766963653D00222C2264EC
:1041E0006F776E6C696E6B2E667373220041542B71
:1041F00043474154543F002B43474154543A310004
:1042000041542B434F50533F005649564F004154A1
:104210002B43474154543D310041542B5550534496
:10422000413D312C330041542B5550534E443D31C8
:104230002C30002B5550534E443A20312C302C2238
:10424000220054494D0041542B55505344413D32B6
:104250002C330041542B5550534E443D322C3000EA
:10426000434C41524F0041542B55505344413D3330
:104270002C330041542B5550534E443D332C3000C9
:104280004F490041542B55505344413D342C330089
:1042900041542B5550534E443D342C30000D0A539D
:1042A000415241204D4F44554C45205357495443AA
:1042B00048204F46460D0A0041542B435057524F59
:1042C00046460053415241204D5544554C45204FE0
:1042D00046460D0A000D0A504F574552204F4E20BA
:1042E00053415241204D4F44554C450D0A00534116
:1042F0005241204D5544554C452052554E0D0A0013
:104300004154264B3000415400415420434F4D4D01
:10431000414E4420444F4E54205354415254004186
:10432000542B4350494E3F004348495020444F4E80
:10433000542053544152540000000000000000007B
:10434000010203040607080900000000010203043B
:0C435000030406080C10182030000000C8
:08435C0050BFFF7F01000000CB
:04436400E900000864
:04436800C100000888
:04436C00000020002D
:0400000508003D9121
:00000001FF
