:020000040800F2
:1000000000500020693800085D3700085F3700089D
:1000100000000000000000000000000000000000E0
:100020000000000000000000000000006937000828
:1000300000000000000000006B3700086D3700086A
:10004000B9380008B9380008B9380008B9380008CC
:10005000B9380008B9380008B9380008B9380008BC
:10006000B938000875370008853700089D37000843
:10007000B5370008B9380008C5370008B938000896
:10008000B9380008B9380008B93800080000000085
:10009000B9380008B9380008B9380008B93800087C
:1000A000B9380008B9380008B9380008DD37000849
:1000B000ED370008FD37000800000000B9380008DF
:1000C00010B5064C2378002B07D1054B002B02D02E
:1000D000044800E000BF0123237010BD040000208D
:1000E0000000000040390008044B10B5002B03D07D
:1000F0000349044800E000BF10BDC04600000000F6
:1001000008000020403900080023C25C0133002AA7
:10011000FBD1581E7047000002B4714649084900DF
:10012000095C49008E4402BC7047C04603B4714666
:10013000490840004900095E49008E4403BC7047ED
:10014000002243088B4274D303098B425FD3030A16
:100150008B4244D3030B8B4228D3030C8B420DD329
:10016000FF22090212BA030C8B4202D312120902B7
:1001700065D0030B8B4219D300E0090AC30B8B42F5
:1001800001D3CB03C01A5241830B8B4201D38B03A3
:10019000C01A5241430B8B4201D34B03C01A524148
:1001A000030B8B4201D30B03C01A5241C30A8B428B
:1001B00001D3CB02C01A5241830A8B4201D38B0276
:1001C000C01A5241430A8B4201D34B02C01A52411A
:1001D000030A8B4201D30B02C01A5241CDD2C3098C
:1001E0008B4201D3CB01C01A524183098B4201D308
:1001F0008B01C01A524143098B4201D34B01C01AF3
:10020000524103098B4201D30B01C01A5241C3086A
:100210008B4201D3CB00C01A524183088B4201D3D9
:100220008B00C01A524143088B4201D34B00C01AC5
:100230005241411A00D20146524110467047FFE731
:1002400001B5002000F006F802BDC0460029F7D035
:1002500076E770477047C046002B11D1002A0FD1B6
:10026000002900D1002802D00021C943081C07B48E
:10027000024802A14018029003BDC046D9FFFFFF0B
:1002800003B4684601B5029800F006F8019B9E464B
:1002900002B00CBC7047C046F0B557464E464546C6
:1002A000DE46E0B5040083B00D00924699468B42CD
:1002B0002FD82CD04946504600F0CCF82900060033
:1002C000200000F0C7F8331A9846203B9B4600D523
:1002D00074E053465A4693401F00534642469340AB
:1002E0001E00AF4229D826D05B46A41BBD41002B7F
:1002F00000DA79E0002200230092019301235A469C
:1003000093400193012342469340009319E08242B7
:10031000D0D900220023009201930C9B002B01D026
:100320001C605D600098019903B03CBC9046994602
:10033000A246AB46F0BDA342D6D9002200230092CC
:1003400001934346002BE8D0FB0772081A43464648
:100350007B080EE0AB4201D1A2420CD8A41A9D4109
:10036000012024196D410021013E24184D41002E29
:1003700006D0AB42EED9013E24196D41002EF8D1D2
:100380005B460098019900196941002B22DB2B0084
:100390005A46D3402A004446E2401C005B46150002
:1003A000002B2CDB26009E40330026004746BE4033
:1003B0003200801A994100900191AEE74246202315
:1003C0009B1A5246DA40414613004A468A401700BB
:1003D0001F4382E7424620239B1A2A0046469A4042
:1003E0002300F3401343D5E74246202300219B1A04
:1003F0000022009101920122DA40019282E74246F6
:10040000202326009B1ADE402F00B4469740664604
:100410003B003343C9E7C0461C2101231B0498421B
:1004200001D3000C10391B0A984201D3000A083985
:100430001B09984201D30009043902A2105C40183C
:100440007047C046040302020101010100000000E0
:100450000000000010B5002903D1FFF7DDFF2030B8
:1004600002E0081CFFF7D8FF10BDC046FA210A4B76
:1004700070B5890005001868FFF762FE00F0B4FC53
:1004800004000120002C05D102382200290000F0D0
:100490005FFC200070BDC046000000200223084A17
:1004A00010B5116800200B431360FFF7DFFF041E37
:1004B00003D102F091FF200010BD0124FBE7C046EC
:1004C00000200240024A1368013313607047C0469F
:1004D00020000020014B18687047C0462000002013
:1004E00070B50400FFF7F6FF631C5A1E9341050028
:1004F000E418FFF7EFFF401B8442FAD870BD0000FC
:10050000084B13B5040008491868FFF719FE444367
:100510000194019B002B00D113BD019B013B019372
:10052000F7E7C0460000002040420F0003210368A7
:1005300070B59A6804000A40012A0DD11968114269
:100540000AD0002070BD10230120626D1343636543
:10055000A36D0343A365F5E799680F4A1142F2D1F1
:1005600001259A6828002A439A60FFF7C9FFFFF720
:10057000B1FF060023681B682B42E2D1FFF7AAFFF8
:10058000801B0A28F6D91023626D0120134363658E
:10059000A36D1D43A565D5E717000080F7B50400DE
:1005A0000120002C00D1D1E0694B22689A4204D08E
:1005B000CE216848490002F026FE6268664B13406F
:1005C00016D0802051004908C005814210D08021FA
:1005D00009068A420CD080225203934208D080221E
:1005E0009203934204D09E215A48FF3102F00BFE41
:1005F0001823A2689A4304D0CF215648490002F03C
:1006000002FE2023E2689A4304D0A0215148FF3122
:1006100002F0F9FD2369013B012B04D9D0214D489B
:10062000490002F0F0FD661CF37F012B04D9A221E2
:100630004848FF3102F0E7FDA31C0193DB7F012B4B
:1006400004D9D1214348490002F0DDFD434BA26AA1
:100650001A4204D0A4213F48FF3102F0D4FD636A5E
:100660004022190018009143803290430FD080221D
:10067000520091420BD08032934208D0C13BFF3BE5
:10068000012B04D9D2213348490002F0BCFD2300DC
:100690002C331B78012B04D9A6212E48FF3102F000
:1006A000B2FD04226369043B934304D0D32129485B
:1006B000490002F0A8FD2A4B226B1A4204D0A8215F
:1006C0002448FF3102F09FFDA369012B04D9D421F6
:1006D0002048490002F097FD636B012B04D9AA2141
:1006E0001C48FF3102F08FFDE369012B04D9D521AD
:1006F0001848490002F087FDA36B072B04D9AC21F1
:100700001448FF3102F07FFDE36B012B04D9D621A1
:100710001048490002F077FD636D002B06D12200DE
:100720005032A3652000137002F064FE636DDB0697
:1007300004D4042322689168194013D01023626DF9
:10074000012013436365002350342370FEBDC0466F
:100750000024014058390008FFFFF3FFFFF3FFFFBB
:10076000FFEFFFFF636D6A48184002230343636590
:10077000032390681840674B012802D1176807428D
:100780001AD180256768ED0578004008A84204D09A
:1007900080200006874200D09EE01069800080081B
:1007A00010611069074317611827D068A568B8431E
:1007B000D060D0682843D0601A68574802401A6059
:1007C000626B1868520602431A60802322685B0538
:1007D0009068184202D1906803439360D3684F48F1
:1007E00003402069D360D768E368022800D1042160
:1007F000256BF07F2B43A5693B43AE03E56933438B
:10080000EE0333434603334326002C363678760016
:1008100033430B43C221D360636AFF318B4204D060
:10082000A56AD1682B430B43D360A31CDB7F012B4C
:1008300006D100285CD18023D1685B020B43D360D2
:10084000E36B012B5CD1216C1C2905D8344ACA40CA
:100850009343DBB2002B04D093213248890002F08D
:10086000D2FC636C60221900914309D0802907D023
:1008700080225200934203D02B492A4802F0C3FC45
:100880002A4BA26C1A4203D02949264802F0BBFC2D
:10089000226828491369606C0B401361236C11694D
:1008A0000343A06C03430B431361012311690B4302
:1008B00013610721236800205A698A435A615A69E3
:1008C000A16B0A435A610322A065636D93431A002A
:1008D00001231343636539E71069174D80008008D1
:1008E0001061186828401860186807431F605BE7AC
:1008F0002021606D01436165A16D0B43A3659FE7F6
:10090000012113690B42D4D013698B43D0E7C04651
:10091000FDFEFFFF08270140FFFFFFFD1902FEFF5C
:1009200011111111583900084D020000FFFDFFFFA1
:100930004E02000003FCFFFFFFFFC3FFF7B5244B8F
:100940000192026804000F009A4203D02149224814
:1009500002F059FC236802209B685B0730D4260014
:1009600050363378012B2BD001233370E369012BF0
:1009700027D1636D194A00251A4080235B00134379
:100980006365E06C164BA5653570C362154B216835
:100990000363154B43631C230B604A680C3B1343F2
:1009A0004B600123CA681343CB603A004031019B7E
:1009B00000F0F8FA04232800226891680B43936042
:1009C000FEBD2000FFF7B2FD0028F9D1D1E7C046F7
:1009D00000240140D905000058390008FEF0FFFF4F
:1009E000F1090008630A0008710A00087047000056
:1009F0005022836A10B5596D11422BD1596DB13215
:100A0000FF320A43C0215A651A680901D0680842BA
:100A100013D1591CC97F00290FD1116809070CD5C2
:100A2000916849070DD40C205168814351605A6D7B
:100A30000A49114001220A435A651800FFF7D6FF00
:100A400010BD2022596D0A435A650122996D0A434F
:100A50009A65F2E7DB6C5B6B9847F1E7FEFEFFFF00
:100A6000704710B5806AFFF7FBFF10BD70477047F5
:100A70004023806A10B5426D134343650423826DA1
:100A800013438365FFF7F3FF10BD0000444B02687A
:100A900070B504009A4203D04249434802F0B3FBC8
:100AA000651CEB7F012B03D940493F4802F0ABFBAB
:100AB00004226369043B934303D03D493A4802F062
:100AC000A2FB042223681968114202D0596811421E
:100AD00006D10822196811422BD05968114228D03A
:100AE000626DD20604D48022616D92000A43626571
:100AF000C022D9681201114212D1EA7F002A0FD117
:100B00001A6812070CD59A6852073FD40C215A680C
:100B10008A435A60636D274A1A4001231343636571
:100B20002000FFF763FFA369012B02D00C2223688A
:100B30001A60802523681A682A420CD05B682B4211
:100B400009D08023626D5B02134363652000FFF7C9
:100B50008DFF23681D60102223681968114214D08C
:100B60005968114211D0226B002A02D0DA68D207EC
:100B700008D50222A16D20000A43A26510221A6046
:100B8000FFF775FF102223681A6070BD2023626D85
:100B9000134363650123A26D1343A365C0E7C046F9
:100BA0000024014094060000583900089506000012
:100BB00096060000FEFEFFFF4B4B026870B5050075
:100BC0000C009A4203D04949494802F01CFB2368B3
:100BD000012B36D0474A934233D0474A934230D014
:100BE000464A93422DD0464A93422AD0454A9342E0
:100BF00027D0454A934224D0444A934221D0444AC4
:100C000093421ED0434A93421BD0434A934218D08A
:100C1000424A934215D0424A934212D0414A9342EB
:100C20000FD0414A93420CD0404A934209D0404AE7
:100C3000934206D03F4A934203D03F492C4802F0EA
:100C4000E2FA63683D4A9B18012B04D9F021284839
:100C5000C90002F0D8FA2E00503633780220012B5A
:100C60000BD02A680138936830705B0706D52023C3
:100C70006A6D13436B650023337070BD802030496B
:100C800065682368C0028D421BD0956A5903490BE1
:100C900029439162034208D080232A4A1B04116829
:100CA0000A200B431360FFF72BFC23689B0305D539
:100CB0008023244ADB0311680B431360002030704B
:100CC000DBE7916A5C03640BA1439162034204D0A9
:100CD0001C491D480A6802400A609B03EED5194A68
:100CE0001A4913680B40E8E7002401407E07000022
:100CF0005839000802000004040000080800000C35
:100D00001000001020000014400000188000001C9B
:100D10000001002000020024000400280008002C2C
:100D20000010003000200034004000380080003CFB
:100D300000000448000002447F07000000F0FFFFAD
:100D40000110000008270140FFFF7FFFFFFFBFFFEA
:100D500070B504000D00032903D98721164802F05D
:100D600052FAA901002C14DA0F23E4B22340083B05
:100D7000124A9B089B009B18032214409440FC32AB
:100D800015000A40A540A240D869A8430243DA6191
:100D900070BD0325A3082C40AC40FC352E00084A4A
:100DA0009B009B18C022A6402940A1409200985861
:100DB000B04301439950EBE79039000800ED00E0A3
:100DC00000E100E010B5041E03DA9721044802F0A8
:100DD0001AFA1F231C401E3BA340024A136010BD99
:100DE0009039000800E100E0094A431E01209342C7
:100DF0000DD8C021074A08485360036A09061B0240
:100E00001B0A0B43036200200723906013607047A6
:100E1000FFFFFF0010E000E000ED00E0F8B5040087
:100E20000120002C00D19EE023684F4A934215D048
:100E30004E4A934212D04E4A93420FD04D4A9342AB
:100E40000CD04D4A934209D04C4A934206D04C4AAA
:100E5000934203D096214B4802F0D5F963680A2BE0
:100E600006D90C3B032B03D99721464802F0CBF956
:100E7000A36810221900914307D08022D201934227
:100E800003D098213F4802F0BEF94023E2689A431C
:100E900003D099213B4802F0B6F9802322699A4396
:100EA00003D09A21374802F0AEF96369364A1342FB
:100EB00007D080229200934203D09B21314802F058
:100EC000A2F9A369314A134207D08022120193424A
:100ED00003D09C212B4802F096F92023E2699A4323
:100EE00003D09D21274802F08EF9294B226A1A422D
:100EF00003D09E21234802F086F92568254B142152
:100F0000E818FFF71DF9244B800023640223A21D7B
:100F10006064D3772E68214BA1681E40E36827697F
:100F20000B433B4367693B43A7693B43E7693B434B
:100F3000276A3B4333432B608023DB0199420CD06B
:100F40001C2528400D3D854015490B68AB430B60BF
:100F500063680D6883402B430B6000200123E0632E
:100F60000534D377E077F8BD080002401C0002404A
:100F70003000024044000240580002406C00024031
:100F800080000240CB390008FFFEFFFFFFFBFFFFA0
:100F9000FFCFFFFFF8FFFDBF000002400F80FFFF03
:100FA000A8000240F7B515001F005A1E234B04008D
:100FB0000E009A4204D9AB212148490002F023F9DE
:100FC000631DDA7F0220012A2AD00122DA77A21DCE
:100FD0009446D27F0021D2B2012A2CD16346D87721
:100FE0002368E16319681A3091431960216C0191FB
:100FF000616C0840824001994A60A2685F60216884
:10100000102A0ED19D60DE60226B002A0CD00E22C9
:10101000186802431A60012300200A6813430B601A
:10102000FEBD9E60DD60EFE704201A6882431A600F
:1010300018680A22EDE7D977F2E7C046FEFF000004
:10104000CB39000870B5841DE37F022B04D0042344
:10105000C363033B180070BD0E210368456C1A681A
:101060008A431A6001221968914319601C232B409E
:1010700015009D40016C431D4D60E2770024826B9A
:10108000DC771300A242E5D090472300E2E7F8B5F1
:101090001C220427466C016C32403E0096400D68CD
:1010A00003681C682E420DD03C420BD01A68920691
:1010B00002D41A68BA431A60036B4E60002B19D031
:1010C000984717E002273E0096402E4213D03C423C
:1010D00011D01A68920606D40A241A68A2431A602C
:1010E0000122831DDA770022431D4E60DA77C36A3E
:1010F0009342E5D1F8BD0826370097403D42F9D02C
:101100003442F7D00E251C68AC431C6001231C0040
:101110009440821D4C60C363D3770022431DDA776D
:10112000436BE5E74B68F7B504000D00032B12D9BC
:101130001A00113A012A0ED9854A86491A405218D6
:1011400085490A4207D0854A9B180B4203D0AE213D
:10115000834802F058F8AB68022B03D9AF218048CE
:1011600002F051F8A023DB059C420BD07D4B9C4242
:1011700008D07D4B9C4205D07C4B9C4202D07C4BDE
:101180009C4207D12B689AB2002A03D0794A1343B4
:1011900093420DD0784B9C4206D12B68774A13427C
:1011A00002D01343934203D0B0216D4802F02BF8D4
:1011B00000272B681A00FA4000D1F7BD0122BA407F
:1011C00001921A40009200D1C0E010226B68934354
:1011D000022B2CD1A023DB059C4212D0614B9C42F8
:1011E0000FD0614B9C420CD0604B9C4209D0604BAD
:1011F0009C4206D0604B9C4203D0BF21584802F06D
:1012000002F82B69072B03D9C021554801F0FBFFD9
:1012100007220F203A4092009040FB089B00E31801
:10122000196A81432869904002000A431A62102219
:101230006B687E009343013B012B19D8EB68032BAD
:1012400003D9CE21464801F0DEFF0322B240A36855
:10125000012193431A00EB68B3401343A360626813
:10126000019B9A436B681B090B40BB4013436360AF
:1012700003239C46B34061466A68DB431140B1409A
:101280002068184001432160E1681940AB68B34011
:101290000B43E360D30059D5012039490F264B6B2E
:1012A000034360463840800086404B63354BB908A5
:1012B0008900C9188B68B343A0260193F605002363
:1012C000B44214D0274E0133B44210D0264E01331D
:1012D000B4420CD0254E6346B44208D0244E0133AC
:1012E000B44204D0284BE3185E1EB341053383405B
:1012F000019803438B602549009B0E68D843334314
:101300009C46D30302D4330003409C4663460B60E3
:101310004E68009B33439C46930302D43300034042
:101320009C4663464B608E68009B33439C46D302C9
:1013300002D4330003409C4663468B60CE68009B1A
:101340003343920201D433000340CB60013730E7CE
:10135000FFFFDFFF0000EFEFFFFFFEFF0000DFEF0A
:10136000033A00080004005000080050000C005030
:1013700000100050FFFF0000001C0050030600009A
:10138000001002400000014000E4FFAF00040140F3
:10139000A02370B5DB0504000D00160098420BD0A9
:1013A000154B984208D0154B984205D0144B9842E3
:1013B00002D0144B98420AD1002D12D0012E16D91A
:1013C0009E211148FF3101F01EFFA56170BD0F4B3A
:1013D000984206D10E4B194203D01A000A439A4292
:1013E000ECD0CE210848490001F00DFFE6E7002EC1
:1013F000EBD1A562EAE7C0460004005000080050A7
:10140000000C005000100050033A0008001C00506F
:101410000306000070B504000120002C00D18AE012
:1014200023684A4A93420AD0494A934207D0494A1C
:10143000934204D0EF214848490001F0E4FE474BB5
:10144000A2689A4204D9E0214348FF3101F0DBFE53
:10145000E368013B012B04D9F0213F48490001F02A
:10146000D2FE3F4E2369334204D0E2213A48FF3195
:1014700001F0C9FE6369FF2B04D9F1213648490008
:1014800001F0C1FEA369072B04D9E4213248FF31E2
:1014900001F0B9FE334BE2691A4204D0F2212E4822
:1014A000490001F0B0FE304B226A1A4204D0E62116
:1014B0002948FF3101F0A7FE250041352B78DBB22A
:1014C000002B05D1220040321370200001F0E2FF12
:1014D000242301212B702368A0681A688A431A60AC
:1014E0006168224A0A401A619A68E16832409A604B
:1014F000012921D18022120202439A6059681C4AB4
:1015000000200A435A60DA68616916402269DE6089
:101510000A43A16909020A43DA60216AE2690A43BF
:101520001A60012219680A431A60202360642B7034
:1015300020634234207070BD8422120202439A60FC
:101540000229DBD1802212015A60D7E70054004003
:1015500000580040007800403C3A0008FF030000BB
:10156000FF7FFFFFFFFFF7FFFFFFFDFFFFFFFFF024
:1015700000800002F8B51D4A036806000C00934283
:1015800009D01B4A934206D01A4A934203D06421E1
:10159000194801F038FE194D2C4203D06521164838
:1015A00001F031FE41239C46B44463461A78022080
:1015B000D2B2202A19D1370040373B78012B14D002
:1015C000242361460B700121336818688843186032
:1015D000186805401D60186804431C6018680143C2
:1015E0001960002063461A703870F8BD005400403E
:1015F0000058004000780040743A0008FFEFFFFFF9
:10160000F8B51B4A036805000C00934209D0194A3B
:10161000934206D0184A934203D09221174801F012
:10162000F2FD0F2C03D99321144801F0ECFD2E009C
:10163000413632780220D2B2202A17D12900403117
:101640000B78012B12D0242333702B6801381D68CE
:101650000B4F85431D601D6824023D402C431C60D8
:101660001C6820431860002032700870F8BDC04626
:10167000005400400058004000780040743A0008D0
:10168000FFF0FFFF0C22184B10B5D9680A40082A5A
:1016900026D00C2A06D0042A1AD11B68DB0621D4D6
:1016A000124810BD8A021248120F825C0902D868E3
:1016B000890F0131C00304D50E485043FEF740FDA9
:1016C000EFE71B68DB0601D50B48F6E70748F4E7B0
:1016D00080205B6800021B045B0F01339840E0E749
:1016E0000448DEE70448DCE7001002400024F40070
:1016F000303C000800127A0000093D00F0B50500FA
:1017000087B0002802D1012007B0F0BD0368002B8C
:1017100006D09B0604D1B021C748490001F073FDF3
:101720000C238027C54C7F02E2681A40E3680192CF
:101730001F402B68DB0764D42B689B0700D5C0E0F3
:101740002B68DB0643D5019B002B00D02DE12368DD
:101750009B0502D5EB69002BD5D02B6AFF2B04D952
:101760008021B548890001F04EFD6B6AB44AB54945
:101770001A400B420BD0802109028A4207D0C022B6
:101780001202934203D0B049AB4801F03CFD6268BD
:10179000AE496B6A0A401A43626061682A6A0902AC
:1017A000090A12060A43626080225B0B01331202AF
:1017B0009A401300E16800200A06A549120F8A5CCE
:1017C000D340A44A1360FEF751FE00289CD12B6839
:1017D0001B0700D55BE12B685B0700D584E12B6814
:1017E0009B0600D5FDE1AB6A022B04D9BA219248D1
:1017F000890001F008FDAB6A002B00D02BE200202D
:1018000082E76B68944E334208D0A022D202934202
:1018100004D06A218848FF3101F0F5FC019B082BB8
:1018200003D00C2B08D1002F06D023689B0383D54F
:101830006B68002B80D166E780216B6849028B4280
:1018400014D1226813432360FEF744FE0600802271
:1018500023689202134200D06EE7FEF73BFEFA23A4
:10186000801B9B009842F2D903204DE7A022D202B0
:10187000934208D180232268DB021343236022684D
:101880000A432260E0E722681640266022680A4088
:101890000592059A714922680A402260002BD3D133
:1018A000FEF718FE0600802223689202134200D140
:1018B00042E7FEF70FFEFA23801B9B009842F2D905
:1018C000D2E72023EA689A43012A06D9092A04D0DC
:1018D000CE215948490001F096FC2B691F2B04D9F1
:1018E0009E215548FF3101F08EFC2022EB68134207
:1018F00003D02168934311432160019A042A03D045
:101900000C2A24D1002F22D12268520702D5002BA5
:1019100000D1F8E661682A695148120201400A4381
:101920000921626022688A4313432360FFF7AAFEFD
:10193000E368474A1B061B0FD35CD840454B186031
:101940000020FEF793FD002800D1F9E6DCE6002B2D
:1019500019D00921226804278A4313432360FEF724
:10196000B9FD060023683B4207D062682B693C49F9
:101970001B020A4013436360E2E6FEF7ABFD801BE7
:101980000228EFD970E701222368042793432360DC
:10199000FEF7A0FD060023683B4200D1D0E6FEF72B
:1019A00099FD801B0228F6D95EE7EB69012B04D96B
:1019B00086212148890001F026FCEB69002B53D0D9
:1019C000802322685B0013432360FEF783FD80279A
:1019D0000600BF0023683B4227D02B6AFF2B04D9A7
:1019E0008B211548890001F00EFC6B6A144A1549D9
:1019F0001A400B420BD0802109028A4207D0C02234
:101A00001202934203D017490B4801F0FCFB6368B4
:101A10000E4A13406A6A1343636062682B6A1202BB
:101A20001B06120A13436360D1E6FEF753FD801BC9
:101A30000228CFD918E7C046AF3A0008001002408C
:101A4000FFDFFFFFFF9FFFFF01020000FF1FFFFFFF
:101A5000183C000800000020FFFFFEFFFFFFFBFF17
:101A6000FFE0FFFF2D0200002368C04A80271340DB
:101A70002360FEF72FFD0600BF0023683B4200D124
:101A8000A5E6FEF727FD801B0228F6D9ECE66B6978
:101A9000012B03D9B649B74801F0B5FB6A690123A8
:101AA000002A10D0226D022713432365FEF712FD92
:101AB0000600236D3B4200D08DE6FEF70BFD801B38
:101AC0000228F6D9D0E6226D02279A432265FEF756
:101AD00001FD0600236D3B4200D17CE6FEF7FAFCD7
:101AE000801B0228F6D9BFE6AB68A04A134207D094
:101AF000A022D200934203D09F499E4801F083FB6D
:101B000080230021A26B5B0502911A4204D1A26BD3
:101B10001343A363012302938027984E7F00336809
:101B20003B4208D08022AB685200934213D1226D11
:101B30001343236534E033683B433360FEF7CAFC4C
:101B4000039033683B42EDD1FEF7C4FC039BC01AFF
:101B50006428F6D988E6002B16D1236D834A8027A6
:101B600013402365236D864ABF0013402365FEF7AB
:101B7000B1FC0600236D3B422AD0FEF7ABFC814B43
:101B8000801B9842F6D96FE6A021C9008B420DD187
:101B90008023216DDB000B432365236D1A432265EF
:101BA000FEF798FC80270600BF000EE0236D6F4A09
:101BB00013402365236D724A1340BAE7FEF78AFC8F
:101BC000704B801B984200D94EE6236D3B42F5D006
:101BD000029B012B00D002E6A36B6B4A1340A36368
:101BE000FDE5AB69012B03D96849624801F00BFBA5
:101BF000A9690123664A002918D0A1680227194360
:101C0000A160616B0B4363638023116A9B010B43EB
:101C10001362FEF75FFC0600A3683B4200D0E2E5DA
:101C2000FEF758FC801B0228F6D91DE6A1680227A2
:101C30009943A160136A57490B401362FEF74AFCAF
:101C40000600A3683B4200D1CDE5FEF743FC801BB4
:101C50000228F6D908E6019A0C2A6AD04E4E022BC9
:101C600055D14E4BEA6A1A4203D04D49414801F022
:101C7000CAFA2A6B4B4B13400BD0802149038B428D
:101C800007D080239B039A4203D04749394801F08B
:101C9000BAFA80216A6B454BC90313408B4207D0C7
:101CA00080231B049A4203D04149324801F0ABFA29
:101CB00023681E402660FEF70DFC80260700B60450
:101CC000236833421DD1296BEB6AE2680B43394923
:101CD0000A4013436A6B80251343E3608023226824
:101CE0005B0413432360FEF7F5FB0600AD04236895
:101CF0002B4200D083E5FEF7EDFB801B0228F6D9CE
:101D0000B2E5FEF7E7FBC01B0228D9D9ACE5236892
:101D100080251E402660FEF7DDFB0600AD0423682B
:101D20002B4200D16BE5FEF7D5FB801B0228F6D9CC
:101D30009AE51800012B00D1E6E48022E368E96A05
:101D400052021A4001208A4200D0DDE4F022296BC1
:101D500092031A408A4200D0D6E4C0200004034017
:101D6000686B181A431E9841C0B2CDE4FFFEFFFF16
:101D70004B020000AF3A00087702000000700040FC
:101D8000FFFBFFFF88130000FFFFFFEFBE02000014
:101D900000000140FFDFFFFFFFFFFFFEFFFFFEFF30
:101DA000F1020000FFFFF3FFF2020000FFFF7FFFE0
:101DB000F3020000FFFF02FFF7B504000F00002848
:101DC00001D10120FEBD03681B0703D17C497D487A
:101DD00001F019FA012F03D97B497A4801F013FA6F
:101DE00001227A4D2B6813409F423AD823689B0703
:101DF00040D42368DB075FD401232A681A40974246
:101E000000D2BBE02368724D5B0700D5BEE02368BB
:101E10001B0718D523696F4A13420DD0A0216E4AC3
:101E2000C9001A408A4207D0C022D200934203D090
:101E30006A49644801F0E7F9EA6823696849DB0008
:101E40000A401343EB60FFF71DFCEB68654A1B0675
:101E50001B0FD35CD840644B18600020FEF706FBD4
:101E6000B0E72B6893433B432B602B6813409F42A2
:101E7000A7D1BBE7A36880221900914314D0202288
:101E80001900914390290FD0402219009143A029B5
:101E90000AD0102219009143C02905D0F02B03D09D
:101EA0005249484801F0AFF9F021494AD3688B43C1
:101EB000A1680B43D3609CE76368032B03D94C49AB
:101EC000404801F0A0F9424E62683368022A1CD1F2
:101ED0009B0300D475E70321F3688B431343F3603E
:101EE000FEF7F8FA63680190022B1BD10C22F3680D
:101EF0001340082B00D17FE7FEF7ECFA019BC01AD4
:101F00003C4B9842F2D903205CE7032A02D19B01A3
:101F1000E1D456E7012A02D15B07DCD451E79B05E7
:101F2000D9D44EE7032B0DD10C22F3681340934212
:101F300000D161E7FEF7CEFA019BC01A2D4B984203
:101F4000F2D9E0E7012B13D00C22F368134200D141
:101F500052E7FEF7BFFA019BC01A264B9842F3D90D
:101F6000D1E7FEF7B7FA019BC01A224B9842CAD8B4
:101F70000C22F3681340042BF3D13DE72A689A43FF
:101F80002A602A681A4200D01BE73BE7E368114A3F
:101F900013420DD0A021104AC9001A408A4207D02E
:101FA000C022D200934203D01349064801F02BF916
:101FB000EB68124A1340E2681343EB6027E7C04620
:101FC00066030000AF3A00086703000000200240EB
:101FD00000100240FFFBFFFFFFFDFFFFF1030000C9
:101FE000FFC7FFFF183C0008000000207E03000030
:101FF0008503000088130000EA030000FFF8FFFFDC
:10200000044B054ADB685B055B0FD35C034A106831
:10201000D840704700100240283C00080000002013
:10202000044B054ADB689B045B0FD35C034A1068D2
:10203000D840704700100240283C000800000020F3
:10204000F7B5934B026804009A4203D9672191487F
:1020500001F0D9F823689B064DD563688E4A134278
:102060000DD098218D4A49031A408A4207D08C220C
:102070009203934203D07321864801F0C4F8802371
:102080000021874D5B05AA6B00911A4204D1AA6B0F
:102090001343AB63012300938027824E7F00336894
:1020A0003B4200D1AFE0C022C021286863689203A0
:1020B000104089021A40904200D0B6E02A6D0A40D2
:1020C00000D0BDE06168C0230A009B021A409A421A
:1020D00007D12B6874480340C020800301400B43A4
:1020E0002B602B6D1A43009B2A65012B03D1AB6B30
:1020F0006E4A1340AB632368DB070DD5A368032B3F
:1021000003D9DE21634801F07EF80321644AD36CD1
:102110008B43A1680B43D36423689B070ED50C2324
:10212000E2689A4303D0E9215A4801F06CF80C2187
:102130005B4AD36C8B43E1680B43D36423685B0732
:102140000DD55B4D23692B4203D0F321514801F09B
:102150005AF8534A2169D36C2B400B43D36423684C
:102160001B0712D56369534A134207D0802292019C
:10217000934203D0FD21474801F045F8484A4E49B3
:10218000D36C0B4061690B43D3642368DB0513D523
:10219000A3694A4A134208D080229202934204D093
:1021A00084213C48490001F02EF83D4A3A49D36C5D
:1021B0000B40A1690B43D36423685B060ED5404DE9
:1021C000236A2B4204D014213248FF3101F01BF85E
:1021D000334A216AD36C2B400B43D364236800201D
:1021E0001B0621D5374DE3692B4204D01C21294819
:1021F000FF3101F008F82A4AE169D36C00202B4036
:102200000B43D36410E033683B433360FEF762F95D
:10221000019033683B4200D045E7FEF75BF9019B34
:10222000C01A6428F5D90320FEBD1A000A408A426C
:1022300000D043E72A680120920300D43EE7F3E789
:102240000B409A4200D13DE723689B0600D439E752
:1022500080232A6D286D1B0303432B652B6D0E49CC
:102260001948114003402B652965D30500D429E79F
:10227000FEF730F980270600BF002B6D3B4200D0EF
:1022800020E7FEF727F9114B801B9842F5D9CAE7E2
:10229000FF010000E73A0008FFFFFCFFFFFFDFFF40
:1022A0000010024000700040FFFFCFFFFFFFFFEF74
:1022B000FFF3FFFFFFEFFFFFFFCFFFFFFFFFFEFF7B
:1022C000FFFFFFFBFFFFF3FFFFFFF7FF8813000097
:1022D000036807491A680A401A609A682331FF3177
:1022E0008A439A6020238367002303667047C046B1
:1022F000DFFEFFFFF8B51300426F04000220202A22
:1023000035D10138002932D0002B30D08022A56889
:102310005201954204D12269002A01D1014226D1FD
:102320002600703632780220012A20D022000125B2
:10233000503235700027E164138053802122A06E53
:10234000E7676267B84213D00E4A8763C2620E4ADB
:1023500002630E4A426322682832FEF723FEB84227
:1023600006D010232800E367DB1837706367F8BDD9
:102370004022002023681A62996892180A4330703C
:102380009A60F4E74124000873240008CB24000875
:10239000F8B51300826F05000220202A37D10138DA
:1023A000002934D0002B32D08022AC6852019442F4
:1023B00004D12A69002A01D1014228D12E007036A9
:1023C00032780220012A22D02A00012458323470A7
:1023D0000027696513802222E86EEF67AA67B8427A
:1023E00016D0144A8763C262134A0263134A4263D7
:1023F0002A68243294460A006146FEF7D3FDB842AB
:1024000006D010232000EB67DB1837706B67F8BD30
:10241000802200202B685200196830700A431A602D
:10242000012299680A439A60402299680A439A6097
:10243000EDE7C0467D240008BF240008CB24000837
:102440002021036810B51B68826A0B400CD1110073
:1024500052310B80802113689A688A439A60402227
:1024600019680A431A6010BD100000F0BFFEFAE7B9
:10247000704710B5806AFFF7FBFF10BD0368826AE2
:1024800020201B6810B5034011D111005A310B8078
:102490001368094C19682140196099680334FF34A6
:1024A000A143996099683F34A143996090671000F7
:1024B00000F0A2FE10BDC046FFFEFFFF704710B542
:1024C000806AFFF7FBFF10BD704710B5846A236870
:1024D000626FA16F986800060BD5212A09D12200EE
:1024E0000020523210801A68C03082431A602022C5
:1024F00062679B685B0608D5222906D1230000226B
:102500005A331A802000FFF7E3FE1023E26F200009
:102510001343E367FFF7D8FF10BD0000F8B5036869
:102520000400DA6918689E6811070AD120210A425E
:1025300000D16AE0084268D0236E2000002B5AD1F7
:102540005AE0012135000D4003D190277F00384229
:102550005BD00A4205D0C60503D51962E66F314348
:10256000E16702210A4206D0002D04D01962E66F0D
:1025700049183143E16704210A4206D0002D04D0F6
:102580001962E66F02393143E167110708D5810608
:1025900001D4002D04D008211962E36F1943E167CB
:1025A000E36F002B28D020231A4206D0184204D013
:1025B000236E002B01D0200098472368E56F9B68AD
:1025C00020005B0602D408231D401AD0FFF780FECE
:1025D000402123689A680A420FD09A68E06E8A43C5
:1025E0009A60002809D01A4B8363FEF72BFD002860
:1025F00002D0E06E836B9847F8BD2000FFF764FFC0
:10260000FAE7FFF761FFE567F6E7802149030A4231
:1026100006D0750204D51962200000F0D9FBEBE763
:1026200080210A4203D0084201D0636E85E7402131
:102630000A42E1D00842DFD01A6820008A431A60BB
:10264000202363670023636600F0D0FDD4E7C04613
:1026500055260008806A0023020010B55A32138004
:10266000083A1380FFF730FF10BD0000F8B542684C
:10267000AF4B04009A4203D9AE49AF4800F0C3FD06
:102680008022A3685205934206D0AC4A134203D07D
:10269000AB49A94800F0B7FDAA4D2268E368AA4EED
:1026A000AA4260D1A94A134203D0A949A24800F026
:1026B000AAFD2369A74A134207D0C022D200934241
:1026C00003D0A5499C4800F09EFD63690C221900C7
:1026D000914301D1002B03D1A049974800F093FD0D
:1026E0009F4BA2691A4203D09E49934800F08BFD8C
:1026F0009D4BE2691A4203D09C498F4800F083FD4C
:102700002769A26823683A4367691868E1693A4310
:10271000974F0A43384002431A605A68A06916402E
:10272000E26816435E60AB4201D0226A10439A68A9
:10273000904E324002439A608F4A934220D1032246
:102740008E4BDB6C13408E4AD05C80231B02994277
:1027500000D1DEE0082833D8FDF7DEFC9BA2A532CD
:10276000C0323232C300334204D0AD217248090175
:1027700000F049FD834B226A1A429AD0824995E7BC
:10278000824A934205D10C227C4BDB6C1340804A79
:10279000DAE7804A934200D1AFE07F4A934200D10A
:1027A000ABE0AB4200D0A1E0C0218020734A090118
:1027B000D36CC0000B40834238D003D8002B0AD022
:1027C00001250DE08020000183420ED08B42F7D11D
:1027D000802000020DE0FFF713FC0025A84208D17D
:1027E0000023280023666366F8BD1368DB0620D546
:1027F0004F48032263685A438242E1D81A03824257
:10280000DED30027020E01025E0889197A41080012
:1028100011001A003B00FDF71FFD604BC218604B12
:102820009A42CDD823683D00D860D9E7FEF72AFF49
:10283000D3E75C48DDE7FFF7F3FB64E010254F4B7F
:1028400061681A684808154006D0574BC018FDF754
:1028500077FC002583B204E0544BC018FDF770FCF0
:1028600083B21900524810398142A9D80F211800AB
:102870001B0788435B0F21680343CB60B0E7FEF77B
:1028800001FF40E06368580880235B023EE00023BC
:10289000E7E7FFF7B5FB63685B08C01861680BE00A
:1028A000FFF7BEFBF7E71025344B61681A6848084C
:1028B000154006D01E4BC018FDF742FC002583B220
:1028C00004E0384BC018FDF73BFC83B219003848D0
:1028D0001039814200D973E72168CEE7FEF7D2FEB6
:1028E000D9E76368580880231B02D6E780230125B7
:1028F0001B029942CBD00023E8E780231B029942B8
:10290000C7D1FFF77DFB636840005B08C0186168B2
:102910009DE7082800D953E7FDF708FCF3FF8DFF7A
:1029200090FF52FFB1FF52FF52FF52FFB4FFC0466B
:1029300000093D00C80A0000333B0008FFEFFFFF1D
:10294000C90A000000480040FFCFFFFFFFDFFFFF84
:10295000CC0A0000FFFBFFFFD40A0000D50A0000EC
:10296000FFFCFFFFD60A0000FF7FFFFFD70A000031
:10297000F369FFEFFFF4FFFF003801400010024051
:10298000223B0008FFF7FFFFD10A0000004400408F
:10299000263B0008004C00400050004000FDFFFFB7
:1029A000FFFC0F000024F40000127A000048E80148
:1029B000EFFF0000436A70B50400FF2B03D95549AF
:1029C000554800F020FC636ADB070DD5534DA36A20
:1029D0002B4203D05249504800F015FC2268A16AEE
:1029E00053682B400B435360636A9B070DD54D4DD5
:1029F000E36A2B4203D04C49474800F004FC2268AC
:102A0000E16A53682B400B435360636A5B070DD543
:102A1000464D236B2B4203D045493F4800F0F3FB62
:102A20002268216B53682B400B435360636A1B077A
:102A30000DD5404D636B2B4203D03F49364800F023
:102A4000E2FB2268616B53682B400B435360636A5F
:102A5000DB060DD5394DA36B2B4203D038492E48E8
:102A600000F0D1FB2268A16B93682B400B4393606D
:102A7000636A9B060DD5334DE36B2B4203D032497D
:102A8000254800F0C0FB2268E16B93682B400B43A4
:102A90009360636A5B062AD523682C4A934206D06A
:102AA0002B4A934203D02B491B4800F0ACFB2A4D24
:102AB000236C2B4203D02949174800F0A4FB21685E
:102AC000226C4B682B4013434B6080235B039A427C
:102AD0000DD1234D636C2B4203D022490E4800F0E8
:102AE00092FB2268616C53682B400B435360636A0E
:102AF0001B060DD51C4DA36C2B4203D01B49064869
:102B000000F081FB2268A16C53682B400B4353609B
:102B100070BDC0469A0B0000333B0008FFFFFDFF6D
:102B20009F0B0000FFFFFEFFA60B0000FFFFFBFF57
:102B3000AD0B0000FF7FFFFFB40B0000FFEFFFFFB6
:102B4000BB0B0000FFDFFFFFC20B0000003801409D
:102B500000440040C90B0000FFFFEFFFCA0B00005C
:102B6000FFFF9FFFCF0B0000FFFFF7FFD70B000019
:102B7000F8B504000E0015001F002268D369334029
:102B80009B1B59424B41AB4201D000201BE0069BEE
:102B90000133F3D0FDF79EFC069BC01B834201D39B
:102BA000002BEAD1236808491A6803200A401A60FA
:102BB0009A68A331FF318A439A6020236367A36731
:102BC000002370342370F8BD5FFEFFFFF0B587B0BF
:102BD0000593436F04000D0017000220202B49D1FC
:102BE0000138002946D0002A44D08023A2685B0126
:102BF0009A4204D12369002B01D101423AD123002A
:102C000070331A780220012A34D0012200261A706B
:102C10002123E6676367FDF75DFC230050331F80C7
:102C2000023303931F808023A26804905B019A42C1
:102C300004D12369B34201D12E001D002300523379
:102C40001A88059B92B20093049B002A0AD1402166
:102C50002000FFF78DFF00280BD120237034636024
:102C6000207007E0002280212000FFF781FF00286C
:102C700002D0032007B0F0BD2268002D0BD13388AD
:102C80000236DB05DB0D9362039B039A1B88013B35
:102C90009BB21380D2E72B7801359362F4E70000F2
:102CA00073B500260400C667FDF714FC2368050011
:102CB0001B681B0715D423681B685B070AD5802196
:102CC0000E4B00220093C9032B002000FFF750FF9A
:102CD000002811D1202300206367A367703420707F
:102CE0000BE08021054B3200009389030300200094
:102CF000FFF73EFF0028DED0032076BDFFFFFF0177
:102D000010B5041E01D1012010BD81690368294A54
:102D100000293ED0934210D0274A93420DD0274A33
:102D200093420AD0264A934207D0264A934204D0BF
:102D30003021FF31244800F066FA636F002B05D183
:102D4000220070321370200000F0D6FB24230121F2
:102D500022686367136820008B431360FFF786FCCB
:102D60000128D0D0636A002B02D02000FFF722FE9A
:102D7000236816495A6820000A402A215A609A6836
:102D80008A439A60012219680A431A60FFF788FF94
:102D9000BAE79342D1D0084A9342CED0074A934231
:102DA000CBD0074A9342C8D0064A9342C5D09A2155
:102DB0004900BFE70038014000440040004C00409B
:102DC0000050004000480040333B0008FFB7FFFFC1
:102DD0007047000030B59DB0382200210EA800F0E9
:102DE00091FD14220021684600F08CFD2422002170
:102DF00005A800F087FD1449144A0B6800241A4006
:102E000080231B0113430B6010230E930F3B15937C
:102E1000A0230F251B020EA8179316941894FEF7F3
:102E20006DFC21006846009501940294039404947B
:102E3000FEF7C2FF05A805950794089409940A9423
:102E4000FFF7FEF81DB030BD00700040FFE7FFFF48
:102E5000F8B58025A026070000246D00F605BC42C9
:102E600000DBF8BD002229003000FEF791FA19209E
:102E7000FDF736FB012229003000FEF789FA192000
:102E8000FDF72EFB0134EAE7F0B58BB0FDF706FB4A
:102E9000FFF7A0FF1422002105A800F033FD042253
:102EA0008021A64D0126EB6AA5481343EB62EB6A2D
:102EB000002413400193019BEA6A03270A43EA6254
:102EC0000222EB6A0B400293029BEB6A9D4933435B
:102ED000EB62EB6A33400393039BEB6A1343EB62B1
:102EE000EB6A134004933200049BFEF751FA9F21D2
:102EF000A02000220902C005FEF74AFA0022202184
:102F00008F48FEF745FA802305A99B018E4805935B
:102F100006940794FEF706F9C02305A91B028A4808
:102F2000059306970794FEF7FDF805A987480597CE
:102F300006970794FEF7F6F8A020C02305A9C00560
:102F4000059306940794FEF7EDF8814B05A90593C8
:102F5000804B7B4806930794FEF7E4F8042305A909
:102F6000059377480D33069307960894FEF7DAF831
:102F7000794B05A972480593069607940894FEF7C5
:102F8000D1F88023A0205B00059305A9FE3BC00576
:102F9000069607930893FEF7C5F89E23A0201B0210
:102FA00005A9C0050593069607940894FEF7BAF89C
:102FB0002B6B220033432B632B6B21003340009398
:102FC0000920009BFDF7C4FE0920FDF7FBFE22004F
:102FD00021000A20FDF7BCFE0A20FDF7F3FE2200C7
:102FE00021000B20FDF7B4FE0B20FDF7EBFE0822BD
:102FF000210005A800F086FC584D594B28002B6095
:10300000C0231B066B60AB19DC77AB1CDC77C223DB
:10301000FF336B622B002C331C7004232E616B6119
:10302000EC63AC60AC63EC60AC622C63AC616C6371
:10303000EC61FDF7B3FA4B4B05A9059380232800FB
:103040005B010693FDF7B8FD474B05A928000593E2
:10305000FDF7B2FD454B05A928000593FDF7ACFD32
:103060003A0043492800FDF769FC424D424B2800D5
:103070002B60E123DB006B60EE60AC602C616C6167
:10308000AC61EC612C629626FEF7C4F921002800A1
:10309000FEF770FA28000C252100FEF7B1FA374838
:1030A000374BB601036046608460C46004614561CB
:1030B000846104624462FFF723FE3248324B46606B
:1030C00003608460C460046145618461C46104621A
:1030D0004462FFF715FE2D482D4B46600360846067
:1030E000C460046145618461C46104624462FFF7A5
:1030F00007FE2848284B84600360E1235B0243609D
:10310000C460046145618461C46104624462FFF784
:10311000F7FD2248224B466003608460C46004616E
:1031200045618461C46104624462FFF7E9FD0A20DD
:10313000FFF78EFE00F0F2F8FEE7C04600100240F6
:103140000004005004C0000000080050001C0050A3
:10315000033000000000111020C00000580C0020B7
:10316000002401401000001020000014000004485A
:1031700024080020B008002000540040300800203F
:103180000048004080060020003801409C070020D5
:10319000004400401C070020004C0040B803002001
:1031A00000500040F7B500AF0500FCF7ADFF6A46E0
:1031B000C31DDB08DB00D31A9D46290004006846C6
:1031C00000F0B5FB6E466D46AB1B9C4201DCBD4674
:1031D000F7BD2B7801223B71391D0A230248FFF706
:1031E000F5FC0135F0E7C046300800200122014B14
:1031F0001A707047B50300200122014B1A70704706
:10320000B503002070477047F3B5FFB000AF05006D
:103210003960FCF779FF6B46861C0930C008C00096
:103220001B1A9D460C23FA22FC1852000021200094
:1032300000F068FBFA2200215200344800F062FBE3
:103240002900684600F073FB3149684600F062FBD4
:10325000304DB2B269462800FFF74CF82E4B1E786D
:10326000F2B27A60012AFAD1002638681E70FDF7A2
:1032700037F9FA22210052002800FFF789F880214F
:10328000A02032004900C005FEF782F80A20FDF7B1
:1032900027F98021A0207A68C0054900FEF778F858
:1032A000FA20320033006C655A352E804000A55656
:1032B0000132E917491BC90F5B188242F7D16A46F0
:1032C0000733DB08DB00D31A9D4601210023684643
:1032D0001A001D008C46E15C4EB2002E0ADD0B4E3A
:1032E0008154B1545E1EA65D01324F2E02D14B298E
:1032F00000D16546FA21013349008B42EBD1FFF73B
:1033000051FF2800BD467FB0F6BDC046C101002078
:103310006C3B00081C070020B5030020F8B580278F
:10332000A0258026FA24ED057F01390076002800CB
:103330000022A400FEF72CF8310001222800FEF73D
:1033400027F82000FDF7CCF8390028000122FEF70D
:103350001FF82800FA2500223100FEF719F8200096
:10336000FDF7BEF8210015486D00FFF74DFF210065
:103370001348FFF749FF2800FDF7B2F82100114874
:10338000FFF742FF2800FDF7ABF821000E48FFF7DA
:103390003BFF21000D48FFF737FF2800FDF7A0F89D
:1033A00021000B48FFF730FF2800FDF799F82100B6
:1033B0000848FFF729FF0120F8BDC0466F3B000811
:1033C000D23B0008DD3B00087D3B0008E93B0008DC
:1033D000F43B0008C73B00080122054B596B0A4328
:1033E0005A638022996B52050A439A637047C0461C
:1033F0000010024030B5050087B01422002101A85A
:1034000000F080FA1F4B2A689A4238D180221E4B66
:103410009200596BA0200A4301215A63DA6AC00561
:103420000A43DA62DB6A0B400093009B302301A958
:1034300001932D3B0293FDF775FE8022134C144B34
:10344000226192186261802212012360A26100232E
:10345000202220006360A360E360E2612362FDF745
:10346000DDFC002801D0FFF7CDFE00220C20EC642B
:103470001100A562FDF76CFC0C20FDF7A3FC07B062
:1034800030BDC0460024014000100240C80B00209F
:103490000800024010B5040086B01422002101A8E3
:1034A00000F030FA114B22689A421CD10221104CD4
:1034B0001048E26A0A43E262E36A0B400093009B11
:1034C000C0239B00019312230293113B03935B18CB
:1034D000049301A901330593FDF724FE8023A26B19
:1034E0009B031343A36306B010BDC04600540040C5
:1034F000001002400004005030B505008BB01422CB
:10350000002105A800F0FEF92B68854A934223D1DB
:103510008022844BD202996B83480A439A63022229
:10352000D96A1143D962DB6A05A913400093009B55
:10353000C0231B01059303230893013306920993CB
:10354000FDF7F0FD00221D201100FDF701FC1D20FC
:10355000FDF738FC0BB030BD744A93421DD1802278
:10356000704BD201596B70480A435A630222D96AE0
:103570001143D962DB6A05A913400193019BC02363
:103580000593BD3B06920893FDF7CCFD00221B205E
:103590001100FDF7DDFB1B20DAE7654A934221D1DC
:1035A0008022604B9202996BA0200A4301219A630A
:1035B000DA6AC0050A43DA62DB6A0B400293029BB7
:1035C0000C2305930A3B06935B1808935B1805A927
:1035D0000993FDF7A7FD00221C201100FDF7B8FBA1
:1035E0001C20B5E7534A934253D180224D4B12031E
:1035F000996BA0200A4301219A63DA6AC0050A4345
:10360000DA62DB6A02220B400393039B032305A9C2
:1036100005930893DB1806920993FDF783FD464C4A
:10362000464B802223600C2363600023A360E36089
:103630006361A361E361802320009B012261236217
:10364000FDF7ECFB002801D0FFF7DCFD3C4BEC66FE
:10365000A5623C4C802223600C2363600433A3608A
:103660000023E3606361A361E361802322619B0126
:1036700023622000FDF7D2FB002801D0FFF7C2FD36
:103680000022AC660E20A5621100FDF761FB0E2042
:103690005EE72D4A934200D05CE78022214B520323
:1036A000996B21480A439A630222D96A1143D9626D
:1036B000DB6A05A913400493049B18230593153B6B
:1036C0000893033306920993FDF72CFD1F4C204B02
:1036D000802223600D2363600023A360E3606361A5
:1036E000A361E361C02320009B0122612362FDF7F7
:1036F00095FB002801D0FFF785FD164BEC66A5620F
:10370000154C802223600D2363600333A3600023E4
:103710002261E3606361A361E361C023A7E7C04660
:1037200000480040001002400004005000380140F2
:1037300000440040004C0040800B00201C00024070
:1037400030000240380B002000500040F00A0020FA
:103750006C00024080000240100C0020704710B541
:103760000A20FFF775FBFBE77047704710B5FCF7C1
:10377000A9FE10BD10B50248FDF789FC10BDC0467A
:10378000C80B002010B50348FDF781FC0248FDF787
:103790007EFC10BD800B0020380B002010B50348C4
:1037A000FDF775FC0248FDF772FC10BDF00A002021
:1037B000100C002010B50248FDF768F910BDC04696
:1037C000580C002010B50348FEF7A8FE0248FEF78B
:1037D000A5FE10BD1C070020B803002010B502484C
:1037E000FEF79CFE10BDC0468006002010B50248C2
:1037F000FEF794FE10BDC0469C07002010B502489D
:10380000FEF78CFE10BDC046300800208022104B11
:10381000520019680A431A60DA680E490A40DA60F1
:103820001A680D490A4001211A609A688A439A6011
:103830001A680A490A401A60DA6809490A40DA60D7
:1038400000221A618022074B12059A607047C04619
:10385000001002400C40FF88F6FFF6FEFFFFFBFF62
:10386000FFFF02FF00ED00E00D488546002103E068
:103870000C4B5B58435004310B480C4B42189A4296
:10388000F6D30B4A02E0002313600432094B9A423C
:10389000F9D3FFF7BBFF00F011F8FFF7F5FAFEE7E9
:1038A000005000204C3C00080000002004000020D4
:1038B00004000020B40C0020FEE7000070B50026D4
:1038C0000C4D0D4C641BA410A64209D1002600F03B
:1038D00037F80A4D0A4C641BA410A64205D170BDEE
:1038E000B300EB5898470136EEE7B300EB58984722
:1038F0000136F2E7443C0008443C0008443C000820
:10390000483C000803008218934200D170471970A8
:103910000133F9E7020010B51378002B05D1CC5C18
:10392000D4540133002CFAD110BD0132F4E7031C4A
:103930000A7801311A700133002AF9D1704700006A
:10394000F8B5C046F8BC08BC9E467047F8B5C046FE
:08395000F8BC08BC9E4670475C
:103958002E2E5C447269766572735C53544D333213
:103968004C3078785F48414C5F4472697665725C88
:103978005372635C73746D33326C3078785F68614E
:103988006C5F6164632E63002E2E5C4472697665F9
:1039980072735C53544D33324C3078785F48414CE5
:1039A8005F4472697665725C5372635C73746D33DD
:1039B800326C3078785F68616C5F636F72746578B9
:1039C8002E63002E2E5C447269766572735C5354C4
:1039D8004D33324C3078785F48414C5F4472697699
:1039E80065725C5372635C73746D33326C307878D3
:1039F8005F68616C5F646D612E63002E2E5C44729B
:103A080069766572735C53544D33324C3078785F05
:103A180048414C5F4472697665725C5372635C73AB
:103A2800746D33326C3078785F68616C5F67706989
:103A38006F2E63002E2E5C447269766572735C5338
:103A4800544D33324C3078785F48414C5F4472694A
:103A58007665725C5372635C73746D33326C307864
:103A6800785F68616C5F6932632E63002E2E5C4458
:103A78007269766572735C53544D33324C30787882
:103A88005F48414C5F4472697665725C5372635C4F
:103A980073746D33326C3078785F68616C5F69324B
:103AA800635F65782E63002E2E5C447269766572BA
:103AB800735C53544D33324C3078785F48414C5FD7
:103AC8004472697665725C5372635C73746D3332E9
:103AD8006C3078785F68616C5F7263632E63002E68
:103AE8002E5C447269766572735C53544D33324C64
:103AF8003078785F48414C5F4472697665725C53F0
:103B080072635C73746D33326C3078785F68616CA3
:103B18005F7263635F65782E63000104020800101A
:103B280010100410101002101010082E2E5C447291
:103B380069766572735C53544D33324C3078785FD4
:103B480048414C5F4472697665725C5372635C737A
:103B5800746D33326C3078785F68616C5F75617250
:103B6800742E63000D0A0041540041542B554254F1
:103B78004C453D3100415426570041542B55425481
:103B88004C4E3D2257495A452054455354204345ED
:103B98004E5452414C20424C45220041542B554230
:103BA80054440041542B554443503D7370733A2F8D
:103BB8002F43434639353738353830413370004163
:103BC800544F310074657374650041542B55425449
:103BD8004C453D320041542B554453433D302C361F
:103BE8000041542B435057524F46460041542B55E1
:103BF80042544C4E3D2257495A452054455354206F
:103C0800504552494D455452414C20424C452200A2
:103C18000000000000000000010203040607080974
:103C28000000000001020304030406080C10182019
:043C38003000000058
:083C3C005CC6FF7F01000000DF
:043C4400E90000088B
:043C4800C1000008AF
:043C4C000000200054
:04000005080038694E
:00000001FF
