:020000040800F2
:1000000000500020F15600081D5600081F56000839
:1000100000000000000000000000000000000000E0
:100020000000000000000000000000002156000851
:1000300000000000000000002356000825560008BC
:100040004157000841570008415700084157000830
:100050004157000841570008415700084157000820
:10006000415700082D560008415700084157000825
:100070003D560008415700084D56000841570008FA
:100080004157000841570008415700080000000090
:1000900041570008415700084157000841570008E0
:1000A00041570008415700084157000865560008AD
:1000B00075560008855600080000000041570008EA
:1000C00010B5064C2378002B07D1054B002B02D02E
:1000D000044800E000BF0123237010BDD4010020BC
:1000E0000000000044590008044B10B5002B03D059
:1000F0000349044800E000BF10BDC04600000000F6
:10010000D8010020445900080023C25C0133002AB2
:10011000FBD1581E7047000002B4714649084900DF
:10012000095C49008E4402BC7047C04603B4714666
:10013000490840004900095E49008E4403BC7047ED
:10014000002243088B4274D303098B425FD3030A16
:100150008B4244D3030B8B4228D3030C8B420DD329
:10016000FF22090212BA030C8B4202D312120902B7
:1001700065D0030B8B4219D300E0090AC30B8B42F5
:1001800001D3CB03C01A5241830B8B4201D38B03A3
:10019000C01A5241430B8B4201D34B03C01A524148
:1001A000030B8B4201D30B03C01A5241C30A8B428B
:1001B00001D3CB02C01A5241830A8B4201D38B0276
:1001C000C01A5241430A8B4201D34B02C01A52411A
:1001D000030A8B4201D30B02C01A5241CDD2C3098C
:1001E0008B4201D3CB01C01A524183098B4201D308
:1001F0008B01C01A524143098B4201D34B01C01AF3
:10020000524103098B4201D30B01C01A5241C3086A
:100210008B4201D3CB00C01A524183088B4201D3D9
:100220008B00C01A524143088B4201D34B00C01AC5
:100230005241411A00D20146524110467047FFE731
:1002400001B5002000F006F802BDC0460029F7D035
:1002500076E770477047C046002B11D1002A0FD1B6
:10026000002900D1002802D00021C943081C07B48E
:10027000024802A14018029003BDC046D9FFFFFF0B
:1002800003B4684601B5029800F006F8019B9E464B
:1002900002B00CBC7047C046F0B557464E464546C6
:1002A000DE46E0B5040083B00D00924699468B42CD
:1002B0002FD82CD04946504601F0F6FE2900060002
:1002C000200001F0F1FE331A9846203B9B4600D5F2
:1002D00074E053465A4693401F00534642469340AB
:1002E0001E00AF4229D826D05B46A41BBD41002B7F
:1002F00000DA79E0002200230092019301235A469C
:1003000093400193012342469340009319E08242B7
:10031000D0D900220023009201930C9B002B01D026
:100320001C605D600098019903B03CBC9046994602
:10033000A246AB46F0BDA342D6D9002200230092CC
:1003400001934346002BE8D0FB0772081A43464648
:100350007B080EE0AB4201D1A2420CD8A41A9D4109
:10036000012024196D410021013E24184D41002E29
:1003700006D0AB42EED9013E24196D41002EF8D1D2
:100380005B460098019900196941002B22DB2B0084
:100390005A46D3402A004446E2401C005B46150002
:1003A000002B2CDB26009E40330026004746BE4033
:1003B0003200801A994100900191AEE74246202315
:1003C0009B1A5246DA40414613004A468A401700BB
:1003D0001F4382E7424620239B1A2A0046469A4042
:1003E0002300F3401343D5E74246202300219B1A04
:1003F0000022009101920122DA40019282E74246F6
:10040000202326009B1ADE402F00B4469740664604
:100410003B003343C9E7C046F0B557464E46DE467B
:100420004546E0B544024300C60F83B00F1C640A82
:100430001B0EB24653D0FF2B27D08022E400D204FB
:1004400014437F22524290469844002399469B468B
:100450007D027800FB0F6D0A000E009324D0FF2868
:1004600046D080230021ED00DB041D437F38474642
:10047000381A4F460F43BF00B9463300009A874FE2
:1004800053404A46BA5801939746002C4ED1082350
:100490009946F7339846FD3B9B467D027800FB0F5B
:1004A0006D0A000E0093DAD1002D26D10020012123
:1004B0003300009A7A4F53404246101A4A460A4384
:1004C0009200BA581D009746009B2C009A468B4616
:1004D0005B46022B31D15346FF21002438E0002C2B
:1004E00017D1042399460023984601339B46AFE772
:1004F000FF20002D0BD10221DAE7280001F0B6FD24
:10050000431F9D4076235B42181A0021AFE7032169
:10051000ADE7200001F0AAFD431F9C4076235B421B
:100520001B1A9846002399469B4691E70C2399464F
:10053000F3339846FC3B9B468AE7032B00D1A5E0AA
:100540005546012B00D081E00123002100242B40DF
:100550006402C905600ADB070843184303B03CBCCA
:1005600090469946A246AB46F0BD80240023E403A2
:10057000FF21EDE7FF210024EAE70123591A1B2997
:1005800066DD019A134000210024E1E78023DB03AC
:100590001C4238D01D4251D01C436402640A33000F
:1005A000FF21D5E763016C01A3423BD21B2600214A
:1005B000013801251F0049005B00002F01DB9C4230
:1005C00001D81B1B2943013E002EF3D11C00631EE2
:1005D0009C410C4301007F310029CEDD630704D02C
:1005E0000F232340042B00D00434230103D5010042
:1005F0002C4B80311C40FE290DDD0123019AFF2187
:1006000013400024A4E78023DB031C436402640A34
:100610003300FF219CE70123019AA401640AC9B2B7
:10062000134095E71B1B1A260121C2E7009B8B464E
:100630009A4600244CE76302E5D500258024E403B4
:100640002C436402640A009BFF2181E70195C1E706
:1006500023002020CB40411A8C40611E8C411C435A
:10066000630704D00F232340042B00D0043463011C
:1006700005D50123019A01211340002468E70123D5
:10068000019AA401640A1340002161E78023DB037F
:100690001C436402640A5346FF2159E7805900084D
:1006A000C0590008FFFFFFF710B5041E27D001F066
:1006B000DDFC9E231B1A962B0ADC9622D21A94404C
:1006C0006402640ADBB26402DB05600A184310BDF1
:1006D000992B17DC9922D21A002A27DD9440220098
:1006E000134C1440510704D00F210A40042A00D0B3
:1006F0000434620112D4A401640ADBB2E3E70023EC
:100700000024E0E7B9222100D21A91400A00511ECC
:100710008A410521091ACC401443DBE7044B1C40F5
:100720009F23A4011B1A640ADBB2CCE72200D7E79F
:10073000FFFFFFFBF8B54546DE4657464E460C0325
:10074000E0B54E00C90F88460D00610A440F0C4306
:10075000C70019035800DB0F9B464B0A510F0B4390
:10076000760D400D1900D200D84500D1AEE0351A03
:10077000002D00DCF6E000280FD1134300D1DBE0B0
:100780006B1E002B00D037E1BA1A9742BF41641AA2
:100790007F42E41B0126170024E0C64B9E424DD049
:1007A00080231B041943382D00DD07E11F2D00DDD8
:1007B00038E12020431B9A460B005046834099465F
:1007C00013004846EB401843030050468240501E39
:1007D0008241E9401A43BA1A611A9742A4411700AC
:1007E00064420C1B230262D56402650A002D00D10D
:1007F000DFE0280001F03AFC0300083B1F2B00DD7E
:10080000D2E020223C00D21A9D40D4409F40254394
:100810009E4200DDC4E09E1B731C1F2B00DDF1E037
:10082000202238002900D21AD840914097402C004D
:100830000143781E8741DC4000260F437B0709D027
:100840000F233B40042B05D03B1DBB42BF417F42E1
:10085000E4191F0023022CD5964B01369E4200D18D
:100860009AE04546944BFF081C40600776056402F9
:100870000743240B760D00212403230B0C0D8F4A14
:1008800024051C431440330523435B00ED075B083C
:100890002B43380019003CBC90469946A246AB4613
:1008A000F8BD6446044300D111E2040067467B07AB
:1008B000C6D145466007FF080743E4087D4B9E42CA
:1008C00030D024037605240B760DD4E7331A9A46EC
:1008D000002B78DD002831D076488642AED08020CB
:1008E000000401435346382B00DCE9E00A43511E63
:1008F0008A410021D219BA42BF4109197C4217002E
:100900000C192302D3D56B4B01369E4200D13AE13C
:100910000120694B1C407B0807401F43E007074349
:1009200064088BE723003B4300D1CBE18022120314
:1009300014432403240B9EE72E007FE70800104396
:1009400000D1B4E0581E002800D0DEE0BA18BA4248
:100950009B4164185B42E418170001262302A6D5C8
:100960000226D5E7002D6ED1701C4005400D0128F0
:1009700000DCF9E0B81A844687428041E51A40421B
:100980002D1A280200D489E0D71BBA4292411C1BC1
:100990005242A51AD84629E74546002400276AE7AF
:1009A000454CF61A2C4049E73D0028388540002781
:1009B0002EE7380001F05AFB20301DE70A43511E94
:1009C0008A41002107E7002B00D0F3E0701C4305AB
:1009D0005B0D012B00DCADE0364B984200D1D1E03D
:1009E000BA18BA42BF4164187F42E419E7075208B7
:1009F00017436408060021E72E48854200D193E0A2
:100A00001D00D0E629001F3EF140202B00D18DE0D3
:100A10004022D31A9D402F437D1EAF4100240F4337
:100A2000002644E72B000800203BD8400300202D7F
:100A300000D17DE04020451BA9400A43511E8A4158
:100A400000211A43C7E6002E50D01A4EB04257D0AC
:100A500080266B429946360434434B46382B00DDE2
:100A6000D6E01F2B00DD35E12026F51A2600AE402A
:100A7000B2463E00DE40AC46350056462E43654643
:100A8000AF407D1EAF41DC403743D71BBA42924195
:100A90000C1B5242A41A0600D846A3E664466746D9
:100AA0002C4300D0A2E600250026002706E71E0002
:100AB000C4E6C046FF070000FFFF7FFFFFFF0F8077
:100AC0001F2B63DC2020C31A080098409C468346F5
:100AD00053461000D84003005846184363469A40D6
:100AE000531E9A4153460243D94003E726003E4332
:100AF00006D0EB439946002BC7D0944EB042ACD100
:100B00000C0017000600D84698E6904B9A450BD08B
:100B10008246E7E6002800D09EE01800104300D18E
:100B2000E9E01C001700D846884E87E6002572E7EA
:100B3000002182E723003B43002E00D0ABE0002BD6
:100B400000D1E7E00B00134300D177E6BA18BA42B0
:100B5000BF4164187F42E419230200D4F2E07C4BC9
:100B600017001C40060069E620003843002ED1D152
:100B700000285BD11C00144300D1A8E01C00170022
:100B8000D8465BE606000024002797E650460B0097
:100B90002038C34099465346202B00D195E040238E
:100BA00050461B1A99400A43511E8A414B46002168
:100BB0001A439FE6002E30D126003E4367D0DB4328
:100BC0009A46002B1CD0614EB04260D05346382B61
:100BD00000DD96E01F2B00DD9FE02026F31A2600A3
:100BE0009E409C46B34653463E00DE4033005E4680
:100BF0001E4363469F407B1E9F415346DC40374364
:100C0000BF189742924164185242A418060078E631
:100C100027437C1EA741002437E74C4EB04236D014
:100C200080265B4236049A463443CFE718001043CF
:100C300000D103E6B81A84466745AD41E01A6D421B
:100C4000401B050200D42CE6D71BBA4292411C1B64
:100C50005242A41AD846F1E51800104300D163E7C8
:100C6000F808670707438020E4080003044208D01F
:100C7000DD08054205D1D208590711430F002C00A9
:100C8000D8467B0FE4001C43FF00304ED6E50C0035
:100C900017000600D2E5002B38D00B00134300D11B
:100CA00042E7F808670707438020E408000304428E
:100CB000E7D0CB080342E4D1D208490711430F0023
:100CC0001C00DEE700270024D5E500216BE70025A6
:100CD0000027F3E54E462500203EF5404B462E000A
:100CE000202B2DD04025ED1AAC4027437C1EA74178
:100CF00000243743C9E6802400252403134E00272F
:100D0000DCE527437C1EA741002479E70C0017008F
:100D10000E4E93E50C00170090E556462300203E4A
:100D2000F34099465346202B0ED0402356469B1B3A
:100D30009C4027437C1EA7414B4600241F435FE78E
:100D40000024D2E71700B2E50024F2E7FF07000015
:100D5000FFFF7FFFF0B557464546DE464E46E0B5FD
:100D60004C000E0387B0834692461D008046360B2A
:100D7000640DCF0F002C4FD06F4B9C4235D0802399
:100D8000420F1B04F600134333439946C3009846B1
:100D90006A4B00269C460023644403932B031B0BE1
:100DA0009B466B00ED0F50465B0D01955ED0624A8D
:100DB000934253D05A46D1008022400F120402437E
:100DC0000A4393465246D1005C4A9446002263444B
:100DD0003800684084460290E41A16430F2E00D96A
:100DE000B4E0574BB6009B599F46030033439946E6
:100DF0006CD100239846023308260393CEE7CB46F6
:100E00004146039A0197022A65D1019B4A4C9C46B0
:100E10000023002298466BE00300334399464ED0EE
:100E2000002E00D1BCE1300001F020F903000B3BA3
:100E30001C2B00DDACE11D22D31A5A460100DA401A
:100E400008398E401300334399465B468B409846E1
:100E500000233C4C0026241A03939FE751465A4630
:100E6000114329D1002293460232B1E7594601438A
:100E70001ED05B46002B00D19EE1584601F0F6F8EB
:100E800003000B3B1C2B00DD8FE102005946083AA2
:100E900091408B461D21CB1A5146D9400B00594633
:100EA0000B4351469B469140264B00221B1A8FE76D
:100EB000002301229B468BE75146032288E700234B
:100EC0009846013304260024039367E70323B146C1
:100ED00003930C2662E7032A00D15CE2019B012AFE
:100EE00000D0E4E113409C460023002400229846F1
:100EF00000211203130B0A0D12051A432305124C8D
:100F000040462240134362465B00D2075B0813430E
:100F1000190007B03CBC90469946A246AB46F0BDCE
:100F2000002380229C4612039846034CE0E70023EE
:100F3000014C00229846DBE7FF07000001FCFFFFA1
:100F4000005A00080DFCFFFFFFFF0F80D94500D9B4
:100F500039E100D134E1002346464D469A46013C32
:100F60005B460A0E1B021A430B02170C0393130471
:100F70001B0C3900280090460193FFF7E1F80200AE
:100F8000019B83465A43280039009146FFF75EF9DA
:100F9000350C09040D43A9450DD95B464544013B79
:100FA000A84500D93AE1A94500D837E102235B42C0
:100FB0009C464544E3444B46EB1A39001800049321
:100FC000FFF7BEF8019B050043433900049899469A
:100FD000FFF73CF9330409041B0C0B43994509D96D
:100FE00043446A1E984500D91AE1994500D817E193
:100FF000023D43444A469B1A5A4612042A43039927
:101000009346100C0A0C914609045A46090C4E46A8
:101010000D001204120C4543059151437243704375
:1010200052190E0CB218954203D980256D02AC46B8
:101030006044150C09041204090C28185218834244
:1010400000D2CEE000D1C8E01D1A53469E1AB24528
:1010500092415242AB1A9A46984500D117E13900A5
:101060001800FFF76DF8019B050043433900504617
:101070000493FFF7EBF804980B04310C19438842F2
:1010800009D941446B1E884500D907E1884200D840
:1010900004E1023D4144049BCB1A1800390004933B
:1010A000FFF74EF8019B82464343390004980193B1
:1010B000FFF7CCF801980B043104090C194388425E
:1010C0000DD953464144013B884500D9E8E08842A8
:1010D00000D8E5E002235B429C464144E244019B88
:1010E0002D04CE1A51462943059D4F462A000B0474
:1010F000080C1B0C5A4345437B4378435B19170C80
:10110000FB189D4203D980256D02AC4660441D0C3E
:1011100012041B04120C28189B18864200D293E07C
:1011200000D18EE001231943A04BE318002B00DC13
:1011300099E04A0700D09EE05A46D20106D55A46A9
:101140009B4B1A4080239346DB00E318994A934255
:1011500068DD0123029A984C1A4000239446984671
:101160000022C5E680224B46120313420AD05B469A
:10117000134206D11A431203120BAC4688468E4C1A
:10118000B6E64B461A431203120BBC468A4CAFE636
:1011900003005A46283B9A4000239146984657E65A
:1011A000584600F063FF203040E603005246283BDB
:1011B0009A400021934677E600F058FF20305FE622
:1011C000884500D2C7E64B46DE075D0843465B080C
:1011D0001E434346DB079A46C2E60025924500D3EC
:1011E00033E7039E5946B446E244B245AD416D42F1
:1011F0004544EB180139984507D2984200D97FE061
:1012000000D1BCE01D1A8B461FE79845FAD1039D1B
:101210005545F2D943468B461D1A16E79B46CAE64A
:101220001500E7E65A46C90852070A435B0590468F
:101230005C0D5A460123029952021940120B8C464A
:1012400056E6002B00D16FE746444A1EB04529D927
:101250001100864200D065E7039A934200D061E70F
:1012600062E7012149420120C21A382A21DD029B8E
:1012700003409C4638E60F220A40042A00D15BE76F
:101280000A00111D914292415242934454E7474B48
:10129000E318002BE5DD01225242F2E71D00FAE6D9
:1012A0009A461CE7B04239D86ED011003AE7029353
:1012B0003AE71F2A3CDC20239B1A0C005846994031
:1012C00098404B1E99415B46D440D340204308438D
:1012D0001A00430709D00F230340042B05D0010057
:1012E000081D88429B415B42D21813023AD5012364
:1012F000029A01241A400023944698460022F7E5FA
:10130000022149428C46039DE344AC46E244AA458F
:10131000AD416D424544ED182D1A96E68A1E03999B
:101320004D008D42894149424144761803958FE72B
:101330001F204042C31A5846D8400300202A28D014
:1013400040205D46821A954029434A1E9141194327
:10135000072300220B4009D00F2300220B40080076
:10136000042BBDD1010053075202120BC9081943C7
:10137000012388460299002419408C46B8E552455D
:10138000BED88B46002560E6039D9D42C6D3110062
:1013900062E70025D8E780225B4612031A43019BCF
:1013A0001203120B9C468846034CA1E5FF03000084
:1013B000FFFFFFFEFE070000FF070000F0B55746E5
:1013C0004546DE464E46E0B50C0398464E00230BDC
:1013D00087B0070092469B46760DCD0F002E6BD04E
:1013E0006D4B9E4235D080245B46420F2404DB00C7
:1013F00014431C43C3009946684BA3469C460023F4
:1014000000276644029343461C035A00DB0F5046F4
:10141000240B520D984600D176E05F4B9A426DD076
:101420008023410F1B040B435C49E4008C461C43A2
:10143000C300002062444146B6186940721C019105
:10144000944607430F2F00D9B0E0554ABF00D25948
:1014500097465B460343994600D087E000239B46AE
:10146000023308270293CEE742460192022867D052
:10147000032800D10EE2012800D062E100230024FD
:101480000022994601990140CDB2002112030B0DB3
:10149000120B1B051343434A240513401C436400ED
:1014A000ED0764082C434846210007B03CBC904639
:1014B0009946A246AB46F0BD034399464FD05B46E2
:1014C000002B00D189E1584600F0D0FD03000B3B12
:1014D0001C2B00DD7AE11D22D31A3A0001005C4684
:1014E000DA4008398C4013008F4023439B46B946AD
:1014F00000232D4E0027361A029384E753462343D8
:101500002AD10024022096E75346234320D0002C02
:1015100000D157E1200000F0A9FD03000B3B1C2B7C
:1015200000DD49E11D21CB1A51460200D940534646
:10153000083A944093400C431B4A121A00207AE761
:101540000125019B144C1D400023002299469CE775
:101550000024002201206EE7534603206BE700239E
:101560009B4601330427002602934CE70323814660
:101570000C27029347E78022002300251203994697
:10158000054C82E75C464B4602986FE75C464B464B
:10159000019502986AE7C046FF07000001FCFFFFC3
:1015A000405A0008FFFF0F800DFCFFFF4A464946E6
:1015B000170C1A0C1B041B0C08041900000C4143E7
:1015C0001500884619007D43794303958946290013
:1015D000150045434D44029545462D0CAA46029DF3
:1015E0005544A94506D98A46802149028946CA44FC
:1015F00051460391290C0491414609042D04090C1C
:1016000088462900250C24044144240C059121001E
:1016100041438846210079438A4668434146504405
:101620008146080C48446F43824503D98021490212
:1016300089464F44010C894639004944029141468C
:101640000F0404993F0C88460004C01980444146A9
:10165000049159460F0C0904090C884659438A46DF
:1016600039005143894641464A435146090C8B464D
:101670007B43D2185A44934203D980235B029B4692
:10168000D94451460904090C8A46414661437C43CA
:10169000130C12044B445244A1468A463C00414676
:1016A0006C434D4351464D440F0C7D19A94503D958
:1016B0008021490288464444049F0399B846414426
:1016C0008B468345804141428846514608042F0499
:1016D000000C3F18584602991018894690429241D2
:1016E0004F44BA46524299469346C244D144CB44F1
:1016F0008F42BF41C245894199459B4193459241E3
:101700007F4249422D0C52420F435B4213437F19E3
:10171000FF185B463C19DB0D059A64021C4343022B
:1017200013435D1EAB415A46C00D0343520213439F
:10173000E20156D501205A0803401343E207134340
:1017400064085A48604400284DDD5A0709D00F222A
:101750001A40042A05D01A1D9A429B415B42E418A4
:101760001300E20104D58020514AC00014406044B7
:10177000504A904200DDE3E60125DB0862071A4388
:101780006402019B9146220B4405640D1D407CE6DA
:10179000802259461203114208D0144206D1224336
:1017A0001203120B45469946434C6EE65B461A43BC
:1017B0001203120B404C68E603005446283B9C4041
:1017C0000023B9E600F052FC2030A6E60300283BD7
:1017D0009F400023BB4699468AE600F047FC203034
:1017E00074E6B446ADE701252A1A382A06DD019BC6
:1017F00000241D4000230022994646E61F2A21DCD2
:1018000020252000AD1A1E00AB40A840D6405D1E2A
:10181000AB4130431843D440430709D00F23034062
:10182000042B05D00300181D98429B415B42E4182D
:10183000230221D50125019B01241D400023002204
:10184000994622E61F2521006D42281AC140080052
:10185000202A1DD05F35AA1A944023435C1EA34161
:10186000072503431D400022002D09D00F2200242C
:101870001A401800042AD6D1030065076402220B1F
:10188000DB082B4301259946019B00241D40FCE504
:101890000024E2E78022012512032243019912036A
:1018A000120B0D409946044CEFE5C046FF030000C3
:1018B000FFFFFFFEFE070000FF070000F0B54646F1
:1018C000D6464F460C03C0B5CD0F4E00610A440FFB
:1018D0000C43C1005800400D84468A460F0019038E
:1018E000500F490A0143C648760DA846DB0FD200C7
:1018F000844500D1D8E001204340AB4200D1A6E0AE
:101900006046351A002D00DC05E1002810D10B00DF
:10191000134300D1D7E06B1E002B00D04BE15346A0
:101920009F1ABA458041641A4042241A01261EE0DB
:10193000B34B9E4248D080231B041943382D00DD51
:1019400019E11F2D00DD4CE120230F005B1B10006F
:101950009A409F40E840531E9A41E940074317438D
:101960005346DF1B611ABA45A44164420C1B230293
:1019700000D4C5E06402650A002D00D1F6E028001D
:1019800000F074FB0300083B1F2B00DDE9E0202280
:101990003C00D21A9D40D4409F4025439E4200DD2A
:1019A000DBE09E1B731C1F2B00DD0AE120223800A8
:1019B000D21A290097402C009140D8407A1E9741B6
:1019C000DC40002601430F437B0709D00F233B4037
:1019D000042B05D03B1DBB42BF417F42E4191F00D1
:1019E000230225D5864B01369E4200D1AFE0854BC0
:1019F00001251C4043466207FF0864027605174331
:101A0000240B760D1D4000212403230B0C0D7E4A70
:101A100024051C431440330523435B00ED075B089A
:101A20002B43380019001CBC90469946A246F0BDD5
:101A3000012543466207FF081743E4081D40704B29
:101A40009E4236D024037605240B760DDBE76346F1
:101A5000F31A002B00DC94E06046002835D068487B
:101A60008642B1D080273F043943382B00DCFDE0AB
:101A70000A43170000217A1E974157445745804179
:101A8000091944420C1923023AD55D4B01369E4296
:101A900000D14BE101225B4B1C407B0817401F43E8
:101AA000E207174364088FE70800104300D024E7DB
:101AB00021E723003B4300D1B9E180221203144304
:101AC0002403240B9FE72E007EE70800104300D17B
:101AD000CAE0581E8446002800D0E7E05244524530
:101AE000804164184042241817000126230207D5BC
:101AF0000226CFE764462C4300D1B3E12C006746B1
:101B00007B0700D062E76307FF081F4301254346B8
:101B1000E4081D4093E7002D78D1751C6D056D0D0F
:101B2000012D00DCF2E05046801A8245BF41651A63
:101B30007F42ED1B8446280200D48CE05046171AE1
:101B4000BA4292410C1B5542651B984614E7012589
:101B5000434600241D40002755E72A4CF61A2C4026
:101B600032E73D0028388540002717E7380000F0AD
:101B70007DFA203006E70A43170000217A1E9741BC
:101B8000EEE6002B00D0E5E0731C9C465B055B0D88
:101B9000012B00DC9FE01A4B9C4500D1C5E052446C
:101BA00052458041641840422418E7075208174301
:101BB0006408664608E71248854200D185E01D00AA
:101BC000BCE629001F3EF140202B00D17FE04022DF
:101BD000D31A9D402F437D1EAF4100240F430026A2
:101BE0008EE72B000F00203BDF40202D71D04023DB
:101BF0005D1BA9400A43511E8A4100211743AFE6ED
:101C0000FF070000FFFF7FFFFFFF0F80002E3ED089
:101C1000B34EB44545D0802636046D423443382D4A
:101C200000DDA8E01F2D00DD1FE120262700504623
:101C3000761BB740E84007435046B040461EB041CF
:101C4000EC403843171ABA4292410C1B5242A41A74
:101C5000664698468BE6644667462C4300D08BE682
:101C6000002500260027EAE61E00ADE61F2B60DCFB
:101C70002027F81A0F00844687401000D8400743F9
:101C800060468240501E8241D9401743F5E6260047
:101C90005046064305D0ED43002DD3D0904EB445B9
:101CA000BDD10C001700664698468DE68C488342ED
:101CB0000BD06346D9E6002D00D096E00800104313
:101CC00000D1E2E00C0017009846854E7CE6002526
:101CD00080E700218EE7230050460343002E00D00A
:101CE000A8E0002B00D1DEE00B00134300D16BE62F
:101CF0005244524580416418404224181700230280
:101D000000D4FDE6774B66461C405DE62500504654
:101D10000543002ECFD1002D4FD10C00144300D12C
:101D2000A0E00C00170098464EE666460024002707
:101D300085E61F000800203FF8400700202B00D157
:101D40008EE04020C31A99400A43511E8A41002167
:101D5000174392E6002E14D126005046064362D067
:101D6000DB43002B5CD187189742924164185242A2
:101D7000A418664687E650462043441EA04100242E
:101D800060E7574EB4454ED0802636045B4234435C
:101D9000382B00DD7FE01F2B00DD8BE020262700A5
:101DA0005046F61AB740D84007435046B040461E4A
:101DB000B0410743DC40BF18D6E70D00154300D102
:101DC00002E65046801A8245BF41651A7F42ED1BEC
:101DD0008446280200D48DE65046171ABA42924132
:101DE0000C1B5242A41A9846EEE50D00154300D193
:101DF0006BE750466707C00807438020E4080003EC
:101E0000044207D0CD08054204D12C009846D708DB
:101E100049070F437B0FE4001C43FF00304ED3E51E
:101E20002F4EB445B4D10C0017006646CCE5002710
:101E30000024E8E5002B39D00B00134300D144E720
:101E4000C008670707438020E40800030442E1D08C
:101E5000CB080342DED1D70849070F431C00D9E75E
:101E6000002171E700250027E9E52E002700203E2C
:101E7000F740202D2FD04026751BAC405046204304
:101E8000441EA04100243843DCE6802400252403BE
:101E9000134E0027D3E5504620430700781E8741A4
:101EA0000024BF1860E70C0017008DE50C00170038
:101EB0000B4E89E51E002700203EF740202B0CD05A
:101EC0004026F31A9C4050462043441EA04107433D
:101ED0000024BF1848E70024D0E70024F3E7C046F9
:101EE000FF070000FFFF7FFF10B5041E28D000F0A1
:101EF000BDF8154B154A1B1AD21A1F2A15DD144AB4
:101F0000D21A9440002224035B05240B5B0D0021B0
:101F1000100024030A0D240B120522430D4C1B054F
:101F2000224013435B00590810BD210091400A0074
:101F30000B21081AC4405B052403240B5B0DE6E764
:101F4000002300240022E2E71E0400003304000006
:101F500013040000FFFF0F80F0B54C00640D0B036D
:101F6000621C450F5B0A52052B43C90FC500520D79
:101F7000012A28DD3A4AA618FE2E1BDC002E3EDD83
:101F800080010200501E82416D0F2A43DB00134383
:101F90005A0704D00F221A40042A00D004338022AA
:101FA000D2041A405AD00136FF2E03D09B015B0A9F
:101FB000F4B201E0FF2400235802E405400AC907F7
:101FC00020430843F0BD002C07D01D43F2D08020F1
:101FD000DB0080040343FF26DAE72B4303D005230D
:101FE000DB08FF2C03D05B025B0AE4B2E4E7002BC2
:101FF00032D08020C00303435B025B0ADCE732007F
:10200000173214DB80221E2712041343BF1B1F2F1D
:102010000FDC144A944664442A00A5402E00A340D5
:10202000751EAE41FA40334313430026B0E7002447
:10203000D5E702225242961B1A00F240202F09D007
:10204000094884466444A3402B435D1EAB410026EF
:1020500013439DE70023F7E70023ADE73400BFE714
:1020600080FCFFFF82FCFFFFA2FCFFFF1C2101237D
:102070001B04984201D3000C10391B0A984201D36B
:10208000000A08391B09984201D30009043902A249
:10209000105C40187047C0460403020201010101B0
:1020A000000000000000000010B5002903D1FFF778
:1020B000DDFF203002E0081CFFF7D8FF10BDC0464E
:1020C000FA210A4B70B5890005001868FEF738F848
:1020D00000F0B4FC04000120002C05D102382200DD
:1020E000290000F05FFC200070BDC0460000002009
:1020F0000223084A10B5116800200B431360FFF754
:10210000DFFF041E03D103F035F9200010BD0124C8
:10211000FBE7C04600200240024A13680133136007
:102120007047C046F0010020014B18687047C04658
:10213000F001002070B50400FFF7F6FF631C5A1E83
:1021400093410500E418FFF7EFFF401B8442FAD8E3
:1021500070BD0000084B13B5040008491868FDF76E
:10216000EFFF44430194019B002B00D113BD019B61
:10217000013B0193F7E7C0460000002040420F00FA
:102180000321036870B59A6804000A40012A0DD142
:10219000196811420AD0002070BD10230120626D21
:1021A00013436365A36D0343A365F5E799680F4A7D
:1021B0001142F2D101259A6828002A439A60FFF75C
:1021C000C9FFFFF7B1FF060023681B682B42E2D16D
:1021D000FFF7AAFF801B0A28F6D91023626D0120A1
:1021E00013436365A36D1D43A565D5E71700008004
:1021F000F7B504000120002C00D1D1E0694B226822
:102200009A4204D0CE216848490002F00AFF626871
:10221000664B134016D0802051004908C00581420A
:1022200010D0802109068A420CD0802252039342AA
:1022300008D080229203934204D09E215A48FF3155
:1022400002F0EFFE1823A2689A4304D0CF2156482B
:10225000490002F0E6FE2023E2689A4304D0A02160
:102260005148FF3102F0DDFE2369013B012B04D907
:10227000D0214D48490002F0D4FE661CF37F012BAB
:1022800004D9A2214848FF3102F0CBFEA31C0193E0
:10229000DB7F012B04D9D1214348490002F0C1FE64
:1022A000434BA26A1A4204D0A4213F48FF3102F0F6
:1022B000B8FE636A402219001800914380329043AF
:1022C0000FD08022520091420BD08032934208D02E
:1022D000C13BFF3B012B04D9D2213348490002F016
:1022E000A0FE23002C331B78012B04D9A6212E48F5
:1022F000FF3102F096FE04226369043B934304D04D
:10230000D3212948490002F08CFE2A4B226B1A4245
:1023100004D0A8212448FF3102F083FEA369012BD9
:1023200004D9D4212048490002F07BFE636B012BC5
:1023300004D9AA211C48FF3102F073FEE369012B86
:1023400004D9D5211848490002F06BFEA36B072B76
:1023500004D9AC211448FF3102F063FEE36B012B7A
:1023600004D9D6211048490002F05BFE636D002BB2
:1023700006D122005032A3652000137003F008F844
:10238000636DDB0604D4042322689168194013D0DE
:102390001023626D012013436365002350342370C2
:1023A000FEBDC04600240140805A0008FFFFF3FF35
:1023B000FFF3FFFFFFEFFFFF636D6A481840022342
:1023C00003436365032390681840674B012802D1DB
:1023D000176807421AD180256768ED057800400824
:1023E000A84204D080200006874200D09EE01069F9
:1023F0008000800810611069074317611827D068B2
:10240000A568B843D060D0682843D0601A685748A0
:1024100002401A60626B1868520602431A608023F9
:1024200022685B059068184202D19068034393606C
:10243000D3684F4803402069D360D768E368022817
:1024400000D10421256BF07F2B43A5693B43AE03EC
:10245000E5693343EE0333434603334326002C360A
:102460003678760033430B43C221D360636AFF3171
:102470008B4204D0A56AD1682B430B43D360A31CC5
:10248000DB7F012B06D100285CD18023D1685B0261
:102490000B43D360E36B012B5CD1216C1C2905D865
:1024A000344ACA409343DBB2002B04D09321324814
:1024B000890002F0B6FD636C60221900914309D0D7
:1024C000802907D080225200934203D02B492A480A
:1024D00002F0A7FD2A4BA26C1A4203D029492648D4
:1024E00002F09FFD226828491369606C0B4013615C
:1024F000236C11690343A06C03430B431361012355
:1025000011690B4313610721236800205A698A432C
:102510005A615A69A16B0A435A610322A065636D2F
:1025200093431A0001231343636539E71069174D7C
:1025300080008008106118682840186018680743F8
:102540001F605BE72021606D01436165A16D0B4356
:10255000A3659FE7012113690B42D4D013698B4314
:10256000D0E7C046FDFEFFFF08270140FFFFFFFD4B
:102570001902FEFF11111111805A00084D020000CE
:10258000FFFDFFFF4E02000003FCFFFFFFFFC3FF44
:10259000F7B5244B0192026804000F009A4203D061
:1025A0002149224802F03DFD236802209B685B0719
:1025B00030D4260050363378012B2BD001233370D2
:1025C000E369012B27D1636D194A00251A40802346
:1025D0005B0013436365E06C164BA5653570C36201
:1025E000154B21680363154B43631C230B604A683A
:1025F0000C3B13434B600123CA681343CB603A0082
:102600004031019B00F0F8FA042328002268916809
:102610000B439360FEBD2000FFF7B2FD0028F9D107
:10262000D1E7C04600240140D9050000805A0008C7
:10263000FEF0FFFF45260008B7260008C526000863
:10264000704700005022836A10B5596D11422BD19A
:10265000596DB132FF320A43C0215A651A68090127
:10266000D068084213D1591CC97F00290FD11168C5
:1026700009070CD5916849070DD40C205168814396
:1026800051605A6D0A49114001220A435A651800E7
:10269000FFF7D6FF10BD2022596D0A435A6501226B
:1026A000996D0A439A65F2E7DB6C5B6B9847F1E73B
:1026B000FEFEFFFF704710B5806AFFF7FBFF10BDFD
:1026C000704770474023806A10B5426D13434365DD
:1026D0000423826D13438365FFF7F3FF10BD0000F1
:1026E000444B026870B504009A4203D04249434803
:1026F00002F097FC651CEB7F012B03D940493F4852
:1027000002F08FFC04226369043B934303D03D49EC
:102710003A4802F086FC042223681968114202D06C
:102720005968114206D10822196811422BD0596804
:10273000114228D0626DD20604D48022616D9200CD
:102740000A436265C022D9681201114212D1EA7FA0
:10275000002A0FD11A6812070CD59A6852073FD485
:102760000C215A688A435A60636D274A1A40012334
:10277000134363652000FFF763FFA369012B02D0B9
:102780000C2223681A60802523681A682A420CD01C
:102790005B682B4209D08023626D5B021343636543
:1027A0002000FFF78DFF23681D6010222368196841
:1027B000114214D05968114211D0226B002A02D064
:1027C000DA68D20708D50222A16D20000A43A2656B
:1027D00010221A60FFF775FF102223681A6070BD7F
:1027E0002023626D134363650123A26D1343A36528
:1027F000C0E7C0460024014094060000805A00084B
:102800009506000096060000FEFEFFFF4B4B026897
:1028100070B505000C009A4203D04949494802F0BE
:1028200000FC2368012B36D0474A934233D0474AF5
:10283000934230D0464A93422DD0464A93422AD002
:10284000454A934227D0454A934224D0444A934272
:1028500021D0444A93421ED0434A93421BD0434A5C
:10286000934218D0424A934215D0424A934212D022
:10287000414A93420FD0414A93420CD0404A93427E
:1028800009D0404A934206D03F4A934203D03F4981
:102890002C4802F0C6FB63683D4A9B18012B04D903
:1028A000F0212848C90002F0BCFB2E0050363378D6
:1028B0000220012B0BD02A680138936830705B0727
:1028C00006D520236A6D13436B650023337070BDFA
:1028D0008020304965682368C0028D421BD0956A0C
:1028E0005903490B29439162034208D080232A4AA5
:1028F0001B0411680A200B431360FFF72BFC2368AD
:102900009B0305D58023244ADB0311680B43136026
:1029100000203070DBE7916A5C03640BA143916295
:10292000034204D01C491D480A6802400A609B0308
:10293000EED5194A1A4913680B40E8E70024014014
:102940007E070000805A000802000004040000080E
:102950000800000C100000102000001440000018B7
:102960008000001C00010020000200240004002858
:102970000008002C00100030002000340040003817
:102980000080003C00000448000002447F07000073
:1029900000F0FFFF0110000008270140FFFF7FFF4C
:1029A000FFFFBFFF70B504000D00032903D9872185
:1029B000164802F036FBA901002C14DA0F23E4B20A
:1029C0002340083B124A9B089B009B18032214409B
:1029D0009440FC3215000A40A540A240D869A843A3
:1029E0000243DA6170BD0325A3082C40AC40FC35DE
:1029F0002E00084A9B009B18C022A6402940A140F7
:102A000092009858B04301439950EBE7B85A000838
:102A100000ED00E000E100E010B5041E03DA9721AC
:102A2000044802F0FEFA1F231C401E3BA340024A4A
:102A3000136010BDB85A000800E100E0094A431EC7
:102A4000012093420DD8C021074A08485360036A09
:102A500009061B021B0A0B43036200200723906038
:102A600013607047FFFFFF0010E000E000ED00E0A2
:102A7000F8B504000120002C00D19EE023684F4AE5
:102A8000934215D04E4A934212D04E4A93420FD0F1
:102A90004D4A93420CD04D4A934209D04C4A93423E
:102AA00006D04C4A934203D096214B4802F0B9FA23
:102AB00063680A2B06D90C3B032B03D997214648A0
:102AC00002F0AFFAA36810221900914307D08022C8
:102AD000D201934203D098213F4802F0A2FA40234A
:102AE000E2689A4303D099213B4802F09AFA802386
:102AF00022699A4303D09A21374802F092FA636917
:102B0000364A134207D080229200934203D09B2181
:102B1000314802F086FAA369314A134207D0802275
:102B20001201934203D09C212B4802F07AFA202311
:102B3000E2699A4303D09D21274802F072FA294B9B
:102B4000226A1A4203D09E21234802F06AFA2568BD
:102B5000254B1421E818FDF7F3FA244B8000236479
:102B60000223A21D6064D3772E68214BA1681E400A
:102B7000E36827690B433B4367693B43A7693B43D2
:102B8000E7693B43276A3B4333432B608023DB01E8
:102B900099420CD01C2528400D3D854015490B68F5
:102BA000AB430B6063680D6883402B430B600020D0
:102BB0000123E0630534D377E077F8BD08000240D5
:102BC0001C00024030000240440002405800024015
:102BD0006C00024080000240F35A0008FFFEFFFF35
:102BE000FFFBFFFFFFCFFFFFF8FFFDBF000002402C
:102BF0000F80FFFFA8000240F7B515001F005A1E06
:102C0000234B04000E009A4204D9AB21214849000D
:102C100002F007FA631DDA7F0220012A2AD001227E
:102C2000DA77A21D9446D27F0021D2B2012A2CD19C
:102C30006346D8772368E16319681A3091431960B5
:102C4000216C0191616C0840824001994A60A26840
:102C50005F602168102A0ED19D60DE60226B002A21
:102C60000CD00E22186802431A60012300200A6863
:102C700013430B60FEBD9E60DD60EFE704201A6821
:102C800082431A6018680A22EDE7D977F2E7C04656
:102C9000FEFF0000F35A000870B5841DE37F022B8D
:102CA00004D00423C363033B180070BD0E210368E6
:102CB000456C1A688A431A600122196891431960A9
:102CC0001C232B4015009D40016C431D4D60E27795
:102CD0000024826BDC771300A242E5D090472300EA
:102CE000E2E7F8B51C220427466C016C32403E0036
:102CF00096400D6803681C682E420DD03C420BD0F4
:102D00001A68920602D41A68BA431A60036B4E60BE
:102D1000002B19D0984717E002273E0096402E421C
:102D200013D03C4211D01A68920606D40A241A68BD
:102D3000A2431A600122831DDA770022431D4E60F0
:102D4000DA77C36A9342E5D1F8BD08263700974089
:102D50003D42F9D03442F7D00E251C68AC431C60CC
:102D600001231C009440821D4C60C363D377002272
:102D7000431DDA77436BE5E74B68F7B504000D00B8
:102D8000032B12D91A00113A012A0ED9854A864915
:102D90001A40521885490A4207D0854A9B180B42AF
:102DA00003D0AE21834802F03CF9AB68022B03D973
:102DB000AF21804802F035F9A023DB059C420BD0FF
:102DC0007D4B9C4208D07D4B9C4205D07C4B9C4265
:102DD00002D07C4B9C4207D12B689AB2002A03D0C8
:102DE000794A134393420DD0784B9C4206D12B680D
:102DF000774A134202D01343934203D0B0216D4867
:102E000002F00FF900272B681A00FA4000D1F7BD35
:102E10000122BA4001921A40009200D1C0E0102273
:102E20006B689343022B2CD1A023DB059C4212D06C
:102E3000614B9C420FD0614B9C420CD0604B9C423A
:102E400009D0604B9C4206D0604B9C4203D0BF210E
:102E5000584802F0E6F82B69072B03D9C0215548E2
:102E600002F0DFF807220F203A4092009040FB0862
:102E70009B00E318196A81432869904002000A43C5
:102E80001A6210226B687E009343013B012B19D814
:102E9000EB68032B03D9CE21464802F0C2F8032287
:102EA000B240A368012193431A00EB68B340134377
:102EB000A3606268019B9A436B681B090B40BB408F
:102EC0001343636003239C46B34061466A68DB4357
:102ED0001140B1402068184001432160E168194069
:102EE000AB68B3400B43E360D30059D501203949A7
:102EF0000F264B6B034360463840800086404B638F
:102F0000354BB9088900C9188B68B343A0260193D3
:102F1000F6050023B44214D0274E0133B44210D03A
:102F2000264E0133B4420CD0254E6346B44208D03D
:102F3000244E0133B44204D0284BE3185E1EB34143
:102F400005338340019803438B602549009B0E683D
:102F5000D84333439C46D30302D4330003409C46FA
:102F600063460B604E68009B33439C46930302D438
:102F7000330003409C4663464B608E68009B33439E
:102F80009C46D30202D4330003409C4663468B60C8
:102F9000CE68009B3343920201D433000340CB60E0
:102FA000013730E7FFFFDFFF0000EFEFFFFFFEFF1D
:102FB0000000DFEF2B5B0008000400500008005009
:102FC000000C005000100050FFFF0000001C0050DB
:102FD00003060000001002400000014000E4FFAFC3
:102FE00000040140A02370B5DB0504000D001600AD
:102FF00098420BD0154B984208D0154B984205D0FB
:10300000144B984202D0144B98420AD1002D12D092
:10301000012E16D99E211148FF3102F002F8A56158
:1030200070BD0F4B984206D10E4B194203D01A00C7
:103030000A439A42ECD0CE210848490001F0F1FF42
:10304000E6E7002EEBD1A562EAE7C0460004005097
:1030500000080050000C0050001000502B5B0008CE
:10306000001C00500306000070B504000120002C75
:1030700000D18AE023684A4A93420AD0494A9342DF
:1030800007D0494A934204D0EF214848490001F053
:10309000C8FF474BA2689A4204D9E0214348FF3158
:1030A00001F0BFFFE368013B012B04D9F0213F4849
:1030B000490001F0B6FF3F4E2369334204D0E221BC
:1030C0003A48FF3101F0ADFF6369FF2B04D9F121CC
:1030D0003648490001F0A5FFA369072B04D9E42174
:1030E0003248FF3101F09DFF334BE2691A4204D0B0
:1030F000F2212E48490001F094FF304B226A1A4217
:1031000004D0E6212948FF3101F08BFF250041352D
:103110002B78DBB2002B05D1220040321370200047
:1031200002F086F9242301212B702368A0681A6815
:103130008A431A606168224A0A401A619A68E16803
:1031400032409A60012921D18022120202439A6002
:1031500059681C4A00200A435A60DA6861691640BF
:103160002269DE600A43A16909020A43DA60216A22
:10317000E2690A431A60012219680A431A6020238F
:1031800060642B7020634234207070BD8422120270
:1031900002439A600229DBD1802212015A60D7E7EC
:1031A000005400400058004000780040645B000874
:1031B000FF030000FF7FFFFFFFFFF7FFFFFFFDFFA3
:1031C000FFFFFFF000800002F8B51D4A036806000B
:1031D0000C00934209D01B4A934206D01A4A9342EC
:1031E00003D06421194801F01CFF194D2C4203D073
:1031F0006521164801F015FF41239C46B4446346FF
:103200001A780220D2B2202A19D1370040373B78F1
:10321000012B14D0242361460B70012133681868F8
:1032200088431860186805401D60186804431C60D6
:10323000186801431960002063461A703870F8BDA1
:103240000054004000580040007800409C5B00089B
:10325000FFEFFFFFF8B51B4A036805000C0093421F
:1032600009D0194A934206D0184A934203D09221BA
:10327000174801F0D6FE0F2C03D99321144801F012
:10328000D0FE2E00413632780220D2B2202A17D149
:10329000290040310B78012B12D0242333702B6886
:1032A00001381D680B4F85431D601D6824023D4099
:1032B0002C431C601C68204318600020327008708A
:1032C000F8BDC0460054004000580040007800405F
:1032D0009C5B0008FFF0FFFF0C22184B10B5D9686B
:1032E0000A40082A26D00C2A06D0042A1AD11B68C4
:1032F000DB0621D4124810BD8A021248120F825CEC
:103300000902D868890F0131C00304D50E48504323
:10331000FCF716FFEFE71B68DB0601D50B48F6E765
:103320000748F4E780205B6800021B045B0F013351
:103330009840E0E70448DEE70448DCE7001002407C
:103340000024F4003E5D000800127A0000093D00F0
:10335000F0B5050087B0002802D1012007B0F0BD0C
:103360000368002B06D09B0604D1B021C748490052
:1033700001F057FE0C238027C54C7F02E2681A40FB
:10338000E36801921F402B68DB0764D42B689B071E
:1033900000D5C0E02B68DB0643D5019B002B00D095
:1033A0002DE123689B0502D5EB69002BD5D02B6A54
:1033B000FF2B04D98021B548890001F032FE6B6AE9
:1033C000B44AB5491A400B420BD0802109028A4207
:1033D00007D0C0221202934203D0B049AB4801F09B
:1033E00020FE6268AE496B6A0A401A4362606168F7
:1033F0002A6A0902090A12060A43626080225B0BEC
:10340000013312029A401300E16800200A06A54920
:10341000120F8A5CD340A44A1360FEF751FE0028C5
:103420009CD12B681B0700D55BE12B685B0700D59F
:1034300084E12B689B0600D5FDE1AB6A022B04D921
:10344000BA219248890001F0ECFDAB6A002B00D054
:103450002BE2002082E76B68944E334208D0A02212
:10346000D202934204D06A218848FF3101F0D9FD8D
:10347000019B082B03D00C2B08D1002F06D023680A
:103480009B0383D56B68002B80D166E780216B6836
:1034900049028B4214D1226813432360FEF744FE95
:1034A0000600802223689202134200D06EE7FEF7E6
:1034B0003BFEFA23801B9B009842F2D903204DE784
:1034C000A022D202934208D180232268DB02134358
:1034D000236022680A432260E0E7226816402660E3
:1034E00022680A400592059A714922680A402260C2
:1034F000002BD3D1FEF718FE06008022236892022B
:10350000134200D142E7FEF70FFEFA23801B9B0017
:103510009842F2D9D2E72023EA689A43012A06D9D1
:10352000092A04D0CE215948490001F07AFD2B69BF
:103530001F2B04D99E215548FF3101F072FD202236
:10354000EB68134203D02168934311432160019A31
:10355000042A03D00C2A24D1002F22D1226852073A
:1035600002D5002B00D1F8E661682A6951481202A1
:1035700001400A430921626022688A4313432360A1
:10358000FFF7AAFEE368474A1B061B0FD35CD8402F
:10359000454B18600020FEF793FD002800D1F9E6A6
:1035A000DCE6002B19D00921226804278A43134343
:1035B0002360FEF7B9FD060023683B4207D062682E
:1035C0002B693C491B020A4013436360E2E6FEF7A5
:1035D000ABFD801B0228EFD970E701222368042786
:1035E00093432360FEF7A0FD060023683B4200D111
:1035F000D0E6FEF799FD801B0228F6D95EE7EB695D
:10360000012B04D986212148890001F00AFDEB69CC
:10361000002B53D0802322685B0013432360FEF706
:1036200083FD80270600BF0023683B4227D02B6A1A
:10363000FF2B04D98B211548890001F0F2FC6B6A3D
:10364000144A15491A400B420BD0802109028A42C4
:1036500007D0C0221202934203D017490B4801F051
:10366000E0FC63680E4A13406A6A13436360626851
:103670002B6A12021B06120A13436360D1E6FEF79F
:1036800053FD801B0228CFD918E7C046D75B00083E
:1036900000100240FFDFFFFFFF9FFFFF010200005D
:1036A000FF1FFFFF265D000800000020FFFFFEFF58
:1036B000FFFFFBFFFFE0FFFF2D0200002368C04A71
:1036C000802713402360FEF72FFD0600BF0023680C
:1036D0003B4200D1A5E6FEF727FD801B0228F6D964
:1036E000ECE66B69012B03D9B649B74801F099FCA8
:1036F0006A690123002A10D0226D02271343236533
:10370000FEF712FD0600236D3B4200D08DE6FEF76A
:103710000BFD801B0228F6D9D0E6226D02279A43C2
:103720002265FEF701FD0600236D3B4200D17CE6D9
:10373000FEF7FAFC801B0228F6D9BFE6AB68A04A68
:10374000134207D0A022D200934203D09F499E4843
:1037500001F067FC80230021A26B5B0502911A42F5
:1037600004D1A26B1343A363012302938027984ED5
:103770007F0033683B4208D08022AB6852009342FE
:1037800013D1226D1343236534E033683B43336028
:10379000FEF7CAFC039033683B42EDD1FEF7C4FC50
:1037A000039BC01A6428F6D988E6002B16D1236D36
:1037B000834A802713402365236D864ABF00134048
:1037C0002365FEF7B1FC0600236D3B422AD0FEF7CD
:1037D000ABFC814B801B9842F6D96FE6A021C90053
:1037E0008B420DD18023216DDB000B432365236DBC
:1037F0001A432265FEF798FC80270600BF000EE002
:10380000236D6F4A13402365236D724A1340BAE754
:10381000FEF78AFC704B801B984200D94EE6236D60
:103820003B42F5D0029B012B00D002E6A36B6B4A12
:103830001340A363FDE5AB69012B03D968496248D6
:1038400001F0EFFBA9690123664A002918D0A1689D
:1038500002271943A160616B0B4363638023116AE4
:103860009B010B431362FEF75FFC0600A3683B421B
:1038700000D0E2E5FEF758FC801B0228F6D91DE6D1
:10388000A16802279943A160136A57490B4013624C
:10389000FEF74AFC0600A3683B4200D1CDE5FEF7E7
:1038A00043FC801B0228F6D908E6019A0C2A6AD04C
:1038B0004E4E022B55D14E4BEA6A1A4203D04D4967
:1038C000414801F0AEFB2A6B4B4B13400BD08021DB
:1038D00049038B4207D080239B039A4203D0474978
:1038E000394801F09EFB80216A6B454BC9031340A8
:1038F0008B4207D080231B049A4203D041493248AF
:1039000001F08FFB23681E402660FEF70DFC802629
:103910000700B604236833421DD1296BEB6AE268C5
:103920000B4339490A4013436A6B80251343E36014
:10393000802322685B0413432360FEF7F5FB060037
:10394000AD0423682B4200D083E5FEF7EDFB801B1E
:103950000228F6D9B2E5FEF7E7FBC01B0228D9D949
:10396000ACE5236880251E402660FEF7DDFB0600DF
:10397000AD0423682B4200D16BE5FEF7D5FB801B1D
:103980000228F6D99AE51800012B00D1E6E480223E
:10399000E368E96A52021A4001208A4200D0DDE45D
:1039A000F022296B92031A408A4200D0D6E4C0204C
:1039B00000040340686B181A431E9841C0B2CDE45E
:1039C000FFFEFFFF4B020000D75B000877020000FC
:1039D00000700040FFFBFFFF88130000FFFFFFEFB8
:1039E000BE02000000000140FFDFFFFFFFFFFFFEFF
:1039F000FFFFFEFFF1020000FFFFF3FFF2020000F5
:103A0000FFFF7FFFF3020000FFFF02FFF7B5040096
:103A10000F00002801D10120FEBD03681B0703D160
:103A20007C497D4801F0FDFA012F03D97B497A4892
:103A300001F0F7FA01227A4D2B6813409F423AD8E1
:103A400023689B0740D42368DB075FD401232A68DF
:103A50001A40974200D2BBE02368724D5B0700D545
:103A6000BEE023681B0718D523696F4A13420DD0A7
:103A7000A0216E4AC9001A408A4207D0C022D20053
:103A8000934203D06A49644801F0CBFAEA6823699B
:103A90006849DB000A401343EB60FFF71DFCEB684D
:103AA000654A1B061B0FD35CD840644B186000208E
:103AB000FEF706FBB0E72B6893433B432B602B6874
:103AC00013409F42A7D1BBE7A3688022190091430E
:103AD00014D020221900914390290FD040221900C0
:103AE0009143A0290AD0102219009143C02905D082
:103AF000F02B03D05249484801F093FAF021494A8B
:103B0000D3688B43A1680B43D3609CE76368032BA6
:103B100003D94C49404801F084FA424E6268336848
:103B2000022A1CD19B0300D475E70321F3688B4361
:103B30001343F360FEF7F8FA63680190022B1BD180
:103B40000C22F3681340082B00D17FE7FEF7ECFA54
:103B5000019BC01A3C4B9842F2D903205CE7032A30
:103B600002D19B01E1D456E7012A02D15B07DCD4E4
:103B700051E79B05D9D44EE7032B0DD10C22F368F6
:103B80001340934200D161E7FEF7CEFA019BC01AC1
:103B90002D4B9842F2D9E0E7012B13D00C22F368A9
:103BA000134200D152E7FEF7BFFA019BC01A264B21
:103BB0009842F3D9D1E7FEF7B7FA019BC01A224B1E
:103BC0009842CAD80C22F3681340042BF3D13DE786
:103BD0002A689A432A602A681A4200D01BE73BE70A
:103BE000E368114A13420DD0A021104AC9001A40BF
:103BF0008A4207D0C022D200934203D0134906481C
:103C000001F00FFAEB68124A1340E2681343EB60CD
:103C100027E7C04666030000D75B00086703000083
:103C20000020024000100240FFFBFFFFFFFDFFFFEE
:103C3000F1030000FFC7FFFF265D00080000002021
:103C40007E0300008503000088130000EA030000E3
:103C5000FFF8FFFF044B054ADB685B055B0FD35C95
:103C6000034A1068D840704700100240365D0008D3
:103C700000000020044B054ADB689B045B0FD35C0B
:103C8000034A1068D840704700100240365D0008B3
:103C900000000020F7B5934B026804009A4203D954
:103CA0006721914801F0BDF923689B064DD56368F3
:103CB0008E4A13420DD098218D4A49031A408A42F8
:103CC00007D08C229203934203D07321864801F0DF
:103CD000A8F980230021874D5B05AA6B00911A4249
:103CE00004D1AA6B1343AB63012300938027824E58
:103CF0007F0033683B4200D1AFE0C022C02128687A
:103D000063689203104089021A40904200D0B6E0E6
:103D10002A6D0A4000D0BDE06168C0230A009B0202
:103D20001A409A4207D12B6874480340C020800390
:103D300001400B432B602B6D1A43009B2A65012B1E
:103D400003D1AB6B6E4A1340AB632368DB070DD521
:103D5000A368032B03D9DE21634801F062F9032134
:103D6000644AD36C8B43A1680B43D36423689B07DD
:103D70000ED50C23E2689A4303D0E9215A4801F09A
:103D800050F90C215B4AD36C8B43E1680B43D3643D
:103D900023685B070DD55B4D23692B4203D0F321CC
:103DA000514801F03EF9534A2169D36C2B400B4333
:103DB000D36423681B0712D56369534A134207D0A3
:103DC00080229201934203D0FD21474801F029F956
:103DD000484A4E49D36C0B4061690B43D364236856
:103DE000DB0513D5A3694A4A134208D08022920208
:103DF000934204D084213C48490001F012F93D4A25
:103E00003A49D36C0B40A1690B43D36423685B062A
:103E10000ED5404D236A2B4204D014213248FF3185
:103E200001F0FFF8334A216AD36C2B400B43D36473
:103E3000236800201B0621D5374DE3692B4204D0AF
:103E40001C212948FF3101F0ECF82A4AE169D36CC2
:103E500000202B400B43D36410E033683B433360B6
:103E6000FEF762F9019033683B4200D045E7FEF768
:103E70005BF9019BC01A6428F5D90320FEBD1A0026
:103E80000A408A4200D043E72A680120920300D406
:103E90003EE7F3E70B409A4200D13DE723689B06DB
:103EA00000D439E780232A6D286D1B0303432B655B
:103EB0002B6D0E491948114003402B652965D30528
:103EC00000D429E7FEF730F980270600BF002B6DEC
:103ED0003B4200D020E7FEF727F9114B801B9842A8
:103EE000F5D9CAE7FF0100000F5C0008FFFFFCFFE7
:103EF000FFFFDFFF0010024000700040FFFFCFFF18
:103F0000FFFFFFEFFFF3FFFFFFEFFFFFFFCFFFFF1D
:103F1000FFFFFEFFFFFFFFFBFFFFF3FFFFFFF7FFCA
:103F200088130000036807491A680A401A609A68F3
:103F30002331FF318A439A6020238367002303667D
:103F40007047C046DFFEFFFF436F10B5212B0DD138
:103F5000010052310A880368002A08D180211A68BA
:103F60008A431A60402219680A431A6010BDC46C63
:103F700022880234D205D20D9A62C4640B88013BB8
:103F80009BB20B80F2E7436F10B5212B0DD10100DE
:103F900052310A880368002A08D180211A688A43AE
:103FA0001A60402219680A431A6010BDC26C147866
:103FB00001329C62C2640B88013B9BB20B80F4E728
:103FC00070B5446F03000220202C30D10138002945
:103FD0002DD0002A2BD080249D686401A54204D1F5
:103FE0001C69002C01D1014221D11C0070342678BB
:103FF0000220012E1BD001382070D96419005031E5
:104000000A804A800022DA675A6621325A67802283
:10401000520195420CD11A69002A09D1054A5A6603
:104020001A6880230020116820700B43136070BD54
:10403000014AF4E7493F0008873F000870B5846FE4
:1040400003000220202C41D1013800293ED0002A53
:104050003CD080259C686D01AC4204D11D69002DC7
:1040600001D1014232D11D0070352E780220012E7F
:104070002CD0013828705965190058310A804A80BF
:10408000802000211A00196640015C32844220D150
:10409000196900291BD11849118000220121DA6712
:1040A00022329A671A689068014391608021490121
:1040B0008C421ED1196900291BD110491966902321
:1040C000002011685B000B432870136070BDFF2156
:1040D000E2E7002C04D119690029F8D07F21DBE741
:1040E000802040058442D7D119690029F6D03F21AC
:1040F000D2E70349E2E7C046FF010000654100083E
:1041000005410008826F10B50368222A23D10200FE
:104110005C325B6A12881340426D13700200436D7B
:104120005A32013343651388013B9BB213801388D5
:104130009BB2002B0ED10268094C1168214011601E
:1041400091682334FF34A143916020220366826783
:1041500000F09CFD10BD082299690A439A61F9E7B5
:10416000DFFEFFFF826F10B50368222A21D1040011
:104170005C34596A2488426D21401180010002326A
:1041800042655A310A88013A92B20A800A8892B28C
:10419000002A0DD11968094C21401960996823340F
:1041A000FF34A143996020230266836700F06EFD0F
:1041B00010BD082299690A439A61F9E7DFFEFFFF03
:1041C00070470000F8B503680400DA6918689E6853
:1041D00011070AD120210A4200D16AE0084268D0C2
:1041E000236E2000002B5AD15AE0012135000D40EA
:1041F00003D190277F0038425BD00A4205D0C60524
:1042000003D51962E66F3143E16702210A4206D005
:10421000002D04D01962E66F49183143E16704218B
:104220000A4206D0002D04D01962E66F02393143EC
:10423000E167110708D5810601D4002D04D00821BB
:104240001962E36F1943E167E36F002B28D0202345
:104250001A4206D0184204D0236E002B01D0200051
:1042600098472368E56F9B6820005B0602D408230B
:104270001D401AD0FFF756FE402123689A680A4273
:104280000FD09A68E06E8A439A60002809D01A4BD2
:104290008363FEF701FD002802D0E06E836B984730
:1042A000F8BD2000FFF78CFFFAE7FFF789FFE5670D
:1042B000F6E7802149030A4206D0750204D5196247
:1042C000200000F05DFCEBE780210A4203D00842A9
:1042D00001D0636E85E740210A42E1D00842DFD079
:1042E0001A6820008A431A602023636700236366EC
:1042F00000F0C6FCD4E7C046FD420008806A0023F7
:10430000020010B55A321380083A1380FFF758FFA5
:1043100010BD0000F8B54268AF4B04009A4203D9C3
:10432000AE49AF4800F07DFE8022A368520593425B
:1043300006D0AC4A134203D0AB49A94800F071FE45
:10434000AA4D2268E368AA4EAA4260D1A94A134244
:1043500003D0A949A24800F064FE2369A74A13428A
:1043600007D0C022D200934203D0A5499C4800F058
:1043700058FE63690C221900914301D1002B03D12F
:10438000A049974800F04DFE9F4BA2691A4203D006
:104390009E49934800F045FE9D4BE2691A4203D0C6
:1043A0009C498F4800F03DFE2769A26823683A4384
:1043B00067691868E1693A43974F0A4338400243F6
:1043C0001A605A68A0691640E26816435E60AB4204
:1043D00001D0226A10439A68904E324002439A609C
:1043E0008F4A934220D103228E4BDB6C13408E4ABE
:1043F000D05C80231B02994200D1DEE0082833D82C
:10440000FBF78AFE9BA2A532C0323232C300334290
:1044100004D0AD217248090100F003FE834B226AEB
:104420001A429AD0824995E7824A934205D10C22DA
:104430007C4BDB6C1340804ADAE7804A934200D120
:10444000AFE07F4A934200D1ABE0AB4200D0A1E0A5
:10445000C0218020734A0901D36CC0000B40834205
:1044600038D003D8002B0AD001250DE080200001B0
:1044700083420ED08B42F7D1802000020DE0FFF77F
:10448000E9FB0025A84208D10023280023666366C3
:10449000F8BD1368DB0620D54F48032263685A43F2
:1044A0008242E1D81A038242DED30027020E0102C3
:1044B0005E0889197A41080011001A003B00FBF7D9
:1044C000CBFE604BC218604B9A42CDD823683D00AA
:1044D000D860D9E7FEF700FFD3E75C48DDE7FFF7D8
:1044E000C9FB64E010254F4B61681A684808154005
:1044F00006D0574BC018FBF723FE002583B204E01B
:10450000544BC018FBF71CFE83B2190052481039F7
:104510008142A9D80F2118001B0788435B0F21682F
:104520000343CB60B0E7FEF7D7FE40E0636858086E
:1045300080235B023EE00023E7E7FFF78BFB636825
:104540005B08C01861680BE0FFF794FBF7E71025E4
:10455000344B61681A684808154006D01E4BC018D5
:10456000FBF7EEFD002583B204E0384BC018FBF7E3
:10457000E7FD83B2190038481039814200D973E74A
:104580002168CEE7FEF7A8FED9E7636858088023C4
:104590001B02D6E7802301251B029942CBD00023C2
:1045A000E8E780231B029942C7D1FFF753FB6368FA
:1045B00040005B08C01861689DE7082800D953E7F0
:1045C000FBF7B4FDF3FF8DFF90FF52FFB1FF52FFE9
:1045D00052FF52FFB4FFC04600093D00C80A000068
:1045E0005B5C0008FFEFFFFFC90A000000480040C5
:1045F000FFCFFFFFFFDFFFFFCC0A0000FFFBFFFF45
:10460000D40A0000D50A0000FFFCFFFFD60A000014
:10461000FF7FFFFFD70A0000F369FFEFFFF4FFFF02
:1046200000380140001002404A5C0008FFF7FFFF1D
:10463000D10A0000004400404E5C0008004C0040DD
:104640000050004000FDFFFFFFFC0F000024F400BD
:1046500000127A000048E801EFFF0000436A70B5DD
:104660000400FF2B03D95549554800F0DAFC636A72
:10467000DB070DD5534DA36A2B4203D05249504856
:1046800000F0CFFC2268A16A53682B400B435360B3
:10469000636A9B070DD54D4DE36A2B4203D04C490D
:1046A000474800F0BEFC2268E16A53682B400B4388
:1046B0005360636A5B070DD5464D236B2B4203D0D5
:1046C00045493F4800F0ADFC2268216B53682B4000
:1046D0000B435360636A1B070DD5404D636B2B4240
:1046E00003D03F49364800F09CFC2268616B536858
:1046F0002B400B435360636ADB060DD5394DA36B2A
:104700002B4203D038492E4800F08BFC2268A16B65
:1047100093682B400B439360636A9B060DD5334D22
:10472000E36B2B4203D03249254800F07AFC226823
:10473000E16B93682B400B439360636A5B062AD559
:1047400023682C4A934206D02B4A934203D02B492C
:104750001B4800F066FC2A4D236C2B4203D02949EC
:10476000174800F05EFC2168226C4B682B40134315
:104770004B6080235B039A420DD1234D636C2B4227
:1047800003D022490E4800F04CFC2268616C53684B
:104790002B400B435360636A1B060DD51C4DA36C65
:1047A0002B4203D01B49064800F03BFC2268A16C59
:1047B00053682B400B43536070BDC0469A0B0000FA
:1047C0005B5C0008FFFFFDFF9F0B0000FFFFFEFF8B
:1047D000A60B0000FFFFFBFFAD0B0000FF7FFFFFFC
:1047E000B40B0000FFEFFFFFBB0B0000FFDFFFFF7C
:1047F000C20B00000038014000440040C90B00001B
:10480000FFFFEFFFCA0B0000FFFF9FFFCF0B000071
:10481000FFFFF7FFD70B0000F8B504000E001500EE
:104820001F002268D36933409B1B59424B41AB4266
:1048300001D000201BE0069B0133F3D0FDF774FC90
:10484000069BC01B834201D3002BEAD12368084991
:104850001A6803200A401A609A68A331FF318A431C
:104860009A6020236367A367002370342370F8BD28
:104870005FFEFFFFF0B587B00593436F04000D00A6
:1048800017000220202B49D10138002946D0002AE8
:1048900044D08023A2685B019A4204D12369002B93
:1048A00001D101423AD1230070331A780220012A43
:1048B00034D0012200261A702123E6676367FDF7D2
:1048C00033FC230050331F80023303931F80802367
:1048D000A26804905B019A4204D12369B34201D1DA
:1048E0002E001D00230052331A88059B92B20093BC
:1048F000049B002A0AD140212000FFF78DFF0028E9
:104900000BD1202370346360207007E000228021E7
:104910002000FFF781FF002802D0032007B0F0BD80
:104920002268002D0BD133880236DB05DB0D936244
:10493000039B039A1B88013B9BB21380D2E72B7821
:1049400001359362F4E70000F0B587B00593836FFB
:1049500004000D0016000220202B43D1013800294D
:1049600040D0002A3ED08023A2685B019A4204D145
:104970002369002B01D1014234D1230070331A780E
:104980000220012A2ED0012200271A702223E76775
:10499000A367FDF7C9FB230080215833A2681E805E
:1049A000023303931E800490490102338A421DD1D1
:1049B0002169B94218D1254919801F888023002612
:1049C0005B019A4204D12369B34201D12E001D003C
:1049D00023005A33188880B2002819D1202370345C
:1049E000A360207007B0F0BDFF21E5E7002A04D1E5
:1049F00021690029F8D07F21DEE7802149058A421C
:104A000004D121690029F6D03F21D5E71F80D4E7E2
:104A1000059B002200932021049B2000FFF7FCFE51
:104A2000002810D123685B6A3B40002D08D13380F9
:104A30000236039B039A1B88013B9BB21380C7E796
:104A40002B700135F5E70320CCE7C046FF010000DD
:104A500073B500260400C667FDF766FB23680500F2
:104A60001B681B0715D423681B685B070AD58021C8
:104A70000E4B00220093C9032B002000FFF7CCFE51
:104A8000002811D1202300206367A36770342070B1
:104A90000BE08021054B32000093890303002000C6
:104AA000FFF7BAFE0028DED0032076BDFFFFFF012E
:104AB00010B5041E01D1012010BD81690368294A87
:104AC00000293ED0934210D0274A93420DD0274A66
:104AD00093420AD0264A934207D0264A934204D0F2
:104AE0003021FF31244800F09CFA636F002B05D180
:104AF000220070321370200000F0CCFC242301212E
:104B000022686367136820008B431360FFF702FC81
:104B10000128D0D0636A002B02D02000FFF79EFD51
:104B2000236816495A6820000A402A215A609A6868
:104B30008A439A60012219680A431A60FFF788FFC6
:104B4000BAE79342D1D0084A9342CED0074A934263
:104B5000CBD0074A9342C8D0064A9342C5D09A2187
:104B60004900BFE70038014000440040004C0040CD
:104B700000500040004800405B5C0008FFB7FFFFAA
:104B80007047000030B59DB0382200210EA800F01B
:104B90000CFE14220021684600F007FE24220021AA
:104BA00005A800F002FE1449144A0B6800241A40BC
:104BB00080231B0113430B6010230E930F3B1593AF
:104BC000A0230F251B020EA8179316941894FEF726
:104BD000BFFB21006846009501940294039404945D
:104BE000FEF714FF05A805950794089409940A9404
:104BF000FFF750F81DB030BD00700040FFE7FFFF29
:104C0000F8B58025A026070000246D00F605BC42FB
:104C100000DBF8BD002229003000FEF7E3F919207F
:104C2000FDF788FA012229003000FEF7DBF9192090
:104C3000FDF780FA0134EAE7F7B500AF0500FBF7AE
:104C400063FA6A46C31DDB08DB00D31A9D462900C0
:104C50000400684600F0B1FD6E466D46AB1B9C42F9
:104C600001DCBD46F7BD2B7801223B71391D0A23BB
:104C70000248FFF7FFFD0135F0E7C046A80300201A
:104C80000122014B1A7070472C0200200122014BB7
:104C90001A7070472C02002010B5FDF725F90A4A5A
:104CA0000A4BFCF78BFB02000B0009480949FCF793
:104CB00005FE094A094BFCF74DF80022084BFBF7AB
:104CC00039FDFDF749F910BD6666666666664A3FBE
:104CD000E17A14AE47E1F63F22FDF675E09C713FA4
:104CE00000003940054B10B59868FFF7D5FF04491F
:104CF000FBF792FB034B186010BDC0465003002029
:104D00000000204124020020054B10B51868FBF775
:104D1000CBFC0449FBF780FB034B586010BDC04639
:104D20005003002000007A4424020020F0B58BB02C
:104D3000FDF7DEF9FFF726FF1422002105A800F099
:104D400034FD0422802101269B4DC027EB6A3F02DF
:104D50001343EB62EB6A994813400193019BEA6AA3
:104D600000240A43EA62EB6A0B400293029BEB6A5F
:104D70007E393343EB62EB6A33400393039BEA6A69
:104D80000A43EA62EB6A00220B4004932231049B3F
:104D9000FEF728F9320039008848FEF723F99F21F1
:104DA000A02000220902C005FEF71CF9802305A9F6
:104DB0009B018348059306940794FDF7DDFF059753
:104DC000032705A97E4806970794FDF7D5FF05A997
:104DD0007C48059706970794FDF7CEFFA020C023D7
:104DE00005A9C005059306940794FDF7C5FF764B0A
:104DF00005A90593754B714806930794FDF7BCFF11
:104E0000042305A905936D480D3306930794089470
:104E1000FDF7B2FF6E4B05A9684805930696079407
:104E20000894FDF7A9FF9F23A0201B0205A9C00538
:104E30000593069607940894FDF79EFF2B6B2200BE
:104E400033432B632B6B2100334000930920009BDD
:104E5000FDF7A8FD0920FDF7DFFD0822210005A8C8
:104E600000F0A3FC5B4D5C4B28002B60C0231B06AD
:104E70006B60AB19DC77AB1CDC77C223FF336B6252
:104E80002B002C331C7004232E616B61EC63AC602F
:104E9000AC63EC60AC622C63AC616C63EC61FDF7FD
:104EA000A7F94E4B05A90593802328005B010693C3
:104EB000FDF7ACFC4A4B05A928000593FDF7A6FCBD
:104EC000484B05A928000593FDF7A0FC3A00464988
:104ED0002800FDF75DFB454D454B28002B60E12385
:104EE000DB006B60EE60AC602C616C61AC61EC610E
:104EF0002C629626FEF7B8F821002800FEF764F928
:104F000028000C252100FEF7A5F93A483A4BB601D6
:104F1000036046608460C46004614561846104622A
:104F20004462FFF7C5FD3548354B46600360846039
:104F3000C460046145618461C46104624462FFF736
:104F4000B7FD3048304B466003608460C460046144
:104F500045618461C46104624462FFF7A9FD2B4886
:104F60002B4B466003608460C460046145618461CA
:104F7000C46104624462FFF79BFD2648264B4660ED
:104F800003608460C460046145618461C46104623B
:104F90004462FFF78DFD0520FFF732FE1F48FFF743
:104FA0004BFEFFF79FFEFFF7AFFE00F05FF93220E8
:104FB000FFF726FEFBE7C046001002400004005049
:104FC00000080050001C00500330000000001110C9
:104FD00020C00000700500200024014010000010D7
:104FE0002000001400000448500300205C0300204F
:104FF00000540040A803002000480040B4020020F4
:1050000000380140A804002000440040280400208B
:10501000004C00403002002000500040945C00082A
:105020007047704713B5264C642308222549200099
:10503000FFF720FC01A9642304222000FFF784FC71
:105040000A20FDF777F8642311221F492000FFF79B
:1050500011FC01A9642304222000FFF775FC0A203B
:10506000FDF768F86423112218492000FFF702FCBD
:1050700001A9642304222000FFF766FC0A20FDF743
:1050800059F86423072212492000FFF7F3FB01A916
:10509000642304222000FFF757FC0A20FDF74AF89A
:1050A000642307220B492000FFF7E4FB642304225A
:1050B00001A92000FFF748FC0A20FDF73BF813BDCB
:1050C000B4020020E95C0008F25C0008045D0008FE
:1050D000165D00081E5D000830B585B00922104934
:1050E00001A800F059FB0F4D092201A92800FEF785
:1050F00067FF0D4C2378012BFCD100230A220B49BA
:1051000028002370FEF79AFF2378012B03D1002398
:10511000237005B030BD0220FFF772FDF4E7C046F2
:105120005C590008B40200202C020020F401002089
:1051300030B5114985B009220A3101A800F02CFBD5
:105140000E4D092201A92800FEF73AFF0C4C2378E6
:10515000012BFCD1002312220A4928002370FEF7FC
:105160006DFF2378012B03D10023237005B030BDE0
:105170000220FFF745FDF4E75C590008B402002067
:105180002C020020FE01002013B5084B084C0193AF
:1051900001A9642304222000FFF76CFB642304228E
:1051A00004492000FFF7D0FB13BDC04641540D0A4F
:1051B000B40200201D02002037B511490722143126
:1051C000684600F0E9FA0F4D072269462800FEF70D
:1051D000F7FE0D4C062221002800FEF72FFF0B4B97
:1051E0001A78012A07D1002220001A7000F0A9FACB
:1051F000074B186037BD0220FFF702FDEFE7C046FE
:105200005C590008B4020020170200202C02002084
:105210003403002037B508220F49684600F0BCFA75
:105220000E4D082269462800FEF7CAFE0C4C0722E4
:1052300021002800FEF702FF0A4B1A78012A07D145
:10524000002220001A7000F07CFA074B186037BD6E
:105250000220FFF7D5FCEFE7A45C0008B4020020B1
:10526000100200202C020020B002002070B5802522
:10527000A0242D02E405290020000122FDF7B2FE42
:10528000290000222000FDF7ADFE0A20FCF752FFA6
:10529000290001222000FDF7A5FEFA208000FCF77E
:1052A00049FFFFF771FF6420FCF744FFFFF7BAFEE8
:1052B0006420FCF73FFFFFF70FFF2548FFF7BCFC1A
:1052C0002448FFF7B9FC244E3000FFF7B5FC6420FA
:1052D000FCF730FFFFF72CFF2048FFF7ADFC20481C
:1052E000FFF7AAFC3000FFF7A7FC6420FCF722FFC1
:1052F000FFF790FF1B48FFF79FFC1B48FFF79CFC44
:105300003000FFF799FC290000222000FDF76AFE1B
:105310000A20FCF70FFF290001222000FDF762FEA2
:105320006420FCF707FFFFF747FF1048FFF784FCF6
:105330000F48FFF781FC3000FFF77EFC6420FCF78C
:10534000F9FE290000222000FDF74CFE70BDC0468A
:10535000AC5C0008F4010020135D0008B85C000894
:10536000FE010020C55C000810020020DA5C000885
:10537000170200200122054B596B0A435A63802211
:10538000996B52050A439A637047C0460010024069
:1053900030B5050087B01422002101A800F005FAFD
:1053A0001F4B2A689A4238D180221E4B9200596BBB
:1053B000A0200A4301215A63DA6AC0050A43DA626F
:1053C000DB6A0B400093009B302301A901932D3B26
:1053D0000293FDF7D1FC8022134C144B22619218EA
:1053E0006261802212012360A2610023202220003A
:1053F0006360A360E360E2612362FDF739FB00288C
:1054000001D0FFF70DFE00220C20EC641100A56214
:10541000FDF7C8FA0C20FDF7FFFA07B030BDC04613
:10542000002401400010024028050020080002402E
:1054300010B5040086B01422002101A800F0B5F9CF
:10544000114B22689A421CD10221104C1048E26A8A
:105450000A43E262E36A0B400093009BC0239B0077
:10546000019312230293113B03935B18049301A948
:1054700001330593FDF780FC8023A26B9B0313434C
:10548000A36306B010BDC0460054004000100240A7
:105490000004005010B504008AB01422002105A8B1
:1054A00000F083F92368564A934223D18022554B5A
:1054B000D202996B54480A439A630222D96A114373
:1054C000D962DB6A05A913400093009BC0231B012E
:1054D000059303230893013306920993FDF74CFCCF
:1054E00000221D201100FDF75DFA1D20FDF794FA42
:1054F0000AB010BD454A93421DD18022414BD201D2
:10550000596B41480A435A630222D96A1143D9624E
:10551000DB6A05A913400193019BC0230593BD3BA2
:1055200006920893FDF728FC00221B201100FDF7CE
:1055300039FA1B20DAE7364A934221D18022314BD7
:105540009202996BA0200A4301219A63DA6AC0058E
:105550000A43DA62DB6A0B400293029B0C23059339
:105560000A3B06935B1808935B1805A90993FDF79E
:1055700003FC00221C201100FDF714FA1C20B5E7E3
:10558000244A934220D180221E4B1203996BA02003
:105590000A4301219A63DA6AC0050A43DA62DB6AC8
:1055A00002220B400393039B032305930893DB180C
:1055B0000692099305A9FDF7DFFB00220E201100DA
:1055C000FDF7F0F90E2091E7134A934200D08FE7E0
:1055D00080220C4B5203996B0B480A439A630222B8
:1055E000D96A1143D962DB6A05A913400493049B6D
:1055F00018230593153B0893033306920993DAE7C2
:1056000000480040001002400004005000380140F3
:1056100000440040004C0040005000407047FEE74E
:105620007047704710B5FCF777FD10BD10B5024804
:10563000FDF757FB10BDC0462805002010B50248F5
:10564000FDF74EF810BDC0467005002010B50348A8
:10565000FEF7B8FD0248FEF7B5FD10BD2804002096
:105660003002002010B50248FEF7ACFD10BDC04668
:10567000B402002010B50248FEF7A4FD10BDC046DC
:10568000A804002010B50248FEF79CFD10BDC046DE
:10569000A80300208022104B520019680A431A60A8
:1056A000DA680E490A40DA601A680D490A40012199
:1056B0001A609A688A439A601A680A490A401A600E
:1056C000DA6809490A40DA6000221A618022074B31
:1056D00012059A607047C046001002400C40FF88D7
:1056E000F6FFF6FEFFFFFBFFFFFF02FF00ED00E00D
:1056F0000D488546002103E00C4B5B5843500431B4
:105700000B480C4B42189A42F6D30B4A02E0002396
:1057100013600432094B9A42F9D3FFF7BBFF00F044
:1057200017F8FFF703FBFEE700500020645E000857
:1057300000000020D4010020D4010020CC0500206E
:10574000FEE710B50A22002100F0C6F810BD0000E7
:1057500070B500260C4D0D4C641BA410A64209D157
:10576000002600F0EFF80A4D0A4C641BA410A64274
:1057700005D170BDB300EB5898470136EEE7B30092
:10578000EB5898470136F2E75C5E00085C5E000863
:105790005C5E0008605E0008002310B59A4200D1EC
:1057A00010BDCC5CC4540133F8E703008218934267
:1057B00000D1704719700133F9E7031C0A780131F1
:1057C0001A700133002AF9D170470000F0B51F00AC
:1057D0000E0087B00590039102920C98347800F087
:1057E0008FF8082200194378751C13400CD12D2C1A
:1057F0000CD101332C780193B51C002F0CD0102F45
:1058000014D1302C0AD011E02E00E6E701932B2CA6
:10581000F3D12C78B51CF0E7302C2FD120222B7837
:105820009343582B51D110276C780235019B294A9C
:1058300039009E183000FAF709FD30000491390054
:10584000FAF77EFC01210023494202008C46180031
:1058500021003039092913D80C00A7421CDD591C3E
:1058600009D06346824206D302D10499A14202DBE9
:105870000123784320182C780135E9E70A27D5E77A
:1058800021004139192901D8373CE6E72100613967
:10589000192901D8573CE0E75A1C08D1059A23334F
:1058A0001360029B3000002B0BD107B0F0BD019AB2
:1058B000002A00D04042029A002AF6D0039A002B18
:1058C00000D06A1E029B1A60EFE73024002FADD192
:1058D0000837ABE7FFFFFF7F37B51300064A050027
:1058E0001068046A002C00D1044C0A0000942900BE
:1058F000FFF76CFF3EBDC04604000020680000209A
:10590000EC300068704782B0002900D101A9101E58
:1059100006D0002B06D013780B601078431E9841F8
:1059200002B0704702204042FAE70B1E04D0FF2A63
:1059300004D98A2303608B3B180070470A70012347
:10594000FAE70000F8B5C046F8BC08BC9E467047B0
:0C595000F8B5C046F8BC08BC9E46704785
:10595C00415424493D31300D0A00415424493D3114
:10596C00310D0A00415424563F0D0A004154245372
:10597C00463D0000A40500087405000886050008D3
:10598C00C8040008860500086A050008860500089A
:10599C00C804000874050008740500086A050008AE
:1059AC00C8040008D0040008D0040008D004000883
:1059BC008C050008740500087405000848050008EB
:1059CC002C060008480500086A0500084805000870
:1059DC002C06000874050008740500086A05000808
:1059EC002C060008D0040008D0040008D0040008DD
:1059FC00360600084C0F00082E0F0008E80E0008B1
:105A0C00060E0008E80E0008200F0008E80E00083B
:105A1C00060E00082E0F00082E0F0008200F00089D
:105A2C00060E0008FE0D0008FE0D0008FE0D000815
:105A3C0064110008AC1500086C1400086C14000804
:105A4C0068140008841500088415000876150008F1
:105A5C0068140008841500087615000884150008E1
:105A6C00681400088C1500088C1500088C150008AB
:105A7C00901700082E2E5C447269766572735C5325
:105A8C00544D33324C3078785F48414C5F447269E6
:105A9C007665725C5372635C73746D33326C307800
:105AAC00785F68616C5F6164632E63002E2E5C44CA
:105ABC007269766572735C53544D33324C3078781E
:105ACC005F48414C5F4472697665725C5372635CEB
