:020000040800F2
:1000000000500020B97C0008B17B0008B37B0008D9
:1000100000000000000000000000000000000000E0
:10002000000000000000000000000000B57B000898
:100030000000000000000000B77B0008B97B00084A
:10004000097D0008097D0008097D0008097D000878
:10005000097D0008097D0008097D0008097D000868
:10006000097D0008C17B0008097D0008097D0008A2
:10007000D17B0008097D0008E17B0008097D0008AC
:10008000097D0008097D0008097D000800000000C6
:10009000097D0008097D0008097D0008097D000828
:1000A000097D0008097D0008097D0008F97B00082A
:1000B000097C0008197C000800000000097D000888
:1000C00010B5064C2378002B07D1054B002B02D02E
:1000D000044800E000BF0123237010BDE0010020B0
:1000E00000000000C4A30008044B10B5002B03D08F
:1000F0000349044800E000BF10BDC04600000000F6
:10010000E4010020C4A300080023C25C0133002ADC
:10011000FBD1581E7047000002B4714649084900DF
:10012000095C49008E4402BC7047C04603B4714666
:10013000490840004900095E49008E4403BC7047ED
:10014000002243088B4274D303098B425FD3030A16
:100150008B4244D3030B8B4228D3030C8B420DD329
:10016000FF22090212BA030C8B4202D312120902B7
:1001700065D0030B8B4219D300E0090AC30B8B42F5
:1001800001D3CB03C01A5241830B8B4201D38B03A3
:10019000C01A5241430B8B4201D34B03C01A524148
:1001A000030B8B4201D30B03C01A5241C30A8B428B
:1001B00001D3CB02C01A5241830A8B4201D38B0276
:1001C000C01A5241430A8B4201D34B02C01A52411A
:1001D000030A8B4201D30B02C01A5241CDD2C3098C
:1001E0008B4201D3CB01C01A524183098B4201D308
:1001F0008B01C01A524143098B4201D34B01C01AF3
:10020000524103098B4201D30B01C01A5241C3086A
:100210008B4201D3CB00C01A524183088B4201D3D9
:100220008B00C01A524143088B4201D34B00C01AC5
:100230005241411A00D20146524110467047FFE731
:1002400001B5002000F0F0F802BDC0460029F7D04B
:1002500076E7704703460B437FD4002243088B4266
:1002600074D303098B425FD3030A8B4244D3030B3D
:100270008B4228D3030C8B420DD3FF22090212BA02
:10028000030C8B4202D31212090265D0030B8B427E
:1002900019D300E0090AC30B8B4201D3CB03C01A68
:1002A0005241830B8B4201D38B03C01A5241430B43
:1002B0008B4201D34B03C01A5241030B8B4201D333
:1002C0000B03C01A5241C30A8B4201D3CB02C01A9E
:1002D0005241830A8B4201D38B02C01A5241430A16
:1002E0008B4201D34B02C01A5241030A8B4201D305
:1002F0000B02C01A5241CDD2C3098B4201D3CB01AC
:10030000C01A524183098B4201D38B01C01A52415A
:1003100043098B4201D34B01C01A524103098B425E
:1003200001D30B01C01A5241C3088B4201D3CB0049
:10033000C01A524183088B4201D38B00C01A52412C
:1003400043088B4201D34B00C01A5241411A00D2DC
:1003500001465241104670475DE0CA0F00D0494245
:10036000031000D34042534000229C4603098B42B5
:100370002DD3030A8B4212D3FC22890112BA030A3D
:100380008B420CD3890192118B4208D389019211BF
:100390008B4204D389013AD0921100E08909C30944
:1003A0008B4201D3CB01C01A524183098B4201D346
:1003B0008B01C01A524143098B4201D34B01C01A31
:1003C000524103098B4201D30B01C01A5241C308A9
:1003D0008B4201D3CB00C01A524183088B4201D318
:1003E0008B00C01A5241D9D243088B4201D34B0033
:1003F000C01A5241411A00D20146634652415B1075
:10040000104601D34042002B00D549427047634655
:100410005B1000D3404201B5002000F005F802BD9A
:100420000029F8D016E770477047C0468446101C74
:1004300062468C46191C634600E0C0461FB501F0B9
:1004400059FF002801D40021C8421FBD10B501F09A
:10045000B3FE4042013010BD10B501F04BFF002843
:1004600001DB002010BD012010BDC04610B501F019
:1004700041FF002801DD002010BD012010BDC04655
:1004800010B501F0D3FE002801DC002010BD0120D2
:1004900010BDC04610B501F0C9FE002801DA0020E9
:1004A00010BD012010BDC0468446081C6146FFE710
:1004B0001FB500F089FC002801D40021C8421FBDEF
:1004C00010B500F01BFC4042013010BD10B500F02B
:1004D0007BFC002801DB002010BD012010BDC046C0
:1004E00010B500F071FC002801DD002010BD0120D6
:1004F00010BDC04610B500F027FC002801DC00202C
:1005000010BD012010BDC04610B500F01DFC002834
:1005100001DA002010BD012010BDC046002B11D112
:10052000002A0FD1002900D1002802D00021C943A0
:10053000081C07B4024802A14018029003BDC0463F
:10054000E9FEFFFF03B4684601B5029800F03CF8ED
:10055000019B9E4602B00CBC7047C0469E2110B560
:10056000C905041CFFF7D0FF002803D1201C00F0B0
:1005700029FF10BD9E21201CC90500F087FD00F059
:1005800021FF80231B069C466044F2E770B50022E1
:100590000C4B04000D00FFF77DFF002804D1200064
:1005A000290002F0BFFC70BD064B0022200029008C
:1005B00002F082F902F0B6FC80231B069C466044E0
:1005C000F1E7C0460000E041F0B557464E464546CB
:1005D000DE46E0B5040083B00D00924699468B429A
:1005E0002FD82CD04946504602F0F2FD29000600D3
:1005F000200002F0EDFD331A9846203B9B4600D5C3
:1006000074E053465A4693401F0053464246934077
:100610001E00AF4229D826D05B46A41BBD41002B4B
:1006200000DA79E0002200230092019301235A4668
:1006300093400193012342469340009319E0824284
:10064000D0D900220023009201930C9B002B01D0F3
:100650001C605D600098019903B03CBC90469946CF
:10066000A246AB46F0BDA342D6D900220023009299
:1006700001934346002BE8D0FB0772081A43464615
:100680007B080EE0AB4201D1A2420CD8A41A9D41D6
:10069000012024196D410021013E24184D41002EF6
:1006A00006D0AB42EED9013E24196D41002EF8D19F
:1006B0005B460098019900196941002B22DB2B0051
:1006C0005A46D3402A004446E2401C005B461500CF
:1006D000002B2CDB26009E40330026004746BE4000
:1006E0003200801A994100900191AEE742462023E2
:1006F0009B1A5246DA40414613004A468A40170088
:100700001F4382E7424620239B1A2A0046469A400E
:100710002300F3401343D5E74246202300219B1AD0
:100720000022009101920122DA40019282E74246C2
:10073000202326009B1ADE402F00B44697406646D1
:100740003B003343C9E7C046F0B5C6464E024702F8
:10075000760A7B0A4400C50FF7004800984600B5AA
:10076000240E2A00DB00000EC90FBC468D4267D064
:10077000221A002A00DCA5E000283AD1002F00D17F
:1007800093E0511E002900D0BCE00124DB1B5A017C
:1007900046D59B019E09300002F0FCFC05388640DE
:1007A000844200DD9DE0041B320020200134E24041
:1007B000041BA64033005E1EB341002413435A07B6
:1007C00004D00F221A40042A00D004335A0129D53C
:1007D0000134FF2C00D181E02A009B015B0AE4B2C6
:1007E0005B02E405580AD2072043104304BC90463C
:1007F000F0BDFF2CE3D080213800C90408438446B3
:100800001B2A00DD82E020206146D140821A60462A
:1008100090400200501E82410A439B1A5A01B8D4EC
:100820005A07CED1DE082A00FF2C3AD1002E00D183
:10083000AEE08023DB0333435B025B0AFF24CFE798
:10084000211A002952DD002831D0FF2CB7D080209A
:100850003E00C0040643B4461B2900DDAAE0202662
:100860006046C840711A66468E4031004E1EB14146
:1008700001435B185901D3D50134FF2C00D187E027
:10088000012278491A405B080B40134397E7002C7C
:1008900000D0A7E0002B00D0B6E03B1E62D10026BE
:1008A000002273025B0AE4B29AE7140087E7002F84
:1008B0004DD0481E002857D1634401245A01AFD5BA
:1008C0000224DDE7002A24D1621CD2B2012ADEDD37
:1008D000DE1B720135D5FE1A0D005CE72A000023ED
:1008E0007EE73300604A241A134068E7002963D189
:1008F000611CC8B201284EDDFF2949D063445B0862
:100900000C005CE7FF2A41D00A0079E701229B1A1C
:1009100084E7002C1DD0FF2822D08024E40452421A
:1009200023431B2A00DD8AE01C002025D440AA1A9C
:1009300093405A1E9341234362460400D31A0D008C
:1009400025E7002E00D026E700220024A9E70C00AE
:1009500035E7002B4DD0D243002AEDD0FF28E0D15F
:100960006346FF240D002AE7FF290FD0010073E73B
:10097000002B61D0FF24002F00D120E780224146C8
:10098000D203114202D0164200D13B00FF2416E7E9
:10099000FF24002324E7002CEAD1002B58D0002F9D
:1009A00000D10CE763445A0100D439E72E4A0C0009
:1009B000134004E701215CE7002C1ED1002B40D03E
:1009C000C94300290BD0FF2836D01B2947DC1C0067
:1009D0002026CC40711A8B40591E8B41234363441F
:1009E000040047E7002B18D13B1E2DD00D00FF243B
:1009F000E5E63B0004000D00E1E6FF281CD0802462
:100A0000E40449422343E0E7002F00D1D7E6DE1B90
:100A100072011FD5FB1A0D00D1E6FF24002F00D173
:100A2000CDE680224046D2031042AFD01642ADD16F
:100A30003B000D00FF24C2E66346FF24BFE601230E
:100A40007AE73B000400BAE680260022F603F0E6CF
:100A50003B00B4E6331E00D0E2E6002221E701238A
:100A6000BDE7C046FFFFFF7DFFFFFFFBF0B5574628
:100A70004E46DE464546E0B544024300C60F83B00D
:100A80000F1C640A1B0EB24653D0FF2B27D08022C6
:100A9000E400D20414437F2252429046984400233B
:100AA00099469B467D027800FB0F6D0A000E00936D
:100AB00024D0FF2846D080230021ED00DB041D4315
:100AC0007F384746381A4F460F43BF00B9463300B8
:100AD000009A874F53404A46BA5801939746002CD4
:100AE0004ED108239946F7339846FD3B9B467D023D
:100AF0007800FB0F6D0A000E0093DAD1002D26D18D
:100B0000002001213300009A7A4F53404246101AC8
:100B10004A460A439200BA581D009746009B2C0093
:100B20009A468B465B46022B31D15346FF21002467
:100B300038E0002C17D1042399460023984601334E
:100B40009B46AFE7FF20002D0BD10221DAE72800FA
:100B500002F020FB431F9D4076235B42181A0021C0
:100B6000AFE70321ADE7200002F014FB431F9C40D8
:100B700076235B421B1A9846002399469B4691E7D1
:100B80000C239946F3339846FC3B9B468AE7032B9C
:100B900000D1A5E05546012B00D081E001230021C2
:100BA00000242B406402C905600ADB070843184390
:100BB00003B03CBC90469946A246AB46F0BD8024AB
:100BC0000023E403FF21EDE7FF210024EAE70123EE
:100BD000591A1B2966DD019A134000210024E1E720
:100BE0008023DB031C4238D01D4251D01C436402D9
:100BF000640A3300FF21D5E763016C01A3423BD2B5
:100C00001B260021013801251F0049005B00002F31
:100C100001DB9C4201D81B1B2943013E002EF3D16E
:100C20001C00631E9C410C4301007F310029CEDD76
:100C3000630704D00F232340042B00D00434230186
:100C400003D501002C4B80311C40FE290DDD012312
:100C5000019AFF2113400024A4E78023DB031C43F7
:100C60006402640A3300FF219CE70123019AA40176
:100C7000640AC9B2134095E71B1B1A260121C2E77B
:100C8000009B8B469A4600244CE76302E5D500257D
:100C90008024E4032C436402640A009BFF2181E763
:100CA0000195C1E723002020CB40411A8C40611EF2
:100CB0008C411C43630704D00F232340042B00D036
:100CC0000434630105D50123019A01211340002456
:100CD00068E70123019AA401640A1340002161E737
:100CE0008023DB031C436402640A5346FF2159E757
:100CF00008A4000848A40008FFFFFFF770B54200F1
:100D000045024E024C00C30F6D0A120E760A240EE5
:100D1000C90F0120FF2A06D0FF2C03D0A24201D127
:100D2000B54206D070BD002DFCD1FF2CFAD1002EAB
:100D3000F8D18B4206D00120002AF3D12800451EAD
:100D4000A841EFE70020EDE7F0B5420045024C0274
:100D5000C30F48006D0A120E640A000EC90FFF2A65
:100D60001ED0FF2821D0002A0AD16E426E41F6B271
:100D700000280FD1002C0DD10020002D09D005E056
:100D8000002801D1002C01D08B4211D00121584202
:100D90000843F0BD002EF7D0012001390843F8E7E1
:100DA000002DDED002204042F3E7002CDBD0F9E733
:100DB0008242EBDC04DBA542E8D80020A542E8D261
:100DC0000121581E0843E4E7F0B542004D024C00F3
:100DD0004602760A120EC30F6D0A240EC90FFF2AAF
:100DE00016D0FF2C18D0002A0AD170427041C0B230
:100DF000002C15D0002805D0012001390843F0BD92
:100E0000002C13D0994214D001205B421843F6E71E
:100E10000220002EF3D1E4E70220002DEFD1E2E71B
:100E2000002DE7D10020002EE9D0EDE7002DE9D11B
:100E3000EAE7A24206DCDFDBAE4203D80020AE4286
:100E4000DAD3DCE7012049420843D8E7F8B5574632
:100E50004E464546DE46E0B54702460088467F0AD4
:100E6000360EC40F002E47D0FF2E24D0FB00802763
:100E7000FF041F43002399469A467F3E43465D0286
:100E80005800DB0F6D0A000E984643D0FF283BD078
:100E9000EB0080250022ED041D437F383618731CBB
:100EA00041469B464B46614013430F2B64D875481F
:100EB0009B00C3589F46002F42D108239946063B0A
:100EC000FF269A46DAE74146022A28D0032A00D1B3
:100ED000CEE0012A00D0ACE0114000200022CCB2CC
:100EE0004002D205400AE407104320433CBC904630
:100EF0009946A246AB46F8BD002F15D1042399466A
:100F0000033B00269A46B9E7FF200222002DC5D0F8
:100F10000322C3E7002D19D100200122BEE70124DE
:100F2000FF220C400020DBE7380002F033F9762680
:100F3000431F9F4000237642361A99469A469DE702
:100F40000C239946093BFF269A4697E7280002F0B2
:100F500021F9431F9D4076235B42181A00229DE72A
:100F600080200024C003FF22BAE73D005246ABE7D1
:100F70003D0021005246A7E73B0C9C462A04120C78
:100F80002B0C1400604665463F043F0C7C434243F3
:100F90005D437B43270C9B18FF18BA4203D980237B
:100FA0005B029C46654424043A04240C1219930104
:100FB0005C1EA3413F0C920E7D191A43AD011543EF
:100FC0002B0104D501235E466A081D4015433200FB
:100FD0007F32002A25DD6B0704D00F232B40042B22
:100FE00000D004352B0103D53200274B80321D4041
:100FF000FE2A94DC0124A801400AD2B20C406FE71B
:101000008020C003074207D0054205D12843400293
:10101000400A4446FF2263E738434002400AFF2269
:101020005EE70124A31A1B2B05DD0C4000220020E3
:1010300056E75E46CBE72A002020DA40C31A9D40DF
:101040002B005D1EAB4113435A0704D00F221A40F8
:10105000042A00D004335A0104D5012401220C4093
:1010600000203DE701249B01580A0C40002237E78D
:1010700080200124C00328434002400A0C40FF2284
:101080002EE7C04688A40008FFFFFFF7F0B54F46E3
:10109000D64646464400C0B5C20F47024802400A41
:1010A000844666467B0A4800C90F9A46240E1500FE
:1010B000DB00000E8946F600FF2800D18FE00121F9
:1010C0004F464F403900914266D0221A002A00DC78
:1010D0009DE000283DD1002E00D18BE0511E00295B
:1010E00000D0B5E001249B1B5A0144D59B019F0908
:1010F000380002F04FF805388740844200DD96E062
:10110000041B3A0020200134E240041BA7403B00AE
:101110005F1EBB41002413435A0704D00F221A401C
:10112000042A00D004335A0127D50134FF2C00D102
:1011300079E001229B015B0AE4B22A405B02E405EC
:10114000580AD207204310431CBC90469946A24639
:10115000F0BDFF2CE0D08021C9040E431B2A7BDCAC
:1011600031002020D140821A9640721E96410E43D3
:101170009B1B5A01BAD45A07D0D10122DF082A405A
:10118000FF2C33D1002F00D1A8E08023DB033B43A9
:101190005B025B0AFF24D1E7211A00294CDD0028FD
:1011A0002AD0FF2CB8D08020C00406431B2900DDC4
:1011B000AFE030002027C840791A8E40711E8E4162
:1011C00006439B195901D6D50134FF2C00D185E087
:1011D00001227A491A405B080B4013439CE7002E1A
:1011E00000D070E76BE73B1EC5D100227B025B0A93
:1011F000E4B2A3E714008FE7002E4DD0481E00286C
:1012000057D19B1901245A01B5D50224E0E7002AE1
:1012100025D1621CD2B2012A72DD9F1B7A0135D51D
:10122000F71A0D0064E7012200232A4086E73B00FD
:10123000634A241A13406FE700296CD1611CC8B2BD
:1012400001284EDDFF2949D09B195B080C0063E79C
:10125000FF2A41D00A0081E701269B1B89E7002C69
:101260001CD0FF2821D08024E404524223431B2AAF
:1012700000DD96E01C002025D440AA1A93405A1E97
:1012800093412343F31A04000D002DE7002F00D0F3
:101290002EE700220024A9E70C003DE7002B58D0E0
:1012A000D243002AEED0FF28E1D13300FF240D0005
:1012B00032E7FF2910D0010078E7002B6ED0FF2421
:1012C000002E00D128E780225146D203114203D0DC
:1012D0006146114200D13300FF241DE7FF240023A3
:1012E0002CE7002CE9D1002B63D0002E00D113E7AE
:1012F0009B195A0100D43EE7314A0C0013400BE71A
:10130000002C1ED1002B2FD1002E4FD033000D000A
:1013100002E7012655E7002C1FD1002B43D0C9431B
:1013200000290BD0FF2839D01B2944DC1C002027C2
:10133000CC40791A8B40591E8B4123439B190400E2
:1013400040E7002B1AD1002E24D180270022FF0372
:101350001BE7330004000D00DEE6FF281ED08024CA
:10136000E40449422343DFE7002E00D1D4E69F1B6B
:101370007A0100D437E7F31A0D00CDE6FF24002EE2
:1013800000D1C9E680225046D2031042A4D0604664
:101390001042A1D133000D00FF24BDE63300FF242D
:1013A000BAE601236EE733000400B5E60027002209
:1013B0001CE73300B0E60123C0E7C046FFFFFF7D16
:1013C000FFFFFFFB41024300C20F490A1B0E002032
:1013D0007E2B0DDD9D2B0CDC802000040143952B22
:1013E0000ADC9620C31AD9404842002A00D10800DE
:1013F0007047034BD018FBE7963B9940F4E7C04693
:10140000FFFFFF7F70B5002830D0C317C4185C40C1
:10141000C50F200001F0BEFE9E231B1A962B0DDC8B
:101420009622D21A94402A006402640ADBB2640253
:10143000DB05600AD2071843104370BD992B19DCF5
:101440009922D21A002A29DD94402200144C14401B
:10145000510704D00F210A40042A00D0043462014D
:1014600013D4A401640ADBB22A00E0E700220023BF
:101470000024DCE705222100121AD140B922D21A39
:101480009440621E94410C43DAE7054B2A001C404D
:101490009F23A4011B1A640ADBB2C8E72200D5E728
:1014A000FFFFFFFB10B5041E27D001F073FE9E2343
:1014B0001B1A962B0ADC9622D21A94406402640A04
:1014C000DBB26402DB05600A184310BD992B17DC00
:1014D0009922D21A002A27DD94402200134C14408E
:1014E000510704D00F210A40042A00D004346201BD
:1014F00012D4A401640ADBB2E3E700230024E0E78E
:10150000B9222100D21A91400A00511E8A410521B8
:10151000091ACC401443DBE7044B1C409F23A40171
:101520001B1A640ADBB2CCE72200D7E7FFFFFFFB00
:10153000F8B54546DE4657464E460C03E0B54E002C
:10154000C90F88460D00610A440F0C43C7001903F8
:101550005800DB0F9B464B0A510F0B43760D400D95
:101560001900D200D84500D1AEE0351A002D00DCBC
:10157000F6E000280FD1134300D1DBE06B1E002BF7
:1015800000D037E1BA1A9742BF41641A7F42E41B88
:101590000126170024E0C64B9E424DD080231B0439
:1015A0001943382D00DD07E11F2D00DD38E1202033
:1015B000431B9A460B005046834099461300484609
:1015C000EB401843030050468240501E8241E940E0
:1015D0001A43BA1A611A9742A441170064420C1BBD
:1015E000230262D56402650A002D00D1DFE02800E5
:1015F00001F0D0FD0300083B1F2B00DDD2E02022CC
:101600003C00D21A9D40D4409F4025439E4200DDBD
:10161000C4E09E1B731C1F2B00DDF1E0202238006C
:101620002900D21AD840914097402C000143781EDF
:101630008741DC4000260F437B0709D00F233B4046
:10164000042B05D03B1DBB42BF417F42E4191F0064
:1016500023022CD5964B01369E4200D19AE0454696
:10166000944BFF081C406007760564020743240B77
:10167000760D00212403230B0C0D8F4A24051C43F7
:101680001440330523435B00ED075B082B43380010
:1016900019003CBC90469946A246AB46F8BD64464C
:1016A000044300D111E2040067467B07C6D14546DA
:1016B0006007FF080743E4087D4B9E4230D02403B7
:1016C0007605240B760DD4E7331A9A46002B78DD85
:1016D000002831D076488642AED0802000040143F5
:1016E0005346382B00DCE9E00A43511E8A410021B1
:1016F000D219BA42BF4109197C4217000C192302C2
:10170000D3D56B4B01369E4200D13AE10120694BA3
:101710001C407B0807401F43E007074364088BE732
:1017200023003B4300D1CBE1802212031443240366
:10173000240B9EE72E007FE70800104300D1B4E0A1
:10174000581E002800D0DEE0BA18BA429B41641847
:101750005B42E418170001262302A6D50226D5E72E
:10176000002D6ED1701C4005400D012800DCF9E011
:10177000B81A844687428041E51A40422D1A280251
:1017800000D489E0D71BBA4292411C1B5242A51AD1
:10179000D84629E74546002400276AE7454CF61A53
:1017A0002C4049E73D002838854000272EE73800C7
:1017B00001F0F0FC20301DE70A43511E8A41002150
:1017C00007E7002B00D0F3E0701C43055B0D012BF5
:1017D00000DCADE0364B984200D1D1E0BA18BA42F5
:1017E000BF4164187F42E419E707520817436408B1
:1017F000060021E72E48854200D193E01D00D0E687
:1018000029001F3EF140202B00D18DE04022D31A49
:101810009D402F437D1EAF4100240F43002644E727
:101820002B000800203BD8400300202D00D17DE094
:101830004020451BA9400A43511E8A4100211A43FA
:10184000C7E6002E50D01A4EB04257D080266B42C9
:101850009946360434434B46382B00DDD6E01F2B27
:1018600000DD35E12026F51A2600AE40B2463E00E6
:10187000DE40AC46350056462E436546AF407D1EE1
:10188000AF41DC403743D71BBA4292410C1B524256
:10189000A41A0600D846A3E6644667462C4300D047
:1018A000A2E600250026002706E71E00C4E6C04683
:1018B000FF070000FFFF7FFFFFFF0F801F2B63DC90
:1018C0002020C31A080098409C46834653461000C7
:1018D000D84003005846184363469A40531E9A4125
:1018E00053460243D94003E726003E4306D0EB436C
:1018F0009946002BC7D0944EB042ACD10C001700D3
:101900000600D84698E6904B9A450BD08246E7E60B
:10191000002800D09EE01800104300D1E9E01C0030
:101920001700D846884E87E6002572E7002182E737
:1019300023003B43002E00D0ABE0002B00D1E7E0BA
:101940000B00134300D177E6BA18BA42BF416418BE
:101950007F42E419230200D4F2E07C4B17001C40C4
:10196000060069E620003843002ED1D100285BD163
:101970001C00144300D1A8E01C001700D8465BE609
:1019800006000024002797E650460B002038C3408D
:1019900099465346202B00D195E0402350461B1A10
:1019A00099400A43511E8A414B4600211A439FE643
:1019B000002E30D126003E4367D0DB439A46002BF1
:1019C0001CD0614EB04260D05346382B00DD96E00B
:1019D0001F2B00DD9FE02026F31A26009E409C4628
:1019E000B34653463E00DE4033005E461E43634628
:1019F0009F407B1E9F415346DC403743BF189742B0
:101A0000924164185242A418060078E627437C1ECF
:101A1000A741002437E74C4EB04236D080265B42C7
:101A200036049A463443CFE71800104300D103E64A
:101A3000B81A84466745AD41E01A6D42401B050265
:101A400000D42CE6D71BBA4292411C1B5242A41A66
:101A5000D846F1E51800104300D163E7F80867079E
:101A600007438020E4080003044208D0DD08054253
:101A700005D1D208590711430F002C00D8467B0F1F
:101A8000E4001C43FF00304ED6E50C0017000600B2
:101A9000D2E5002B38D00B00134300D142E7F80801
:101AA000670707438020E40800030442E7D0CB081F
:101AB0000342E4D1D208490711430F001C00DEE7BE
:101AC00000270024D5E500216BE700250027F3E57A
:101AD0004E462500203EF5404B462E00202B2DD0B3
:101AE0004025ED1AAC4027437C1EA7410024374314
:101AF000C9E6802400252403134E0027DCE5274394
:101B00007C1EA741002479E70C0017000E4E93E5D8
:101B10000C00170090E556462300203EF3409946FE
:101B20005346202B0ED0402356469B1B9C402743F8
:101B30007C1EA7414B4600241F435FE70024D2E7E9
:101B40001700B2E50024F2E7FF070000FFFF7FFF68
:101B5000F0B557464546DE464E46E0B54C000E030E
:101B600087B0834692461D008046360B640DCF0F2A
:101B7000002C4FD06F4B9C4235D08023420F1B046A
:101B8000F600134333439946C30098466A4B002638
:101B90009C460023644403932B031B0B9B466B0062
:101BA000ED0F50465B0D01955ED0624A934253D0D3
:101BB0005A46D1008022400F120402430A43934642
:101BC0005246D1005C4A9446002263443800684083
:101BD00084460290E41A16430F2E00D9B4E0574B06
:101BE000B6009B599F460300334399466CD10023AE
:101BF0009846023308260393CEE7CB464146039A24
:101C00000197022A65D1019B4A4C9C460023002281
:101C100098466BE00300334399464ED0002E00D126
:101C2000BCE1300001F0B6FA03000B3B1C2B00DDD9
:101C3000ACE11D22D31A5A460100DA4008398E4021
:101C40001300334399465B468B40984600233C4C37
:101C50000026241A03939FE751465A46114329D17F
:101C6000002293460232B1E7594601431ED05B463B
:101C7000002B00D19EE1584601F08CFA03000B3B8B
:101C80001C2B00DD8FE102005946083A91408B463B
:101C90001D21CB1A5146D9400B0059460B435146E2
:101CA0009B469140264B00221B1A8FE700230122FE
:101CB0009B468BE75146032288E700239846013371
:101CC00004260024039367E70323B14603930C26FD
:101CD00062E7032A00D15CE2019B012A00D0E4E123
:101CE00013409C4600230024002298460021120342
:101CF000130B0A0D12051A432305124C40462240CD
:101D0000134362465B00D2075B081343190007B018
:101D10003CBC90469946A246AB46F0BD00238022CB
:101D20009C4612039846034CE0E70023014C002236
:101D30009846DBE7FF07000001FCFFFFC8A400088E
:101D40000DFCFFFFFFFF0F80D94500D939E100D11D
:101D500034E1002346464D469A46013C5B460A0E56
:101D60001B021A430B02170C039313041B0C3900BC
:101D7000280090460193FEF7E3F90200019B834699
:101D80005A43280039009146FEF760FA350C0904E1
:101D90000D43A9450DD95B464544013BA84500D9F3
:101DA0003AE1A94500D837E102235B429C4645440D
:101DB000E3444B46EB1A390018000493FEF7C0F9D0
:101DC000019B05004343390004989946FEF73EFA0B
:101DD000330409041B0C0B43994509D943446A1E7B
:101DE000984500D91AE1994500D817E1023D4344CE
:101DF0004A469B1A5A4612042A4303999346100CEA
:101E00000A0C914609045A46090C4E460D0012046C
:101E1000120C4543059151437243704352190E0C05
:101E2000B218954203D980256D02AC466044150C6A
:101E300009041204090C28185218834200D2CEE07B
:101E400000D1C8E01D1A53469E1AB2459241524233
:101E5000AB1A9A46984500D117E139001800FEF7F1
:101E60006FF9019B05004343390050460493FEF788
:101E7000EDF904980B04310C1943884209D9414407
:101E80006B1E884500D907E1884200D804E1023D75
:101E90004144049BCB1A180039000493FEF750F913
:101EA000019B82464343390004980193FEF7CEF923
:101EB00001980B043104090C194388420DD953468B
:101EC0004144013B884500D9E8E0884200D8E5E07C
:101ED00002235B429C464144E244019B2D04CE1AFE
:101EE00051462943059D4F462A000B04080C1B0C44
:101EF0005A4345437B4378435B19170CFB189D42BB
:101F000003D980256D02AC4660441D0C12041B04ED
:101F1000120C28189B18864200D293E000D18EE064
:101F200001231943A04BE318002B00DC99E04A077A
:101F300000D09EE05A46D20106D55A469B4B1A4025
:101F400080239346DB00E318994A934268DD01231E
:101F5000029A984C1A400023944698460022C5E6FF
:101F600080224B46120313420AD05B46134206D12D
:101F70001A431203120BAC4688468E4CB6E64B460B
:101F80001A431203120BBC468A4CAFE603005A46B2
:101F9000283B9A4000239146984657E6584601F060
:101FA000F9F8203040E603005246283B9A400021D1
:101FB000934677E601F0EEF820305FE6884500D2E0
:101FC000C7E64B46DE075D0843465B081E434346B3
:101FD000DB079A46C2E60025924500D333E7039E0D
:101FE0005946B446E244B245AD416D424544EB1812
:101FF0000139984507D2984200D97FE000D1BCE072
:102000001D1A8B461FE79845FAD1039D5545F2D915
:1020100043468B461D1A16E79B46CAE61500E7E6BF
:102020005A46C90852070A435B0590465C0D5A465A
:102030000123029952021940120B8C4656E6002BDE
:1020400000D16FE746444A1EB04529D911008642A7
:1020500000D065E7039A934200D061E762E701216F
:1020600049420120C21A382A21DD029B03409C46C6
:1020700038E60F220A40042A00D15BE70A00111D4E
:10208000914292415242934454E7474BE318002B4C
:10209000E5DD01225242F2E71D00FAE69A461CE70E
:1020A000B04239D86ED011003AE702933AE71F2ABE
:1020B0003CDC20239B1A0C005846994098404B1E4C
:1020C00099415B46D440D340204308431A0043075C
:1020D00009D00F230340042B05D00100081D8842BE
:1020E0009B415B42D21813023AD50123029A012484
:1020F0001A400023944698460022F7E502214942FF
:102100008C46039DE344AC46E244AA45AD416D4292
:102110004544ED182D1A96E68A1E03994D008D420E
:10212000894149424144761803958FE71F20404278
:10213000C31A5846D8400300202A28D040205D46C4
:10214000821A954029434A1E9141194307230022D0
:102150000B4009D00F2300220B400800042BBDD1F7
:10216000010053075202120BC90819430123884684
:102170000299002419408C46B8E55245BED88B46DA
:10218000002560E6039D9D42C6D3110062E700254D
:10219000D8E780225B4612031A43019B1203120BFD
:1021A0009C468846034CA1E5FF030000FFFFFFFEAD
:1021B000FE070000FF070000F0B54F464646D64632
:1021C0005C00C0B51F03DB0F9A46174B0E034D0092
:1021D00084468046360B6D0DC90F91463F0B640D4A
:1021E00001209D4208D09C4201D0A5420BD01CBCCE
:1021F00090469946A246F0BD63463343F7D1AC42C0
:10220000F5D13A43F3D10120BE42F0D1C845EED119
:10221000514507D0002DEAD163461E433000461ECB
:10222000B041E4E70020E2E7FF070000F0B54546D3
:10223000DE4657464E46E0B51F033D0B2C4F0E03BE
:102240004C00AB465D008446360B640DC90F9046CA
:102250006D0DDB0FBC422AD0254FBD422DD0002C86
:102260000FD130430700814678427841C0B2002D3B
:1022700017D15F463A4314D14B460020002B0AD0B9
:1022800006E0002D02D15846024301D0994218D0F1
:102290004842012108433CBC90469946A246AB46C1
:1022A000F0BD0028F2D00120013B1843F3E73700CE
:1022B0000743D1D002204042EDE75F461743CED01E
:1022C000F8E7AC42E4DC03DA481E01210843E2E708
:1022D0005E45DDD806D000205E45DCD20123481ED5
:1022E0001843D8E7C445D3D80020C445F6D3D2E775
:1022F000FF070000F0B54E464546DE4657465C00F7
:10230000E0B51F03DB0F99462A4B0E034D00C90FA2
:102310008446360B6D0D8B4690463F0B640D9D42F7
:1023200020D0244B9C4222D0002D12D13043434276
:102330004341DBB2002C1FD0002B0CD04B460120B8
:10234000013B034318003CBC90469946A246AB466D
:10235000F0BD002C16D0CB4517D05B465942012367
:102360000B43EFE7310002230143EBD1D9E73900FA
:1023700002231143E6D1D7E73A43DDD100230028F9
:10238000E0D0EAE73A43E6D1E7E7A542E5DC05DB42
:10239000BE42E2D807D00023BE42D3D25946012321
:1023A00001390B43CEE7C445D7D80023C445F5D344
:1023B000C8E7C046FF070000F0B557464546DE4671
:1023C0004E46E0B50C0398464E00230B87B007003D
:1023D00092469B46760DCD0F002E6BD06D4B9E42E4
:1023E00035D080245B46420F2404DB0014431C4399
:1023F000C3009946684BA3469C46002300276644C9
:10240000029343461C035A00DB0F5046240B520D27
:10241000984600D176E05F4B9A426DD08023410F01
:102420001B040B435C49E4008C461C43C3000020A2
:1024300062444146B6186940721C019194460743B4
:102440000F2F00D9B0E0554ABF00D25997465B46DE
:102450000343994600D087E000239B4602330827B8
:102460000293CEE742460192022867D0032800D1AA
:102470000EE2012800D062E10023002400229946E8
:1024800001990140CDB2002112030B0D120B1B0567
:102490001343434A240513401C436400ED076408BA
:1024A0002C434846210007B03CBC90469946A246C2
:1024B000AB46F0BD034399464FD05B46002B00D19D
:1024C00089E1584600F066FE03000B3B1C2B00DD43
:1024D0007AE11D22D31A3A0001005C46DA4008393D
:1024E0008C4013008F4023439B46B94600232D4E5A
:1024F0000027361A029384E7534623432AD1002447
:10250000022096E75346234320D0002C00D157E108
:10251000200000F03FFE03000B3B1C2B00DD49E1D7
:102520001D21CB1A51460200D9405346083A944027
:1025300093400C431B4A121A00207AE70125019BA5
:10254000144C1D400023002299469CE700240022E1
:1025500001206EE7534603206BE700239B460133BF
:102560000427002602934CE7032381460C2702939D
:1025700047E780220023002512039946054C82E795
:102580005C464B4602986FE75C464B4601950298C5
:102590006AE7C046FF07000001FCFFFF08A500082E
:1025A000FFFF0F800DFCFFFF4A464946170C1A0C2F
:1025B0001B041B0C08041900000C4143150088463D
:1025C00019007D4379430395894629001500454349
:1025D0004D44029545462D0CAA46029D5544A945F9
:1025E00006D98A46802149028946CA445146039148
:1025F000290C0491414609042D04090C8846290040
:10260000250C24044144240C0591210041438846B3
:10261000210079438A466843414650448146080C6C
:1026200048446F43824503D98021490289464F447B
:10263000010C894639004944029141460F0404992E
:102640003F0C88460004C019804441460491594615
:102650000F0C0904090C884659438A463900514336
:10266000894641464A435146090C8B467B43D21862
:102670005A44934203D980235B029B46D944514676
:102680000904090C8A46414661437C43130C120439
:102690004B445244A1468A463C0041466C434D435C
:1026A00051464D440F0C7D19A94503D9802149029B
:1026B00088464444049F0399B84641448B46834569
:1026C000804141428846514608042F04000C3F18BF
:1026D0005846029910188946904292414F44BA4692
:1026E000524299469346C244D144CB448F42BF41A3
:1026F000C245894199459B41934592417F42494258
:102700002D0C52420F435B4213437F19FF185B4667
:102710003C19DB0D059A64021C43430213435D1E02
:10272000AB415A46C00D034352021343E20156D552
:1027300001205A0803401343E207134364085A4830
:10274000604400284DDD5A0709D00F221A40042AA0
:1027500005D01A1D9A429B415B42E4181300E20126
:1027600004D58020514AC00014406044504A904231
:1027700000DDE3E60125DB0862071A436402019BE2
:102780009146220B4405640D1D407CE6802259468B
:102790001203114208D0144206D122431203120B35
:1027A00045469946434C6EE65B461A431203120BAC
:1027B000404C68E603005446283B9C400023B9E6A1
:1027C00000F0E8FC2030A6E60300283B9F400023F1
:1027D000BB4699468AE600F0DDFC203074E6B4463C
:1027E000ADE701252A1A382A06DD019B00241D4089
:1027F00000230022994646E61F2A21DC20252000DE
:10280000AD1A1E00AB40A840D6405D1EAB41304320
:102810001843D440430709D00F230340042B05D0AD
:102820000300181D98429B415B42E418230221D506
:102830000125019B01241D4000230022994622E628
:102840001F2521006D42281AC1400800202A1DD0F2
:102850005F35AA1A944023435C1EA3410725034316
:102860001D400022002D09D00F2200241A4018001C
:10287000042AD6D1030065076402220BDB082B4330
:1028800001259946019B00241D40FCE50024E2E758
:10289000802201251203224301991203120B0D40DD
:1028A0009946044CEFE5C046FF030000FFFFFFFE22
:1028B000FE070000FF070000F0B54646D6464F462B
:1028C0000C03C0B5CD0F4E00610A440F0C43C1008C
:1028D0005800400D84468A460F001903500F490ADC
:1028E0000143C648760DA846DB0FD200844500D1CF
:1028F000D8E001204340AB4200D1A6E06046351A43
:10290000002D00DC05E1002810D10B00134300D19D
:10291000D7E06B1E002B00D04BE153469F1ABA45FF
:102920008041641A4042241A01261EE0B34B9E42A5
:1029300048D080231B041943382D00DD19E11F2DD9
:1029400000DD4CE120230F005B1B10009A409F40EC
:10295000E840531E9A41E940074317435346DF1BA3
:10296000611ABA45A44164420C1B230200D4C5E09D
:102970006402650A002D00D1F6E0280000F00AFC90
:102980000300083B1F2B00DDE9E020223C00D21AA7
:102990009D40D4409F4025439E4200DDDBE09E1BCE
:1029A000731C1F2B00DD0AE120223800D21A2900F7
:1029B00097402C009140D8407A1E9741DC40002679
:1029C00001430F437B0709D00F233B40042B05D065
:1029D0003B1DBB42BF417F42E4191F00230225D5A6
:1029E000864B01369E4200D1AFE0854B01251C404D
:1029F00043466207FF08640276051743240B760DF1
:102A00001D4000212403230B0C0D7E4A24051C438A
:102A10001440330523435B00ED075B082B4338006C
:102A200019001CBC90469946A246F0BD01254346BC
:102A30006207FF081743E4081D40704B9E4236D0E2
:102A400024037605240B760DDBE76346F31A002B8F
:102A500000DC94E06046002835D068488642B1D05A
:102A600080273F043943382B00DCFDE00A43170080
:102A700000217A1E97415744574580410919444225
:102A80000C1923023AD55D4B01369E4200D14BE131
:102A900001225B4B1C407B0817401F43E207174392
:102AA00064088FE70800104300D024E721E72300E3
:102AB0003B4300D1B9E18022120314432403240BC9
:102AC0009FE72E007EE70800104300D1CAE0581EA1
:102AD0008446002800D0E7E0524452458041641803
:102AE0004042241817000126230207D50226CFE70B
:102AF00064462C4300D1B3E12C0067467B0700D02D
:102B000062E76307FF081F4301254346E4081D40B1
:102B100093E7002D78D1751C6D056D0D012D00DC3E
:102B2000F2E05046801A8245BF41651A7F42ED1B94
:102B30008446280200D48CE05046171ABA429241CB
:102B40000C1B5542651B984614E70125434600249B
:102B50001D40002755E72A4CF61A2C4032E73D006D
:102B600028388540002717E7380000F013FB203095
:102B700006E70A43170000217A1E9741EEE6002B74
:102B800000D0E5E0731C9C465B055B0D012B00DC6F
:102B90009FE01A4B9C4500D1C5E05244524580410C
:102BA000641840422418E707520817436408664631
:102BB00008E71248854200D185E01D00BCE62900E7
:102BC0001F3EF140202B00D17FE04022D31A9D40D0
:102BD0002F437D1EAF4100240F4300268EE72B00BC
:102BE0000F00203BDF40202D71D040235D1BA9400A
:102BF0000A43511E8A4100211743AFE6FF07000038
:102C0000FFFF7FFFFFFF0F80002E3ED0B34EB44585
:102C100045D0802636046D423443382D00DDA8E0CF
:102C20001F2D00DD1FE1202627005046761BB740F0
:102C3000E84007435046B040461EB041EC403843A0
:102C4000171ABA4292410C1B5242A41A6646984681
:102C50008BE6644667462C4300D08BE600250026B1
:102C60000027EAE61E00ADE61F2B60DC2027F81ADD
:102C70000F00844687401000D840074360468240DA
:102C8000501E8241D9401743F5E6260050460643C0
:102C900005D0ED43002DD3D0904EB445BDD10C00EE
:102CA0001700664698468DE68C4883420BD06346F3
:102CB000D9E6002D00D096E00800104300D1E2E0F4
:102CC0000C0017009846854E7CE6002580E7002121
:102CD0008EE7230050460343002E00D0A8E0002BCF
:102CE00000D1DEE00B00134300D16BE652445245A5
:102CF00080416418404224181700230200D4FDE6E6
:102D0000774B66461C405DE6250050460543002E85
:102D1000CFD1002D4FD10C00144300D1A0E00C0006
:102D2000170098464EE666460024002785E61F00F9
:102D30000800203FF8400700202B00D18EE0402003
:102D4000C31A99400A43511E8A410021174392E653
:102D5000002E14D126005046064362D0DB43002BE0
:102D60005CD187189742924164185242A418664673
:102D700087E650462043441EA041002460E7574E9A
:102D8000B4454ED0802636045B423443382B00DDF8
:102D90007FE01F2B00DD8BE0202627005046F61A2F
:102DA000B740D84007435046B040461EB0410743A5
:102DB000DC40BF18D6E70D00154300D102E65046AF
:102DC000801A8245BF41651A7F42ED1B8446280266
:102DD00000D48DE65046171ABA4292410C1B52425B
:102DE000A41A9846EEE50D00154300D16BE7504656
:102DF0006707C00807438020E4080003044207D0A7
:102E0000CD08054204D12C009846D70849070F4346
:102E10007B0FE4001C43FF00304ED3E52F4EB4453A
:102E2000B4D10C0017006646CCE500270024E8E585
:102E3000002B39D00B00134300D144E7C0086707CB
:102E400007438020E40800030442E1D0CB0803429A
:102E5000DED1D70849070F431C00D9E7002171E7ED
:102E600000250027E9E52E002700203EF740202D11
:102E70002FD04026751BAC4050462043441EA04135
:102E800000243843DCE6802400252403134E002769
:102E9000D3E5504620430700781E87410024BF1821
:102EA00060E70C0017008DE50C0017000B4E89E55C
:102EB0001E002700203EF740202B0CD04026F31A9E
:102EC0009C4050462043441EA04107430024BF18A5
:102ED00048E70024D0E70024F3E7C046FF070000DE
:102EE000FFFF7FFF70B50E4E0D031C0349005B0012
:102EF0002D0B490D240B5B0DB14204D00849002075
:102F00008B4208D070BD05430120002DFAD1044941
:102F100000208B42F6D114432000441EA041F1E76B
:102F2000FF07000030B5134D0A034B00120B5B0D79
:102F3000C90F0024AB4210DD0F4CA3420FDC8024EC
:102F40000E4D64032243ED1A1F2D0BDD0C48C31AEE
:102F5000DA405442002900D11400200030BD094B52
:102F6000CC18FAE7084CE840A44663449A40024370
:102F7000EFE7C046FE0300001D040000330400001C
:102F800013040000FFFFFF7FEDFBFFFF70B500287B
:102F900030D0C317C4185C40C50F200000F0FAF809
:102FA000174B184A1B1AD21A1F2A18DD164AD21AB2
:102FB0009440002224035B05240B5B0D00211000CC
:102FC00024030A0D240B12052243104C1B0522403A
:102FD00013435B00ED075B082B43190070BD210014
:102FE00091400A000B21081AC4405B052403240BFE
:102FF0005B0DE3E70025002300240022DEE7C04646
:103000001E0400003304000013040000FFFF0F80C3
:1030100010B5041E28D000F0BDF8154B154A1B1A38
:10302000D21A1F2A15DD144AD21A94400022240312
:103030005B05240B5B0D0021100024030A0D240BFB
:10304000120522430D4C1B05224013435B00590817
:1030500010BD210091400A000B21081AC4405B05F5
:103060002403240B5B0DE6E7002300240022E2E7A3
:103070001E0400003304000013040000FFFF0F8053
:10308000F0B54C00640D0B03621C450F5B0A520542
:103090002B43C90FC500520D012A28DD3A4AA61854
:1030A000FE2E1BDC002E3EDD80010200501E824100
:1030B0006D0F2A43DB0013435A0704D00F221A4036
:1030C000042A00D004338022D2041A405AD0013698
:1030D000FF2E03D09B015B0AF4B201E0FF24002322
:1030E0005802E405400AC90720430843F0BD002CFC
:1030F00007D01D43F2D08020DB0080040343FF266D
:10310000DAE72B4303D00523DB08FF2C03D05B0257
:103110005B0AE4B2E4E7002B32D08020C003034313
:103120005B025B0ADCE73200173214DB80221E27C9
:1031300012041343BF1B1F2F0FDC144A9446644430
:103140002A00A5402E00A340751EAE41FA4033432D
:1031500013430026B0E70024D5E702225242961B13
:103160001A00F240202F09D0094884466444A34045
:103170002B435D1EAB41002613439DE70023F7E779
:103180000023ADE73400BFE780FCFFFF82FCFFFFB8
:10319000A2FCFFFF1C2101231B04984201D3000C59
:1031A00010391B0A984201D3000A08391B099842BA
:1031B00001D30009043902A2105C40187047C046D0
:1031C00004030202010101010000000000000000F0
:1031D00010B5002903D1FFF7DDFF203002E0081C05
:1031E000FFF7D8FF10BDC046FA210A4B70B5890021
:1031F00005001868FCF7A4FF00F0B4FC04000120EF
:10320000002C05D102382200290000F05FFC2000CC
:1032100070BDC046080000200223084A10B511689E
:1032200000200B431360FFF7DFFF041E03D104F0FF
:103230006BFB200010BD0124FBE7C04600200240CC
:10324000024A1368013313607047C0463002002001
:10325000014B18687047C0463002002070B504006A
:10326000FFF7F6FF631C5A1E93410500E418FFF7B1
:10327000EFFF401B8442FAD870BD0000084B13B525
:10328000040008491868FCF75BFF44430194019B64
:10329000002B00D113BD019B013B0193F7E7C04612
:1032A0000800002040420F000321036870B59A68AF
:1032B00004000A40012A0DD1196811420AD00020E9
:1032C00070BD10230120626D13436365A36D03433A
:1032D000A365F5E799680F4A1142F2D101259A6872
:1032E00028002A439A60FFF7C9FFFFF7B1FF0600E5
:1032F00023681B682B42E2D1FFF7AAFF801B0A2834
:10330000F6D91023626D012013436365A36D1D433D
:10331000A565D5E717000080F7B504000120002C53
:1033200000D1D1E0694B22689A4204D0CE2168488E
:10333000490003F0E0FE6268664B134016D080201F
:1033400051004908C005814210D0802109068A42F7
:103350000CD080225203934208D0802292039342E1
:1033600004D09E215A48FF3103F0C5FE1823A268FD
:103370009A4304D0CF215648490003F0BCFE2023D5
:10338000E2689A4304D0A0215148FF3103F0B3FE14
:103390002369013B012B04D9D0214D48490003F09A
:1033A000AAFE661CF37F012B04D9A2214848FF31F5
:1033B00003F0A1FEA31C0193DB7F012B04D9D121D3
:1033C0004348490003F097FE434BA26A1A4204D0D7
:1033D000A4213F48FF3103F08EFE636A40221900AA
:1033E00018009143803290430FD0802252009142C6
:1033F0000BD08032934208D0C13BFF3B012B04D954
:10340000D2213348490003F076FE23002C331B7889
:10341000012B04D9A6212E48FF3103F06CFE0422B3
:103420006369043B934304D0D3212948490003F046
:1034300062FE2A4B226B1A4204D0A8212448FF3195
:1034400003F059FEA369012B04D9D4212048490077
:1034500003F051FE636B012B04D9AA211C48FF31F4
:1034600003F049FEE369012B04D9D521184849002E
:1034700003F041FEA36B072B04D9AC211448FF31A4
:1034800003F039FEE36B012B04D9D6211048490023
:1034900003F031FE636D002B06D122005032A3658C
:1034A0002000137004F03EFA636DDB0604D404239D
:1034B00022689168194013D01023626D01201343D4
:1034C0006365002350342370FEBDC04600240140D4
:1034D00048A50008FFFFF3FFFFF3FFFFFFEFFFFF2B
:1034E000636D6A48184002230343636503239068B1
:1034F0001840674B012802D1176807421AD180256E
:103500006768ED0578004008A84204D080200006D6
:10351000874200D09EE01069800080081061106929
:10352000074317611827D068A568B843D060D068F2
:103530002843D0601A68574802401A60626B1868C6
:10354000520602431A60802322685B059068184285
:1035500002D1906803439360D3684F4803402069C9
:10356000D360D768E368022800D10421256BF07F7F
:103570002B43A5693B43AE03E5693343EE03334375
:103580004603334326002C363678760033430B430C
:10359000C221D360636AFF318B4204D0A56AD1682F
:1035A0002B430B43D360A31CDB7F012B06D10028E8
:1035B0005CD18023D1685B020B43D360E36B012BAA
:1035C0005CD1216C1C2905D8344ACA409343DBB234
:1035D000002B04D093213248890003F08CFD636CEA
:1035E00060221900914309D0802907D0802252001F
:1035F000934203D02B492A4803F07DFD2A4BA26C4D
:103600001A4203D02949264803F075FD226828494B
:103610001369606C0B401361236C11690343A06C48
:1036200003430B431361012311690B43136107210A
:10363000236800205A698A435A615A69A16B0A4378
:103640005A610322A065636D93431A00012313435B
:10365000636539E71069174D8000800810611868AC
:1036600028401860186807431F605BE72021606DE1
:1036700001436165A16D0B43A3659FE701211369B8
:103680000B42D4D013698B43D0E7C046FDFEFFFF49
:1036900008270140FFFFFFFD1902FEFF1111111164
:1036A00048A500084D020000FFFDFFFF4E0200008C
:1036B00003FCFFFFFFFFC3FFF7B5244B0192026835
:1036C00004000F009A4203D02149224803F013FD61
:1036D000236802209B685B0730D42600503633787D
:1036E000012B2BD001233370E369012B27D1636DAC
:1036F000194A00251A4080235B0013436365E06C80
:10370000164BA5653570C362154B21680363154BD5
:1037100043631C230B604A680C3B13434B6001233B
:10372000CA681343CB603A004031019B00F0F8FABD
:1037300004232800226891680B439360FEBD20009B
:10374000FFF7B2FD0028F9D1D1E7C04600240140BF
:10375000D905000048A50008FEF0FFFF6D370008FE
:10376000DF370008ED370008704700005022836AF9
:1037700010B5596D11422BD1596DB132FF320A4348
:10378000C0215A651A680901D068084213D1591C32
:10379000C97F00290FD1116809070CD59168490725
:1037A0000DD40C205168814351605A6D0A49114073
:1037B00001220A435A651800FFF7D6FF10BD2022E8
:1037C000596D0A435A650122996D0A439A65F2E7D9
:1037D000DB6C5B6B9847F1E7FEFEFFFF704710B5AF
:1037E000806AFFF7FBFF10BD704770474023806A77
:1037F00010B5426D134343650423826D1343836503
:10380000FFF7F3FF10BD0000444B026870B50400E1
:103810009A4203D04249434803F06DFC651CEB7F9C
:10382000012B03D940493F4803F065FC042263693A
:10383000043B934303D03D493A4803F05CFC042227
:1038400023681968114202D05968114206D1082232
:10385000196811422BD05968114228D0626DD206E6
:1038600004D48022616D92000A436265C022D96847
:103870001201114212D1EA7F002A0FD11A681207F1
:103880000CD59A6852073FD40C215A688A435A6073
:10389000636D274A1A400123134363652000FFF735
:1038A00063FFA369012B02D00C2223681A608025D4
:1038B00023681A682A420CD05B682B4209D0802307
:1038C000626D5B02134363652000FFF78DFF236881
:1038D0001D60102223681968114214D059681142E2
:1038E00011D0226B002A02D0DA68D20708D5022252
:1038F000A16D20000A43A26510221A60FFF775FF30
:10390000102223681A6070BD2023626D1343636523
:103910000123A26D1343A365C0E7C0460024014004
:103920009406000048A500089506000096060000D1
:10393000FEFEFFFF4B4B026870B505000C009A427B
:1039400003D04949494803F0D6FB2368012B36D000
:10395000474A934233D0474A934230D0464A934233
:103960002DD0464A93422AD0454A934227D0454A11
:10397000934224D0444A934221D0444A93421ED0D9
:10398000434A93421BD0434A934218D0424A93423F
:1039900015D0424A934212D0414A93420FD0414A35
:1039A00093420CD0404A934209D0404A934206D0F9
:1039B0003F4A934203D03F492C4803F09CFB636885
:1039C0003D4A9B18012B04D9F0212848C90003F077
:1039D00092FB2E00503633780220012B0BD02A6840
:1039E0000138936830705B0706D520236A6D134356
:1039F0006B650023337070BD802030496568236893
:103A0000C0028D421BD0956A5903490B294391622C
:103A1000034208D080232A4A1B0411680A200B4362
:103A20001360FFF72BFC23689B0305D58023244AF2
:103A3000DB0311680B43136000203070DBE7916AF1
:103A40005C03640BA1439162034204D01C491D48EE
:103A50000A6802400A609B03EED5194A1A491368A6
:103A60000B40E8E7002401407E07000048A500085D
:103A700002000004040000080800000C1000001000
:103A800020000014400000188000001C00010020ED
:103A900000020024000400280008002C0010003060
:103AA00000200034004000380080003C0000044842
:103AB000000002447F07000000F0FFFF011000003B
:103AC00008270140FFFF7FFFFFFFBFFF70B5040025
:103AD0000D00032903D98721164803F00CFBA90127
:103AE000002C14DA0F23E4B22340083B124A9B084F
:103AF0009B009B18032214409440FC3215000A409E
:103B0000A540A240D869A8430243DA6170BD0325ED
:103B1000A3082C40AC40FC352E00084A9B009B18A3
:103B2000C022A6402940A14092009858B0430143CA
:103B30009950EBE780A5000800ED00E000E100E00F
:103B400010B5041E03DA9721044803F0D4FA1F23AA
:103B50001C401E3BA340024A136010BD80A5000814
:103B600000E100E0094A431E012093420DD8C02124
:103B7000074A08485360036A09061B021B0A0B43E5
:103B8000036200200723906013607047FFFFFF006F
:103B900010E000E000ED00E0F8B504000120002C8A
:103BA00000D19EE023684F4A934215D04E4A93427B
:103BB00012D04E4A93420FD04D4A93420CD04D4AF8
:103BC000934209D04C4A934206D04C4A934203D0C8
:103BD00096214B4803F08FFA63680A2B06D90C3BF9
:103BE000032B03D99721464803F085FAA3681022D6
:103BF0001900914307D08022D201934203D098212B
:103C00003F4803F078FA4023E2689A4303D09921B1
:103C10003B4803F070FA802322699A4303D09A212B
:103C2000374803F068FA6369364A134207D08022A6
:103C30009200934203D09B21314803F05CFAA369C0
:103C4000314A134207D080221201934203D09C21B3
:103C50002B4803F050FA2023E2699A4303D09D21B8
:103C6000274803F048FA294B226A1A4203D09E21C2
:103C7000234803F040FA2568254B1421E818FCF787
:103C80005FFA244B800023640223A21D6064D37773
:103C90002E68214BA1681E40E36827690B433B4314
:103CA00067693B43A7693B43E7693B43276A3B435B
:103CB00033432B608023DB0199420CD01C25284024
:103CC0000D3D854015490B68AB430B6063680D687B
:103CD00083402B430B6000200123E0630534D3773E
:103CE000E077F8BD080002401C00024030000240AE
:103CF00044000240580002406C0002408000024034
:103D0000BBA50008FFFEFFFFFFFBFFFFFFCFFFFF8C
:103D1000F8FFFDBF000002400F80FFFFA800024037
:103D2000F7B515001F005A1E234B04000E009A42DF
:103D300004D9AB212148490003F0DDF9631DDA7F86
:103D40000220012A2AD00122DA77A21D9446D27FCE
:103D50000021D2B2012A2CD16346D8772368E163CF
:103D600019681A3091431960216C0191616C084007
:103D7000824001994A60A2685F602168102A0ED1D2
:103D80009D60DE60226B002A0CD00E221868024370
:103D90001A60012300200A6813430B60FEBD9E6079
:103DA000DD60EFE704201A6882431A6018680A226F
:103DB000EDE7D977F2E7C046FEFF0000BBA500089B
:103DC00070B5841DE37F022B04D00423C363033B3F
:103DD000180070BD0E210368456C1A688A431A608A
:103DE00001221968914319601C232B4015009D4046
:103DF000016C431D4D60E2770024826BDC77130079
:103E0000A242E5D090472300E2E7F8B51C22042740
:103E1000466C016C32403E0096400D6803681C6899
:103E20002E420DD03C420BD01A68920602D41A687A
:103E3000BA431A60036B4E60002B19D0984717E005
:103E400002273E0096402E4213D03C4211D01A6801
:103E5000920606D40A241A68A2431A600122831D1E
:103E6000DA770022431D4E60DA77C36A9342E5D1C8
:103E7000F8BD0826370097403D42F9D03442F7D0CC
:103E80000E251C68AC431C6001231C009440821D5D
:103E90004C60C363D3770022431DDA77436BE5E7B9
:103EA0004B68F7B504000D00032B12D91A00113A24
:103EB000012A0ED9854A86491A40521885490A4274
:103EC00007D0854A9B180B4203D0AE21834803F0EC
:103ED00012F9AB68022B03D9AF21804803F00BF92C
:103EE000A023DB059C420BD07D4B9C4208D07D4B30
:103EF0009C4205D07C4B9C4202D07C4B9C4207D11B
:103F00002B689AB2002A03D0794A134393420DD00A
:103F1000784B9C4206D12B68774A134202D0134358
:103F2000934203D0B0216D4803F0E5F800272B68D9
:103F30001A00FA4000D1F7BD0122BA4001921A409E
:103F4000009200D1C0E010226B689343022B2CD169
:103F5000A023DB059C4212D0614B9C420FD0614BE9
:103F60009C420CD0604B9C4209D0604B9C4206D0D6
:103F7000604B9C4203D0BF21584803F0BCF82B692A
:103F8000072B03D9C021554803F0B5F807220F20AD
:103F90003A4092009040FB089B00E318196A814365
:103FA0002869904002000A431A6210226B687E0062
:103FB0009343013B012B19D8EB68032B03D9CE2186
:103FC000464803F098F80322B240A36801219343C6
:103FD0001A00EB68B3401343A3606268019B9A43E5
:103FE0006B681B090B40BB401343636003239C4673
:103FF000B34061466A68DB431140B1402068184015
:1040000001432160E1681940AB68B3400B43E360B2
:10401000D30059D5012039490F264B6B0343604625
:104020003840800086404B63354BB9088900C91879
:104030008B68B343A0260193F6050023B44214D045
:10404000274E0133B44210D0264E0133B4420CD077
:10405000254E6346B44208D0244E0133B44204D006
:10406000284BE3185E1EB341053383400198034398
:104070008B602549009B0E68D84333439C46D3038D
:1040800002D4330003409C4663460B604E68009B9D
:1040900033439C46930302D4330003409C4663465B
:1040A0004B608E68009B33439C46D30202D433009E
:1040B00003409C4663468B60CE68009B334392026C
:1040C00001D433000340CB60013730E7FFFFDFFF4F
:1040D0000000EFEFFFFFFEFF0000DFEFF3A5000899
:1040E0000004005000080050000C00500010005068
:1040F000FFFF0000001C00500306000000100240FB
:104100000000014000E4FFAF00040140A02370B5AF
:10411000DB0504000D00160098420BD0154B9842A9
:1041200008D0154B984205D0144B984202D0144B3E
:1041300098420AD1002D12D0012E16D99E21114885
:10414000FF3102F0D8FFA56170BD0F4B984206D138
:104150000E4B194203D01A000A439A42ECD0CE21EA
:104160000848490002F0C7FFE6E7002EEBD1A56240
:10417000EAE7C0460004005000080050000C005060
:1041800000100050F3A50008001C005003060000BA
:1041900003689A69920701D500229A6201229969FF
:1041A000114202D199690A439A617047F7B51E001E
:1041B000019203681D4A07000C00089D934209D034
:1041C0001B4A934206D01B4A934203D01A491B480C
:1041D00002F091FF80239B049E4206D0184B1E42A2
:1041E00003D01849154802F086FF174B9D420AD0AC
:1041F000164B174A2B40934205D0002D03D015498A
:104200000E4802F078FF0199A405A40D26430C0482
:1042100080213A682E43C9006D0D0D400E49536848
:104220000D43AB4326431E435660F7BD0054004088
:104230000058004000780040AC1800002CA6000890
:10424000FFFFFFFEAD18000000400080FFFBFFFFF6
:1042500000200080AE180000FF63FF03F8B50400E3
:104260000E0017001D002268936933409B1B5942C2
:104270004B41BB4201D0002017E06B1CF4D0FEF78D
:10428000E7FF069BC01A854201D3002DEBD1202207
:10429000636C012013436364230041331A702200CE
:1042A00000234232403413702370F8BDF8B5036820
:1042B0000400986910230E001700184020250028DC
:1042C00018D1F8BD721C16D0FEF7C2FFC01B864283
:1042D00001D3002E0ED12022636C134363642300AC
:1042E00041331A70220000234232403413700120FF
:1042F0002370E6E723689A692A42E3D0102220005F
:10430000DA61DD61FFF744FF2268064953680B401C
:1043100053600423626C13436364230041331D70B4
:10432000E0E7C04600E800FEF8B504000D00160006
:10433000022723689B693B4201D00020F8BD320070
:1043400029002000FFF7B2FF002815D16B1CF0D028
:10435000FEF77EFF801B854201D3002DE9D120228C
:10436000636C13436364230041331A7022000023FB
:1043700042324034137023700120DFE773B514001C
:104380001E00DAB2154B0500009380235B04FFF793
:104390000DFF079A06992800FFF7C6FF002801D0F5
:1043A000012076BD2B68012E0DD1E4B29C62079BE3
:1043B000002200938021069B2800FFF74FFF431E39
:1043C0009841C0B2EDE7220A9A620699079A28003E
:1043D000FFF7AAFF0028E3D12B68E6E70020008062
:1043E00073B5050014001E00DAB2154B00930023CC
:1043F000FFF7DCFE079A06992800FFF795FF0028D3
:1044000001D0012076BD2B68012E0DD1E4B29C6253
:10441000079B002200934021069B2800FFF71EFF08
:10442000431E9841C0B2EDE7220A9A620699079AA4
:104430002800FFF779FF0028E3D12B68E6E7C046A4
:1044400000200080F8B504000D0016002027236826
:104450009B693B4201D00020F8BD320029002000BA
:10446000FFF724FF002813D1FEF7F2FE801B8542E0
:1044700001D3002DEBD12022636C1343636423002E
:1044800041331A70220000234232403413702370EB
:104490000120E1E770B504000120002C00D18AE082
:1044A00023684A4A93420AD0494A934207D0494A6C
:1044B000934204D0EF214848490002F01CFE474BCC
:1044C000A2689A4204D9E0214348FF3102F013FE6A
:1044D000E368013B012B04D9F0213F48490002F079
:1044E0000AFE3F4E2369334204D0E2213A48FF31AD
:1044F00002F001FE6369FF2B04D9F121364849001F
:1045000002F0F9FDA369072B04D9E4213248FF31F9
:1045100002F0F1FD334BE2691A4204D0F2212E4839
:10452000490002F0E8FD304B226A1A4204D0E6212D
:104530002948FF3102F0DFFD250041352B78DBB241
:10454000002B05D1220040321370200003F03AFA0C
:10455000242301212B702368A0681A688A431A60FB
:104560006168224A0A401A619A68E16832409A609A
:10457000012921D18022120202439A6059681C4A03
:1045800000200A435A60DA68616916402269DE60D9
:104590000A43A16909020A43DA60216AE2690A430F
:1045A0001A60012219680A431A60202360642B7084
:1045B00020634234207070BD8422120202439A604C
:1045C0000229DBD1802212015A60D7E70054004053
:1045D00000580040007800402CA60008FF030000AF
:1045E000FF7FFFFFFFFFF7FFFFFFFDFFFFFFFFF074
:1045F00000800002F0B589B003930EAB079204CBA4
:1046000004001B880D000593039B0492013B012BC2
:1046100003D95949594802F06EFD230041330693EE
:104620001B780220202B09D1049B002B02D0059B74
:10463000002B05D180239B006364012009B0F0BDED
:104640002300403302931B78012BF7D00122029BF9
:104650001A70FEF7FDFD802100900700192301224A
:1046600009022000FFF7FAFD061EE6D12123069A73
:10467000290013702300423306934023069A1370D7
:10468000049B606463626B469B8A60636385109BD6
:1046900001970093079A039B2000FFF76FFE002805
:1046A00002D0029B1E70C8E7638DFF2B54D9FF22F6
:1046B000802322855B040090290020008026FFF7DC
:1046C00075FDB6043A0010992000FFF72DFE002872
:1046D000B3D1636A22681978013391626362638D92
:1046E000228D013B9BB26385013A638D92B2228594
:1046F000002B17D0002A15D10097109B8021200095
:10470000FFF7ACFD002800D097E7638DFF2B2BD976
:10471000FF2323858023FF2200905B0429002000D3
:10472000FFF744FD638D002BCCD13A001099200097
:10473000FFF788FE002800D07FE720212368104D76
:10474000D9615A682A405A60230041331970069B88
:1047500040341870207071E78023628D9B0492B200
:104760002285D2B20090A7E7628D330092B22285F3
:10477000D2B20090D2E7C046ED0800002CA6000897
:1047800000E800FEF0B589B003930EAB079204CBAE
:1047900004001B880D000593039B0492013B012B31
:1047A00003D95B495B4802F0A6FC23004133069322
:1047B0001B780220202B09D1049B002B02D0059BE3
:1047C000002B05D180239B006364012009B0F0BD5C
:1047D0002300403302931B78012BF7D00122029B68
:1047E0001A70FEF735FD8021009007001923012281
:1047F00009022000FFF732FD061EE6D12223069AA9
:10480000290013702300423306934023069A137045
:10481000049B606463626B469B8A60636385109B44
:1048200001970093079A039B2000FFF7D9FD00280A
:1048300002D0029B1E70C8E7628D374BFF2A57D902
:10484000FF222285009380235B042900200080261C
:10485000FFF7ACFCB6040097109B00220421200057
:10486000FFF7FCFC0028B0D12368626A5B6A137012
:10487000636A228D01336362638D013A013B9BB20F
:104880006385638D92B22285002B17D0002A15D143
:104890000097109B80212000FFF7E0FC002800D04B
:1048A00093E7638DFF2B2BD9FF2323858023FF22E2
:1048B00000905B0429002000FFF778FC638D002B3B
:1048C000C9D13A0010992000FFF7BCFD002800D0A4
:1048D0007BE720212368114DD9615A682A405A602C
:1048E000230041331970069B4034187020706DE727
:1048F000628D92B2228500938023D2B29B04A4E7FA
:10490000628D330092B22285D2B20090D2E7C046C7
:10491000740900002CA600080024008000E800FEB6
:10492000F8B51D4A036806000C00934209D01B4AE3
:10493000934206D01A4A934203D06421194802F0E8
:10494000DAFB194D2C4203D06521164802F0D3FB47
:1049500041239C46B44463461A780220D2B2202AEE
:1049600019D1370040373B78012B14D024236146FE
:104970000B70012133681868884318601868054077
:104980001D60186804431C6018680143196000200A
:1049900063461A703870F8BD00540040005800405B
:1049A0000078004064A60008FFEFFFFFF8B51B4A3F
:1049B000036805000C00934209D0194A934206D0BF
:1049C000184A934203D09221174802F094FB0F2C0F
:1049D00003D99321144802F08EFB2E004136327821
:1049E0000220D2B2202A17D1290040310B78012BA6
:1049F00012D0242333702B6801381D680B4F854378
:104A00001D601D6824023D402C431C601C6820432F
:104A10001860002032700870F8BDC0460054004095
:104A2000005800400078004064A60008FFF0FFFF37
:104A30000C22184B10B5D9680A40082A26D00C2A37
:104A400006D0042A1AD11B68DB0621D4124810BDF7
:104A50008A021248120F825C0902D868890F01315C
:104A6000C00304D50E485043FBF76AFBEFE71B6811
:104A7000DB0601D50B48F6E70748F4E780205B68C2
:104A800000021B045B0F01339840E0E70448DEE7B7
:104A90000448DCE7001002400024F400E8A8000805
:104AA00000127A0000093D00F0B5050087B000282B
:104AB00002D1012007B0F0BD0368002B06D09B0691
:104AC00004D1B021C748490002F015FB0C23802710
:104AD000C54C7F02E2681A40E36801921F402B68D0
:104AE000DB0764D42B689B0700D5C0E02B68DB068E
:104AF00043D5019B002B00D02DE123689B0502D5F7
:104B0000EB69002BD5D02B6AFF2B04D98021B54847
:104B1000890002F0F0FA6B6AB44AB5491A400B42B8
:104B20000BD0802109028A4207D0C0221202934290
:104B300003D0B049AB4802F0DEFA6268AE496B6A56
:104B40000A401A43626061682A6A0902090A120669
:104B50000A43626080225B0B013312029A40130009
:104B6000E16800200A06A549120F8A5CD340A44AD6
:104B70001360FEF739FB00289CD12B681B0700D57A
:104B80005BE12B685B0700D584E12B689B0600D5B1
:104B9000FDE1AB6A022B04D9BA219248890002F0E8
:104BA000AAFAAB6A002B00D02BE2002082E76B68E8
:104BB000944E334208D0A022D202934204D06A21FC
:104BC0008848FF3102F097FA019B082B03D00C2B89
:104BD00008D1002F06D023689B0383D56B68002B78
:104BE00080D166E780216B6849028B4214D122682C
:104BF00013432360FEF72CFB0600802223689202F9
:104C0000134200D06EE7FEF723FBFA23801B9B00C4
:104C10009842F2D903204DE7A022D202934208D154
:104C200080232268DB021343236022680A43226048
:104C3000E0E722681640266022680A400592059A3D
:104C4000714922680A402260002BD3D1FEF700FB95
:104C50000600802223689202134200D142E7FEF749
:104C6000F7FAFA23801B9B009842F2D9D2E720235F
:104C7000EA689A43012A06D9092A04D0CE21594864
:104C8000490002F038FA2B691F2B04D99E215548A0
:104C9000FF3102F030FA2022EB68134203D0216882
:104CA000934311432160019A042A03D00C2A24D192
:104CB000002F22D12268520702D5002B00D1F8E63E
:104CC00061682A695148120201400A430921626061
:104CD00022688A4313432360FFF7AAFEE368474A2A
:104CE0001B061B0FD35CD840454B18600020FEF715
:104CF0007BFA002800D1F9E6DCE6002B19D0092167
:104D0000226804278A4313432360FEF7A1FA0600B2
:104D100023683B4207D062682B693C491B020A406A
:104D200013436360E2E6FEF793FA801B0228EFD993
:104D300070E701222368042793432360FEF788FA73
:104D4000060023683B4200D1D0E6FEF781FA801BC3
:104D50000228F6D95EE7EB69012B04D986212148A8
:104D6000890002F0C8F9EB69002B53D08023226838
:104D70005B0013432360FEF76BFA80270600BF0039
:104D800023683B4227D02B6AFF2B04D98B2115487F
:104D9000890002F0B0F96B6A144A15491A400B42B7
:104DA0000BD0802109028A4207D0C022120293420E
:104DB00003D017490B4802F09EF963680E4A13406E
:104DC0006A6A1343636062682B6A12021B06120A46
:104DD00013436360D1E6FEF73BFA801B0228CFD96C
:104DE00018E7C0469FA6000800100240FFDFFFFF43
:104DF000FF9FFFFF01020000FF1FFFFFD0A8000878
:104E000008000020FFFFFEFFFFFFFBFFFFE0FFFFAA
:104E10002D0200002368C04A802713402360FEF75C
:104E200017FA0600BF0023683B4200D1A5E6FEF753
:104E30000FFA801B0228F6D9ECE66B69012B03D927
:104E4000B649B74802F057F96A690123002A10D021
:104E5000226D022713432365FEF7FAF90600236D3E
:104E60003B4200D08DE6FEF7F3F9801B0228F6D90D
:104E7000D0E6226D02279A432265FEF7E9F9060083
:104E8000236D3B4200D17CE6FEF7E2F9801B02284D
:104E9000F6D9BFE6AB68A04A134207D0A022D200E1
:104EA000934203D09F499E4802F025F980230021B8
:104EB000A26B5B0502911A4204D1A26B1343A36358
:104EC000012302938027984E7F0033683B4208D02D
:104ED0008022AB685200934213D1226D13432365A5
:104EE00034E033683B433360FEF7B2F90390336834
:104EF0003B42EDD1FEF7ACF9039BC01A6428F6D90A
:104F000088E6002B16D1236D834A80271340236542
:104F1000236D864ABF0013402365FEF799F906000A
:104F2000236D3B422AD0FEF793F9814B801B9842B8
:104F3000F6D96FE6A021C9008B420DD18023216DE7
:104F4000DB000B432365236D1A432265FEF780F9CE
:104F500080270600BF000EE0236D6F4A13402365D3
:104F6000236D724A1340BAE7FEF772F9704B801B4B
:104F7000984200D94EE6236D3B42F5D0029B012BAF
:104F800000D002E6A36B6B4A1340A363FDE5AB6957
:104F9000012B03D96849624802F0ADF8A9690123E1
:104FA000664A002918D0A16802271943A160616BE5
:104FB0000B4363638023116A9B010B431362FEF76B
:104FC00047F90600A3683B4200D0E2E5FEF740F94E
:104FD000801B0228F6D91DE6A16802279943A1602B
:104FE000136A57490B401362FEF732F90600A368B3
:104FF0003B4200D1CDE5FEF72BF9801B0228F6D904
:1050000008E6019A0C2A6AD04E4E022B55D14E4B1F
:10501000EA6A1A4203D04D49414802F06CF82A6B03
:105020004B4B13400BD0802149038B4207D0802388
:105030009B039A4203D04749394802F05CF880212B
:105040006A6B454BC90313408B4207D080231B0476
:105050009A4203D04149324802F04DF823681E407D
:105060002660FEF7F5F880260700B6042368334271
:105070001DD1296BEB6AE2680B4339490A4013439F
:105080006A6B80251343E360802322685B0413432B
:105090002360FEF7DDF80600AD0423682B4200D044
:1050A00083E5FEF7D5F8801B0228F6D9B2E5FEF7B6
:1050B000CFF8C01B0228D9D9ACE5236880251E4053
:1050C0002660FEF7C5F80600AD0423682B4200D128
:1050D0006BE5FEF7BDF8801B0228F6D99AE51800AB
:1050E000012B00D1E6E48022E368E96A52021A400B
:1050F00001208A4200D0DDE4F022296B92031A409D
:105100008A4200D0D6E4C02000040340686B181A1D
:10511000431E9841C0B2CDE4FFFEFFFF4B020000EA
:105120009FA600087702000000700040FFFBFFFF11
:1051300088130000FFFFFFEFBE02000000000140E7
:10514000FFDFFFFFFFFFFFFEFFFFFEFFF10200009A
:10515000FFFFF3FFF2020000FFFF7FFFF3020000FA
:10516000FFFF02FFF7B504000F00002801D1012066
:10517000FEBD03681B0703D17C497D4801F0BBFFDE
:10518000012F03D97B497A4801F0B5FF01227A4DFE
:105190002B6813409F423AD823689B0740D423686A
:1051A000DB075FD401232A681A40974200D2BBE094
:1051B0002368724D5B0700D5BEE023681B0718D536
:1051C00023696F4A13420DD0A0216E4AC9001A40CC
:1051D0008A4207D0C022D200934203D06A49644871
:1051E00001F089FFEA6823696849DB000A4013433C
:1051F000EB60FFF71DFCEB68654A1B061B0FD35CD9
:10520000D840644B18600020FDF7EEFFB0E72B6834
:1052100093433B432B602B6813409F42A7D1BBE7CE
:10522000A36880221900914314D0202219009143D1
:1052300090290FD0402219009143A0290AD01022B2
:1052400019009143C02905D0F02B03D0524948489A
:1052500001F051FFF021494AD3688B43A1680B4309
:10526000D3609CE76368032B03D94C49404801F0A5
:1052700042FF424E62683368022A1CD19B0300D46D
:1052800075E70321F3688B431343F360FDF7E0FFF9
:1052900063680190022B1BD10C22F3681340082B8A
:1052A00000D17FE7FDF7D4FF019BC01A3C4B984229
:1052B000F2D903205CE7032A02D19B01E1D456E72F
:1052C000012A02D15B07DCD451E79B05D9D44EE714
:1052D000032B0DD10C22F3681340934200D161E7F8
:1052E000FDF7B6FF019BC01A2D4B9842F2D9E0E7BB
:1052F000012B13D00C22F368134200D152E7FDF7C3
:10530000A7FF019BC01A264B9842F3D9D1E7FDF7BE
:105310009FFF019BC01A224B9842CAD80C22F36807
:105320001340042BF3D13DE72A689A432A602A6888
:105330001A4200D01BE73BE7E368114A13420DD045
:10534000A021104AC9001A408A4207D0C022D200C8
:10535000934203D01349064801F0CDFEEB68124A90
:105360001340E2681343EB6027E7C0466603000082
:105370009FA60008670300000020024000100240C2
:10538000FFFBFFFFFFFDFFFFF1030000FFC7FFFF73
:10539000D0A80008080000207E030000850300005C
:1053A00088130000EA030000FFF8FFFF044B054AE2
:1053B000DB685B055B0FD35C034A1068D84070471D
:1053C00000100240E0A8000808000020044B054A35
:1053D000DB689B045B0FD35C034A1068D8407047BE
:1053E00000100240E0A8000808000020F7B5934B29
:1053F000026804009A4203D96721914801F07BFEBC
:1054000023689B064DD563688E4A13420DD09821C0
:105410008D4A49031A408A4207D08C229203934254
:1054200003D07321864801F066FE80230021874D5A
:105430005B05AA6B00911A4204D1AA6B1343AB63BC
:10544000012300938027824E7F0033683B4200D1C6
:10545000AFE0C022C021286863689203104089022F
:105460001A40904200D0B6E02A6D0A4000D0BDE05C
:105470006168C0230A009B021A409A4207D12B6838
:1054800074480340C020800301400B432B602B6D08
:105490001A43009B2A65012B03D1AB6B6E4A134064
:1054A000AB632368DB070DD5A368032B03D9DE218B
:1054B000634801F020FE0321644AD36C8B43A1684A
:1054C0000B43D36423689B070ED50C23E2689A43F1
:1054D00003D0E9215A4801F00EFE0C215B4AD36C3F
:1054E0008B43E1680B43D36423685B070DD55B4DA9
:1054F00023692B4203D0F321514801F0FCFD534AAC
:105500002169D36C2B400B43D36423681B0712D54E
:105510006369534A134207D080229201934203D019
:10552000FD21474801F0E7FD484A4E49D36C0B4046
:1055300061690B43D3642368DB0513D5A3694A4A29
:10554000134208D080229202934204D084213C4826
:10555000490001F0D0FD3D4A3A49D36C0B40A169A6
:105560000B43D36423685B060ED5404D236A2B4260
:1055700004D014213248FF3101F0BDFD334A216AC5
:10558000D36C2B400B43D364236800201B0621D52A
:10559000374DE3692B4204D01C212948FF3101F02B
:1055A000AAFD2A4AE169D36C00202B400B43D36447
:1055B00010E033683B433360FDF74AFE01903368E7
:1055C0003B4200D045E7FDF743FE019BC01A64282B
:1055D000F5D90320FEBD1A000A408A4200D043E7F5
:1055E0002A680120920300D43EE7F3E70B409A4279
:1055F00000D13DE723689B0600D439E780232A6D5C
:10560000286D1B0303432B652B6D0E491948114070
:1056100003402B652965D30500D429E7FDF718FE63
:1056200080270600BF002B6D3B4200D020E7FDF72E
:105630000FFE114B801B9842F5D9CAE7FF0100000D
:10564000D7A60008FFFFFCFFFFFFDFFF00100240AE
:1056500000700040FFFFCFFFFFFFFFEFFFF3FFFFF2
:10566000FFEFFFFFFFCFFFFFFFFFFEFFFFFFFFFB8F
:10567000FFFFF3FFFFFFF7FF8813000003680749F0
:105680001A680A401A609A682331FF318A439A6087
:1056900020238367002303667047C046DFFEFFFFB9
:1056A000436F10B5212B0DD1010052310A880368D8
:1056B000002A08D180211A688A431A60402219689A
:1056C0000A431A6010BDC46C22880234D205D20D80
:1056D0009A62C4640B88013B9BB20B80F2E7436F74
:1056E00010B5212B0DD1010052310A880368002A20
:1056F00008D180211A688A431A60402219680A4337
:105700001A6010BDC26C147801329C62C2640B88AE
:10571000013B9BB20B80F4E770B5446F030002209D
:10572000202C30D1013800292DD0002A2BD0802404
:105730009D686401A54204D11C69002C01D101427D
:1057400021D11C00703426780220012E1BD0013894
:105750002070D964190050310A804A800022DA672B
:105760005A6621325A678022520195420CD11A6939
:10577000002A09D1054A5A661A6880230020116858
:1057800020700B43136070BD014AF4E7A156000876
:10579000DF56000870B5846F03000220202C41D131
:1057A000013800293ED0002A3CD080259C686D013C
:1057B000AC4204D11D69002D01D1014232D11D003E
:1057C00070352E780220012E2CD0013828705965B2
:1057D000190058310A804A80802000211A00196679
:1057E00040015C32844220D1196900291BD118493B
:1057F000118000220121DA6722329A671A689068C4
:1058000001439160802149018C421ED11969002910
:105810001BD1104919669023002011685B000B43CF
:105820002870136070BDFF21E2E7002C04D11969D4
:105830000029F8D07F21DBE7802040058442D7D1C2
:1058400019690029F6D03F21D2E70349E2E7C046B3
:10585000FF010000BD5800085D580008826F10B5B8
:105860000368222A23D102005C325B6A128813404B
:10587000426D13700200436D5A3201334365138841
:10588000013B9BB2138013889BB2002B0ED10268A0
:10589000094C11682140116091682334FF34A14301
:1058A000916020220366826700F03EFD10BD082251
:1058B00099690A439A61F9E7DFFEFFFF826F10B52D
:1058C0000368222A21D104005C34596A2488426D7D
:1058D000214011800100023242655A310A88013AA2
:1058E00092B20A800A8892B2002A0DD11968094C36
:1058F0002140196099682334FF34A1439960202323
:105900000266836700F010FD10BD082299690A4302
:105910009A61F9E7DFFEFFFF70470000F8B5036802
:105920000400DA6918689E6811070AD120210A422A
:1059300000D16AE0084268D0236E2000002B5AD1C3
:105940005AE0012135000D4003D190277F003842F5
:105950005BD00A4205D0C60503D51962E66F314314
:10596000E16702210A4206D0002D04D01962E66FD9
:1059700049183143E16704210A4206D0002D04D0C2
:105980001962E66F02393143E167110708D58106D4
:1059900001D4002D04D008211962E36F1943E16797
:1059A000E36F002B28D020231A4206D0184204D0DF
:1059B000236E002B01D0200098472368E56F9B6879
:1059C00020005B0602D408231D401AD0FFF756FEC4
:1059D000402123689A680A420FD09A68E06E8A4391
:1059E0009A60002809D01A4B8363FEF7E9F9002872
:1059F00002D0E06E836B9847F8BD2000FFF78CFF64
:105A0000FAE7FFF789FFE567F6E7802149030A42D5
:105A100006D0750204D51962200000F05DFCEBE7AA
:105A200080210A4203D0084201D0636E85E74021FD
:105A30000A42E1D00842DFD01A6820008A431A6087
:105A4000202363670023636601F0E6FAD4E7C046CB
:105A5000555A0008806A0023020010B55A3213809C
:105A6000083A1380FFF758FF10BD0000F8B54268F0
:105A7000AF4B04009A4203D9AE49AF4801F03BFB5B
:105A80008022A3685205934206D0AC4A134203D049
:105A9000AB49A94801F02FFBAA4D2268E368AA4E42
:105AA000AA4260D1A94A134203D0A949A24801F0F1
:105AB00022FB2369A74A134207D0C022D200934297
:105AC00003D0A5499C4801F016FB63690C2219001C
:105AD000914301D1002B03D1A049974801F00BFB62
