:020000040800F2
:10000000005000201D360008693500086B350008D7
:1000100000000000000000000000000000000000E0
:100020000000000000000000000000006D35000826
:1000300000000000000000006F3500087135000866
:100040006D3600086D3600086D3600086D36000804
:100050006D3600086D3600086D3600086D360008F4
:100060006D3600086D3600086D3600086D360008E4
:100070006D3600086D360008793500086D360008C9
:100080006D3600086D3600086D360008000000006F
:100090006D3600086D3600086D3600086D360008B4
:1000A0006D3600086D3600086D3600089135000881
:1000B000A1350008B1350008000000006D360008C9
:1000C00010B5064C2378002B07D1054B002B02D02E
:1000D000044800E000BF0123237010BDD4010020BC
:1000E0000000000088380008044B10B5002B03D036
:1000F0000349044800E000BF10BDC04600000000F6
:10010000D8010020883800080023C25C0133002A8F
:10011000FBD1581E7047000002B4714649084900DF
:10012000095649008E4402BC7047C04602B471466D
:1001300049084900095C49008E4402BC7047C0462A
:1001400003B47146490840004900095E49008E44E5
:1001500003BC7047002243088B4274D303098B42CF
:100160005FD3030A8B4244D3030B8B4228D3030C87
:100170008B420DD3FF22090212BA030C8B4202D329
:100180001212090265D0030B8B4219D300E0090A51
:10019000C30B8B4201D3CB03C01A5241830B8B425A
:1001A00001D38B03C01A5241430B8B4201D34B0343
:1001B000C01A5241030B8B4201D30B03C01A5241A8
:1001C000C30A8B4201D3CB02C01A5241830A8B422D
:1001D00001D38B02C01A5241430A8B4201D34B0216
:1001E000C01A5241030A8B4201D30B02C01A52417A
:1001F000CDD2C3098B4201D3CB01C01A524183092E
:100200008B4201D38B01C01A524143098B4201D367
:100210004B01C01A524103098B4201D30B01C01A92
:100220005241C3088B4201D3CB00C01A524183080C
:100230008B4201D38B00C01A524143088B4201D339
:100240004B00C01A5241411A00D201465241104699
:100250007047FFE701B5002000F006F802BDC04678
:100260000029F7D076E770477047C046002B11D1C0
:10027000002A0FD1002900D1002802D00021C94353
:10028000081C07B4024802A14018029003BDC046F2
:10029000D9FFFFFF03B4684601B5029800F006F8E5
:1002A000019B9E4602B00CBC7047C046F0B5574655
:1002B0004E464546DE46E0B5040083B00D0092464A
:1002C00099468B422FD82CD04946504600F0CCF8A6
:1002D00029000600200000F0C7F8331A9846203B9A
:1002E0009B4600D574E053465A4693401F00534640
:1002F000424693401E00AF4229D826D05B46A41B3D
:10030000BD41002B00DA79E0002200230092019326
:1003100001235A46934001930123424693400093A0
:1003200019E08242D0D900220023009201930C9B55
:10033000002B01D01C605D600098019903B03CBCAB
:1003400090469946A246AB46F0BDA342D6D90022BC
:100350000023009201934346002BE8D0FB0772086C
:100360001A4346467B080EE0AB4201D1A2420CD8AC
:10037000A41A9D41012024196D410021013E241839
:100380004D41002E06D0AB42EED9013E24196D41FD
:10039000002EF8D15B460098019900196941002BA5
:1003A00022DB2B005A46D3402A004446E2401C0080
:1003B0005B461500002B2CDB26009E4033002600F8
:1003C0004746BE403200801A994100900191AEE745
:1003D000424620239B1A5246DA40414613004A46C1
:1003E0008A4017001F4382E7424620239B1A2A00B7
:1003F00046469A402300F3401343D5E74246202364
:1004000000219B1A0022009101920122DA40019200
:1004100082E74246202326009B1ADE402F00B44686
:10042000974066463B003343C9E7C0461C21012381
:100430001B04984201D3000C10391B0A984201D3C7
:10044000000A08391B09984201D30009043902A2A5
:10045000105C40187047C04604030202010101010C
:10046000000000000000000010B5002903D1FFF7D4
:10047000DDFF203002E0081CFFF7D8FF10BDC046AA
:10048000FA210A4B70B5890005001868FFF762FE73
:1004900000F03EFB04000120002C05D102382200B0
:1004A000290000F0E9FA200070BDC04600000020DD
:1004B0000223084A10B5116800200B431360FFF7B0
:1004C000DFFF041E03D102F021FF200010BD012434
:1004D000FBE7C04600200240024A13680133136064
:1004E0007047C046F0010020014B18687047C046B5
:1004F000F001002070B50400FFF7F6FF631C5A1EE0
:1005000093410500E418FFF7EFFF401B8442FAD83F
:1005100070BD0000084B13B5040008491868FFF7C8
:1005200019FE44430194019B002B00D113BD019B94
:10053000013B0193F7E7C0460000002040420F0056
:10054000F7B504000120002C00D1D1E0694B2268EE
:100550009A4204D0CE216848490002F03DFD62680D
:10056000664B134016D0802051004908C0058142D7
:1005700010D0802109068A420CD080225203934277
:1005800008D080229203934204D09E215A48FF3122
:1005900002F022FD1823A2689A4304D0CF215648C6
:1005A000490002F019FD2023E2689A4304D0A021FB
:1005B0005148FF3102F010FD2369013B012B04D9A2
:1005C000D0214D48490002F007FD661CF37F012B46
:1005D00004D9A2214848FF3102F0FEFCA31C01937C
:1005E000DB7F012B04D9D1214348490002F0F4FC00
:1005F000434BA26A1A4204D0A4213F48FF3102F0C3
:10060000EBFC636A4022190018009143803290434A
:100610000FD08022520091420BD08032934208D0FA
:10062000C13BFF3B012B04D9D2213348490002F0E2
:10063000D3FC23002C331B78012B04D9A6212E4890
:10064000FF3102F0C9FC04226369043B934304D0E8
:10065000D3212948490002F0BFFC2A4B226B1A42E1
:1006600004D0A8212448FF3102F0B6FCA369012B75
:1006700004D9D4212048490002F0AEFC636B012B61
:1006800004D9AA211C48FF3102F0A6FCE369012B22
:1006900004D9D5211848490002F09EFCA36B072B12
:1006A00004D9AC211448FF3102F096FCE36B012B16
:1006B00004D9D6211048490002F08EFC636D002B4E
:1006C00006D122005032A3652000137002F02CFEE8
:1006D000636DDB0604D4042322689168194013D0AB
:1006E0001023626D0120134363650023503423708F
:1006F000FEBDC04600240140C3380008FFFFF3FFE1
:10070000FFF3FFFFFFEFFFFF636D6A48184002230E
:1007100003436365032390681840674B012802D1A7
:10072000176807421AD180256768ED0578004008F0
:10073000A84204D080200006874200D09EE01069C5
:100740008000800810611069074317611827D0687E
:10075000A568B843D060D0682843D0601A6857486D
:1007600002401A60626B1868520602431A608023C6
:1007700022685B059068184202D190680343936039
:10078000D3684F4803402069D360D768E3680228E4
:1007900000D10421256BF07F2B43A5693B43AE03B9
:1007A000E5693343EE0333434603334326002C36D7
:1007B0003678760033430B43C221D360636AFF313E
:1007C0008B4204D0A56AD1682B430B43D360A31C92
:1007D000DB7F012B06D100285CD18023D1685B022E
:1007E0000B43D360E36B012B5CD1216C1C2905D832
:1007F000344ACA409343DBB2002B04D093213248E1
:10080000890002F0E9FB636C60221900914309D072
:10081000802907D080225200934203D02B492A48D6
:1008200002F0DAFB2A4BA26C1A4203D0294926486F
:1008300002F0D2FB226828491369606C0B401361F7
:10084000236C11690343A06C03430B431361012321
:1008500011690B4313610721236800205A698A43F9
:100860005A615A69A16B0A435A610322A065636DFC
:1008700093431A0001231343636539E71069174D49
:1008800080008008106118682840186018680743C5
:100890001F605BE72021606D01436165A16D0B4323
:1008A000A3659FE7012113690B42D4D013698B43E1
:1008B000D0E7C046FDFEFFFF08270140FFFFFFFD18
:1008C0001902FEFF11111111C33800084D0200007A
:1008D000FFFDFFFF4E02000003FCFFFFFFFFC3FF11
:1008E0004B4B026870B505000C009A4203D0494991
:1008F000494802F071FB2368012B36D0474A9342E6
:1009000033D0474A934230D0464A93422DD0464A8C
:1009100093422AD0454A934227D0454A934224D055
:10092000444A934221D0444A93421ED0434A9342C0
:100930001BD0434A934218D0424A934215D0424AB0
:10094000934212D0414A93420FD0414A93420CD075
:10095000404A934209D0404A934206D03F4A9342CC
:1009600003D03F492C4802F037FB63683D4A9B188F
:10097000012B04D9F0212848C90002F02DFB2E00DC
:10098000503633780220012B0BD02A680138936847
:1009900030705B0706D520236A6D13436B65002317
:1009A000337070BD8020304965682368C0028D4275
:1009B0001BD0956A5903490B29439162034208D021
:1009C00080232A4A1B0411680A200B431360FFF797
:1009D000A1FD23689B0305D58023244ADB0311680E
:1009E0000B43136000203070DBE7916A5C03640BFB
:1009F000A1439162034204D01C491D480A68024089
:100A00000A609B03EED5194A1A4913680B40E8E7C0
:100A1000002401407E070000C338000802000004E3
:100A2000040000080800000C100000102000001452
:100A3000400000188000001C00010020000200247B
:100A4000000400280008002C0010003000200034B2
:100A5000004000380080003C0000044800000244D0
:100A60007F07000000F0FFFF011000000827014091
:100A7000FFFF7FFFFFFFBFFF70B504000D000329DC
:100A800003D98721164802F0A7FAA901002C14DA2D
:100A90000F23E4B22340083B124A9B089B009B189B
:100AA000032214409440FC3215000A40A540A240A5
:100AB000D869A8430243DA6170BD0325A3082C401E
:100AC000AC40FC352E00084A9B009B18C022A64073
:100AD0002940A14092009858B04301439950EBE758
:100AE000FB38000800ED00E000E100E010B5041E56
:100AF00003DA9721044802F06FFA1F231C401E3BC3
:100B0000A340024A136010BDFB38000800E100E07A
:100B1000094A431E012093420DD8C021074A0848C4
:100B20005360036A09061B021B0A0B430362002081
:100B30000723906013607047FFFFFF0010E000E0A4
:100B400000ED00E070B5841DE37F022B04D0042388
:100B5000C363033B180070BD0E210368456C1A681F
:100B60008A431A6001221968914319601C232B40A3
:100B700015009D40016C431D4D60E2770024826B9F
:100B8000DC771300A242E5D090472300E2E70000A3
:100B90004B68F7B504000D00032B12D91A00113A67
:100BA000012A0ED9854A86491A40521885490A42B7
:100BB00007D0854A9B180B4203D0AE21834802F030
:100BC0000BFAAB68022B03D9AF21804802F004FA7C
:100BD000A023DB059C420BD07D4B9C4208D07D4B73
:100BE0009C4205D07C4B9C4202D07C4B9C4207D15E
:100BF0002B689AB2002A03D0794A134393420DD04E
:100C0000784B9C4206D12B68774A134202D013439B
:100C1000934203D0B0216D4802F0DEF900272B6823
:100C20001A00FA4000D1F7BD0122BA4001921A40E1
:100C3000009200D1C0E010226B689343022B2CD1AC
:100C4000A023DB059C4212D0614B9C420FD0614B2C
:100C50009C420CD0604B9C4209D0604B9C4206D019
:100C6000604B9C4203D0BF21584802F0B5F92B6974
:100C7000072B03D9C021554802F0AEF907220F20F7
:100C80003A4092009040FB089B00E318196A8143A8
:100C90002869904002000A431A6210226B687E00A5
:100CA0009343013B012B19D8EB68032B03D9CE21C9
:100CB000464802F091F90322B240A3680121934310
:100CC0001A00EB68B3401343A3606268019B9A4328
:100CD0006B681B090B40BB401343636003239C46B6
:100CE000B34061466A68DB431140B1402068184058
:100CF00001432160E1681940AB68B3400B43E360F6
:100D0000D30059D5012039490F264B6B0343604668
:100D10003840800086404B63354BB9088900C918BC
:100D20008B68B343A0260193F6050023B44214D088
:100D3000274E0133B44210D0264E0133B4420CD0BA
:100D4000254E6346B44208D0244E0133B44204D049
:100D5000284BE3185E1EB3410533834001980343DB
:100D60008B602549009B0E68D84333439C46D303D0
:100D700002D4330003409C4663460B604E68009BE0
:100D800033439C46930302D4330003409C4663469E
:100D90004B608E68009B33439C46D30202D43300E1
:100DA00003409C4663468B60CE68009B33439202AF
:100DB00001D433000340CB60013730E7FFFFDFFF92
:100DC0000000EFEFFFFFFEFF0000DFEF3639000805
:100DD0000004005000080050000C005000100050AB
:100DE000FFFF0000001C005003060000001002403E
:100DF0000000014000E4FFAF00040140A02370B5F3
:100E0000DB0504000D00160098420BD0154B9842EC
:100E100008D0154B984205D0144B984202D0144B81
:100E200098420AD1002D12D0012E16D99E211148C8
:100E3000FF3102F0D1F8A56170BD0F4B984206D189
:100E40000E4B194203D01A000A439A42ECD0CE212D
:100E50000848490002F0C0F8E6E7002EEBD1A56291
:100E6000EAE7C0460004005000080050000C0050A3
:100E70000010005036390008001C00500306000026
:100E800070B504000120002C00D18AE023684A4A92
:100E900093420AD0494A934207D0494A934204D028
:100EA000EF214848490002F097F8474BA2689A4260
:100EB00004D9E0214348FF3102F08EF8E368013B9A
:100EC000012B04D9F0213F48490002F085F83F4E3C
:100ED0002369334204D0E2213A48FF3102F07CF822
:100EE0006369FF2B04D9F1213648490002F074F8F8
:100EF000A369072B04D9E4213248FF3102F06CF8D2
:100F0000334BE2691A4204D0F2212E48490002F024
:100F100063F8304B226A1A4204D0E6212948FF3197
:100F200002F05AF8250041352B78DBB2002B05D1B1
:100F3000220040321370200002F020FA2423012105
:100F40002B702368A0681A688A431A606168224A75
:100F50000A401A619A68E16832409A60012921D1F9
:100F60008022120202439A6059681C4A00200A43F8
:100F70005A60DA68616916402269DE600A43A16935
:100F800009020A43DA60216AE2690A431A6001220F
:100F900019680A431A60202360642B70206342346E
:100FA000207070BD8422120202439A600229DBD1B4
:100FB000802212015A60D7E70054004000580040D8
:100FC000007800406F390008FF030000FF7FFFFF3B
:100FD000FFFFF7FFFFFFFDFFFFFFFFF000800002B4
:100FE000F8B51D4A036806000C00934209D01B4A5D
:100FF000934206D01A4A934203D06421194801F063
:10100000EBFF194D2C4203D06521164801F0E4FF97
:1010100041239C46B44463461A780220D2B2202A67
:1010200019D1370040373B78012B14D02423614677
:101030000B700121336818688843186018680540F0
:101040001D60186804431C60186801431960002083
:1010500063461A703870F8BD0054004000580040D4
:1010600000780040A7390008FFEFFFFFF8B51B4AE2
:10107000036805000C00934209D0194A934206D038
:10108000184A934203D09221174801F0A5FF0F2C74
:1010900003D99321144801F09FFF2E004136327886
:1010A0000220D2B2202A17D1290040310B78012B1F
:1010B00012D0242333702B6801381D680B4F8543F1
:1010C0001D601D6824023D402C431C601C682043A9
:1010D0001860002032700870F8BDC046005400400F
:1010E0000058004000780040A7390008FFF0FFFFDB
:1010F0000C22184B10B5D9680A40082A26D00C2AB1
:1011000006D0042A1AD11B68DB0621D4124810BD70
:101110008A021248120F825C0902D868890F0131D5
:10112000C00304D50E485043FFF714F8EFE71B68DF
:10113000DB0601D50B48F6E70748F4E780205B683B
:1011400000021B045B0F01339840E0E70448DEE730
:101150000448DCE7001002400024F4004B3B000888
:1011600000127A0000093D00F0B5050087B00028A4
:1011700002D1012007B0F0BD0368002B06D09B060A
:1011800004D1B021C748490001F026FF0C23802775
:10119000C54C7F02E2681A40E36801921F402B6849
:1011A000DB0764D42B689B0700D5C0E02B68DB0607
:1011B00043D5019B002B00D02DE123689B0502D570
:1011C000EB69002BD5D02B6AFF2B04D98021B548C1
:1011D000890001F001FF6B6AB44AB5491A400B421D
:1011E0000BD0802109028A4207D0C022120293420A
:1011F00003D0B049AB4801F0EFFE6268AE496B6ABC
:101200000A401A43626061682A6A0902090A1206E2
:101210000A43626080225B0B013312029A40130082
:10122000E16800200A06A549120F8A5CD340A44A4F
:101230001360FFF725F900289CD12B681B0700D508
:101240005BE12B685B0700D584E12B689B0600D52A
:10125000FDE1AB6A022B04D9BA219248890001F062
:10126000BBFEAB6A002B00D02BE2002082E76B684C
:10127000944E334208D0A022D202934204D06A2175
:101280008848FF3101F0A8FE019B082B03D00C2BEE
:1012900008D1002F06D023689B0383D56B68002BF1
:1012A00080D166E780216B6849028B4214D12268A5
:1012B00013432360FFF718F9060080222368920287
:1012C000134200D06EE7FFF70FF9FA23801B9B0053
:1012D0009842F2D903204DE7A022D202934208D1CE
:1012E00080232268DB021343236022680A432260C2
:1012F000E0E722681640266022680A400592059AB7
:10130000714922680A402260002BD3D1FFF7ECF824
:101310000600802223689202134200D142E7FFF7C1
:10132000E3F8FA23801B9B009842F2D9D2E72023EE
:10133000EA689A43012A06D9092A04D0CE215948DD
:10134000490001F049FE2B691F2B04D99E21554805
:10135000FF3101F041FE2022EB68134203D02168E7
:10136000934311432160019A042A03D00C2A24D10B
:10137000002F22D12268520702D5002B00D1F8E6B7
:1013800061682A695148120201400A4309216260DA
:1013900022688A4313432360FFF7AAFEE368474AA3
:1013A0001B061B0FD35CD840454B18600020FFF78D
:1013B00067F8002800D1F9E6DCE6002B19D00921F6
:1013C000226804278A4313432360FFF78DF8060041
:1013D00023683B4207D062682B693C491B020A40E4
:1013E00013436360E2E6FFF77FF8801B0228EFD922
:1013F00070E701222368042793432360FFF774F802
:10140000060023683B4200D1D0E6FFF76DF8801B51
:101410000228F6D95EE7EB69012B04D98621214821
:10142000890001F0D9FDEB69002B53D0802322689D
:101430005B0013432360FFF757F880270600BF00C7
:1014400023683B4227D02B6AFF2B04D98B211548F8
:10145000890001F0C1FD6B6A144A15491A400B421C
:101460000BD0802109028A4207D0C0221202934287
:1014700003D017490B4801F0AFFD63680E4A1340D3
:101480006A6A1343636062682B6A12021B06120ABF
:1014900013436360D1E6FFF727F8801B0228CFD9FA
:1014A00018E7C046E239000800100240FFDFFFFFE6
:1014B000FF9FFFFF01020000FF1FFFFF333B0008FB
:1014C00000000020FFFFFEFFFFFFFBFFFFE0FFFF2C
:1014D0002D0200002368C04A802713402360FFF7D5
:1014E00003F80600BF0023683B4200D1A5E6FEF7E3
:1014F000FBFF801B0228F6D9ECE66B69012B03D9B0
:10150000B649B74801F068FD6A690123002A10D086
:10151000226D022713432365FEF7E6FF0600236DC5
:101520003B4200D08DE6FEF7DFFF801B0228F6D994
:10153000D0E6226D02279A432265FEF7D5FF06000A
:10154000236D3B4200D17CE6FEF7CEFF801B0228D4
:10155000F6D9BFE6AB68A04A134207D0A022D2005A
:10156000934203D09F499E4801F036FD802300211D
:10157000A26B5B0502911A4204D1A26B1343A363D1
:10158000012302938027984E7F0033683B4208D0A6
:101590008022AB685200934213D1226D134323651E
:1015A00034E033683B433360FEF79EFF03903368BB
:1015B0003B42EDD1FEF798FF039BC01A6428F6D991
:1015C00088E6002B16D1236D834A802713402365BC
:1015D000236D864ABF0013402365FEF785FF060092
:1015E000236D3B422AD0FEF77FFF814B801B984240
:1015F000F6D96FE6A021C9008B420DD18023216D61
:10160000DB000B432365236D1A432265FEF76CFF55
:1016100080270600BF000EE0236D6F4A134023654C
:10162000236D724A1340BAE7FEF75EFF704B801BD2
:10163000984200D94EE6236D3B42F5D0029B012B28
:1016400000D002E6A36B6B4A1340A363FDE5AB69D0
:10165000012B03D96849624801F0BEFCA969012346
:10166000664A002918D0A16802271943A160616B5E
:101670000B4363638023116A9B010B431362FEF7E4
:1016800033FF0600A3683B4200D0E2E5FEF72CFFE3
:10169000801B0228F6D91DE6A16802279943A160A4
:1016A000136A57490B401362FEF71EFF0600A3683A
:1016B0003B4200D1CDE5FEF717FF801B0228F6D98B
:1016C00008E6019A0C2A6AD04E4E022B55D14E4B99
:1016D000EA6A1A4203D04D49414801F07DFC2A6B69
:1016E0004B4B13400BD0802149038B4207D0802302
:1016F0009B039A4203D04749394801F06DFC802191
:101700006A6B454BC90313408B4207D080231B04EF
:101710009A4203D04149324801F05EFC23681E40E2
:101720002660FEF7E1FE80260700B60423683342F8
:101730001DD1296BEB6AE2680B4339490A40134318
:101740006A6B80251343E360802322685B041343A4
:101750002360FEF7C9FE0600AD0423682B4200D0CB
:1017600083E5FEF7C1FE801B0228F6D9B2E5FEF73D
:10177000BBFEC01B0228D9D9ACE5236880251E40DA
:101780002660FEF7B1FE0600AD0423682B4200D1AF
:101790006BE5FEF7A9FE801B0228F6D99AE5180032
:1017A000012B00D1E6E48022E368E96A52021A4084
:1017B00001208A4200D0DDE4F022296B92031A4016
:1017C0008A4200D0D6E4C02000040340686B181A97
:1017D000431E9841C0B2CDE4FFFEFFFF4B02000064
:1017E000E23900087702000000700040FFFBFFFFB5
:1017F00088130000FFFFFFEFBE0200000000014061
:10180000FFDFFFFFFFFFFFFEFFFFFEFFF102000013
:10181000FFFFF3FFF2020000FFFF7FFFF302000073
:10182000FFFF02FFF7B504000F00002801D10120DF
:10183000FEBD03681B0703D17C497D4801F0CCFB4A
:10184000012F03D97B497A4801F0C6FB01227A4D6A
:101850002B6813409F423AD823689B0740D42368E3
:10186000DB075FD401232A681A40974200D2BBE00D
:101870002368724D5B0700D5BEE023681B0718D5AF
:1018800023696F4A13420DD0A0216E4AC9001A4045
:101890008A4207D0C022D200934203D06A496448EA
:1018A00001F09AFBEA6823696849DB000A401343A8
:1018B000EB60FFF71DFCEB68654A1B061B0FD35C52
:1018C000D840644B18600020FEF7DAFDB0E72B68C3
:1018D00093433B432B602B6813409F42A7D1BBE748
:1018E000A36880221900914314D02022190091434B
:1018F00090290FD0402219009143A0290AD010222C
:1019000019009143C02905D0F02B03D05249484813
:1019100001F062FBF021494AD3688B43A1680B4375
:10192000D3609CE76368032B03D94C49404801F01E
:1019300053FB424E62683368022A1CD19B0300D4D9
:1019400075E70321F3688B431343F360FEF7CCFD87
:1019500063680190022B1BD10C22F3681340082B03
:1019600000D17FE7FEF7C0FD019BC01A3C4B9842B7
:10197000F2D903205CE7032A02D19B01E1D456E7A8
:10198000012A02D15B07DCD451E79B05D9D44EE78D
:10199000032B0DD10C22F3681340934200D161E771
:1019A000FEF7A2FD019BC01A2D4B9842F2D9E0E749
:1019B000012B13D00C22F368134200D152E7FEF73B
:1019C00093FD019BC01A264B9842F3D9D1E7FEF74D
:1019D0008BFD019BC01A224B9842CAD80C22F36897
:1019E0001340042BF3D13DE72A689A432A602A6802
:1019F0001A4200D01BE73BE7E368114A13420DD0BF
:101A0000A021104AC9001A408A4207D0C022D20041
:101A1000934203D01349064801F0DEFAEB68124AFC
:101A20001340E2681343EB6027E7C04666030000FB
:101A3000E239000867030000002002400010024065
:101A4000FFFBFFFFFFFDFFFFF1030000FFC7FFFFEC
:101A5000333B0008000000207E03000085030000E7
:101A600088130000EA030000FFF8FFFF044B054A5B
:101A7000DB685B055B0FD35C034A1068D840704796
:101A800000100240433B000800000020044B054AC0
:101A9000DB689B045B0FD35C034A1068D840704737
:101AA00000100240433B000800000020F7B5934BB4
:101AB000026804009A4203D96721914801F08CFA28
:101AC00023689B064DD563688E4A13420DD098213A
:101AD0008D4A49031A408A4207D08C2292039342CE
:101AE00003D07321864801F077FA80230021874DC7
:101AF0005B05AA6B00911A4204D1AA6B1343AB6336
:101B0000012300938027824E7F0033683B4200D13F
:101B1000AFE0C022C02128686368920310408902A8
:101B20001A40904200D0B6E02A6D0A4000D0BDE0D5
:101B30006168C0230A009B021A409A4207D12B68B1
:101B400074480340C020800301400B432B602B6D81
:101B50001A43009B2A65012B03D1AB6B6E4A1340DD
:101B6000AB632368DB070DD5A368032B03D9DE2104
:101B7000634801F031FA0321644AD36C8B43A168B6
:101B80000B43D36423689B070ED50C23E2689A436A
:101B900003D0E9215A4801F01FFA0C215B4AD36CAB
:101BA0008B43E1680B43D36423685B070DD55B4D22
:101BB00023692B4203D0F321514801F00DFA534A17
:101BC0002169D36C2B400B43D36423681B0712D5C8
:101BD0006369534A134207D080229201934203D093
:101BE000FD21474801F0F8F9484A4E49D36C0B40B3
:101BF00061690B43D3642368DB0513D5A3694A4AA3
:101C0000134208D080229202934204D084213C489F
:101C1000490001F0E1F93D4A3A49D36C0B40A16912
:101C20000B43D36423685B060ED5404D236A2B42D9
:101C300004D014213248FF3101F0CEF9334A216A31
:101C4000D36C2B400B43D364236800201B0621D5A3
:101C5000374DE3692B4204D01C212948FF3101F0A4
:101C6000BBF92A4AE169D36C00202B400B43D364B3
:101C700010E033683B433360FEF736FC0190336875
:101C80003B4200D045E7FEF72FFC019BC01A6428B9
:101C9000F5D90320FEBD1A000A408A4200D043E76E
:101CA0002A680120920300D43EE7F3E70B409A42F2
:101CB00000D13DE723689B0600D439E780232A6DD5
:101CC000286D1B0303432B652B6D0E4919481140EA
:101CD00003402B652965D30500D429E7FEF704FCF2
:101CE00080270600BF002B6D3B4200D020E7FEF7A7
:101CF000FBFB114B801B9842F5D9CAE7FF0100009E
:101D00001A3A0008FFFFFCFFFFFFDFFF0010024050
:101D100000700040FFFFCFFFFFFFFFEFFFF3FFFF6B
:101D2000FFEFFFFFFFCFFFFFFFFFFEFFFFFFFFFB08
:101D3000FFFFF3FFFFFFF7FF881300000368074969
:101D40001A680A401A609A682331FF318A439A6000
:101D500020238367002303667047C046DFFEFFFF32
:101D6000436F10B5212B0DD1010052310A88036851
:101D7000002A08D180211A688A431A604022196813
:101D80000A431A6010BDC46C22880234D205D20DF9
:101D90009A62C4640B88013B9BB20B80F2E7436FED
:101DA00010B5212B0DD1010052310A880368002A99
:101DB00008D180211A688A431A60402219680A43B0
:101DC0001A6010BDC26C147801329C62C2640B8828
:101DD000013B9BB20B80F4E770B5446F0300022017
:101DE000202C30D1013800292DD0002A2BD080247E
:101DF0009D686401A54204D11C69002C01D10142F7
:101E000021D11C00703426780220012E1BD001380D
:101E10002070D964190050310A804A800022DA67A4
:101E20005A6621325A678022520195420CD11A69B2
:101E3000002A09D1054A5A661A68802300201168D1
:101E400020700B43136070BD014AF4E7611D000868
:101E50009F1D000870B5846F03000220202C41D123
:101E6000013800293ED0002A3CD080259C686D01B5
:101E7000AC4204D11D69002D01D1014232D11D00B7
:101E800070352E780220012E2CD00138287059652B
:101E9000190058310A804A80802000211A001966F2
:101EA00040015C32844220D1196900291BD11849B4
:101EB000118000220121DA6722329A671A6890683D
:101EC00001439160802149018C421ED1196900298A
:101ED0001BD1104919669023002011685B000B4349
:101EE0002870136070BDFF21E2E7002C04D119694E
:101EF0000029F8D07F21DBE7802040058442D7D13C
:101F000019690029F6D03F21D2E70349E2E7C0462C
:101F1000FF0100007D1F00081D1F0008826F10B523
:101F20000368222A23D102005C325B6A12881340C4
:101F3000426D13700200436D5A32013343651388BA
:101F4000013B9BB2138013889BB2002B0ED1026819
:101F5000094C11682140116091682334FF34A1437A
:101F6000916020220366826701F030F810BD0822DC
:101F700099690A439A61F9E7DFFEFFFF826F10B5A6
:101F80000368222A21D104005C34596A2488426DF6
:101F9000214011800100023242655A310A88013A1B
:101FA00092B20A800A8892B2002A0DD11968094CAF
:101FB0002140196099682334FF34A143996020239C
:101FC0000266836701F002F810BD082299690A438E
:101FD0009A61F9E7DFFEFFFF70470000F8B503687C
:101FE0000400DA6918689E6811070AD120210A42A4
:101FF00000D16AE0084268D0236E2000002B5AD13D
:102000005AE0012135000D4003D190277F0038426E
:102010005BD00A4205D0C60503D51962E66F31438D
:10202000E16702210A4206D0002D04D01962E66F52
:1020300049183143E16704210A4206D0002D04D03B
:102040001962E66F02393143E167110708D581064D
:1020500001D4002D04D008211962E36F1943E16710
:10206000E36F002B28D020231A4206D0184204D058
:10207000236E002B01D0200098472368E56F9B68F2
:1020800020005B0602D408231D401AD0FFF756FE3D
:10209000402123689A680A420FD09A68E06E8A430A
:1020A0009A60002809D01A4B8363FEF74BFD002885
:1020B00002D0E06E836B9847F8BD2000FFF78CFFDD
:1020C000FAE7FFF789FFE567F6E7802149030A424F
:1020D00006D0750204D51962200000F05DFCEBE724
:1020E00080210A4203D0084201D0636E85E7402177
:1020F0000A42E1D00842DFD01A6820008A431A6001
:10210000202363670023636600F05AFFD4E7C046CC
:1021100015210008806A0023020010B55A3213808E
:10212000083A1380FFF758FF10BD0000F8B5426869
:10213000AF4B04009A4203D9AE49AF4800F04CFFC0
:102140008022A3685205934206D0AC4A134203D0C2
:10215000AB49A94800F040FFAA4D2268E368AA4EA7
:10216000AA4260D1A94A134203D0A949A24800F06B
:1021700033FF2369A74A134207D0C022D2009342FB
:1021800003D0A5499C4800F027FF63690C22190081
:10219000914301D1002B03D1A049974800F01CFFC7
:1021A0009F4BA2691A4203D09E49934800F014FF46
:1021B0009D4BE2691A4203D09C498F4800F00CFF06
:1021C0002769A26823683A4367691868E1693A4356
:1021D000974F0A43384002431A605A68A069164074
:1021E000E26816435E60AB4201D0226A10439A68EF
:1021F000904E324002439A608F4A934220D103228C
:102200008E4BDB6C13408E4AD05C80231B029942BC
:1022100000D1DEE0082833D8FDF788FF9BA2A53265
:10222000C0323232C300334204D0AD2172480901BA
:1022300000F0D2FE834B226A1A429AD0824995E777
:10224000824A934205D10C227C4BDB6C1340804ABE
:10225000DAE7804A934200D1AFE07F4A934200D14F
:10226000ABE0AB4200D0A1E0C0218020734A09015D
:10227000D36CC0000B40834238D003D8002B0AD067
:1022800001250DE08020000183420ED08B42F7D162
:10229000802000020DE0FFF7E9FB0025A84208D1ED
:1022A0000023280023666366F8BD1368DB0620D58B
:1022B0004F48032263685A438242E1D81A0382429C
:1022C000DED30027020E01025E0889197A41080058
:1022D00011001A003B00FDF7C9FF604BC218604BAC
:1022E0009A42CDD823683D00D860D9E7FEF700FFB9
:1022F000D3E75C48DDE7FFF7C9FB64E010254F4BEF
:1023000061681A684808154006D0574BC018FDF799
:1023100021FF002583B204E0544BC018FDF71AFFDB
:1023200083B21900524810398142A9D80F211800F0
:102330001B0788435B0F21680343CB60B0E7FEF7C0
:10234000D7FE40E06368580880235B023EE000232C
:10235000E7E7FFF78BFB63685B08C01861680BE079
:10236000FFF794FBF7E71025344B61681A684808BB
:10237000154006D01E4BC018FDF7ECFE002583B2B9
:1023800004E0384BC018FDF7E5FE83B21900384869
:102390001039814200D973E72168CEE7FEF7A8FE25
:1023A000D9E76368580880231B02D6E780230125FC
:1023B0001B029942CBD00023E8E780231B029942FD
:1023C000C7D1FFF753FB636840005B08C018616822
:1023D0009DE7082800D953E7FDF7B2FEF3FF8DFF14
:1023E00090FF52FFB1FF52FF52FF52FFB4FFC046B1
:1023F00000093D00C80A0000663A0008FFEFFFFF31
:10240000C90A000000480040FFCFFFFFFFDFFFFFC9
:10241000CC0A0000FFFBFFFFD40A0000D50A000031
:10242000FFFCFFFFD60A0000FF7FFFFFD70A000076
:10243000F369FFEFFFF4FFFF003801400010024096
:10244000553A0008FFF7FFFFD10A000000440040A2
:10245000593A0008004C00400050004000FDFFFFCA
:10246000FFFC0F000024F40000127A000048E8018D
:10247000EFFF0000436A70B50400FF2B03D95549F4
:10248000554800F0A9FD636ADB070DD5534DA36ADB
:102490002B4203D05249504800F09EFD2268A16AA9
:1024A00053682B400B435360636A9B070DD54D4D1A
:1024B000E36A2B4203D04C49474800F08DFD226867
:1024C000E16A53682B400B435360636A5B070DD589
:1024D000464D236B2B4203D045493F4800F07CFD1D
:1024E0002268216B53682B400B435360636A1B07C0
:1024F0000DD5404D636B2B4203D03F49364800F069
:102500006BFD2268616B53682B400B435360636A19
:10251000DB060DD5394DA36B2B4203D038492E482D
:1025200000F05AFD2268A16B93682B400B43936027
:10253000636A9B060DD5334DE36B2B4203D03249C2
:10254000254800F049FD2268E16B93682B400B435E
:102550009360636A5B062AD523682C4A934206D0AF
:102560002B4A934203D02B491B4800F035FD2A4DDE
:10257000236C2B4203D02949174800F02DFD216818
:10258000226C4B682B4013434B6080235B039A42C1
:102590000DD1234D636C2B4203D022490E4800F02D
:1025A0001BFD2268616C53682B400B435360636AC8
:1025B0001B060DD51C4DA36C2B4203D01B490648AE
:1025C00000F00AFD2268A16C53682B400B43536056
:1025D00070BDC0469A0B0000663A0008FFFFFDFF81
:1025E0009F0B0000FFFFFEFFA60B0000FFFFFBFF9D
:1025F000AD0B0000FF7FFFFFB40B0000FFEFFFFFFC
:10260000BB0B0000FFDFFFFFC20B000000380140E2
:1026100000440040C90B0000FFFFEFFFCA0B0000A1
:10262000FFFF9FFFCF0B0000FFFFF7FFD70B00005E
:10263000F8B504000E0015001F002268D36933406E
:102640009B1B59424B41AB4201D000201BE0069B33
:102650000133F3D0FDF748FF069BC01B834201D333
:10266000002BEAD1236808491A6803200A401A603F
:102670009A68A331FF318A439A6020236367A36776
:10268000002370342370F8BD5FFEFFFFF0B587B004
:102690000593436F04000D0017000220202B49D141
:1026A0000138002946D0002A44D08023A2685B016B
:1026B0009A4204D12369002B01D101423AD123006F
:1026C00070331A780220012A34D0012200261A70B1
:1026D0002123E6676367FDF707FF230050331F8060
:1026E000023303931F808023A26804905B019A4207
:1026F00004D12369B34201D12E001D0023005233BF
:102700001A88059B92B20093049B002A0AD14021AB
:102710002000FFF78DFF00280BD120237034636069
:10272000207007E0002280212000FFF781FF0028B1
:1027300002D0032007B0F0BD2268002D0BD13388F2
:102740000236DB05DB0D9362039B039A1B88013B7A
:102750009BB21380D2E72B7801359362F4E7000037
:10276000F0B587B00593836F04000D0016000220BA
:10277000202B43D10138002940D0002A3ED08023AD
:10278000A2685B019A4204D12369002B01D1014266
:1027900034D1230070331A780220012A2ED001226E
:1027A00000271A702223E767A367FDF79DFE230029
:1027B00080215833A2681E80023303931E80049048
:1027C000490102338A421DD12169B94218D12549F4
:1027D00019801F88802300265B019A4204D1236957
:1027E000B34201D12E001D0023005A33188880B255
:1027F000002819D120237034A360207007B0F0BDE9
:10280000FF21E5E7002A04D121690029F8D07F21C2
:10281000DEE7802149058A4204D121690029F6D0EA
:102820003F21D5E71F80D4E7059B0022009320219C
:10283000049B2000FFF7FCFE002810D123685B6A90
:102840003B40002D08D133800236039B039A1B883E
:10285000013B9BB21380C7E72B700135F5E70320DE
:10286000CCE7C046FF01000073B500260400C66730
:10287000FDF73AFE236805001B681B0715D4236883
:102880001B685B070AD580210E4B00220093C90309
:102890002B002000FFF7CCFE002811D120230020C0
:1028A0006367A367703420700BE08021054B320012
:1028B0000093890303002000FFF7BAFE0028DED052
:1028C000032076BDFFFFFF0110B5041E01D10120DA
:1028D00010BD81690368294A00293ED0934210D077
:1028E000274A93420DD0274A93420AD0264A934260
:1028F00007D0264A934204D03021FF31244800F00B
:102900006BFB636F002B05D1220070321370200027
:1029100000F066FD2423012122686367136820000C
:102920008B431360FFF702FC0128D0D0636A002BB1
:1029300002D02000FFF79EFD236816495A68200048
:102940000A402A215A609A688A439A6001221968CB
:102950000A431A60FFF788FFBAE79342D1D0084ACA
:102960009342CED0074A9342CBD0074A9342C8D075
:10297000064A9342C5D09A214900BFE7003801407A
:1029800000440040004C004000500040004800401F
:10299000663A0008FFB7FFFF70470000F7B50D006B
:1029A000040007220021280000F095FE07220021E4
:1029B000684600F090FE002C15D02300462100242C
:1029C00045264427002B12DD0F2218001040193A2B
:1029D000944684446246052A20D86046FDF7A6FB4B
:1029E0000B0F1113181B1149280000F089FE013C40
:1029F000631C15D1F7BD41206A46105505E0422001
:102A0000FAE74320F8E76A4617551B110134D9E766
:102A10006A461655F9E76A461155F6E73030EBE796
:102A20006B461B5D013C2B700135E1E79F3A0008C6
:102A300037B50C00022814D1002508000095FDF7D9
:102A400063FB022857D003280AD03023012803D182
:102A50006A461370537036E023706370A370E5709C
:102A600037BD042814D100256B46080000951D7160
:102A7000FDF74AFB0138032803D8FDF74DFB343A34
:102A80003CF13023257123706370A370E370E7E796
:102A90000628E5D100250322290001A8009500F0B1
:102AA0001AFE2000FDF730FB0138052827D8FDF776
:102AB00033FB03131A2022D730236A461370537056
:102AC0009370D37013712100684600F00CFE6946C4
:102AD000200000F015FEC3E730236A4613705370E0
:102AE0009370D370EFE730236A461370537093707E
:102AF000E9E73023ACE730236A461370E3E730237D
:102B0000A57123706370A370E37023716371A7E7ED
:102B100030B59DB0382200210EA800F0DCFD142253
:102B20000021684600F0D7FD2422002105A800F00E
:102B3000D2FD1449144A0B6800241A4080231B015B
:102B400013430B6010230E930F3B1593A0230F2507
:102B50001B020EA8179316941894FEF705FB21008C
:102B6000684600950194029403940494FEF75AFE7B
:102B700005A805950794089409940A94FEF796FF12
:102B80001DB030BD00700040FFE7FFFFF8B58025A5
:102B9000A026070000246D00F605BC4200DBF8BD4E
:102BA000002229003000FEF729F91920FDF7A2FCC8
:102BB000012229003000FEF721F91920FDF79AFCC7
:102BC0000134EAE7F7B500AF0500FDF79DFA6A4664
:102BD000C31DDB08DB00D31A9D46290004006846AC
:102BE00000F08EFD6E466D46AB1B9C4201DCBD467F
:102BF000F7BD2B7801223B71391D0A230248FFF7EC
:102C000045FD0135F0E7C04690030020F0B50426ED
:102C10008BB0FDF74DFCFFF77BFF1422002105A8C8
:102C200000F059FD8020C34B0125DA6AC0273243EA
:102C3000DA62DA6A3F0232400192019AD96A0024CC
:102C40000143D9620221DA6A02400292029ADA6AE8
:102C5000B9482A43DA62DA6A2A400392039ADA6AA6
:102C60000A43DA62DB6A00220B4004932231049BA0
:102C7000FEF7C4F82A003900AF48FEF7BFF89F21DD
:102C8000A02000220902C005FEF7B8F8802305A99C
:102C90009B01AA48059306940794FDF779FF0597D1
:102CA000032705A9A54806970794FDF771FF05A915
:102CB000A348059706970794FDF76AFFA020C02355
:102CC00005A9C005059306940794FDF761FF9D4B88
:102CD00005A905939C4B984806930794FDF758FF68
:102CE000112305A994480596069307940894FDF7C7
:102CF0004FFF964B05A990480593069507940894B5
:102D0000FDF746FF9F23A0201B0205A9C0050593E0
:102D1000069507940894FDF73BFF0822210005A8BB
:102D200000F0D9FC8A4F8B4B38003B60C0231B0658
:102D30007B607B19DC77BB1CDC77C223FF337B62B3
:102D40003B002C333D617E61FC63BC60BC63FC6076
:102D5000BC621C703C63BC617C63FC61FDF7F0FBF2
:102D60007D4B05A90593802338005B010693FDF791
:102D7000B7FD7A4B05A938000593FDF7B1FD784BF7
:102D800005A938000593FDF7ABFD764E764B300074
:102D90003360E123DB007360F560B460346174611B
:102DA000B461F46134629627FEF76AF821003000BE
:102DB000FEF716F930000C262100FEF757F96B4894
:102DC0006B4BBF01036047608460C460046146616F
:102DD000846104624462FFF777FD6648664B476092
:102DE00003608460C460046146618461C4610462FC
:102DF0004462FFF769FD6148614B4760036084608E
:102E0000C460046146618461C46104624462FFF786
:102E10005BFD5C485C4B476003608460C460046198
:102E200046618461C46104624462FFF74DFD574B03
:102E30005748036047608460C460046146618461F0
:102E4000C46104624462FFF73FFD0520FFF79EFE68
:102E50005048FFF7B7FE8021A0202A000902C005D4
:102E6000FDF7CCFF8021A02022000902C005FDF75C
:102E7000C5FF0A20FDF73EFB8021A0202A000902A1
:102E8000C005FDF7BBFFFA208000FDF733FB00F023
:102E900057F96420FDF72EFB00F0A0F86420FDF741
:102EA00029FB00F0F5F83C48FFF78CFE3B48FFF7A4
:102EB00089FE3B4D2800FFF785FE6420FDF71AFBD5
:102EC00000F012F93748FFF77DFE3748FFF77AFE2A
:102ED0002800FFF777FE6420FDF70CFB00F076F981
:102EE0003248FFF76FFE3248FFF76CFE2800FFF70D
:102EF00069FE6420FDF7FEFA00F03AF92D48FFF76D
:102F000061FE2D48FFF75EFE2800FFF75BFE6420A0
:102F1000FDF7F0FA8021A02022000902C005FDF78C
:102F20006DFF0A20FFF732FE00F07CF92348FDF721
:102F3000E1FAF6E7001002400004005000080050DB
:102F4000001C0050033000000000111020C00000E1
:102F50001005002000240140100000102000001483
:102F60000000044844030020005400409003002067
:102F700000480040A80200200038014090040020D2
:102F80000044004010040020004C0040005000406D
:102F900024020020A13A0008B13A0008F401002000
:102FA000203B0008BD3A0008FE010020CA3A000894
:102FB00010020020DF3A00081702002060EA00003B
:102FC0000122014B1A707047210200200122014B9F
:102FD0001A707047210200207047000013B5264C7C
:102FE0006423082225492000FFF750FB01A9642330
:102FF00004222000FFF7B4FB0A20FDF77BFA6423CC
:1030000011221F492000FFF741FB01A9642304227C
:103010002000FFF7A5FB0A20FDF76CFA64231122BC
:1030200018492000FFF732FB01A964230422200085
:10303000FFF796FB0A20FDF75DFA64230722124989
:103040002000FFF723FB01A9642304222000FFF7DF
:1030500087FB0A20FDF74EFA642307220B49200064
:10306000FFF714FB6423042201A92000FFF778FB7B
:103070000A20FDF73FFA13BDA8020020F63A000827
:10308000FF3A0008113B0008233B00082B3B0008D7
:1030900030B585B00922104901A800F013FB0F4D8F
:1030A000092201A92800FEF797FE0D4C2378012B79
:1030B000FCD100230A220B4928002370FEF7CAFE28
:1030C0002378012B03D10023237005B030BD0220EB
:1030D000FFF75CFDF4E7C046A0380008A802002016
:1030E00021020020F401002030B5114985B00922E9
:1030F0000A3101A800F0E6FA0E4D092201A92800C4
:10310000FEF76AFE0C4C2378012BFCD1002312221F
:103110000A4928002370FEF79DFE2378012B03D176
:103120000023237005B030BD0220FFF72FFDF4E728
:10313000A0380008A802002021020020FE01002083
:1031400013B5084B084C019301A964230422200005
:10315000FFF79CFA6423042204492000FFF700FBD8
:1031600013BDC04641540D0AA80200201D020020D4
:1031700037B5114907221431684600F0A3FA0F4D04
:10318000072269462800FEF727FE0D4C0622210083
:103190002800FEF75FFE0B4B1A78012A07D10022A8
:1031A00020001A7000F063FA074B186037BD022048
:1031B000FFF7ECFCEFE7C046A0380008A8020020AB
:1031C00017020020210200202803002037B5082222
:1031D0000F49684600F076FA0E4D0822694628002D
:1031E000FEF7FAFD0C4C072221002800FEF732FE04
:1031F0000A4B1A78012A07D1002220001A7000F029
:1032000036FA074B186037BD0220FFF7BFFCEFE727
:10321000EE3A0008A802002010020020210200203F
:10322000A40200208021A020F0B50F27002589B03E
:1032300001220902C00504ACFDF7E0FD6420FDF7A2
:1032400059F9FFF7CBFEFFF7C1FFFFF791FF3A00F7
:103250000021200000F03FFA0722290002A8019572
:1032600000F039FA4123237013336370303BA370AD
:103270002F33E3700D3B2371093B63710D3BA37149
:103280000233E3711E4B02A91868FFF787FB02A9FE
:103290000220FFF7CDFB02A9200000F024FA194B11
:1032A00002A91868FFF77AFB02A90220FFF7C0FB0A
:1032B00002A9200000F017FA0D23134E2373033BDD
:1032C0003A00210063733000BE33A573FFF7DEF9C7
:1032D000FA204000FDF70EF9C82301A904223000AE
:1032E000FFF73EFAFA208000FDF704F98021A020C4
:1032F0002A000902C005FDF781FD09B0F0BDC046F6
:10330000A402002028030020A80200200122054B6F
:10331000596B0A435A638022996B52050A439A6398
:103320007047C0460010024010B5040086B0142259
:10333000002101A800F0CFF90E4B22689A4216D165
:1033400080220D4B9200596BA0200A4301215A6341
:10335000DA6AC0050A43DA62DB6A0B400093009B1D
:10336000302301A901932D3B0293FDF711FC06B018
:1033700010BDC046002401400010024010B50400FA
:1033800086B01422002101A800F0A5F9114B226893
:103390009A421CD10221104C1048E26A0A43E262B0
:1033A000E36A0B400093009BC0239B000193122310
:1033B0000293113B03935B18049301A90133059316
:1033C000FDF7E6FB8023A26B9B031343A36306B0C8
:1033D00010BDC046005400400010024000040050E0
:1033E00010B504008AB01422002105A800F073F97A
:1033F0002368564A934223D18022554BD202996BBF
:1034000054480A439A630222D96A1143D962DB6A9B
:1034100005A913400093009BC0231B0105930323C0
:103420000893013306920993FDF7B2FB00221D2099
:103430001100FDF721FB1D20FDF758FB0AB010BD60
:10344000454A93421DD18022414BD201596B4148DC
:103450000A435A630222D96A1143D962DB6A05A979
:1034600013400193019BC0230593BD3B0692089333
:10347000FDF78EFB00221B201100FDF7FDFA1B203B
:10348000DAE7364A934221D18022314B9202996B7E
:10349000A0200A4301219A63DA6AC0050A43DA626E
:1034A000DB6A0B400293029B0C2305930A3B0693B5
:1034B0005B1808935B1805A90993FDF769FB0022C7
:1034C0001C201100FDF7D8FA1C20B5E7244A9342CE
:1034D00020D180221E4B1203996BA0200A430121A8
:1034E0009A63DA6AC0050A43DA62DB6A02220B4099
:1034F0000393039B032305930893DB180692099318
:1035000005A9FDF745FB00220E201100FDF7B4FAD6
:103510000E2091E7134A934200D08FE780220C4B94
:103520005203996B0B480A439A630222D96A1143EA
:10353000D962DB6A05A913400493049B1823059301
:10354000153B0893033306920993DAE700480040DD
:1035500000100240000400500038014000440040C8
:10356000004C0040005000407047FEE77047704735
:1035700010B5FCF7B1FF10BD10B50348FEF72EFDE6
:103580000248FEF72BFD10BD10040020240200208D
:1035900010B50248FEF722FD10BDC046A80200206B
:1035A00010B50248FEF71AFD10BDC0469004002079
:1035B00010B50248FEF712FD10BDC0469003002072
:1035C0008022104B520019680A431A60DA680E49CB
:1035D0000A40DA601A680D490A4001211A609A68A7
:1035E0008A439A601A680A490A401A60DA680949E7
:1035F0000A40DA6000221A618022074B12059A60A5
:103600007047C046001002400C40FF88F6FFF6FEEF
:10361000FFFFFBFFFFFF02FF00ED00E00D488546C6
:10362000002103E00C4B5B58435004310B480C4B1A
:1036300042189A42F6D30B4A02E000231360043288
:10364000094B9A42F9D3FFF7BBFF00F017F8FFF7D9
:10365000DDFAFEE700500020703C0008000000206A
:10366000D4010020D40100206C050020FEE710B535
:103670000A22002100F0D2F810BD000070B500262B
:103680000C4D0D4C641BA410A64209D1002600F07D
:10369000FBF80A4D0A4C641BA410A64205D170BD6C
:1036A000B300EB5898470136EEE7B300EB58984764
:1036B0000136F2E7683C0008683C0008683C0008F6
:1036C0006C3C0008002310B59A4200D110BDCC5CC0
:1036D000C4540133F8E703008218934200D17047C5
:1036E00019700133F9E7020010B51378002B05D1EA
:1036F000CC5CD4540133002CFAD110BD0132F4E774
:10370000031C0A7801311A700133002AF9D170477D
:10371000F0B51F000E0087B00590039102920C983F
:10372000347800F08FF8082200194378751C134094
:103730000CD12D2C0CD101332C780193B51C002F0A
:103740000CD0102F14D1302C0AD011E02E00E6E757
:1037500001932B2CF3D12C78B51CF0E7302C2FD112
:1037600020222B789343582B51D110276C780235A7
:10377000019B294A39009E183000FCF771FD30008A
:1037800004913900FCF7E6FC0121002349420200C4
:103790008C46180021003039092913D80C00A742A3
:1037A0001CDD591C09D06346824206D302D104991C
:1037B000A14202DB0123784320182C780135E9E788
:1037C0000A27D5E721004139192901D8373CE6E716
:1037D00021006139192901D8573CE0E75A1C08D16A
:1037E000059A23331360029B3000002B0BD107B0E6
:1037F000F0BD019A002A00D04042029A002AF6D079
:10380000039A002B00D06A1E029B1A60EFE7302457
:10381000002FADD10837ABE7FFFFFF7F37B51300AF
:10382000064A05001068046A002C00D1044C0A0006
:1038300000942900FFF76CFF3EBDC0460400002045
:1038400068000020EC300068704782B0002900D189
:1038500001A9101E06D0002B06D013780B6010783B
:10386000431E984102B0704702204042FAE70B1E07
:1038700004D0FF2A04D98A2303608B3B18007047C9
:103880000A700123FAE70000F8B5C046F8BC08BC8E
:103890009E467047F8B5C046F8BC08BC9E467047C7
:1038A000415424493D31300D0A00415424493D31F1
:1038B000310D0A00415424563F0D0A00415424534F
:1038C000463D002E2E5C447269766572735C5354DB
:1038D0004D33324C3078785F48414C5F44726976A2
:1038E00065725C5372635C73746D33326C307878DC
:1038F0005F68616C5F6164632E63002E2E5C4472AE
:1039000069766572735C53544D33324C3078785F0E
:1039100048414C5F4472697665725C5372635C73B4
:10392000746D33326C3078785F68616C5F636F728E
:103930007465782E63002E2E5C447269766572730E
:103940005C53544D33324C3078785F48414C5F447F
:1039500072697665725C5372635C73746D33326C3A
:103960003078785F68616C5F6770696F2E63002ED6
:103970002E5C447269766572735C53544D33324CDD
:103980003078785F48414C5F4472697665725C5369
:1039900072635C73746D33326C3078785F68616C1D
:1039A0005F6932632E63002E2E5C44726976657205
:1039B000735C53544D33324C3078785F48414C5FE0
:1039C0004472697665725C5372635C73746D3332F2
:1039D0006C3078785F68616C5F6932635F65782E00
:1039E00063002E2E5C447269766572735C53544D8D
:1039F00033324C3078785F48414C5F447269766569
:103A0000725C5372635C73746D33326C3078785FC0
:103A100068616C5F7263632E63002E2E5C44726972
:103A2000766572735C53544D33324C3078785F480E
:103A3000414C5F4472697665725C5372635C737467
:103A40006D33326C3078785F68616C5F7263635F8E
:103A500065782E6300010402080010101004101095
:103A60001002101010082E2E5C4472697665727375
:103A70005C53544D33324C3078785F48414C5F444E
:103A800072697665725C5372635C73746D33326C09
:103A90003078785F68616C5F756172742E63003096
:103AA0000053544152542050524F4752414D0D0A39
:103AB00000534947464F582049443A20005349474C
:103AC000464F58205041433A2000534947464F58EB
:103AD0002054454D50455241545552453A200053CB
:103AE0004947464F5820564F4C54533A20004154B2
:103AF00024543F0D0A00415424503D300D0A00412A
:103B0000542444523D3930353230303030300D0A93
:103B10000041542449463D39303232303030303063
:103B20000D0A0041542457520D0A004154245243B7
:103B30000D0A00000000000000000001020304065E
:103B40000708090000000001020304030406080C32
:103B5000101820304300504F534958002E000020C9
:103B6000202020202020202028282828282020202D
:103B700020202020202020202020202020202088DD
:103B80001010101010101010101010101010100441
:103B90000404040404040404041010101010101091
:103BA0004141414141410101010101010101010185
:103BB000010101010101010101011010101010109B
:103BC0004242424242420202020202020202020255
:103BD0000202020202020202020210101010200071
:103BE00000000000000000000000000000000000D5
:103BF00000000000000000000000000000000000C5
:103C000000000000000000000000000000000000B4
:103C100000000000000000000000000000000000A4
:103C20000000000000000000000000000000000094
:103C30000000000000000000000000000000000084
:103C40000000000000000000000000000000000074
:103C50000000000000000000000000000000000064
:083C60004CC6FF7F01000000CB
:043C6800E900000867
:043C6C00C10000088B
:103C700000002000080000200000000000000000FC
:103C80000000000000000000000000000000000034
:103C90000000000000000000000000000000000024
:103CA0000000000000000000000000000000000014
:103CB0000000000000000000000000000000000004
:103CC00000000000000000000000000000000000F4
:103CD00000000000000000004300000000000000A1
:103CE00000000000000000000000000000000000D4
:103CF0000000000000000000430000000000000081
:103D000000000000000000000000000000000000B3
:103D10000000000000000000430000000000000060
:103D20000000000000000000000000000000000093
:103D30000000000000000000430000000000000040
:103D40000000000000000000000000000000000073
:103D50000000000000000000430000000000000020
:103D60000000000000000000000000000000000053
:103D70000000000000000000430000000000000000
:103D80000000000000000000000000000000000033
:103D900000000000000000004300000000000000E0
:103DA0000000000000000000000000000000000013
:103DB00000000000000000006F3800084B380008C9
:103DC000000000005E3B00085C3B0008223B00084E
:103DD000223B0008223B0008223B0008223B00084F
:103DE000223B0008223B0008223B0008223B00083F
:103DF000FFFFFFFFFFFFFFFFFFFFFFFFFFFF0000D1
:103E00000100415343494900000000000000000048
:103E100000000000000000000000000000000000A2
:103E20000000415343494900000000000000000029
:103E30000000000000000000000000000000000082
:043E4000000000007E
:040000050800361D9C
:00000001FF
